{
    "_id": {
        "$oid": "5ad44a26ce94cf05c955f860"
    },
    "fee": 9074,
    "id": "28019f3457f20aa0fc06e7bbdcb994352d16206fda0d8e8c905116d5e3ff189b",
    "raw": "01000000000102f45f30fc7026da067cb2953bbba6fd60c4b95b99bb45f57bb52e5c5d5af65a540100000023220020583151b07c8df88a51db6824c1a32b3e0fd0c9a34607d33dd43975bad995334affffffffdcff1bc85f68cb57db3c68a384cdab3bd7b9dd13ce6377071ff23c9177382f3c0100000023220020583151b07c8df88a51db6824c1a32b3e0fd0c9a34607d33dd43975bad995334affffffff02836b0a000000000017a914cf189dd4c62982acb1c8f1b5b0880543f3a6278087d24907000000000017a914f212e488e3c491ca6b06477909394045917e094087040047304402204be342218d5fc6883e0f8f5c85b84a2b81003bbc3b0097d482e93e025a512fd502205d4fa50a741e8bbb36dac3985614996f512f42b81c4c880e94f250dc8457537f014830450221008258748b4f4058635828e3bab6d88d4f055693eb6a1255d1bfd00bcaf3a4f6b102202852b3c29b1aa1a6c212ce025df07120cc9e8696667453bff7e804f9739fd4020147522102179cd699b36821b570300ac42363d43747201f615830288e1dfc98d93a5d9e54210267f6b21406ebea2984f45ebf97a1c8fdce991d5789f6d215cf21c70875cb523552ae040047304402201bd94bf6b8ead1f4adde6b9f036b7cae8f5135d0a16d72b04aea55be8c83bd430220635be09c7cfcf8dd48d65e37e0544676a44904a1d19b03ead373265cc178e02901483045022100e1e5855b53e5ba43030085857c6ac610dff0a9bd5aaf2cca2475d48eeddda37802204bfd9cec574ddbe36f84e9d8bd953e2489feadab803e9260a032bbebdb3b6e670147522102179cd699b36821b570300ac42363d43747201f615830288e1dfc98d93a5d9e54210267f6b21406ebea2984f45ebf97a1c8fdce991d5789f6d215cf21c70875cb523552ae00000000",
    "size": 2664,
    "time": 1523862049,
    "valueOut": 0.01160533,
    "vin": [
        {
            "addr": "3Pkz5eyHuAuTE333pTXhsDL7qxYy4pK7kt",
            "utxo": [
                {
                    "choosen": 1,
                    "confirmations": 2664,
                    "scriptPubKey": "a914f212e488e3c491ca6b06477909394045917e094087",
                    "txid": "545af65a5d5c2eb57bf545bb995bb9c460fda6bb3b95b27c06da2670fc305ff4",
                    "type": "scripthash",
                    "value": 105683,
                    "vout": 1
                },
                {
                    "choosen": 1,
                    "confirmations": 1581,
                    "scriptPubKey": "a914f212e488e3c491ca6b06477909394045917e094087",
                    "txid": "3c2f3877913cf21f077763ce13ddb9d73babcd84a3683cdb57cb685fc81bffdc",
                    "type": "scripthash",
                    "value": 1063924,
                    "vout": 1
                },
                {
                    "choosen": 0,
                    "confirmations": 0,
                    "scriptPubKey": "a914f212e488e3c491ca6b06477909394045917e094087",
                    "txid": "28019f3457f20aa0fc06e7bbdcb994352d16206fda0d8e8c905116d5e3ff189b",
                    "type": "scripthash",
                    "value": 477650,
                    "vout": 1
                },
                {
                    "choosen": 0,
                    "confirmations": 1035,
                    "scriptPubKey": "a914f212e488e3c491ca6b06477909394045917e094087",
                    "txid": "cf55fbf354ad8c9b1be6d45980c733e05895d36374b35838e9575eb25072d88b",
                    "type": "scripthash",
                    "value": 2300000,
                    "vout": 0
                }
            ]
        }
    ],
    "vout": [
        {
            "n": 0,
            "scriptPubKey": {
                "addresses": [
                    "3La3He1qSPotNrdaSY58Bks6nVYgDmxKgh"
                ],
                "asm": "OP_HASH160 cf189dd4c62982acb1c8f1b5b0880543f3a62780 OP_EQUAL",
                "hex": "a914cf189dd4c62982acb1c8f1b5b0880543f3a6278087",
                "type": "scripthash"
            },
            "spentHeight": null,
            "spentIndex": null,
            "spentTxId": null,
            "value": "0.00682883",
            "valueSat": 682883
        },
        {
            "n": 1,
            "scriptPubKey": {
                "addresses": [
                    "3Pkz5eyHuAuTE333pTXhsDL7qxYy4pK7kt"
                ],
                "asm": "OP_HASH160 f212e488e3c491ca6b06477909394045917e0940 OP_EQUAL",
                "hex": "a914f212e488e3c491ca6b06477909394045917e094087",
                "type": "scripthash"
            },
            "spentHeight": null,
            "spentIndex": null,
            "spentTxId": null,
            "value": "0.00477650",
            "valueSat": 477650
        }
    ]
}