{
    "_id": {
        "$oid": "5ad44bfdce94cf05c955f862"
    },
    "fee": 1870,
    "id": "dad0db775831ceed9769b3b07c02ae10317d1d447efe105c9226dd0721ccb2c8",
    "raw": "0100000002b7f0ccf01161d89cf2c63bcd2fa9569602564dbd2085a8d56fc640ae8c9c12a8910000006a47304402200303026985125881bd51ed053b1b1673bae63eceef5f0d3ab20f2004afb06dec02205efe8f74caa62211e72b578d3d5cffdad6c00b51b036a2df8ad0eed925b2f9e5012102c3bedce3fd0fd663bbab63b4d2dc18cb44f669a4832c1ba5c226215beb49ea5dffffffff6678a651fac5bccd7feb8910c4a96133d2ffd1d5d32e7b0826c75e4bd3839eeab30000006a473044022066cd12a7d50a55e0b2f9d71e0e554b6d1998a50ff70ec5cabca297adad822c4c02204a10a4c6100ce54882683276890b443140af1fc74f243076cdccdbc2e681fd8f012102c3bedce3fd0fd663bbab63b4d2dc18cb44f669a4832c1ba5c226215beb49ea5dffffffff0128f00000000000001976a91442049353d063d371eb0a9f7c85f1fd578e8dedbe88ac00000000",
    "size": 1352,
    "time": 1523862520,
    "valueOut": 0.0006148,
    "vin": [
        {
            "addr": "19kfmJZQLBK6wumHUADAozBNa5T33FvnVh",
            "utxo": [
                {
                    "choosen": 1,
                    "confirmations": 17603,
                    "scriptPubKey": "76a91460034044e880dfa88c8dd16e542a0e11fb2f732088ac",
                    "txid": "a8129c8cae40c66fd5a88520bd4d56029656a92fcd3bc6f29cd86111f0ccf0b7",
                    "type": "pubkeyhash",
                    "value": 30234,
                    "vout": 145
                },
                {
                    "choosen": 1,
                    "confirmations": 98,
                    "scriptPubKey": "76a91460034044e880dfa88c8dd16e542a0e11fb2f732088ac",
                    "txid": "ea9e83d34b5ec726087b2ed3d5d1ffd23361a9c41089eb7fcdbcc5fa51a67866",
                    "type": "pubkeyhash",
                    "value": 33116,
                    "vout": 179
                }
            ]
        }
    ],
    "vout": [
        {
            "n": 0,
            "scriptPubKey": {
                "addresses": [
                    "17255aB4qGLraghNcf3ca8fZs2dSRmn8oc"
                ],
                "asm": "OP_DUP OP_HASH160 42049353d063d371eb0a9f7c85f1fd578e8dedbe OP_EQUALVERIFY OP_CHECKSIG",
                "hex": "76a91442049353d063d371eb0a9f7c85f1fd578e8dedbe88ac",
                "type": "pubkeyhash"
            },
            "spentHeight": null,
            "spentIndex": null,
            "spentTxId": null,
            "value": "0.00061480",
            "valueSat": 61480
        }
    ]
}