{
    "_id": {
        "$oid": "5ad44d35ce94cf05c955f863"
    },
    "fee": 3141,
    "id": "8691700e6090128758e758d395798461d827dba6325f306850b771d02b82a63d",
    "raw": "01000000000102b2fd87727fe317199bd3efec6cf71c0f61b071d632e133e3740ce4e7886771770100000023220020673e95b380a3076b0184f53885f525ca21c83b863616e573aabde143efdae255fffffffffcaca2b9289e5be1a61108d874d1d54212ade27d9b8be797881b0d8c7b6e02a70100000023220020673e95b380a3076b0184f53885f525ca21c83b863616e573aabde143efdae255ffffffff027a6c4b00000000001976a914b7f90c7b30d63febc0e9260730aa15e93c07e88e88ac4a3893010000000017a914dfa4ac6389bc8410c19ce2fb0bbc20d1aed2397a8704004830450221009d51d3b215ec863bc363affe8aaf69a116b1265c37461862ea2a80b38d03478902207fe22d497885317811bc3d6c3db37c5f91780ec8c41203db117507c8c204738301473044022061913ad3b87ab993a740d0a9ffae36db3c1218ae84e78b7791a4bd623005146d022034dbfd8e76a72bc971b00b575eaf7cf7141c1bb9c22e7ed21bf0a385afdf89bc014752210396e126f897442e9e3d2170a3e51dacecdcaae88fd8ca2313215fdf4e37ad1ec22103bf7aafd947b4fbbc17a78c874934edbb67134e808162e20c73c111ca8016141152ae0400483045022100c3b5bc6f0e682e246d7d73f120d1b2c11f3986f709447333ad2fbc5fce90cbe102207dbdd9aadfd0579d6cd161b22573fabd6321340b9b3513334eacae61152e069d0147304402205ccf1502e827aa7687a45d773ec8cfdbf894f016aacf1152d50c38d52b02de8f02205e6b8851ac2c2e414aa055bfabfb16e149129e3b59d419bcb8c89d638c0a3c1d014752210396e126f897442e9e3d2170a3e51dacecdcaae88fd8ca2313215fdf4e37ad1ec22103bf7aafd947b4fbbc17a78c874934edbb67134e808162e20c73c111ca8016141152ae00000000",
    "size": 2672,
    "time": 1523862832,
    "valueOut": 0.31368388,
    "vin": [
        {
            "addr": "3N5Xt2gvqH1XrUWukHxDH7834Dj1YwRDDZ",
            "utxo": [
                {
                    "choosen": 1,
                    "confirmations": 9,
                    "scriptPubKey": "a914dfa4ac6389bc8410c19ce2fb0bbc20d1aed2397a87",
                    "txid": "77716788e7e40c74e333e132d671b0610f1cf76cecefd39b1917e37f7287fdb2",
                    "type": "scripthash",
                    "value": 4705939,
                    "vout": 1
                },
                {
                    "choosen": 1,
                    "confirmations": 0,
                    "scriptPubKey": "a914dfa4ac6389bc8410c19ce2fb0bbc20d1aed2397a87",
                    "txid": "a7026e7b8c0d1b8897e78b9b7de2ad1242d5d174d80811a6e15b9e28b9a2acfc",
                    "type": "scripthash",
                    "value": 26665590,
                    "vout": 1
                },
                {
                    "choosen": 0,
                    "confirmations": 0,
                    "scriptPubKey": "a914dfa4ac6389bc8410c19ce2fb0bbc20d1aed2397a87",
                    "txid": "c60e982384e1e73c76866456a62ff246e226eeabc57b1c21ab23f4bb81222fd0",
                    "type": "scripthash",
                    "value": 25187732,
                    "vout": 1
                }
            ]
        }
    ],
    "vout": [
        {
            "n": 0,
            "scriptPubKey": {
                "addresses": [
                    "1Hmm1KKPDUnwzZjRLSRPtVtTYe2KrEE4U3"
                ],
                "asm": "OP_DUP OP_HASH160 b7f90c7b30d63febc0e9260730aa15e93c07e88e OP_EQUALVERIFY OP_CHECKSIG",
                "hex": "76a914b7f90c7b30d63febc0e9260730aa15e93c07e88e88ac",
                "type": "pubkeyhash"
            },
            "spentHeight": null,
            "spentIndex": null,
            "spentTxId": null,
            "value": "0.04942970",
            "valueSat": 4942970
        },
        {
            "n": 1,
            "scriptPubKey": {
                "addresses": [
                    "3N5Xt2gvqH1XrUWukHxDH7834Dj1YwRDDZ"
                ],
                "asm": "OP_HASH160 dfa4ac6389bc8410c19ce2fb0bbc20d1aed2397a OP_EQUAL",
                "hex": "a914dfa4ac6389bc8410c19ce2fb0bbc20d1aed2397a87",
                "type": "scripthash"
            },
            "spentHeight": -1,
            "spentIndex": 0,
            "spentTxId": "c60e982384e1e73c76866456a62ff246e226eeabc57b1c21ab23f4bb81222fd0",
            "value": "0.26425418",
            "valueSat": 26425418
        }
    ]
}