{
    "_id": {
        "$oid": "5ad44e0ece94cf05c955f864"
    },
    "fee": 3740,
    "id": "2d6cf92750e772461320ebf08071377a2151fc164b0d095f1aea0ccfd869a511",
    "raw": "01000000021746db3a3e55874c4d0adb1b05681ea7cbbbbda9772e28d0a1fa386a925d1898050000006b48304502210087473af81767768a4c09c232d4f823b71db7fe7faf8dd060da51d42ce4ea4585022024118499145ad71063af95dea2bff7ef50d564357272dd249c6a8a421b8fd341012102d20b4e80d0eb17a2cb2bf5f26553ce1f5db95b09c6e38a3c377d90feb1a03d4efffffffff0cd3f58b8ad2d5239019b77b3b161889e3d2e9e653f2e7eb31306ce7c38a954020000006a4730440220506860555d6d86d0470b7a37e4daa8af910b21111d1690607ae91a218ac16e6102202b55bdcdde1ede84203fcdcf4ba66ff0c45f07b196cd50d62a7aa50c0d75c2e4012102d20b4e80d0eb17a2cb2bf5f26553ce1f5db95b09c6e38a3c377d90feb1a03d4effffffff02a6b86300000000001976a91432a21370996e4412ca95a4ba6831748102e8886188aca48a4800000000001976a914545d559077ce61c0583f0e4c5fb01cb72233fbd288ac00000000",
    "size": 1492,
    "time": 1523863050,
    "valueOut": 0.11289418,
    "vin": [
        {
            "addr": "1D2CTbfvKATQfsik5qz4xL4sXgs5Fht48u",
            "utxo": [
                {
                    "choosen": 1,
                    "confirmations": 12970,
                    "scriptPubKey": "76a91483db7d920faf2e66a1bf76ee5cf1287fa41a965388ac",
                    "txid": "98185d926a38faa1d0282e77a9bdbbcba71e68051bdb0a4d4c87553e3adb4617",
                    "type": "pubkeyhash",
                    "value": 4757824,
                    "vout": 5
                },
                {
                    "choosen": 1,
                    "confirmations": 971,
                    "scriptPubKey": "76a91483db7d920faf2e66a1bf76ee5cf1287fa41a965388ac",
                    "txid": "54a9387cce0613b37e2e3f659e2e3d9e8861b1b3779b0139522dadb8583fcdf0",
                    "type": "pubkeyhash",
                    "value": 6535334,
                    "vout": 2
                },
                {
                    "choosen": 0,
                    "confirmations": 8418,
                    "scriptPubKey": "76a91483db7d920faf2e66a1bf76ee5cf1287fa41a965388ac",
                    "txid": "37be2238f9147adc7c608b47c37d59bc7adfce7dd12c63f563d195a9bed5fc8c",
                    "type": "pubkeyhash",
                    "value": 50744309,
                    "vout": 2
                }
            ]
        }
    ],
    "vout": [
        {
            "n": 0,
            "scriptPubKey": {
                "addresses": [
                    "15ciwprRpti85YWza3yrZ9pXMZGFHbESaE"
                ],
                "asm": "OP_DUP OP_HASH160 32a21370996e4412ca95a4ba6831748102e88861 OP_EQUALVERIFY OP_CHECKSIG",
                "hex": "76a91432a21370996e4412ca95a4ba6831748102e8886188ac",
                "type": "pubkeyhash"
            },
            "spentHeight": null,
            "spentIndex": null,
            "spentTxId": null,
            "value": "0.06535334",
            "valueSat": 6535334
        },
        {
            "n": 1,
            "scriptPubKey": {
                "addresses": [
                    "18h5a6EDzhEbNUzvFcJX5tFcphxiiMn43D"
                ],
                "asm": "OP_DUP OP_HASH160 545d559077ce61c0583f0e4c5fb01cb72233fbd2 OP_EQUALVERIFY OP_CHECKSIG",
                "hex": "76a914545d559077ce61c0583f0e4c5fb01cb72233fbd288ac",
                "type": "pubkeyhash"
            },
            "spentHeight": null,
            "spentIndex": null,
            "spentTxId": null,
            "value": "0.04754084",
            "valueSat": 4754084
        }
    ]
}