{
    "_id": {
        "$oid": "5ad44f00ce94cf05c955f867"
    },
    "fee": 1254,
    "id": "2aaef349f4f1fff04a89f66655c879d89542ac3dee3a5ccae84c250ef8fb14a2",
    "raw": "0100000000010691ccdbeada9d59de2b7a087e823c9e0c2ba835b46aef50a310f4df3b05ac0929200000001716001486773ebe231c4caa5fecb472d067903fad45e6acffffffff41b49ad4a5a9f249f66e5a827776c04ca57fdacb2603dc83996e327d5ec86954290000001716001486773ebe231c4caa5fecb472d067903fad45e6acffffffff17279d9bbf6d545d2bb9b7bcf18d1f410304536c7bbb320bced0a9cb8c5a076b2a0000001716001486773ebe231c4caa5fecb472d067903fad45e6acffffffff9a5add8223ad6054729c58c640b56bf9e97668e03c595a352a0f4f92574923812f0000001716001486773ebe231c4caa5fecb472d067903fad45e6acffffffff949823ab175004adb59d13b6022f6b1fdfc1b37405a17202b3df15caedce40861f0000001716001486773ebe231c4caa5fecb472d067903fad45e6acffffffff845ba73bf83c2c93749b5c40e69169c78768bbd21e659538c78c7d0c06fc7790280000001716001486773ebe231c4caa5fecb472d067903fad45e6acffffffff02e55300000000000017a914dc7fbc078e83d3cb108f40957681c744cc3577de87d43f18000000000017a914e75366c4550d1d644a9907384578d7430a8800e8870247304402201172212b240ed15712c4506d7c1821f689604a9c3fa0815cb210212247400fcc02207f271fb93c2d9f005d54e2b67e98a1b0cd9d8a63e25f2834b4fc97e79608c92301210340f8c3dad5466427337e51432ed7a81e08cb33b7c355e148ddcf78f66017bbd902483045022100ab2368c9c79a697e1d11edc8820d96ceb086209e06cd77082d836027c7ed686502207e9f6b7a58e902443cfce42e3a035e74cab25698ef701650e5be55fd6decbf6501210340f8c3dad5466427337e51432ed7a81e08cb33b7c355e148ddcf78f66017bbd902483045022100eb9bcddb1613a4efbec17c91f6132265f5753c9581cddeec0efcdabb9376c464022064265dfa55f367601cf2d18450df4a7ab61d396cc2664877cd4e737e21779e5e01210340f8c3dad5466427337e51432ed7a81e08cb33b7c355e148ddcf78f66017bbd9024830450221008e0094a04be634e3c8ccea8b1e925d719a9899d1f52454c3a86d2944a587c9150220051eac4f9aebea2dd885a718217b0c14d01c2b6b97d0c6bb337345cbb3bac6f101210340f8c3dad5466427337e51432ed7a81e08cb33b7c355e148ddcf78f66017bbd902483045022100c881ff27eec22fb6ed34b36832ad2b54462ea5eaa2c9ecb002260720e0a4e74e02207264c1ea15dadf4d171fc8c4315f180ee11c4b401e94a246ffe27c9a6d79d36101210340f8c3dad5466427337e51432ed7a81e08cb33b7c355e148ddcf78f66017bbd9024730440220757cf0426053cfd7e46c9a79ec30bbe9982efe4a51905a486a91be77678e2a1802202b360d6dee33accf420b42941101682048cd9890e80688227c003cf41f43ecfa01210340f8c3dad5466427337e51432ed7a81e08cb33b7c355e148ddcf78f66017bbd900000000",
    "size": 4424,
    "time": 1523863290,
    "valueOut": 0.01610681,
    "vin": [
        {
            "addr": "3Gc1y8nFXWhMQoFyp9fLCMt6CdWhavECcY",
            "utxo": [
                {
                    "choosen": 1,
                    "confirmations": 704,
                    "scriptPubKey": "a914a397d82032bdd9eb1216bdb7d04baa717e03d0c987",
                    "txid": "2909ac053bdff410a350ef6ab435a82b0c9e3c827e087a2bde599ddaeadbcc91",
                    "type": "scripthash",
                    "value": 284551,
                    "vout": 32
                },
                {
                    "choosen": 1,
                    "confirmations": 887,
                    "scriptPubKey": "a914a397d82032bdd9eb1216bdb7d04baa717e03d0c987",
                    "txid": "5469c85e7d326e9983dc0326cbda7fa54cc07677825a6ef649f2a9a5d49ab441",
                    "type": "scripthash",
                    "value": 287949,
                    "vout": 41
                },
                {
                    "choosen": 1,
                    "confirmations": 150,
                    "scriptPubKey": "a914a397d82032bdd9eb1216bdb7d04baa717e03d0c987",
                    "txid": "6b075a8ccba9d0ce0b32bb7b6c530403411f8df1bcb7b92b5d546dbf9b9d2717",
                    "type": "scripthash",
                    "value": 256167,
                    "vout": 42
                },
                {
                    "choosen": 1,
                    "confirmations": 326,
                    "scriptPubKey": "a914a397d82032bdd9eb1216bdb7d04baa717e03d0c987",
                    "txid": "81234957924f0f2a355a593ce06876e9f96bb540c6589c725460ad2382dd5a9a",
                    "type": "scripthash",
                    "value": 227309,
                    "vout": 47
                },
                {
                    "choosen": 1,
                    "confirmations": 311,
                    "scriptPubKey": "a914a397d82032bdd9eb1216bdb7d04baa717e03d0c987",
                    "txid": "8640ceedca15dfb30272a10574b3c1df1f6b2f02b6139db5ad045017ab239894",
                    "type": "scripthash",
                    "value": 295951,
                    "vout": 31
                },
                {
                    "choosen": 1,
                    "confirmations": 852,
                    "scriptPubKey": "a914a397d82032bdd9eb1216bdb7d04baa717e03d0c987",
                    "txid": "9077fc060c7d8cc73895651ed2bb6887c76991e6405c9b74932c3cf83ba75b84",
                    "type": "scripthash",
                    "value": 260008,
                    "vout": 40
                }
            ]
        }
    ],
    "vout": [
        {
            "n": 0,
            "scriptPubKey": {
                "addresses": [
                    "3Mnubtq6b92RwpprU9MbeJxwWDRjKLfkQc"
                ],
                "asm": "OP_HASH160 dc7fbc078e83d3cb108f40957681c744cc3577de OP_EQUAL",
                "hex": "a914dc7fbc078e83d3cb108f40957681c744cc3577de87",
                "type": "scripthash"
            },
            "spentHeight": null,
            "spentIndex": null,
            "spentTxId": null,
            "value": "0.00021477",
            "valueSat": 21477
        },
        {
            "n": 1,
            "scriptPubKey": {
                "addresses": [
                    "3Nn9vgxbMat9vQXCwPR7J9m3ZYJb3bKhjT"
                ],
                "asm": "OP_HASH160 e75366c4550d1d644a9907384578d7430a8800e8 OP_EQUAL",
                "hex": "a914e75366c4550d1d644a9907384578d7430a8800e887",
                "type": "scripthash"
            },
            "spentHeight": null,
            "spentIndex": null,
            "spentTxId": null,
            "value": "0.01589204",
            "valueSat": 1589204
        }
    ]
}