{
    "_id": {
        "$oid": "5ad4503ece94cf05c955f868"
    },
    "fee": 56100,
    "id": "41e8c8b695e94dc14b7be4da30bcd49b131f37f9e25ab336c23255010d77f131",
    "raw": "0100000002b519d002697543f8d3809113cfe846c41a371194cf3a05fab8055e35afcab9ad050000006a4730440220407994efcf650921efc4155d4c3914cf682e7018249b96349ffa4eacc36d7a70022014ea08b1e2a89b58e3a9716edb307febc46241f9f40c04a9bbe6d2eccdfe23e1012102b6754f20b52b5de6f4acc788e1a79b28fd33a94c934a97e1638dc17f5d7a3628ffffffffab7c9a24a64d987f78ef12ae1618386baacbb3456773a0fddfb6ff6198350bf0010000006b483045022100b0ce0e47512fc48ac25fbcacb5f48c633ff9ba59bd032cfd7ebc47197b9e941402203a4a0a56f2fea969bf5bcf69f83acda07e94d0a2e0cecff095428881e895ed77012102b6754f20b52b5de6f4acc788e1a79b28fd33a94c934a97e1638dc17f5d7a3628ffffffff0233300f00000000001976a914eff33df66c4dbdf934260fcbf1dd3650bbb15e6488ac406603010000000017a914fc9260a574682ee3d52756426cb747ff30d2cfc18700000000",
    "size": 1484,
    "time": 1523863609,
    "valueOut": 0.17995379,
    "vin": [
        {
            "addr": "1Nsjtbr5EsdsNMBVbuGLP6QG39k5RUwqpy",
            "utxo": [
                {
                    "choosen": 1,
                    "confirmations": 530,
                    "scriptPubKey": "76a914eff33df66c4dbdf934260fcbf1dd3650bbb15e6488ac",
                    "txid": "adb9caaf355e05b8fa053acf9411371ac446e8cf139180d3f843756902d019b5",
                    "type": "pubkeyhash",
                    "value": 5220379,
                    "vout": 5
                },
                {
                    "choosen": 1,
                    "confirmations": 536,
                    "scriptPubKey": "76a914eff33df66c4dbdf934260fcbf1dd3650bbb15e6488ac",
                    "txid": "f00b359861ffb6dffda0736745b3cbaa6b381816ae12ef787f984da6249a7cab",
                    "type": "pubkeyhash",
                    "value": 12831100,
                    "vout": 1
                },
                {
                    "choosen": 0,
                    "confirmations": 0,
                    "scriptPubKey": "76a914eff33df66c4dbdf934260fcbf1dd3650bbb15e6488ac",
                    "txid": "41e8c8b695e94dc14b7be4da30bcd49b131f37f9e25ab336c23255010d77f131",
                    "type": "pubkeyhash",
                    "value": 995379,
                    "vout": 0
                },
                {
                    "choosen": 0,
                    "confirmations": 1878,
                    "scriptPubKey": "76a914eff33df66c4dbdf934260fcbf1dd3650bbb15e6488ac",
                    "txid": "2b73ed262dc7a32cfba7ec46fc8171ecfcac889f153dafa771c2ae46016fe529",
                    "type": "pubkeyhash",
                    "value": 606,
                    "vout": 0
                },
                {
                    "choosen": 0,
                    "confirmations": 16879,
                    "scriptPubKey": "76a914eff33df66c4dbdf934260fcbf1dd3650bbb15e6488ac",
                    "txid": "20015315e3bdd91f772e9b671ffcdfd4205dcb76b4934dc6af0c181445667ac9",
                    "type": "pubkeyhash",
                    "value": 2202,
                    "vout": 0
                }
            ]
        }
    ],
    "vout": [
        {
            "n": 0,
            "scriptPubKey": {
                "addresses": [
                    "1Nsjtbr5EsdsNMBVbuGLP6QG39k5RUwqpy"
                ],
                "asm": "OP_DUP OP_HASH160 eff33df66c4dbdf934260fcbf1dd3650bbb15e64 OP_EQUALVERIFY OP_CHECKSIG",
                "hex": "76a914eff33df66c4dbdf934260fcbf1dd3650bbb15e6488ac",
                "type": "pubkeyhash"
            },
            "spentHeight": null,
            "spentIndex": null,
            "spentTxId": null,
            "value": "0.00995379",
            "valueSat": 995379
        },
        {
            "n": 1,
            "scriptPubKey": {
                "addresses": [
                    "3QiVZNdVGorqNypui8ACZjqoYx5gVJvsKv"
                ],
                "asm": "OP_HASH160 fc9260a574682ee3d52756426cb747ff30d2cfc1 OP_EQUAL",
                "hex": "a914fc9260a574682ee3d52756426cb747ff30d2cfc187",
                "type": "scripthash"
            },
            "spentHeight": null,
            "spentIndex": null,
            "spentTxId": null,
            "value": "0.17000000",
            "valueSat": 17000000
        }
    ]
}