{
    "_id": {
        "$oid": "5ad4519cce94cf05c955f86b"
    },
    "fee": 1870,
    "id": "58a4e5c23b7d96753a33252086d84322406aac56c1c16340d7d056b2c619efcc",
    "raw": "010000000270bc1d8ae963a1bbdd57bfc6193c2aae8600cc517c8700630e685cddb9623156000000006a47304402205e0b284765e9c782eb5ea29a0061adcfc6613a33b5789b5e53b6f4da5a5ccf97022043732e60f374ef6ad7cdb3e2057db9245d51d1091a814aebb39253724d8c10dd012103667df129b31783eaea87adcfc657ad8a4808252113fc45c2b1a224af37f8fa89ffffffff66c2b455b461e77f8521d0876ae7ba103c960b4b4a4e5686d15af45664424dea000000006a47304402206c05ced097110a9788a4982fe3c32dab640c3e465e282a4165f6689ac534e03b0220152af1073dac92b5277b7f5fb1d511d6f4ae1e2b007a520ae1a7f69c9ce05593012103667df129b31783eaea87adcfc657ad8a4808252113fc45c2b1a224af37f8fa89ffffffff02cd2e0000000000001976a914fba08b23eba8792f90451a60186eeb1030d807bb88acefe30b00000000001976a91401d8aaf49fb364dc39f5c1fa5be28152d1e32abc88ac00000000",
    "size": 1488,
    "time": 1523863959,
    "valueOut": 0.00791228,
    "vin": [
        {
            "addr": "1PwUvuhLXUSfsxWFd9uX3mfPktvDM79wdh",
            "utxo": [
                {
                    "choosen": 1,
                    "confirmations": 487,
                    "scriptPubKey": "76a914fba08b23eba8792f90451a60186eeb1030d807bb88ac",
                    "txid": "563162b9dd5c680e6300877c51cc0086ae2a3c19c6bf57ddbba163e98a1dbc70",
                    "type": "pubkeyhash",
                    "value": 497059,
                    "vout": 0
                },
                {
                    "choosen": 1,
                    "confirmations": 1496,
                    "scriptPubKey": "76a914fba08b23eba8792f90451a60186eeb1030d807bb88ac",
                    "txid": "ea4d426456f45ad186564e4a4b0b963c10bae76a87d021857fe761b455b4c266",
                    "type": "pubkeyhash",
                    "value": 296039,
                    "vout": 0
                },
                {
                    "choosen": 0,
                    "confirmations": 0,
                    "scriptPubKey": "76a914fba08b23eba8792f90451a60186eeb1030d807bb88ac",
                    "txid": "58a4e5c23b7d96753a33252086d84322406aac56c1c16340d7d056b2c619efcc",
                    "type": "pubkeyhash",
                    "value": 11981,
                    "vout": 0
                },
                {
                    "choosen": 0,
                    "confirmations": 3206,
                    "scriptPubKey": "76a914fba08b23eba8792f90451a60186eeb1030d807bb88ac",
                    "txid": "0ab74c034420062920de4439360dac8e2f1880db1464b0c678a94e9a9ed47995",
                    "type": "pubkeyhash",
                    "value": 1810,
                    "vout": 0
                },
                {
                    "choosen": 0,
                    "confirmations": 43947,
                    "scriptPubKey": "76a914fba08b23eba8792f90451a60186eeb1030d807bb88ac",
                    "txid": "018855db007c1659e8dd07567a2dd4a8056c81020250f5fc33c04021050db246",
                    "type": "pubkeyhash",
                    "value": 3178,
                    "vout": 0
                },
                {
                    "choosen": 0,
                    "confirmations": 59528,
                    "scriptPubKey": "76a914fba08b23eba8792f90451a60186eeb1030d807bb88ac",
                    "txid": "fd7362e47877e819707268bf9e36f3f298ee553d09de2c6764437cf16e5faf12",
                    "type": "pubkeyhash",
                    "value": 732,
                    "vout": 0
                }
            ]
        }
    ],
    "vout": [
        {
            "n": 0,
            "scriptPubKey": {
                "addresses": [
                    "1PwUvuhLXUSfsxWFd9uX3mfPktvDM79wdh"
                ],
                "asm": "OP_DUP OP_HASH160 fba08b23eba8792f90451a60186eeb1030d807bb OP_EQUALVERIFY OP_CHECKSIG",
                "hex": "76a914fba08b23eba8792f90451a60186eeb1030d807bb88ac",
                "type": "pubkeyhash"
            },
            "spentHeight": null,
            "spentIndex": null,
            "spentTxId": null,
            "value": "0.00011981",
            "valueSat": 11981
        },
        {
            "n": 1,
            "scriptPubKey": {
                "addresses": [
                    "1AmEXyun5GBpjisFacy1aE5ozN71vd3wj"
                ],
                "asm": "OP_DUP OP_HASH160 01d8aaf49fb364dc39f5c1fa5be28152d1e32abc OP_EQUALVERIFY OP_CHECKSIG",
                "hex": "76a91401d8aaf49fb364dc39f5c1fa5be28152d1e32abc88ac",
                "type": "pubkeyhash"
            },
            "spentHeight": null,
            "spentIndex": null,
            "spentTxId": null,
            "value": "0.00779247",
            "valueSat": 779247
        }
    ]
}