{
    "_id": {
        "$oid": "5ad45353ce94cf05c955f86d"
    },
    "fee": 52200,
    "id": "df300a8d09ae6839c0e8e4e914bc6843892a7e42e9dca5639f3d7383be70b336",
    "raw": "01000000036764a1b1ce2aa38e8725685d5fd73d1724b90cd5147fcad4431ad6ea4f719574000000006a47304402201036cebcf7457279652acf71fb25a9e64bc228db24e20bb082e16d2f4bdd756c022005c51c9c83cc4dc309c62a7c4527041e01a96973445a335786a08896dc3abc2a012102a7cff439412fcb8fc0c9ecc3ee0db2f2b5ed019e987b899a850d9b0e5872f205fdffffff467b1b5efa41b7b0c08c1572123a2c1094e7bc0f79cc6734b437f36ed61dc28a010000006a47304402205d54db0e5b00e188c78f247da9abeb5453061e477d030b9fd1fa0d0744337260022048ca76e82673d8af9901c87c0d97cb5545f0053b1508a67435ddc531b28f1b48012102a7cff439412fcb8fc0c9ecc3ee0db2f2b5ed019e987b899a850d9b0e5872f205fdffffff77bcb2791779f442035fe7d0763418d25287172e63897456f40e6bce528113a9010000006b483045022100f217c4c6f946a8b2a50a2ce7471b0774e0d57276110b7846395274be4afc8e3a022060596c7fd0644dd861112a1cc43d2ec0ea7ae9c6676fad859346041361963a1c012102a7cff439412fcb8fc0c9ecc3ee0db2f2b5ed019e987b899a850d9b0e5872f205fdffffff0222550200000000001976a9145af6cf7385cbc264087c256ee0610217d96e47f188ac4a9b0b00000000001976a91411d7819bdbb2e014324ee04973b8d1a30c1a57e888ac29e90700",
    "size": 2080,
    "time": 1523864398,
    "valueOut": 0.00913516,
    "vin": [
        {
            "addr": "1DLseBdvS3oAwJcZeJeZMSGoLunCwY64o6",
            "utxo": [
                {
                    "choosen": 1,
                    "confirmations": 808,
                    "scriptPubKey": "76a9148763af8c51817797bd72fb51d89109cd8329217e88ac",
                    "txid": "7495714fead61a43d4ca7f14d50cb924173dd75f5d6825878ea32aceb1a16467",
                    "type": "pubkeyhash",
                    "value": 360398,
                    "vout": 0
                },
                {
                    "choosen": 1,
                    "confirmations": 6575,
                    "scriptPubKey": "76a9148763af8c51817797bd72fb51d89109cd8329217e88ac",
                    "txid": "8ac21dd66ef337b43467cc790fbce794102c3a1272158cc0b0b741fa5e1b7b46",
                    "type": "pubkeyhash",
                    "value": 382807,
                    "vout": 1
                },
                {
                    "choosen": 1,
                    "confirmations": 8488,
                    "scriptPubKey": "76a9148763af8c51817797bd72fb51d89109cd8329217e88ac",
                    "txid": "a9138152ce6b0ef4567489632e178752d2183476d0e75f0342f4791779b2bc77",
                    "type": "pubkeyhash",
                    "value": 222511,
                    "vout": 1
                }
            ]
        }
    ],
    "vout": [
        {
            "n": 0,
            "scriptPubKey": {
                "addresses": [
                    "19HyUx3FAqtZEizt8Lb2a8rcnRnxW1i6Xr"
                ],
                "asm": "OP_DUP OP_HASH160 5af6cf7385cbc264087c256ee0610217d96e47f1 OP_EQUALVERIFY OP_CHECKSIG",
                "hex": "76a9145af6cf7385cbc264087c256ee0610217d96e47f188ac",
                "type": "pubkeyhash"
            },
            "spentHeight": null,
            "spentIndex": null,
            "spentTxId": null,
            "value": "0.00152866",
            "valueSat": 152866
        },
        {
            "n": 1,
            "scriptPubKey": {
                "addresses": [
                    "12dLeuDVrBhQ2aNrYJD6ojdijnK1yjhaW9"
                ],
                "asm": "OP_DUP OP_HASH160 11d7819bdbb2e014324ee04973b8d1a30c1a57e8 OP_EQUALVERIFY OP_CHECKSIG",
                "hex": "76a91411d7819bdbb2e014324ee04973b8d1a30c1a57e888ac",
                "type": "pubkeyhash"
            },
            "spentHeight": null,
            "spentIndex": null,
            "spentTxId": null,
            "value": "0.00760650",
            "valueSat": 760650
        }
    ]
}