{
    "_id": {
        "$oid": "5ad45aac4c372215dd13d61c"
    },
    "fee": 10960,
    "id": "5de987f0dcbd962d9dd21698f4f81c9d05f961177fa9b24f3155ad40f4c9f26b",
    "raw": "010000000341e7eb2258975b1548cde60f5e378a1b7ad8ce64983ba5e1e55b46a572c9ba20000000006b483045022100cb8c9de23a3730af1db54f82f1d93ef29e1c25c6e199c7a6f90bbb359e003cea02200bdeeaf1fb414a32f9a6c93d848e0f7d14eb24209869bccc5b737fe7a1d77a9c01210366b35825c21e0af2a090130b1aa311105d8590d3fe3e8fb37863c18cdd3744bbffffffff16432aef5a62d1faefdfcb9063fee1f41a73197cf1ba58d14521f8fb30f49db7000000006b4830450221008d7fb3e3c19d361012cff213622a10e2d35689c7d07e2dbad3f5181f5d54123302203d3f1f1f1d2fa664ea82506ca0d621a8071ced1e1e50dc7a16b2fbea1501fd6601210366b35825c21e0af2a090130b1aa311105d8590d3fe3e8fb37863c18cdd3744bbffffffffa11fa1dc52be433dbc8a512a3ac53259172cc2e5574b8ed2928a811e3e9cdde0000000006b483045022100d52eabef8c580b86db94c378885cc0bf4e62353a59b8aefc04805834a7352c9302200828ae32b6eedc0bcd00aefc06f7dc4c446337e270d7de30bc8be16a1a354fa901210366b35825c21e0af2a090130b1aa311105d8590d3fe3e8fb37863c18cdd3744bbffffffff01405920000000000017a91442f732e5f12f7c68af822f29a603e13702edcc8a8700000000",
    "size": 1944,
    "time": 1523866279,
    "valueOut": 0.0212,
    "vin": [
        {
            "addr": "1H1nyXxEaWpMQXr8sq4CpbxcRxPAAD6cRC",
            "utxo": [
                {
                    "choosen": 1,
                    "confirmations": 2,
                    "scriptPubKey": "76a914afa863eade9f826774af83304c0408721117178988ac",
                    "txid": "20bac972a5465be5e1a53b9864ced87a1b8a375e0fe6cd48155b975822ebe741",
                    "type": "pubkeyhash",
                    "value": 2120000,
                    "vout": 0
                },
                {
                    "choosen": 1,
                    "confirmations": 474,
                    "scriptPubKey": "76a914afa863eade9f826774af83304c0408721117178988ac",
                    "txid": "b79df430fbf82145d158baf17c19731af4e1fe6390cbdfeffad1625aef2a4316",
                    "type": "pubkeyhash",
                    "value": 5480,
                    "vout": 0
                },
                {
                    "choosen": 1,
                    "confirmations": 163,
                    "scriptPubKey": "76a914afa863eade9f826774af83304c0408721117178988ac",
                    "txid": "e0dd9c3e1e818a92d28e4b57e5c22c175932c53a2a518abc3d43be52dca11fa1",
                    "type": "pubkeyhash",
                    "value": 5480,
                    "vout": 0
                },
                {
                    "choosen": 0,
                    "confirmations": 924,
                    "scriptPubKey": "76a914afa863eade9f826774af83304c0408721117178988ac",
                    "txid": "1c7e1b7a1f1381cc93ffb707fed19d4c3f3e75f3d93f330784cae8d88a358185",
                    "type": "pubkeyhash",
                    "value": 1452,
                    "vout": 0
                },
                {
                    "choosen": 0,
                    "confirmations": 2452,
                    "scriptPubKey": "76a914afa863eade9f826774af83304c0408721117178988ac",
                    "txid": "75257b19bcc5209400b7b7c09a656397b863fc502b5c93b5fd8514415cf6bf7a",
                    "type": "pubkeyhash",
                    "value": 2520,
                    "vout": 0
                },
                {
                    "choosen": 0,
                    "confirmations": 2727,
                    "scriptPubKey": "76a914afa863eade9f826774af83304c0408721117178988ac",
                    "txid": "8332775b66a19bb3a386e6f304a931b3e4c35f5173d3ad6ca2276e960245f2a3",
                    "type": "pubkeyhash",
                    "value": 2480,
                    "vout": 0
                },
                {
                    "choosen": 0,
                    "confirmations": 3569,
                    "scriptPubKey": "76a914afa863eade9f826774af83304c0408721117178988ac",
                    "txid": "523c3321427fd0e658bdeb1e06cd423f0320f649524fa3a82b8cc9a5cab8aff0",
                    "type": "pubkeyhash",
                    "value": 2182,
                    "vout": 0
                }
            ]
        }
    ],
    "vout": [
        {
            "n": 0,
            "scriptPubKey": {
                "addresses": [
                    "37o6esynB6iSoWHc9q17EZWhCV8wdp1jnF"
                ],
                "asm": "OP_HASH160 42f732e5f12f7c68af822f29a603e13702edcc8a OP_EQUAL",
                "hex": "a91442f732e5f12f7c68af822f29a603e13702edcc8a87",
                "type": "scripthash"
            },
            "spentHeight": null,
            "spentIndex": null,
            "spentTxId": null,
            "value": "0.02120000",
            "valueSat": 2120000
        }
    ]
}