{
    "_id": {
        "$oid": "5ad45bc64c372215dd13d61d"
    },
    "fee": 1870,
    "id": "7a8d40bc470471ec786636a56d8d503025be1e454c61bfd9d80f176124246445",
    "raw": "0100000002c2d5546a2b8839ca87c79cd88d47276342c00d26e3e82f41276ef4d21edf344a000000006b4830450221009eec572f0db188ee1d2fe03a143e05aa35cf65a956334a35354cbc8cbbbbc12202201d9b1ee7dd7f91815d95c77f18d1e5b137e09a53bb016ae2a89dbe913be5779b012102d60c7e7f5fe58fc83fe61ded7a5e101f94384c861780df364692aa7fd54a319bffffffffef5ff4ac5b5ddb0a56aaecec69925030f6679bd8057e492d77a8c2011974509a010000006b483045022100a71723f3b51a1a5cd4262d4b4d9b7b05196a41e56218255a7140da92e121676402205604d6850d3fa9857172293751d355be7f7efd6cd262d20610926b592db32a3a012102d60c7e7f5fe58fc83fe61ded7a5e101f94384c861780df364692aa7fd54a319bffffffff0246981d00000000001976a9148b332cfe1eeb31c17103e672ac7fc06e4e0f69ae88ace02d92000000000017a9141405456343a78aef02827e87ef9f72a394b515d58700000000",
    "size": 1488,
    "time": 1523866561,
    "valueOut": 0.11519526,
    "vin": [
        {
            "addr": "12XvGfibYbqMknkyxNioJtNdHnrUq1vCba",
            "utxo": [
                {
                    "choosen": 1,
                    "confirmations": 256,
                    "scriptPubKey": "76a91410d112826bc210f1ba28713bae9da370be518ee088ac",
                    "txid": "4a34df1ed2f46e27412fe8e3260dc0426327478dd89cc787ca39882b6a54d5c2",
                    "type": "pubkeyhash",
                    "value": 7017860,
                    "vout": 0
                },
                {
                    "choosen": 1,
                    "confirmations": 252,
                    "scriptPubKey": "76a91410d112826bc210f1ba28713bae9da370be518ee088ac",
                    "txid": "9a50741901c2a8772d497e05d89b67f630509269ececaa560adb5d5bacf45fef",
                    "type": "pubkeyhash",
                    "value": 4503536,
                    "vout": 1
                },
                {
                    "choosen": 0,
                    "confirmations": 254,
                    "scriptPubKey": "76a91410d112826bc210f1ba28713bae9da370be518ee088ac",
                    "txid": "7681eef11a9e1439c0d348c156dbb1516d138516fa8d090d548b94978a2081d3",
                    "type": "pubkeyhash",
                    "value": 3738147,
                    "vout": 1
                }
            ]
        }
    ],
    "vout": [
        {
            "n": 0,
            "scriptPubKey": {
                "addresses": [
                    "1Dh2ERFLKHLibVtd3i7peFYKRnyvmubWfb"
                ],
                "asm": "OP_DUP OP_HASH160 8b332cfe1eeb31c17103e672ac7fc06e4e0f69ae OP_EQUALVERIFY OP_CHECKSIG",
                "hex": "76a9148b332cfe1eeb31c17103e672ac7fc06e4e0f69ae88ac",
                "type": "pubkeyhash"
            },
            "spentHeight": null,
            "spentIndex": null,
            "spentTxId": null,
            "value": "0.01939526",
            "valueSat": 1939526
        },
        {
            "n": 1,
            "scriptPubKey": {
                "addresses": [
                    "33Wskcrk9rSF2QtCPjMRim5KYx1xyWKNuM"
                ],
                "asm": "OP_HASH160 1405456343a78aef02827e87ef9f72a394b515d5 OP_EQUAL",
                "hex": "a9141405456343a78aef02827e87ef9f72a394b515d587",
                "type": "scripthash"
            },
            "spentHeight": null,
            "spentIndex": null,
            "spentTxId": null,
            "value": "0.09580000",
            "valueSat": 9580000
        }
    ]
}