{
    "_id": {
        "$oid": "5ad45dbb4c372215dd13d61e"
    },
    "fee": 15860,
    "id": "221e0924b5e71edd6cbfe87a370145223548f4787e791ee13f08c849632fd24a",
    "raw": "0100000002c89f53a33dd8b1bcf053849ed3e5b51906d593c0496eeeedb77bd0ed8498a20401000000db00483045022100bf09aeca42ad18e3070773947bd294799ad0aa2c84ac833d32cf3c45051c3339022046cc6df9880a9c1dabb0dd2c47b3a9fc19fe8f31121df0223c1c78a336e9b146014830450221009bfac6c1ed05ba486b746116c164cef7c58cb05688bac0f077a90b7de22d9dca02202b0384514235e6fec845c42ac3fcd85adf61b74b18383861ea57d7b63fbf795d0147522103292db12d7c3b4f5b32d70c78d483f0c5d7d66b09748206d194aa2b78ce9fa8eb210327b06310bbeb2482a81a12f6c8277beee68442b0ccc59f460bfb5a63357615b352aeffffffff07bd8970973b0d0796b5793c47ea0eb46d5e9d323edebe34f432bfc6af83d02309000000da00483045022100b04909ca84767f66790b95419484029c06dd8de6380877bb84d772c690eda84e02205eba665bd61f960a22022d901a21eb74052370b0823e72b702c33db7b7d8625e01473044022063839126a4d147f698b3c34591eee7d96029726047dd882a7063219656f3eba80220412a015c908b88d97c23d101fe3739a134e7b6a184f5b3d321d258d04e5107350147522103292db12d7c3b4f5b32d70c78d483f0c5d7d66b09748206d194aa2b78ce9fa8eb210327b06310bbeb2482a81a12f6c8277beee68442b0ccc59f460bfb5a63357615b352aeffffffff02106549000000000017a914964f116e0f9b20f01044b848042cd0d256d45d2b87d4541a000000000017a9144a5ad01aec0cd6fb403fee9f485fc55ad54ae9a88700000000",
    "size": 2372,
    "time": 1523867062,
    "valueOut": 0.06535652,
    "vin": [
        {
            "addr": "38UAiXk5q1FcaYWnSJoYPmmt7SF5F8WqRy",
            "utxo": [
                {
                    "choosen": 1,
                    "confirmations": 740,
                    "scriptPubKey": "a9144a5ad01aec0cd6fb403fee9f485fc55ad54ae9a887",
                    "txid": "04a29884edd07bb7edee6e49c093d50619b5e5d39e8453f0bcb1d83da3539fc8",
                    "type": "scripthash",
                    "value": 2509783,
                    "vout": 1
                },
                {
                    "choosen": 1,
                    "confirmations": 7,
                    "scriptPubKey": "a9144a5ad01aec0cd6fb403fee9f485fc55ad54ae9a887",
                    "txid": "23d083afc6bf32f434bede3e329d5e6db40eea473c79b596070d3b977089bd07",
                    "type": "scripthash",
                    "value": 4041729,
                    "vout": 9
                },
                {
                    "choosen": 0,
                    "confirmations": 0,
                    "scriptPubKey": "a9144a5ad01aec0cd6fb403fee9f485fc55ad54ae9a887",
                    "txid": "221e0924b5e71edd6cbfe87a370145223548f4787e791ee13f08c849632fd24a",
                    "type": "scripthash",
                    "value": 1725652,
                    "vout": 1
                }
            ]
        }
    ],
    "vout": [
        {
            "n": 0,
            "scriptPubKey": {
                "addresses": [
                    "3FPn14jejipYjCTfmYvnFeGaJgQshVUUsQ"
                ],
                "asm": "OP_HASH160 964f116e0f9b20f01044b848042cd0d256d45d2b OP_EQUAL",
                "hex": "a914964f116e0f9b20f01044b848042cd0d256d45d2b87",
                "type": "scripthash"
            },
            "spentHeight": null,
            "spentIndex": null,
            "spentTxId": null,
            "value": "0.04810000",
            "valueSat": 4810000
        },
        {
            "n": 1,
            "scriptPubKey": {
                "addresses": [
                    "38UAiXk5q1FcaYWnSJoYPmmt7SF5F8WqRy"
                ],
                "asm": "OP_HASH160 4a5ad01aec0cd6fb403fee9f485fc55ad54ae9a8 OP_EQUAL",
                "hex": "a9144a5ad01aec0cd6fb403fee9f485fc55ad54ae9a887",
                "type": "scripthash"
            },
            "spentHeight": null,
            "spentIndex": null,
            "spentTxId": null,
            "value": "0.01725652",
            "valueSat": 1725652
        }
    ]
}