{
    "_id": {
        "$oid": "5ad45f554c372215dd13d620"
    },
    "fee": 1114,
    "id": "113c32c83adb4ddb5408eb116542e5104c44bca02f3bfed6b21805bc944dfb34",
    "raw": "0100000007668661cdb98410fa84fafa239d8d4220db71082c5246b5a53653c5c8c694750ecf0200006b483045022100ef5a2d87c6c889d0a3c434904a053e11d59618e9c45c5c5bee5e17b43a55100a022033972b22b031b4d60a54e8b8c83ea3bbfa839dd185ab648f8eb85938ef05733e01210392d99165e36730620723cc8a7be6c6bb49c6c9bb8215b7ca19d5d0111873caa6fdfffffff0668f63d2f669a75273ede03d3944d684571fbf0b83d24ee1087862b0abf988010000006b483045022100bb67556716514c38a970862eeacc29ff496b8159e201e6509b14c843df35424f02201d776adf6aaf5233e84003227a7c40f96b7da46c5b471e16e34afb35280f42a401210392d99165e36730620723cc8a7be6c6bb49c6c9bb8215b7ca19d5d0111873caa6fdffffff3aa7ab22c8730ccfb2bd242cf04bb92b9a9a7b0d1dbb841db84e7bb9ea56e8a1f90100006a47304402201af780a8714f1e1c67301278fa58df286d80fdbb26ea88348a2d232fda4ba13802207aa8b9e37c45eea44fbb530a00ed892fa8e3a254d1617cd8de547caf0142480c01210392d99165e36730620723cc8a7be6c6bb49c6c9bb8215b7ca19d5d0111873caa6fdffffff846d5139a15b54eb7cdc394e91cf131119327c7c59a4b7a2d24db9987bfdd4c2000400006a4730440220358f34807c862a53fd0b69b429317ba00789ba8d597068c80ffde13f9e71c39f022014ebba1bd65b2818cd38b9bc9c0002ec41ee8abf075bf2f629447635009cdf9e01210392d99165e36730620723cc8a7be6c6bb49c6c9bb8215b7ca19d5d0111873caa6fdffffff218420af5f1114028f5ead83cb6635a7d3d0d29363365166e13ee21583cc5cc80d0200006b483045022100937afdd8cdfda963b2bf5de0fccdef46f4533dc05a97930cdac1b4bcf9c5a9a702206dd089546dea61cef19d832c867e20741d62d215df7fd93060670a29e93df4dc01210392d99165e36730620723cc8a7be6c6bb49c6c9bb8215b7ca19d5d0111873caa6fdffffff59a3a8bea14a5307dcb282e7d97021ca1654a5f272c5e169d79db67561dd2ae3950000006b48304502210084fe6f2807465cb47df17c6e519f08000230dee313abb87e55df3d0041c2144702201c220bcf83c56f2152dd9a01b63417f660d0a87c2038d4bd7a675ff7dcc66faf01210392d99165e36730620723cc8a7be6c6bb49c6c9bb8215b7ca19d5d0111873caa6fdffffff07f1937dc232558f6411db7ff9e54ec9b8d1c64093a76063965dba016bde46e43e0100006b4830450221008630ea2bfed1d0107a717df460e88ae6a4981197fce951a9e66d2ebc92fb8daf02203571501f2241bbe44de78bf1f2d5097b43966f50c72dec10ef1161189b63d29d01210392d99165e36730620723cc8a7be6c6bb49c6c9bb8215b7ca19d5d0111873caa6fdffffff02c0270900000000001976a9140eff0608b628a9e2b295936007218355fa616c3088ac65978300000000001976a914af106dce99766a2ceeca6d4b053f3e8064d680c388ac2ee90700",
    "size": 4448,
    "time": 1523867467,
    "valueOut": 0.09223973,
    "vin": [
        {
            "addr": "1Gxew5DPkmPA6VVW5wouFmDbKMSv9qcW5W",
            "utxo": [
                {
                    "choosen": 1,
                    "confirmations": 53,
                    "scriptPubKey": "76a914af106dce99766a2ceeca6d4b053f3e8064d680c388ac",
                    "txid": "0e7594c6c8c55336a5b546522c0871db20428d9d23fafa84fa1084b9cd618666",
                    "type": "pubkeyhash",
                    "value": 264100,
                    "vout": 719
                },
                {
                    "choosen": 1,
                    "confirmations": 4302,
                    "scriptPubKey": "76a914af106dce99766a2ceeca6d4b053f3e8064d680c388ac",
                    "txid": "88f9abb0627808e14ed2830bbf1f5784d644393de0ed7352a769f6d2638f66f0",
                    "type": "pubkeyhash",
                    "value": 6037548,
                    "vout": 1
                },
                {
                    "choosen": 1,
                    "confirmations": 2404,
                    "scriptPubKey": "76a914af106dce99766a2ceeca6d4b053f3e8064d680c388ac",
                    "txid": "a1e856eab97b4eb81d84bb1d0d7b9a9a2bb94bf02c24bdb2cf0c73c822aba73a",
                    "type": "pubkeyhash",
                    "value": 300700,
                    "vout": 505
                },
                {
                    "choosen": 1,
                    "confirmations": 3138,
                    "scriptPubKey": "76a914af106dce99766a2ceeca6d4b053f3e8064d680c388ac",
                    "txid": "c2d4fd7b98b94dd2a2b7a4597c7c32191113cf914e39dc7ceb545ba139516d84",
                    "type": "pubkeyhash",
                    "value": 258200,
                    "vout": 1024
                },
                {
                    "choosen": 1,
                    "confirmations": 1300,
                    "scriptPubKey": "76a914af106dce99766a2ceeca6d4b053f3e8064d680c388ac",
                    "txid": "c85ccc8315e23ee16651366393d2d0d3a73566cb83ad5e8f0214115faf208421",
                    "type": "pubkeyhash",
                    "value": 276800,
                    "vout": 525
                },
                {
                    "choosen": 1,
                    "confirmations": 1398,
                    "scriptPubKey": "76a914af106dce99766a2ceeca6d4b053f3e8064d680c388ac",
                    "txid": "e32add6175b69dd769e1c572f2a55416ca2170d9e782b2dc07534aa1bea8a359",
                    "type": "pubkeyhash",
                    "value": 1678139,
                    "vout": 149
                },
                {
                    "choosen": 1,
                    "confirmations": 3715,
                    "scriptPubKey": "76a914af106dce99766a2ceeca6d4b053f3e8064d680c388ac",
                    "txid": "e446de6b01ba5d966360a79340c6d1b8c94ee5f97fdb11648f5532c27d93f107",
                    "type": "pubkeyhash",
                    "value": 409600,
                    "vout": 318
                },
                {
                    "choosen": 0,
                    "confirmations": 0,
                    "scriptPubKey": "76a914af106dce99766a2ceeca6d4b053f3e8064d680c388ac",
                    "txid": "113c32c83adb4ddb5408eb116542e5104c44bca02f3bfed6b21805bc944dfb34",
                    "type": "pubkeyhash",
                    "value": 8623973,
                    "vout": 1
                }
            ]
        }
    ],
    "vout": [
        {
            "n": 0,
            "scriptPubKey": {
                "addresses": [
                    "12NHy2yB9dHSBgWLqN69CtGgUnDwHrcckY"
                ],
                "asm": "OP_DUP OP_HASH160 0eff0608b628a9e2b295936007218355fa616c30 OP_EQUALVERIFY OP_CHECKSIG",
                "hex": "76a9140eff0608b628a9e2b295936007218355fa616c3088ac",
                "type": "pubkeyhash"
            },
            "spentHeight": null,
            "spentIndex": null,
            "spentTxId": null,
            "value": "0.00600000",
            "valueSat": 600000
        },
        {
            "n": 1,
            "scriptPubKey": {
                "addresses": [
                    "1Gxew5DPkmPA6VVW5wouFmDbKMSv9qcW5W"
                ],
                "asm": "OP_DUP OP_HASH160 af106dce99766a2ceeca6d4b053f3e8064d680c3 OP_EQUALVERIFY OP_CHECKSIG",
                "hex": "76a914af106dce99766a2ceeca6d4b053f3e8064d680c388ac",
                "type": "pubkeyhash"
            },
            "spentHeight": null,
            "spentIndex": null,
            "spentTxId": null,
            "value": "0.08623973",
            "valueSat": 8623973
        }
    ]
}