{
    "_id": {
        "$oid": "5ad4601c4c372215dd13d622"
    },
    "fee": 1870,
    "id": "a8960ef50ea0ed0b3e17512f1afe661f5184d091006dc56f3c55849db9b78e57",
    "raw": "0100000002c598b120b321a4f849eed72cbd5418fa7d62b6c9848366ddfc393c3ace7904e6b70000006b483045022100e69ece6952748b5b147d682b5931ed924d29851e92d6760dba425b192449a45602204c341f8539c4bf5c03fe93d4818c1d7cd44383d0150a5af28761fc5052efa066012103fab7773a2b53c5e352e4b6a3427d22c2ccde3795c5819d8e7b6ca1fc36de69f8ffffffff6d7e74bf04d617bd6d71a753eb948a5c822a4f8bc8f997294aa9968abe887cefff0000006b483045022100bcaf1be02019c9ec978c931cfa64e5d40d1946beb3f46f482aa39d305c97728702200d5bc6b9b64d16d89dd7545210a87d9c8b49d26c6d13ab138d0e05d7f1446fff012103fab7773a2b53c5e352e4b6a3427d22c2ccde3795c5819d8e7b6ca1fc36de69f8ffffffff01245b6200000000001976a9146b460931a3c456a0e50a9377be4cd134baf2836988ac00000000",
    "size": 1360,
    "time": 1523867670,
    "valueOut": 0.0644586,
    "vin": [
        {
            "addr": "13jYKmdHvUx55NfXegi9nCpveMRsmWehEW",
            "utxo": [
                {
                    "choosen": 1,
                    "confirmations": 1930,
                    "scriptPubKey": "76a9141dfbde9dd7519966e57961d9c8dae2f733d46b3888ac",
                    "txid": "e60479ce3a3c39fcdd668384c9b6627dfa1854bd2cd7ee49f8a421b320b198c5",
                    "type": "pubkeyhash",
                    "value": 3223865,
                    "vout": 183
                },
                {
                    "choosen": 1,
                    "confirmations": 1933,
                    "scriptPubKey": "76a9141dfbde9dd7519966e57961d9c8dae2f733d46b3888ac",
                    "txid": "ef7c88be8a96a94a2997f9c88b4f2a825c8a94eb53a7716dbd17d604bf747e6d",
                    "type": "pubkeyhash",
                    "value": 3223865,
                    "vout": 255
                }
            ]
        }
    ],
    "vout": [
        {
            "n": 0,
            "scriptPubKey": {
                "addresses": [
                    "1AnDChyVW27EaciomFfCZRrdnggo5DNV5q"
                ],
                "asm": "OP_DUP OP_HASH160 6b460931a3c456a0e50a9377be4cd134baf28369 OP_EQUALVERIFY OP_CHECKSIG",
                "hex": "76a9146b460931a3c456a0e50a9377be4cd134baf2836988ac",
                "type": "pubkeyhash"
            },
            "spentHeight": null,
            "spentIndex": null,
            "spentTxId": null,
            "value": "0.06445860",
            "valueSat": 6445860
        }
    ]
}