{
    "_id": {
        "$oid": "5ad462d64c372215dd13d625"
    },
    "fee": 5208,
    "id": "c8d602b7320e88a541eddc5285abb1cdddac123857ebc48ca2ba14047a75c209",
    "raw": "0100000002cf3cfa6b3eaa1655f66443eeff07c604d15125bf14cb7a5100040e4e9ea3db7d010000006b483045022100e479fbcf6094fcdc6597ee1df42d066aed0f5b97979c32f31c5b70e6f7b91a60022041ee800fc5a7567bb92af8b7c13cf60e92841f13edf5e9a91fad6825b7b52c20012103c7ef8558bcede95f75e396a680eaed08123c7f7f70ed565709264205031c07acfdffffff0c3dd5354acaab9984dba513fe189151ae0f875d35ff70d4f39d59fc77b2a199010000006a47304402203456f4adf8153953cfca0b6bd168aa143d4e77f1604e2344174bc3fbcd65c4bd022013df68b55aeee2f0fbd4f352a065db36670def497e5e18d19751c4b37ff8174e012103c7ef8558bcede95f75e396a680eaed08123c7f7f70ed565709264205031c07acfdffffff02809698000000000017a9142fbc9e5952289d75342718e2ff0619859536cdb7874858ac00000000001976a914080d6e5460bf9c8d72a7752226156a4b20a6acc988ac2fe90700",
    "size": 1484,
    "time": 1523868369,
    "valueOut": 0.21294792,
    "vin": [
        {
            "addr": "1DBTFedEaqegdi2Hhh5QJrZuwBmrrXfgDW",
            "utxo": [
                {
                    "choosen": 1,
                    "confirmations": 6,
                    "scriptPubKey": "76a914859b95642e86084a9646ac086d455a37030ceebd88ac",
                    "txid": "7ddba39e4e0e0400517acb14bf2551d104c607ffee4364f65516aa3e6bfa3ccf",
                    "type": "pubkeyhash",
                    "value": 19200000,
                    "vout": 1
                },
                {
                    "choosen": 1,
                    "confirmations": 7,
                    "scriptPubKey": "76a914859b95642e86084a9646ac086d455a37030ceebd88ac",
                    "txid": "99a1b277fc599df3d470ff355d870fae519118fe13a5db8499abca4a35d53d0c",
                    "type": "pubkeyhash",
                    "value": 2100000,
                    "vout": 1
                }
            ]
        }
    ],
    "vout": [
        {
            "n": 0,
            "scriptPubKey": {
                "addresses": [
                    "363Re1KrXNmrQ4hsp174VCvJDvUC1eAphm"
                ],
                "asm": "OP_HASH160 2fbc9e5952289d75342718e2ff0619859536cdb7 OP_EQUAL",
                "hex": "a9142fbc9e5952289d75342718e2ff0619859536cdb787",
                "type": "scripthash"
            },
            "spentHeight": null,
            "spentIndex": null,
            "spentTxId": null,
            "value": "0.10000000",
            "valueSat": 10000000
        },
        {
            "n": 1,
            "scriptPubKey": {
                "addresses": [
                    "1jaVje2xsMzQ2LRfqwKtQ93zh8qv1Dirk"
                ],
                "asm": "OP_DUP OP_HASH160 080d6e5460bf9c8d72a7752226156a4b20a6acc9 OP_EQUALVERIFY OP_CHECKSIG",
                "hex": "76a914080d6e5460bf9c8d72a7752226156a4b20a6acc988ac",
                "type": "pubkeyhash"
            },
            "spentHeight": null,
            "spentIndex": null,
            "spentTxId": null,
            "value": "0.11294792",
            "valueSat": 11294792
        }
    ]
}