{
    "_id": {
        "$oid": "5ad464274c372215dd13d626"
    },
    "fee": 1870,
    "id": "3ad1583e6745d986c164ca38e8387be83547449607ec3a0bc368437052e138c3",
    "raw": "01000000025c4fa154b97d97a87c06cc346552eb197e889e20d7305892de90b588710a3a7b010000006a4730440220313a9b5d60aa0cc906f6b8dd9b8020ed87838db82764b1bc9c6d2a592ce3801002207e65d21b23ebf3547cf0ad6bd2a3858d8b527a7d7ad96ba6b2ba3392dadff80c012103bdb023e4220cd10d355ae812d5482353906a4fb2ccbcd718843b00a086281b87ffffffff0c88890304567d2cd2898382b2ffb64aac12d4bd54306145fc8bfd18588ae9d8000000006b483045022100f8aaaa733987ad5e361ada7c59226d9a45a0a9dffa60a0ee6aba7deffc6e849602202575b2d04e588c2d3cd285f08f175891f31c5d27b74c19e37eece71038f4f8e7012103bdb023e4220cd10d355ae812d5482353906a4fb2ccbcd718843b00a086281b87ffffffff028e9f0000000000001976a914ba0c95a225160ca020224daaded515f29d04763088ac48d005000000000017a9144be5d097af57d1f641569658aec01b2a35b577e88700000000",
    "size": 1484,
    "time": 1523868706,
    "valueOut": 0.00421846,
    "vin": [
        {
            "addr": "1CuTeGZMgrdYBdMhNDy2MQDERfCUzQ5LTA",
            "utxo": [
                {
                    "choosen": 1,
                    "confirmations": 1877,
                    "scriptPubKey": "76a914829540f3ceda4c42621bf7c8a3867e366bf61ef688ac",
                    "txid": "7b3a0a7188b590de925830d7209e887e19eb526534cc067ca8977db954a14f5c",
                    "type": "pubkeyhash",
                    "value": 210719,
                    "vout": 1
                },
                {
                    "choosen": 1,
                    "confirmations": 1875,
                    "scriptPubKey": "76a914829540f3ceda4c42621bf7c8a3867e366bf61ef688ac",
                    "txid": "d8e98a5818fd8bfc45613054bdd412ac4ab6ffb2828389d22c7d56040389880c",
                    "type": "pubkeyhash",
                    "value": 212997,
                    "vout": 0
                },
                {
                    "choosen": 0,
                    "confirmations": 1877,
                    "scriptPubKey": "76a914829540f3ceda4c42621bf7c8a3867e366bf61ef688ac",
                    "txid": "8128cd4abfd6d9791df29c62d6744707151d78f1eb45844aba8ec42a25f61800",
                    "type": "pubkeyhash",
                    "value": 209852,
                    "vout": 1
                },
                {
                    "choosen": 0,
                    "confirmations": 3379,
                    "scriptPubKey": "76a914829540f3ceda4c42621bf7c8a3867e366bf61ef688ac",
                    "txid": "19c659c99dc5c27d8b149cb2ba45b57016b21376fd61c2bfd7874a4ec75cb729",
                    "type": "pubkeyhash",
                    "value": 179283,
                    "vout": 1
                }
            ]
        }
    ],
    "vout": [
        {
            "n": 0,
            "scriptPubKey": {
                "addresses": [
                    "1Hxjm4u8fH1BqUbDMaUAtcANyAhCtXDGQG"
                ],
                "asm": "OP_DUP OP_HASH160 ba0c95a225160ca020224daaded515f29d047630 OP_EQUALVERIFY OP_CHECKSIG",
                "hex": "76a914ba0c95a225160ca020224daaded515f29d04763088ac",
                "type": "pubkeyhash"
            },
            "spentHeight": null,
            "spentIndex": null,
            "spentTxId": null,
            "value": "0.00040846",
            "valueSat": 40846
        },
        {
            "n": 1,
            "scriptPubKey": {
                "addresses": [
                    "38cKuk82Fvk67vHvhM2T8DKARrwFHRZdjv"
                ],
                "asm": "OP_HASH160 4be5d097af57d1f641569658aec01b2a35b577e8 OP_EQUAL",
                "hex": "a9144be5d097af57d1f641569658aec01b2a35b577e887",
                "type": "scripthash"
            },
            "spentHeight": null,
            "spentIndex": null,
            "spentTxId": null,
            "value": "0.00381000",
            "valueSat": 381000
        }
    ]
}