{
    "_id": {
        "$oid": "5ad466964c372215dd13d628"
    },
    "fee": 10799,
    "id": "986d3a0d5dbca15cd5b6122cf7dadfa68006e2ce2ad6507aa393be97ec340837",
    "raw": "0100000002b4bee6c96eb4542eb1a4e26e8c9f488c1d36265927c49f40f4f397a02a194638000000006b48304502210093157386696a5ce9d7b75cb1865ccc751913c0ea2623654a89e8b9cb2c08722f022057e9ee99f92231c090915a912e88b05671eb2fb78d0cee7715ee13e16e1502510121023cff1afd0c2e9029e38fd30293a2ac5ef1a31a0bd1b9e7d761757d8cf1dfa842ffffffff02daa2176d24b1a926684238097e7ccd0f32394b1659c9f1d70bc13e7c934b98360000006b483045022100aab2cc8a5db5228bdb9ecafa78b9e4a1d99feb39199eff4491f44130aa1618320220252dfb45070cf98323f3b093387f20260a744cd6d240574057399b61192ccecf0121023cff1afd0c2e9029e38fd30293a2ac5ef1a31a0bd1b9e7d761757d8cf1dfa842ffffffff02c89e0700000000001976a9144e6573bf9da8622c15a4cd124a0b096998df300988ac39240300000000001976a9144b52f28e96bd5a93ab68595adc01e13f4157d19288ac00000000",
    "size": 1496,
    "time": 1523869329,
    "valueOut": 0.00705281,
    "vin": [
        {
            "addr": "17u12xFrhWzxVsLWKsXXoQ38eFZierqMaH",
            "utxo": [
                {
                    "choosen": 1,
                    "confirmations": 2,
                    "scriptPubKey": "76a9144ba669ae8b81e25680cc7df2baf38c50753c67bc88ac",
                    "txid": "3846192aa097f3f4409fc4275926361d8c489f8c6ee2a4b12e54b46ec9e6beb4",
                    "type": "pubkeyhash",
                    "value": 501080,
                    "vout": 0
                },
                {
                    "choosen": 1,
                    "confirmations": 2,
                    "scriptPubKey": "76a9144ba669ae8b81e25680cc7df2baf38c50753c67bc88ac",
                    "txid": "984b937c3ec10bd7f1c959164b39320fcd7c7e0938426826a9b1246d17a2da02",
                    "type": "pubkeyhash",
                    "value": 215000,
                    "vout": 54
                }
            ]
        }
    ],
    "vout": [
        {
            "n": 0,
            "scriptPubKey": {
                "addresses": [
                    "189XEyup7YtehnDUn2Gs8eVnqyYE9beZ2F"
                ],
                "asm": "OP_DUP OP_HASH160 4e6573bf9da8622c15a4cd124a0b096998df3009 OP_EQUALVERIFY OP_CHECKSIG",
                "hex": "76a9144e6573bf9da8622c15a4cd124a0b096998df300988ac",
                "type": "pubkeyhash"
            },
            "spentHeight": null,
            "spentIndex": null,
            "spentTxId": null,
            "value": "0.00499400",
            "valueSat": 499400
        },
        {
            "n": 1,
            "scriptPubKey": {
                "addresses": [
                    "17sH3gRrNW3S75LNdxuKZ5C9qEsjisJrf5"
                ],
                "asm": "OP_DUP OP_HASH160 4b52f28e96bd5a93ab68595adc01e13f4157d192 OP_EQUALVERIFY OP_CHECKSIG",
                "hex": "76a9144b52f28e96bd5a93ab68595adc01e13f4157d19288ac",
                "type": "pubkeyhash"
            },
            "spentHeight": null,
            "spentIndex": null,
            "spentTxId": null,
            "value": "0.00205881",
            "valueSat": 205881
        }
    ]
}