{
    "_id": {
        "$oid": "5ad466b84c372215dd13d629"
    },
    "fee": 3366,
    "id": "9a990cb5019bfe455f03f1cede45683fbede5665d3d04ffc29f2fbaabf50ef14",
    "raw": "01000000020591e49b39401a56d12d1338fe540ffc2cc94e60978fa8dd21764cc0e09c7b92000000006b483045022100b0c2339c695430d753fc18ca87bf800b4ad790b99b0cb2b74305e1d8f4a78792022076a4342b7d60ad7018f8fe527eacbe47e67232d5318b1407add7d72431bf43c70121024ef7e2153cd74eebd16f30228cc3eb7edb07b50ec3c7a8f4d24bdb350c345800ffffffff67641ece9b69f7d54d3af634a5cf41a3135365128d11ddd0218bf32917ee09b41d0000006a4730440220012581bb5a6cdc1cf381cdfd51f7b53216ddc556ce273cd19ec24a8e3cb79f9e022068ae870963b2eceffc58a8a74f77dc1dc5760f52e70e28c2e8d929da1917d8760121024ef7e2153cd74eebd16f30228cc3eb7edb07b50ec3c7a8f4d24bdb350c345800ffffffff02401ac805000000001976a914bd783fd165d0ed6b94b6ac83af9c6b25e39bee8788acdad3f505000000001976a9146e0035d1550cd2bd632e6ea7dfe547fbba3853b288ac00000000",
    "size": 1492,
    "time": 1523869363,
    "valueOut": 1.96996634,
    "vin": [
        {
            "addr": "13E1BGhmNc3JvLGWHRf1c1YHEk8YQtcokE",
            "utxo": [
                {
                    "choosen": 1,
                    "confirmations": 876,
                    "scriptPubKey": "76a9141865ce906b8e0df69538f5def1820a3f0e43ec0388ac",
                    "txid": "927b9ce0c04c7621dda88f97604ec92cfc0f54fe38132dd1561a40399be49105",
                    "type": "pubkeyhash",
                    "value": 97000000,
                    "vout": 0
                },
                {
                    "choosen": 1,
                    "confirmations": 6961,
                    "scriptPubKey": "76a9141865ce906b8e0df69538f5def1820a3f0e43ec0388ac",
                    "txid": "b409ee1729f38b21d0dd118d12655313a341cfa534f63a4dd5f7699bce1e6467",
                    "type": "pubkeyhash",
                    "value": 100000000,
                    "vout": 29
                },
                {
                    "choosen": 0,
                    "confirmations": 7027,
                    "scriptPubKey": "76a9141865ce906b8e0df69538f5def1820a3f0e43ec0388ac",
                    "txid": "9996ee734df82c3ffbc4e39829d8f540620884d9d2f982eabb07804979fa1a6d",
                    "type": "pubkeyhash",
                    "value": 50000000,
                    "vout": 5
                }
            ]
        }
    ],
    "vout": [
        {
            "n": 0,
            "scriptPubKey": {
                "addresses": [
                    "1JGpmKjdRWFW7NVpGQKrZAVafKx3GX9jGx"
                ],
                "asm": "OP_DUP OP_HASH160 bd783fd165d0ed6b94b6ac83af9c6b25e39bee87 OP_EQUALVERIFY OP_CHECKSIG",
                "hex": "76a914bd783fd165d0ed6b94b6ac83af9c6b25e39bee8788ac",
                "type": "pubkeyhash"
            },
            "spentHeight": null,
            "spentIndex": null,
            "spentTxId": null,
            "value": "0.97000000",
            "valueSat": 97000000
        },
        {
            "n": 1,
            "scriptPubKey": {
                "addresses": [
                    "1B2dai4vgLcAGr2ou1P64mdjXVUFuNmXmc"
                ],
                "asm": "OP_DUP OP_HASH160 6e0035d1550cd2bd632e6ea7dfe547fbba3853b2 OP_EQUALVERIFY OP_CHECKSIG",
                "hex": "76a9146e0035d1550cd2bd632e6ea7dfe547fbba3853b288ac",
                "type": "pubkeyhash"
            },
            "spentHeight": null,
            "spentIndex": null,
            "spentTxId": null,
            "value": "0.99996634",
            "valueSat": 99996634
        }
    ]
}