{
    "_id": {
        "$oid": "5ad467694c372215dd13d62a"
    },
    "fee": 7139,
    "id": "8d9b1f2e59f5d448657e1e5aacd1766efeb688a2129444b2f5b65ff5da07b3b5",
    "raw": "01000000040d92648a4190814bc3b8c62704cd2f02eca6f240faea76955a502ea08a9e89eb000000006b483045022100e285c3a93dc59d698073c54461bf300b5e1153d3ead635d7cc7d934f0d760f6502203c00b10dc6a4439f1a6dd4cce38b1880f96edebe7e24566a5802bf1ff1bf14280121031822c8dfcf449cbc019f85cd384bffcf67034455e8eecb7cfebe7a5f3257a089ffffffff814db3321d2f34337521dc8934624cabd1d909d5ca9c9e55f63caf8057e6119b010000006b483045022100e603d7b8fde20e861afa17119e18465d2ffde452a30d8630206824f8ece928e2022058feb636a9784a86c9a0c33661de0589f8eb4c88f3bc8999483d337b16ee20970121031822c8dfcf449cbc019f85cd384bffcf67034455e8eecb7cfebe7a5f3257a089ffffffffafd0f42e842421b4a968e4c942aebba8cc8a09751ec0a7d553a79a90e885c825010000006b483045022100d1f136632e9266c7d5a309b86d1c5e7601df841667b5e3e234a217f8402b6501022031f00bb5847ede4a6e26219ec8232e093c2d10f6762db392a3b31fb636a6300f0121031822c8dfcf449cbc019f85cd384bffcf67034455e8eecb7cfebe7a5f3257a089ffffffff95c3bfcf65dbce4c604ad4a91a1d369ce9248d1a74940f0809c62ce84dc6869f000000006b483045022100eb6496c7bb8c1300c76bbe93d980f24405865421cb5beffad5d144b4023c9a6202206c8f64a9e538fe401a43b8c31fe9abfa7dd2ad75641884b647679a08eb62281e0121031822c8dfcf449cbc019f85cd384bffcf67034455e8eecb7cfebe7a5f3257a089ffffffff018f4e0b000000000017a914f57c607c04827e4379cd4ed50cc2f67252f37a798700000000",
    "size": 2536,
    "time": 1523869540,
    "valueOut": 0.00741007,
    "vin": [
        {
            "addr": "15wNW29q7XAEbC8yus49CWvt91JkhcdkoW",
            "utxo": [
                {
                    "choosen": 1,
                    "confirmations": 40198,
                    "scriptPubKey": "76a9143628e9a3ae78288dbb945589cfa8b776b0c67d5888ac",
                    "txid": "eb899e8aa02e505a9576eafa40f2a6ec022fcd0427c6b8c34b8190418a64920d",
                    "type": "pubkeyhash",
                    "value": 245682,
                    "vout": 0
                },
                {
                    "choosen": 1,
                    "confirmations": 40160,
                    "scriptPubKey": "76a9143628e9a3ae78288dbb945589cfa8b776b0c67d5888ac",
                    "txid": "9b11e65780af3cf6559e9ccad509d9d1ab4c623489dc217533342f1d32b34d81",
                    "type": "pubkeyhash",
                    "value": 184365,
                    "vout": 1
                },
                {
                    "choosen": 1,
                    "confirmations": 38719,
                    "scriptPubKey": "76a9143628e9a3ae78288dbb945589cfa8b776b0c67d5888ac",
                    "txid": "25c885e8909aa753d5a7c01e75098acca8bbae42c9e468a9b42124842ef4d0af",
                    "type": "pubkeyhash",
                    "value": 300000,
                    "vout": 1
                },
                {
                    "choosen": 1,
                    "confirmations": 11723,
                    "scriptPubKey": "76a9143628e9a3ae78288dbb945589cfa8b776b0c67d5888ac",
                    "txid": "9f86c64de82cc609080f94741a8d24e99c361d1aa9d44a604ccedb65cfbfc395",
                    "type": "pubkeyhash",
                    "value": 18099,
                    "vout": 0
                }
            ]
        }
    ],
    "vout": [
        {
            "n": 0,
            "scriptPubKey": {
                "addresses": [
                    "3Q52UQAVTdBDs2FrLjVGDJDdAjVqf66mK8"
                ],
                "asm": "OP_HASH160 f57c607c04827e4379cd4ed50cc2f67252f37a79 OP_EQUAL",
                "hex": "a914f57c607c04827e4379cd4ed50cc2f67252f37a7987",
                "type": "scripthash"
            },
            "spentHeight": null,
            "spentIndex": null,
            "spentTxId": null,
            "value": "0.00741007",
            "valueSat": 741007
        }
    ]
}