{
    "_id": {
        "$oid": "5ad467f14c372215dd13d62b"
    },
    "fee": 3042,
    "id": "761737651a7b29b447c6d4567bd17eef80334355d7cc44bc0a2048d977c1795c",
    "raw": "01000000000103d2cf0805fac10ac4bc1e899293c0b2c4eab8949ddc53503a68b3ae8457d7964122000000171600140da5b6c84ad63df5a3976be3a3d4277bb6c284dcffffffff58242f919cf84081fba970936f8a5e16ff9b9fd3c2580c7297779ebed80cd7301e000000171600140da5b6c84ad63df5a3976be3a3d4277bb6c284dcffffffffcd977577d175dcb41c477a9d196190f35c750b287454ec370a2372c8b3b36b16f3000000171600140da5b6c84ad63df5a3976be3a3d4277bb6c284dcffffffff018bfb18000000000017a91465a9be8a5dc2736fff0636a159c0135fea0d90898702473044022004eeb54e37e16499456bfcc9ea3fd1d5f963fdef79880cb718369e769401964f02201e0cccfff6a5d0302b49011038daa594a9436074bc1a8afce319c074fffe2b960121032397e2808a8bf886d5385afce3627685c32db7c4da42650de3b2f536baf63a930247304402200af2ab315551783e438e530c2b601711c9da6737daedd78f9cefa67613366b1602206c8ab454abbee946b6195a6289f245eff4390a19ec52cb192d5bf6c34424c5f90121032397e2808a8bf886d5385afce3627685c32db7c4da42650de3b2f536baf63a93024730440220536e899d241f2c7ced0e71f1eac9364eebdfb5ff8e21a6ff6831298034a0f9ba0220760971bfafc1e3b2c06f1b033494e4931755f2fce3d6529b83362c14f7fc89360121032397e2808a8bf886d5385afce3627685c32db7c4da42650de3b2f536baf63a9300000000",
    "size": 2228,
    "time": 1523869675,
    "valueOut": 0.01637259,
    "vin": [
        {
            "addr": "3NQDVgWGKzamMa63oAxP1fAa7kiX7jLGmg",
            "utxo": [
                {
                    "choosen": 1,
                    "confirmations": 729,
                    "scriptPubKey": "a914e32d3ab8e35b23ac76854ee3c37e3ee9a95affdb87",
                    "txid": "4196d75784aeb3683a5053dc9d94b8eac4b2c09392891ebcc40ac1fa0508cfd2",
                    "type": "scripthash",
                    "value": 554677,
                    "vout": 34
                },
                {
                    "choosen": 1,
                    "confirmations": 2158,
                    "scriptPubKey": "a914e32d3ab8e35b23ac76854ee3c37e3ee9a95affdb87",
                    "txid": "30d70cd8be9e7797720c58c2d39f9bff165e8a6f9370a9fb8140f89c912f2458",
                    "type": "scripthash",
                    "value": 541649,
                    "vout": 30
                },
                {
                    "choosen": 1,
                    "confirmations": 3216,
                    "scriptPubKey": "a914e32d3ab8e35b23ac76854ee3c37e3ee9a95affdb87",
                    "txid": "166bb3b3c872230a37ec5474280b755cf39061199d7a471cb4dc75d1777597cd",
                    "type": "scripthash",
                    "value": 543975,
                    "vout": 243
                }
            ]
        }
    ],
    "vout": [
        {
            "n": 0,
            "scriptPubKey": {
                "addresses": [
                    "3AxZWxbEp1GTosQGEHWfzxioaAFnozPYFo"
                ],
                "asm": "OP_HASH160 65a9be8a5dc2736fff0636a159c0135fea0d9089 OP_EQUAL",
                "hex": "a91465a9be8a5dc2736fff0636a159c0135fea0d908987",
                "type": "scripthash"
            },
            "spentHeight": null,
            "spentIndex": null,
            "spentTxId": null,
            "value": "0.01637259",
            "valueSat": 1637259
        }
    ]
}