{
    "_id": {
        "$oid": "5ad468234c372215dd13d62c"
    },
    "fee": 85000,
    "id": "95b052d921c3cf6e6a5b6d304dd2f0856dd954068a66ad6b7ee8c392b29aca71",
    "raw": "010000000211e4c081044277226a037686e2aa94d7bcbd519bbc85f63830f3e1491cb58a5a100000006a473044022014b2957cb496e40df2d70b788c4cb2b357466d7884f7731bc5574132dd0c21d0022060364ab5dda6d75269c21540910d949daec3b2e1ed57de12bbe85e2cf54e580001210357de696e7a2b9d8aa88e99e656455a4053d2f499e26e1ddd4a4274305c52ac7dffffffffed270e12cf897dca569d319b0c46c2ab43011202747ad2cbe32389864bbfc1c4040000006a473044022004135af860ec9f960bd8fb1e5543cbc8a8660b5544fb9bef4f6c87c040b51fc402202d583a6acd271610b2c828ac4cad31725be27e6540025d3142909eb137e9760601210357de696e7a2b9d8aa88e99e656455a4053d2f499e26e1ddd4a4274305c52ac7dffffffff01b95282000000000017a9149e36af8e72ffc4b29318876d9096411ba4f19c548700000000",
    "size": 1344,
    "time": 1523869726,
    "valueOut": 0.08540857,
    "vin": [
        {
            "addr": "1ChkQskTgxDAKSe5cy3WLHr2TpwCJSeYjF",
            "utxo": [
                {
                    "choosen": 1,
                    "confirmations": 12005,
                    "scriptPubKey": "76a914805e42a33d9eb3e733f62dd822cb6c701ab554f888ac",
                    "txid": "5a8ab51c49e1f33038f685bc9b51bdbcd794aae28676036a2277420481c0e411",
                    "type": "pubkeyhash",
                    "value": 4263238,
                    "vout": 16
                },
                {
                    "choosen": 1,
                    "confirmations": 12814,
                    "scriptPubKey": "76a914805e42a33d9eb3e733f62dd822cb6c701ab554f888ac",
                    "txid": "c4c1bf4b868923e3cbd27a7402120143abc2460c9b319d56ca7d89cf120e27ed",
                    "type": "pubkeyhash",
                    "value": 4362619,
                    "vout": 4
                }
            ]
        }
    ],
    "vout": [
        {
            "n": 0,
            "scriptPubKey": {
                "addresses": [
                    "3G7aCVBUHrU3KyGfL2Zq11AkCvS8jNoN6J"
                ],
                "asm": "OP_HASH160 9e36af8e72ffc4b29318876d9096411ba4f19c54 OP_EQUAL",
                "hex": "a9149e36af8e72ffc4b29318876d9096411ba4f19c5487",
                "type": "scripthash"
            },
            "spentHeight": null,
            "spentIndex": null,
            "spentTxId": null,
            "value": "0.08540857",
            "valueSat": 8540857
        }
    ]
}