{
    "_id": {
        "$oid": "5ad46c154c372215dd13d630"
    },
    "fee": 748,
    "id": "62570585bf8a23e1ceea5c2c511295777bbbd1358ef1a1d4c062aa8088537cc3",
    "raw": "010000000288b175ddeb7870e986a3e5fd90331b537096c0a42b27ef03ae0aa46436e3b6a5010000006a473044022063552dcc0bea8329e73bb01f86a7ac50007f931bec8295261d33ec882cdabedb022061ac8025e5b2f7abad29e9ad95bc7709c7e055ec88891f8c102e44680692d4980121025745acce08605841676541102526e60a8b985edab93be3fbdca9d2073b6cceaefdffffffa0d6e38f4778b92af0883d4e403dc06dcb3bf3d72d69bf1ceb4d786f21d1cdff000000006b483045022100fe5f79fcb05597467eb02b5d56a32dd4ddfa20f7d7dd92a7a87c3d2b5457eab7022006b54504b79e8d4643ca80a843d70f17679bf1ce386d1c60323009abf4c7a6d80121025745acce08605841676541102526e60a8b985edab93be3fbdca9d2073b6cceaefdffffff02c0b53c04000000001976a9141928495fd52315253f8b7f6193a8140718adec3c88ac5cb34708000000001976a9143f834fcdf8a6ac3b2391a541c997bf72defb66a888ac31e90700",
    "size": 1492,
    "time": 1523870736,
    "valueOut": 2.10004252,
    "vin": [
        {
            "addr": "159gFA4QQSdMMVG4QJwmDfsx7EabEjKuon",
            "utxo": [
                {
                    "choosen": 1,
                    "confirmations": 549,
                    "scriptPubKey": "76a9142d849712d4f27aa4038ab8fc93013360ef49396388ac",
                    "txid": "a5b6e33664a40aae03ef272ba4c09670531b3390fde5a386e97078ebdd75b188",
                    "type": "pubkeyhash",
                    "value": 210000000,
                    "vout": 1
                },
                {
                    "choosen": 1,
                    "confirmations": 548,
                    "scriptPubKey": "76a9142d849712d4f27aa4038ab8fc93013360ef49396388ac",
                    "txid": "ffcdd1216f784deb1cbf692dd7f33bcb6dc03d404e3d88f02ab978478fe3d6a0",
                    "type": "pubkeyhash",
                    "value": 5000,
                    "vout": 0
                }
            ]
        }
    ],
    "vout": [
        {
            "n": 0,
            "scriptPubKey": {
                "addresses": [
                    "13J29xdNp9Vb6cYM1xeY3LY53wPANAupzL"
                ],
                "asm": "OP_DUP OP_HASH160 1928495fd52315253f8b7f6193a8140718adec3c OP_EQUALVERIFY OP_CHECKSIG",
                "hex": "76a9141928495fd52315253f8b7f6193a8140718adec3c88ac",
                "type": "pubkeyhash"
            },
            "spentHeight": null,
            "spentIndex": null,
            "spentTxId": null,
            "value": "0.71087552",
            "valueSat": 71087552
        },
        {
            "n": 1,
            "scriptPubKey": {
                "addresses": [
                    "16npsnWpVW7tTZx7P1Et1WbyviUUkDnbES"
                ],
                "asm": "OP_DUP OP_HASH160 3f834fcdf8a6ac3b2391a541c997bf72defb66a8 OP_EQUALVERIFY OP_CHECKSIG",
                "hex": "76a9143f834fcdf8a6ac3b2391a541c997bf72defb66a888ac",
                "type": "pubkeyhash"
            },
            "spentHeight": null,
            "spentIndex": null,
            "spentTxId": null,
            "value": "1.38916700",
            "valueSat": 138916700
        }
    ]
}