{
    "_id": {
        "$oid": "5ad46c3a4c372215dd13d631"
    },
    "fee": 746,
    "id": "a52144b1098f18b701fd5ae833b2037701a87524d0939919ac8ad53b788ae4d5",
    "raw": "020000000209381f6952052c9399aca206a366c1195029c3471e6b82ca257b967126c353f0000000006a4730440220712adf708afc7f191d41689e945cc8202ff6df75683c9f3f92a81d1617e7d1f5022011df15e0c824c487a61a542fcecb1f59747458ba5079732b07c0dcdb33ac4e38012103224cc73c4664d2e8878a0c4f5e52b275a0671f179612c39c5121071b86e3a3fffefffffffcb1f58ffe7b323aa32f8918bfc6cd679602f3678f345d08187525a2ddb08c46050000006b483045022100e0519992ee9373e47dd470ec00d13d55a7dc20f15ab01bc1555f424a675a586002204d601198e398c4e3750deb3cef4e8312d30d34304afce4b1a0c308c2083c75a0012103224cc73c4664d2e8878a0c4f5e52b275a0671f179612c39c5121071b86e3a3fffeffffff0226fe4b000000000017a9142aff834f9670dae6ee0c543ace86dcc51936030787708c0f00000000001976a914cdee56355b0a9e5d676041533fa52fc9113394b288acdfe80700",
    "size": 1484,
    "time": 1523870773,
    "valueOut": 0.05999254,
    "vin": [
        {
            "addr": "1aRbjCkTW7GFK889vC5znRHxJ3FT8K5f9",
            "utxo": [
                {
                    "choosen": 1,
                    "confirmations": 34,
                    "scriptPubKey": "76a914065242c013564878c4737a8ef4bb739d983d746488ac",
                    "txid": "f053c32671967b25ca826b1e47c3295019c166a306a2ac99932c0552691f3809",
                    "type": "pubkeyhash",
                    "value": 2000000,
                    "vout": 0
                },
                {
                    "choosen": 1,
                    "confirmations": 20,
                    "scriptPubKey": "76a914065242c013564878c4737a8ef4bb739d983d746488ac",
                    "txid": "468cb0dda2257518085d348f67f3029667cdc6bf18892fa33a327bfe8ff5b1fc",
                    "type": "pubkeyhash",
                    "value": 4000000,
                    "vout": 5
                },
                {
                    "choosen": 0,
                    "confirmations": 470,
                    "scriptPubKey": "76a914065242c013564878c4737a8ef4bb739d983d746488ac",
                    "txid": "5fa1fa12ac98445ca97bdc0aaeeae466ffd673d1d1942400a3d0abdfe54a51a5",
                    "type": "pubkeyhash",
                    "value": 7000000,
                    "vout": 2
                }
            ]
        }
    ],
    "vout": [
        {
            "n": 0,
            "scriptPubKey": {
                "addresses": [
                    "35cNPx5ci4qDR4sPgo1vf5wrQPG98uXiQt"
                ],
                "asm": "OP_HASH160 2aff834f9670dae6ee0c543ace86dcc519360307 OP_EQUAL",
                "hex": "a9142aff834f9670dae6ee0c543ace86dcc51936030787",
                "type": "scripthash"
            },
            "spentHeight": null,
            "spentIndex": null,
            "spentTxId": null,
            "value": "0.04980262",
            "valueSat": 4980262
        },
        {
            "n": 1,
            "scriptPubKey": {
                "addresses": [
                    "1Kms3FgH6pGdySFVRUfPNsMi2Peg7Q6dGW"
                ],
                "asm": "OP_DUP OP_HASH160 cdee56355b0a9e5d676041533fa52fc9113394b2 OP_EQUALVERIFY OP_CHECKSIG",
                "hex": "76a914cdee56355b0a9e5d676041533fa52fc9113394b288ac",
                "type": "pubkeyhash"
            },
            "spentHeight": null,
            "spentIndex": null,
            "spentTxId": null,
            "value": "0.01018992",
            "valueSat": 1018992
        }
    ]
}