{
    "_id": {
        "$oid": "5ad46ca84c372215dd13d632"
    },
    "fee": 2610,
    "id": "dc7d0b241ee57886b94c99184d42fd96c6f471dc59fd7c8bd009c7b271c7205d",
    "raw": "0100000003d5ec59a8913eed71bfb1b4816480f763f355fb591d85401e5fc0feebbbb96c4d000000006b483045022100a5f5e7e122d50540609706f03ebc79a27e60b1175912f8c9b2a65ad50bbc7ca602202b456afeb0427c32ea48c2159d36101083afa5dcd88cff05c6c1c139f886ca92012102ebf2c604676b9ade0fab75707d73e4cefabb81b5503c80a183bbcacc2d9a8094ffffffff134b0d1fef4800da12365a91dc726aa71bf299db363594e38646ccd670e5b7e3000000006a47304402204bf6df2f169753f26429044acf3aa150a46476f11efffd75c3e0640743002eef022070ff3348e343775abb67bb7a3c8ce16a61cdb3e9409a1c16fbd8c460b83c57aa012102ebf2c604676b9ade0fab75707d73e4cefabb81b5503c80a183bbcacc2d9a8094ffffffff7e618f4f08a12a3d69489926307224172f993473ccc490716c6a982706abd8fc000000006b483045022100a2079705d7a1e40553b10eaa887c012d214f690c2717ec17d3a3f75f108f713c02203e2847534005361dc9e8bb259de286a9fb1f4b9d61390275b68c8994cf0b6a24012102ebf2c604676b9ade0fab75707d73e4cefabb81b5503c80a183bbcacc2d9a8094ffffffff01dc6a00000000000017a914e56379e356ac43335423d7dd1028fb6be2ba48218700000000",
    "size": 1940,
    "time": 1523870883,
    "valueOut": 0.00027356,
    "vin": [
        {
            "addr": "1Gh7a5Cqn4xXtdU33De5MZvwjmWnbNtkdN",
            "utxo": [
                {
                    "choosen": 1,
                    "confirmations": 3380,
                    "scriptPubKey": "76a914ac200280237a612b90b5a57d737f9e16bafbd03288ac",
                    "txid": "4d6cb9bbebfec05f1e40851d59fb55f363f7806481b4b1bf71ed3e91a859ecd5",
                    "type": "pubkeyhash",
                    "value": 12620,
                    "vout": 0
                },
                {
                    "choosen": 1,
                    "confirmations": 1419,
                    "scriptPubKey": "76a914ac200280237a612b90b5a57d737f9e16bafbd03288ac",
                    "txid": "e3b7e570d6cc4686e3943536db99f21ba76a72dc915a3612da0048ef1f0d4b13",
                    "type": "pubkeyhash",
                    "value": 9115,
                    "vout": 0
                },
                {
                    "choosen": 1,
                    "confirmations": 2260,
                    "scriptPubKey": "76a914ac200280237a612b90b5a57d737f9e16bafbd03288ac",
                    "txid": "fcd8ab0627986a6c7190c4cc7334992f17247230269948693d2aa1084f8f617e",
                    "type": "pubkeyhash",
                    "value": 8231,
                    "vout": 0
                }
            ]
        }
    ],
    "vout": [
        {
            "n": 0,
            "scriptPubKey": {
                "addresses": [
                    "3NbuqCH8YNpooBU31vGRwQ24Pe8RiH2Cnz"
                ],
                "asm": "OP_HASH160 e56379e356ac43335423d7dd1028fb6be2ba4821 OP_EQUAL",
                "hex": "a914e56379e356ac43335423d7dd1028fb6be2ba482187",
                "type": "scripthash"
            },
            "spentHeight": null,
            "spentIndex": null,
            "spentTxId": null,
            "value": "0.00027356",
            "valueSat": 27356
        }
    ]
}