{
    "_id": {
        "$oid": "5ad46ec14c372215dd13d633"
    },
    "fee": 5571,
    "id": "b7ecb102f8ed4a6789a384f2434cab3a625c6e3e7b917527026306c63eed195f",
    "raw": "01000000075a58b5080d14b2da3c7584a08f8712fa54c565e36fcfc68a9c7e4a00a9e3e113010000006a473044022047c5d218a4c9f629f1e9f10be23f58fd00708f7fc333bfad2cc5934d5b52fbde022022e07d1b52866918140cfca70d23e31d686a197c68f3a0f3158346bbbd27d5ea012102564ed2773a68ea1ad618ef29d2fdbc0c2af1536a4abc22266f9988d3f4206212ffffffff7dadb511a319db04183523a47735a79f64ff863cb780d06e562d9922c2533e32010000006b48304502210090b62df69e763b672ed1de617caaaed3f8a9879e5dc9bffff1094c451bdef5e0022064b371d5af715bc5e7d290a2d9181631868b6af28cda96625698390d554bd234012102564ed2773a68ea1ad618ef29d2fdbc0c2af1536a4abc22266f9988d3f4206212fffffffff43da06884b9d8b76144d4276e46064c353d1b19b94412869f7ae5ca36f4ad890c0300006a47304402207eeb26e7b79923bef791074c24ee69fd91da73e0f8cfcff54c3b8b914979997302204ffb6f7251b6d72a557f79d5faa2486673eff3c9134b4af07aa51f8377c53e9d012102564ed2773a68ea1ad618ef29d2fdbc0c2af1536a4abc22266f9988d3f4206212ffffffff65f7b1d2d76559590ca3a0d391e978fb28a7f6eeabbc79901305a2fa4f4772ca390000006b48304502210099fe5d0f5ec30aa2dbfd3fffe98b2fc46e04ffdb5e578ded0fd8b92d2b06e28b02206f5a5b20fab70cc6e09e478fd23976572bfafa228093368a24dcb6f389e1aacd012102564ed2773a68ea1ad618ef29d2fdbc0c2af1536a4abc22266f9988d3f4206212ffffffff408a445bd512ecd6dbaa4b94d6389f4b13183925f16369bf6f5d6b04d4a164e1350000006b483045022100d48516c2063669113feaa44ca6de400cabbc8b1460d9ff325c9f181d1e5d47460220538bbe6f1b51c9347530d3931f3ce132f30e66349bd5e9d8f7867c23b6846a6b012102564ed2773a68ea1ad618ef29d2fdbc0c2af1536a4abc22266f9988d3f4206212ffffffff520d1125cdf593782fcd8d6ac1f83b10ebe767cf528f294bbffd901d8eb9d4e6000000006b483045022100b0e2bd5af7bb3244d70a5678001e8e177310bddc46f2c7f87274836cc59a5eaa02205a8c8c625e0c2e29df3bd6835e5694e10c0a1e8e517b7aee3c73da3315e1b251012102564ed2773a68ea1ad618ef29d2fdbc0c2af1536a4abc22266f9988d3f4206212fffffffff2335ba5bd050b13e536032d7a42ba8c4e9bdf329dc041e34d8d2ff89f800feb950000006b4830450221008f1616a71ffb7ba34258c3625389dd7844f0cc9e3eb5236e6c4b23065029756b022002f57c2f41c66ae5eac8bae5cdf22f6760bfdd38c6d159418964e8d6fe91938d012102564ed2773a68ea1ad618ef29d2fdbc0c2af1536a4abc22266f9988d3f4206212ffffffff0167e440000000000017a9143a122ae4a0376b1f7e0631792935616fa33f75868700000000",
    "size": 4304,
    "time": 1523871418,
    "valueOut": 0.04252775,
    "vin": [
        {
            "addr": "1NoECVYTyhTkAf5XXJnCnMr8vKQLjri2CH",
            "utxo": [
                {
                    "choosen": 1,
                    "confirmations": 766,
                    "scriptPubKey": "76a914ef18caff0807c1f4d4f72eb2ab01867bbb4f0c3188ac",
                    "txid": "13e1e3a9004a7e9c8ac6cf6fe365c554fa12878fa084753cdab2140d08b5585a",
                    "type": "pubkeyhash",
                    "value": 615014,
                    "vout": 1
                },
                {
                    "choosen": 1,
                    "confirmations": 35,
                    "scriptPubKey": "76a914ef18caff0807c1f4d4f72eb2ab01867bbb4f0c3188ac",
                    "txid": "323e53c222992d566ed080b73c86ff649fa73577a423351804db19a311b5ad7d",
                    "type": "pubkeyhash",
                    "value": 361317,
                    "vout": 1
                },
                {
                    "choosen": 1,
                    "confirmations": 148,
                    "scriptPubKey": "76a914ef18caff0807c1f4d4f72eb2ab01867bbb4f0c3188ac",
                    "txid": "89adf436cae57a9f861244b9191b3d354c06466e27d44461b7d8b98468a03df4",
                    "type": "pubkeyhash",
                    "value": 480856,
                    "vout": 780
                },
                {
                    "choosen": 1,
                    "confirmations": 1304,
                    "scriptPubKey": "76a914ef18caff0807c1f4d4f72eb2ab01867bbb4f0c3188ac",
                    "txid": "ca72474ffaa205139079bcabeef6a728fb78e991d3a0a30c595965d7d2b1f765",
                    "type": "pubkeyhash",
                    "value": 856214,
                    "vout": 57
                },
                {
                    "choosen": 1,
                    "confirmations": 2325,
                    "scriptPubKey": "76a914ef18caff0807c1f4d4f72eb2ab01867bbb4f0c3188ac",
                    "txid": "e164a1d4046b5d6fbf6963f1253918134b9f38d6944baadbd6ec12d55b448a40",
                    "type": "pubkeyhash",
                    "value": 849459,
                    "vout": 53
                },
                {
                    "choosen": 1,
                    "confirmations": 1856,
                    "scriptPubKey": "76a914ef18caff0807c1f4d4f72eb2ab01867bbb4f0c3188ac",
                    "txid": "e6d4b98e1d90fdbf4b298f52cf67e7eb103bf8c16a8dcd2f7893f5cd25110d52",
                    "type": "pubkeyhash",
                    "value": 471315,
                    "vout": 0
                },
                {
                    "choosen": 1,
                    "confirmations": 8,
                    "scriptPubKey": "76a914ef18caff0807c1f4d4f72eb2ab01867bbb4f0c3188ac",
                    "txid": "eb0f809ff82f8d4de341c09d32df9b4e8cba427a2d0336e5130b05bda55b33f2",
                    "type": "pubkeyhash",
                    "value": 624171,
                    "vout": 149
                }
            ]
        }
    ],
    "vout": [
        {
            "n": 0,
            "scriptPubKey": {
                "addresses": [
                    "36z4syR6DZdtdxnETZEPpyocuHfKQi8W1v"
                ],
                "asm": "OP_HASH160 3a122ae4a0376b1f7e0631792935616fa33f7586 OP_EQUAL",
                "hex": "a9143a122ae4a0376b1f7e0631792935616fa33f758687",
                "type": "scripthash"
            },
            "spentHeight": null,
            "spentIndex": null,
            "spentTxId": null,
            "value": "0.04252775",
            "valueSat": 4252775
        }
    ]
}