{
    "_id": {
        "$oid": "5ad46ef24c372215dd13d634"
    },
    "fee": 3740,
    "id": "0838483d304bd034288279cc1ec6e070192eee92fc75492e976018ea47c68117",
    "raw": "0100000002668661cdb98410fa84fafa239d8d4220db71082c5246b5a53653c5c8c694750e300000008a47304402203b87d97d6d090c93452d31dde1bb75eb1b42debb770a8e348382f192a1f267b0022045ce076c1d814beb0b2dfce92b772dc04ea367a9428419010011680165ea6e1e014104e33a38102d77998de89ac70aaffc662ffddad51aac8125ea9383f24155ed6bd5f478ac4cfe5ddeb175b900006c8f291167c703d14e44422dd21becd52c4bf70fffffffff395f660145dddcf26a885822339223d1e9fbe8fcd207e13fd8abc3d6fd87a19aad0000008a47304402201ef32378fbdd3a4d2efbcb1636e8d5aef7f844d6a7575827ef6cf653ed95803402205f165494fb6ca1b04daea6181c28a94b92112406e8cb525555adfd6dfd5b2778014104e33a38102d77998de89ac70aaffc662ffddad51aac8125ea9383f24155ed6bd5f478ac4cfe5ddeb175b900006c8f291167c703d14e44422dd21becd52c4bf70fffffffff01148327000000000017a9145a4696544450dbd2909381f34476c9f150fc57c68700000000",
    "size": 1600,
    "time": 1523871468,
    "valueOut": 0.0258946,
    "vin": [
        {
            "addr": "1JXkjVWhyPjuxzvnrmf8Z8CF6ZyzGdmRtD",
            "utxo": [
                {
                    "choosen": 1,
                    "confirmations": 56,
                    "scriptPubKey": "76a914c04b1f923f387daaf917efa78a3154f904d2136e88ac",
                    "txid": "0e7594c6c8c55336a5b546522c0871db20428d9d23fafa84fa1084b9cd618666",
                    "type": "pubkeyhash",
                    "value": 2051600,
                    "vout": 48
                },
                {
                    "choosen": 1,
                    "confirmations": 218,
                    "scriptPubKey": "76a914c04b1f923f387daaf917efa78a3154f904d2136e88ac",
                    "txid": "9aa187fdd6c3abd83fe107d2fce8fbe9d12392332258886af2dcdd4501665f39",
                    "type": "pubkeyhash",
                    "value": 541600,
                    "vout": 173
                },
                {
                    "choosen": 0,
                    "confirmations": 60027,
                    "scriptPubKey": "76a914c04b1f923f387daaf917efa78a3154f904d2136e88ac",
                    "txid": "7cfe8330f11f3b014502958c58684912454bede2e0864d964242d62f1df6e98c",
                    "type": "pubkeyhash",
                    "value": 948,
                    "vout": 0
                },
                {
                    "choosen": 0,
                    "confirmations": 74130,
                    "scriptPubKey": "76a914c04b1f923f387daaf917efa78a3154f904d2136e88ac",
                    "txid": "381a6325751aa9e0514e65f0230c16fda6df7b76ba02668c6dffbe64fa34da9f",
                    "type": "pubkeyhash",
                    "value": 618,
                    "vout": 0
                },
                {
                    "choosen": 0,
                    "confirmations": 83864,
                    "scriptPubKey": "76a914c04b1f923f387daaf917efa78a3154f904d2136e88ac",
                    "txid": "352c6df3e8d781fd8e28fc4722070861cce6059a2209ed35568ffbb9511fd1a9",
                    "type": "pubkeyhash",
                    "value": 872,
                    "vout": 0
                }
            ]
        }
    ],
    "vout": [
        {
            "n": 0,
            "scriptPubKey": {
                "addresses": [
                    "39vMJJ3neLmyZtyTKuo6tSytkVCrap4Jra"
                ],
                "asm": "OP_HASH160 5a4696544450dbd2909381f34476c9f150fc57c6 OP_EQUAL",
                "hex": "a9145a4696544450dbd2909381f34476c9f150fc57c687",
                "type": "scripthash"
            },
            "spentHeight": null,
            "spentIndex": null,
            "spentTxId": null,
            "value": "0.02589460",
            "valueSat": 2589460
        }
    ]
}