{
    "_id": {
        "$oid": "5ad470074c372215dd13d635"
    },
    "fee": 3190,
    "id": "204028f5d06214ded77874dfd542842a9734c0612df118ddace3750e73899421",
    "raw": "0100000000010357492cdfefa55d4991fb7b91c8643c8ec2ccae495a97c7edf8ba6db9c062c0560200000017160014ff58443551586912f0b6c94c3307f04894600803ffffffff902e2d814593fb7d526bd286d71c1a51c0ae9ad082f3c102fc602c587c46ea8f2300000017160014ff58443551586912f0b6c94c3307f04894600803ffffffff7d75546e6545f7269c968ea2302d484cb0f07c49f84ede553ab5b33aa09fb9f50000000017160014ff58443551586912f0b6c94c3307f04894600803ffffffff01de9833020000000017a914491ca4bc8b66ddfda73b2618367d8fd178a8c3348702473044022004869396c98fb682faaa4c12a30ebea0d590754845ca9d0b0d07eacec96192f802201d0e09ce4a1cb242c90154c0712c750370f1ba3977bbf5a3905501fafebd7af1012102a006e9dce8cb31f96d5036d2f1724526555f4ebff5d54abe299b971a78e14c43024830450221008632cca17e318f91745ef8130db301748184b1eb85fb74e04e780ef0c74d564502203a3ced440ef1cd55472762f02d2f429674b5f637b3b7089a17401531fc1ee0cd012102a006e9dce8cb31f96d5036d2f1724526555f4ebff5d54abe299b971a78e14c4302473044022005129b26be7a30901f623e8d4b91c493b99fea9f09e02cfc2fcba5e5fb78646802200bb9cebea153f6c7040fb97e8a5717391542fc9e713fda34b05f26c02e4b9bd4012102a006e9dce8cb31f96d5036d2f1724526555f4ebff5d54abe299b971a78e14c4300000000",
    "size": 2232,
    "time": 1523871745,
    "valueOut": 0.36935902,
    "vin": [
        {
            "addr": "3AsX2M5w1PWSwi3fx9X3Jmb9ytRhpBo72S",
            "utxo": [
                {
                    "choosen": 1,
                    "confirmations": 13136,
                    "scriptPubKey": "a91464b5954b149b22af9c9d5555b830bfebc13437b887",
                    "txid": "56c062c0b96dbaf8edc7975a49aeccc28e3c64c8917bfb91495da5efdf2c4957",
                    "type": "scripthash",
                    "value": 3000000,
                    "vout": 2
                },
                {
                    "choosen": 1,
                    "confirmations": 13258,
                    "scriptPubKey": "a91464b5954b149b22af9c9d5555b830bfebc13437b887",
                    "txid": "8fea467c582c60fc02c1f382d09aaec0511a1cd786d26b527dfb9345812d2e90",
                    "type": "scripthash",
                    "value": 28122216,
                    "vout": 35
                },
                {
                    "choosen": 1,
                    "confirmations": 12998,
                    "scriptPubKey": "a91464b5954b149b22af9c9d5555b830bfebc13437b887",
                    "txid": "f5b99fa03ab3b53a55de4ef8497cf0b04c482d30a28e969c26f745656e54757d",
                    "type": "scripthash",
                    "value": 5816876,
                    "vout": 0
                }
            ]
        }
    ],
    "vout": [
        {
            "n": 0,
            "scriptPubKey": {
                "addresses": [
                    "38MbZjTL2UAS6Wer5joXNFUtigTqntwUZz"
                ],
                "asm": "OP_HASH160 491ca4bc8b66ddfda73b2618367d8fd178a8c334 OP_EQUAL",
                "hex": "a914491ca4bc8b66ddfda73b2618367d8fd178a8c33487",
                "type": "scripthash"
            },
            "spentHeight": null,
            "spentIndex": null,
            "spentTxId": null,
            "value": "0.36935902",
            "valueSat": 36935902
        }
    ]
}