{
    "_id": {
        "$oid": "5ad4701a4c372215dd13d636"
    },
    "fee": 2270,
    "id": "267cbade5552f1daf23cb6c9e49dfea1597e2722f95b8f73c5d2defe27879a0a",
    "raw": "010000000001020eea794984a6f3e9c8e9989a087e5ad5293369612e146f91caeb0716583f2d940000000017160014f657804eb49df95922420eb0e6118230c0041095ffffffff36c4ee429758809dda7f30a0d34d549781b4a9047e7dd9091c3ac540aed8e6bd0600000017160014f657804eb49df95922420eb0e6118230c0041095ffffffff01e27d32770000000017a914491ca4bc8b66ddfda73b2618367d8fd178a8c33487024730440220192393f771b3899b6b8b19a8853307bcd2cfd78f7b051d8f23a9d06b224d370f02202b5cbf1456efe3a76d7953cd8551a2e1fbc1fb19466425bd6b7b8865eafda9890121031932be03479899ee7c76eee83964c067f208601dd6097c852754228a47d6d8c502473044022079966420cc5e4376224ce252418bf14c65225117049ea9fc5c0acf5a5cb47f6a022079bb247b8ff63329a1254fba7abf4af8a2cda20775f37c13c660a0aecb12bbbe0121031932be03479899ee7c76eee83964c067f208601dd6097c852754228a47d6d8c500000000",
    "size": 1544,
    "time": 1523871760,
    "valueOut": 19.9979773,
    "vin": [
        {
            "addr": "34JRJgEY2Ju4MVm4zfLvn2VZWDX3ZG21RA",
            "utxo": [
                {
                    "choosen": 1,
                    "confirmations": 8974,
                    "scriptPubKey": "a9141ca2540607cbd838bcd25a4af29fbde53c9b11bb87",
                    "txid": "942d3f581607ebca916f142e61693329d55a7e089a98e9c8e9f3a6844979ea0e",
                    "type": "scripthash",
                    "value": 999900000,
                    "vout": 0
                },
                {
                    "choosen": 1,
                    "confirmations": 8976,
                    "scriptPubKey": "a9141ca2540607cbd838bcd25a4af29fbde53c9b11bb87",
                    "txid": "bde6d8ae40c53a1c09d97d7e04a9b48197544dd3a0307fda9d80589742eec436",
                    "type": "scripthash",
                    "value": 999900000,
                    "vout": 6
                }
            ]
        }
    ],
    "vout": [
        {
            "n": 0,
            "scriptPubKey": {
                "addresses": [
                    "38MbZjTL2UAS6Wer5joXNFUtigTqntwUZz"
                ],
                "asm": "OP_HASH160 491ca4bc8b66ddfda73b2618367d8fd178a8c334 OP_EQUAL",
                "hex": "a914491ca4bc8b66ddfda73b2618367d8fd178a8c33487",
                "type": "scripthash"
            },
            "spentHeight": null,
            "spentIndex": null,
            "spentTxId": null,
            "value": "19.99797730",
            "valueSat": 1999797730
        }
    ]
}