{
    "_id": {
        "$oid": "5ad4705b4c372215dd13d637"
    },
    "fee": 36994,
    "id": "c3f5daeb20b18ff2f3ad8f3dcf7b6ebce614d7bcc243d8fab113a9fd1d3470d1",
    "raw": "01000000000102b1515718b71b55b1e5a333307e2d16ba6148e1e6a909674a9e7ade9f60cbac6401000000232200208ddd5eaf128bae2852b00c0f69f700d6d24fc4e54f893235ba6c741bc6310c7effffffff28346e3884ac146307c0c778decfe5ac37e37a57ecbc8c99bbb2bf597468a45300000000232200208ddd5eaf128bae2852b00c0f69f700d6d24fc4e54f893235ba6c741bc6310c7effffffff026b6f81030000000017a9146cd7da9d8489b6d1c406ee72a3a3752db5130a95878d3811000000000017a91466e5b19b1bfd008c83101d43e5628dfa4489558d870400483045022100fa227ff43a13b13b5e432302f60a9f4c028f3c67023f77ff6def6b6501d6148102205299114f8fc0bf177104d5e0d41adaa1debe3efe2833edfb29bed7e83082531401483045022100e80016c3442cd0757bfdefa38bc4ba4c26970134e59cf65bd014d66d9f94ebf4022071a30cbd83a482ec32b5b92464793f804cdf08482b73d4152d303e37a848c6c20147522102e69a219924ab0282fa486f35aa2b62fe37437e3556e943711a66d1e6167f29b721034ac7265b62973759f7316129aff65c85bc8012b2ee6a34c7964372175c71fed752ae0400483045022100cefe69b6e6da00122dc33d34a14f0a85fc439e49a8cc4a7bfbf518e9ad372d8002200a4cd8cb3cb7c3a86c2dbfcf8f101c0799323c85d0526c8349769b4f6bba462601473044022052fdadd731877426d509191a2804ac2ec4c6d75ecffaffc104f0e86733b5878a022061f75722a4e9e461792ba0ae50d81b6754f4c0453e3be92517f6cf30affb078a0147522102e69a219924ab0282fa486f35aa2b62fe37437e3556e943711a66d1e6167f29b721034ac7265b62973759f7316129aff65c85bc8012b2ee6a34c7964372175c71fed752ae00000000",
    "size": 2668,
    "time": 1523871830,
    "valueOut": 0.59942904,
    "vin": [
        {
            "addr": "3B561WjyzU9TqDaWWdCJ9eb3Qv9HHewvCR",
            "utxo": [
                {
                    "choosen": 1,
                    "confirmations": 35,
                    "scriptPubKey": "a91466e5b19b1bfd008c83101d43e5628dfa4489558d87",
                    "txid": "64accb609fde7a9e4a6709a9e6e14861ba162d7e3033a3e5b1551bb7185751b1",
                    "type": "scripthash",
                    "value": 1153898,
                    "vout": 1
                },
                {
                    "choosen": 1,
                    "confirmations": 34,
                    "scriptPubKey": "a91466e5b19b1bfd008c83101d43e5628dfa4489558d87",
                    "txid": "53a4687459bfb2bb998cbcec577ae337ace5cfde78c7c0076314ac84386e3428",
                    "type": "scripthash",
                    "value": 58826000,
                    "vout": 0
                },
                {
                    "choosen": 0,
                    "confirmations": 0,
                    "scriptPubKey": "a91466e5b19b1bfd008c83101d43e5628dfa4489558d87",
                    "txid": "c3f5daeb20b18ff2f3ad8f3dcf7b6ebce614d7bcc243d8fab113a9fd1d3470d1",
                    "type": "scripthash",
                    "value": 1128589,
                    "vout": 1
                }
            ]
        }
    ],
    "vout": [
        {
            "n": 0,
            "scriptPubKey": {
                "addresses": [
                    "3BcXV4K865cPR5agKmbEJqLrfih4AP9ka1"
                ],
                "asm": "OP_HASH160 6cd7da9d8489b6d1c406ee72a3a3752db5130a95 OP_EQUAL",
                "hex": "a9146cd7da9d8489b6d1c406ee72a3a3752db5130a9587",
                "type": "scripthash"
            },
            "spentHeight": null,
            "spentIndex": null,
            "spentTxId": null,
            "value": "0.58814315",
            "valueSat": 58814315
        },
        {
            "n": 1,
            "scriptPubKey": {
                "addresses": [
                    "3B561WjyzU9TqDaWWdCJ9eb3Qv9HHewvCR"
                ],
                "asm": "OP_HASH160 66e5b19b1bfd008c83101d43e5628dfa4489558d OP_EQUAL",
                "hex": "a91466e5b19b1bfd008c83101d43e5628dfa4489558d87",
                "type": "scripthash"
            },
            "spentHeight": null,
            "spentIndex": null,
            "spentTxId": null,
            "value": "0.01128589",
            "valueSat": 1128589
        }
    ]
}