{
    "_id": {
        "$oid": "5ad471284c372215dd13d638"
    },
    "fee": 748,
    "id": "be5706bb6908468a4ad8cdf8175ed7daf48111ceead05d9e739a5c64a03caba3",
    "raw": "0100000002abdb3cb2b2d8b6471ec4263f8a7cf23ede5790014c929aa66ca9018018168d85760100006b483045022100a94e4a1e660644f1d46b6fec35e3e80364fa46a1e9cf664c18bdcf292abb5cd202202d7e883ea9fc0f5ee40d94241e548e5f6503c490e50c354f3548c3f2271c05d80121033ecfb6f4f2a200f43fd745a16d6a3be2aabbca0871b4f5632a0124829c67442effffffff25f97f67897a46b5d9678aa22bab59e204b3fc17ed05f8c3d308ff777378548e000000006b483045022100aac0c8c265bbcc0ac1bc488530d9904e724cf377780c36e295e5fec89ea78bfc02200d74905efa825fefa8bcaa6d9fac5c5185118bd0d50a25adcad71ce8bf4d40b60121033ecfb6f4f2a200f43fd745a16d6a3be2aabbca0871b4f5632a0124829c67442effffffff0266030000000000001976a9147e602e218ae9d0bb411717839a6d198e6393920788acc0390600000000001976a914f816b811630c8fd4c51a11aadab82b63d03a61d888ac00000000",
    "size": 1496,
    "time": 1523872035,
    "valueOut": 0.0040887,
    "vin": [
        {
            "addr": "1CXDMtWMn8kfqQyaS6Ph2oda5iG9gVgyb3",
            "utxo": [
                {
                    "choosen": 1,
                    "confirmations": 82,
                    "scriptPubKey": "76a9147e602e218ae9d0bb411717839a6d198e6393920788ac",
                    "txid": "858d16188001a96ca69a924c019057de3ef27c8a3f26c41e47b6d8b2b23cdbab",
                    "type": "pubkeyhash",
                    "value": 406955,
                    "vout": 374
                },
                {
                    "choosen": 1,
                    "confirmations": 2186,
                    "scriptPubKey": "76a9147e602e218ae9d0bb411717839a6d198e6393920788ac",
                    "txid": "8e54787377ff08d3c3f805ed17fcb304e259ab2ba28a67d9b5467a89677ff925",
                    "type": "pubkeyhash",
                    "value": 2663,
                    "vout": 0
                },
                {
                    "choosen": 0,
                    "confirmations": 0,
                    "scriptPubKey": "76a9147e602e218ae9d0bb411717839a6d198e6393920788ac",
                    "txid": "be5706bb6908468a4ad8cdf8175ed7daf48111ceead05d9e739a5c64a03caba3",
                    "type": "pubkeyhash",
                    "value": 870,
                    "vout": 0
                }
            ]
        }
    ],
    "vout": [
        {
            "n": 0,
            "scriptPubKey": {
                "addresses": [
                    "1CXDMtWMn8kfqQyaS6Ph2oda5iG9gVgyb3"
                ],
                "asm": "OP_DUP OP_HASH160 7e602e218ae9d0bb411717839a6d198e63939207 OP_EQUALVERIFY OP_CHECKSIG",
                "hex": "76a9147e602e218ae9d0bb411717839a6d198e6393920788ac",
                "type": "pubkeyhash"
            },
            "spentHeight": null,
            "spentIndex": null,
            "spentTxId": null,
            "value": "0.00000870",
            "valueSat": 870
        },
        {
            "n": 1,
            "scriptPubKey": {
                "addresses": [
                    "1Pcmo7teX1yP4f52cjRN2AkhKzMtXGTds4"
                ],
                "asm": "OP_DUP OP_HASH160 f816b811630c8fd4c51a11aadab82b63d03a61d8 OP_EQUALVERIFY OP_CHECKSIG",
                "hex": "76a914f816b811630c8fd4c51a11aadab82b63d03a61d888ac",
                "type": "pubkeyhash"
            },
            "spentHeight": null,
            "spentIndex": null,
            "spentTxId": null,
            "value": "0.00408000",
            "valueSat": 408000
        }
    ]
}