{
    "_id": {
        "$oid": "5ad472ba4c372215dd13d63b"
    },
    "fee": 1222,
    "id": "fa664f2d0e0ddff532c1234ee171a87b9f43fa560c16bb27615830481b75fdaf",
    "raw": "010000000217dfccbfb2c2c4d22525329b4a05ad7b776de67661618ebd7775188793ae945c000000008a473044022053e9cd64a57b02df4c96d44f2980cbd9d301dcf7b2b74e9205bdef783982883b02202b6cc1bec3e3a919ab6d3a4348eda0e93c57c1f117684eba8205d29409b07d640141048f400f109a5b9e17a8b6825857020773cd30ba940afd110fe38bbc66794fe194c7bdcfe2645079c485fc8f793a50aa2daa90626d154dd25d59b18f170591176bfeffffffe952bf66f601b51071b38f7f294c7bc0d551e007bb56da28f1edd96a628c56ed010000008a47304402207601b52edaf415953817a4398539e5fe2710a43436b932fdb95ff79f763b355b02205308c281aceb627b7c6bdcb69fd115ba537db609e4666f29c9bad8d5912c80f70141048f400f109a5b9e17a8b6825857020773cd30ba940afd110fe38bbc66794fe194c7bdcfe2645079c485fc8f793a50aa2daa90626d154dd25d59b18f170591176bfeffffff01df8d51000000000017a914ea447f162bba2da40cde8fcd63c50211a8d3fd758700000000",
    "size": 1600,
    "time": 1523872437,
    "valueOut": 0.05344735,
    "vin": [
        {
            "addr": "1LRKiwZ1WpZE89U9ZwkL6PmJYoAWKE6ocq",
            "utxo": [
                {
                    "choosen": 1,
                    "confirmations": 10,
                    "scriptPubKey": "76a914d5040092f39582714b1f3d3cc627474c8047f4da88ac",
                    "txid": "5c94ae9387187577bd8e616176e66d777bad054a9b322525d2c4c2b2bfccdf17",
                    "type": "pubkeyhash",
                    "value": 3273190,
                    "vout": 0
                },
                {
                    "choosen": 1,
                    "confirmations": 10,
                    "scriptPubKey": "76a914d5040092f39582714b1f3d3cc627474c8047f4da88ac",
                    "txid": "ed568c626ad9edf128da56bb07e051d5c07b4c297f8fb37110b501f666bf52e9",
                    "type": "pubkeyhash",
                    "value": 2072767,
                    "vout": 1
                }
            ]
        }
    ],
    "vout": [
        {
            "n": 0,
            "scriptPubKey": {
                "addresses": [
                    "3P3i6eWoFp6zXrqmQAbZQbCHZeqfr1bSi8"
                ],
                "asm": "OP_HASH160 ea447f162bba2da40cde8fcd63c50211a8d3fd75 OP_EQUAL",
                "hex": "a914ea447f162bba2da40cde8fcd63c50211a8d3fd7587",
                "type": "scripthash"
            },
            "spentHeight": null,
            "spentIndex": null,
            "spentTxId": null,
            "value": "0.05344735",
            "valueSat": 5344735
        }
    ]
}