{
    "_id": {
        "$oid": "5ad473814c372215dd13d63d"
    },
    "fee": 18252,
    "id": "498c4a445365df3f5365a6b1b706a3201945cc78c2231d242908f3a9873deeff",
    "raw": "01000000022dd3320ac06eead422d7e3c360f5c328754013bb6aa96827719a04b1c878007e070000006b483045022100efd0492744c1f5aa23977a3870a12adb9a74dd5472cb2d8d0422a0ebf66f094e02203713ebe480902485f06967823bdc05044213b9db1861ddf6b65a26430daeb687012102a54b6c425a974cba19782ff7ae9d2f63c388b8d4e48e0f78cadae72bc48cb5f1ffffffff13a2faf897b1eaaa92bcbdf8f67c0c0106ab36efe30412cab6fcd3842d05d736000000006a47304402207dee9a2419272dceacbc5fc8672d435213288af90cca617642959ba8f76c5e120220161fc09c6b23514b8da5c8370662de906face097fe440e6a8226a2c7a29623ca012102a54b6c425a974cba19782ff7ae9d2f63c388b8d4e48e0f78cadae72bc48cb5f1ffffffff06280b0400000000001976a9146119edc6e2b1b0ec1d8f21826f4544627f0cdc2188ac48540400000000001976a91478d598c06c88b35993bdf01d69a7cfc6bc0a972b88aca4780600000000001976a914eb658db10ad0a83fa65be39fffab4a1f4887b6bb88ac12e70600000000001976a91412251a2fe778c4ee71c20e46bf4df4f05736baf088ac22c20200000000001976a914b210404c1bd7b4d4fba84fc6366a0ce3b27897d888acccb96c00000000001976a914d5727f30c2e05e6301d381ff0a8b09421b7a07b988ac00000000",
    "size": 2036,
    "time": 1523872637,
    "valueOut": 0.08731412,
    "vin": [
        {
            "addr": "1LTc6Eu8s9fy2zpsJRUjRHBF12th43N9je",
            "utxo": [
                {
                    "choosen": 1,
                    "confirmations": 3,
                    "scriptPubKey": "76a914d5727f30c2e05e6301d381ff0a8b09421b7a07b988ac",
                    "txid": "7e0078c8b1049a712768a96abb13407528c3f560c3e3d722d4ea6ec00a32d32d",
                    "type": "pubkeyhash",
                    "value": 1185891,
                    "vout": 7
                },
                {
                    "choosen": 1,
                    "confirmations": 4,
                    "scriptPubKey": "76a914d5727f30c2e05e6301d381ff0a8b09421b7a07b988ac",
                    "txid": "36d7052d84d3fcb6ca1204e3ef36ab06010c7cf6f8bdbc92aaeab197f8faa213",
                    "type": "pubkeyhash",
                    "value": 7563773,
                    "vout": 0
                },
                {
                    "choosen": 0,
                    "confirmations": 0,
                    "scriptPubKey": "76a914d5727f30c2e05e6301d381ff0a8b09421b7a07b988ac",
                    "txid": "498c4a445365df3f5365a6b1b706a3201945cc78c2231d242908f3a9873deeff",
                    "type": "pubkeyhash",
                    "value": 7125452,
                    "vout": 5
                },
                {
                    "choosen": 0,
                    "confirmations": 2,
                    "scriptPubKey": "76a914d5727f30c2e05e6301d381ff0a8b09421b7a07b988ac",
                    "txid": "87fb0804b0d8ddb2a83b074273e3c80b62d5c06ac920429becbc235ad6f1e86e",
                    "type": "pubkeyhash",
                    "value": 6983567,
                    "vout": 0
                },
                {
                    "choosen": 0,
                    "confirmations": 4,
                    "scriptPubKey": "76a914d5727f30c2e05e6301d381ff0a8b09421b7a07b988ac",
                    "txid": "a28a73df6da2013d7d981b1f29682f17c24d046f079429dc118d6d2de7b71338",
                    "type": "pubkeyhash",
                    "value": 10937876,
                    "vout": 0
                },
                {
                    "choosen": 0,
                    "confirmations": 36,
                    "scriptPubKey": "76a914d5727f30c2e05e6301d381ff0a8b09421b7a07b988ac",
                    "txid": "2bae1afb5f5e66dcbb58516740ecdaa45fd05d1f08f68e162b669070fb739e6f",
                    "type": "pubkeyhash",
                    "value": 6191608,
                    "vout": 1
                }
            ]
        }
    ],
    "vout": [
        {
            "n": 0,
            "scriptPubKey": {
                "addresses": [
                    "19rRcB3t5WS7iGsoqWasgZg2ZKMzy1FTdJ"
                ],
                "asm": "OP_DUP OP_HASH160 6119edc6e2b1b0ec1d8f21826f4544627f0cdc21 OP_EQUALVERIFY OP_CHECKSIG",
                "hex": "76a9146119edc6e2b1b0ec1d8f21826f4544627f0cdc2188ac",
                "type": "pubkeyhash"
            },
            "spentHeight": null,
            "spentIndex": null,
            "spentTxId": null,
            "value": "0.00265000",
            "valueSat": 265000
        },
        {
            "n": 1,
            "scriptPubKey": {
                "addresses": [
                    "1C1uxyhbNJJingpC7gJ9dnav2Qgbpx7Ld6"
                ],
                "asm": "OP_DUP OP_HASH160 78d598c06c88b35993bdf01d69a7cfc6bc0a972b OP_EQUALVERIFY OP_CHECKSIG",
                "hex": "76a91478d598c06c88b35993bdf01d69a7cfc6bc0a972b88ac",
                "type": "pubkeyhash"
            },
            "spentHeight": null,
            "spentIndex": null,
            "spentTxId": null,
            "value": "0.00283720",
            "valueSat": 283720
        },
        {
            "n": 2,
            "scriptPubKey": {
                "addresses": [
                    "1NTfT97P4EAVGqkUZz5FRct2VW8BMghUr4"
                ],
                "asm": "OP_DUP OP_HASH160 eb658db10ad0a83fa65be39fffab4a1f4887b6bb OP_EQUALVERIFY OP_CHECKSIG",
                "hex": "76a914eb658db10ad0a83fa65be39fffab4a1f4887b6bb88ac",
                "type": "pubkeyhash"
            },
            "spentHeight": null,
            "spentIndex": null,
            "spentTxId": null,
            "value": "0.00424100",
            "valueSat": 424100
        },
        {
            "n": 3,
            "scriptPubKey": {
                "addresses": [
                    "12ewcNCWgJvp8o54aupeJiuyrL4RgMXogB"
                ],
                "asm": "OP_DUP OP_HASH160 12251a2fe778c4ee71c20e46bf4df4f05736baf0 OP_EQUALVERIFY OP_CHECKSIG",
                "hex": "76a91412251a2fe778c4ee71c20e46bf4df4f05736baf088ac",
                "type": "pubkeyhash"
            },
            "spentHeight": null,
            "spentIndex": null,
            "spentTxId": null,
            "value": "0.00452370",
            "valueSat": 452370
        },
        {
            "n": 4,
            "scriptPubKey": {
                "addresses": [
                    "1HEWkJBkWE9Eq3akQ79JaPotabNncbHDDQ"
                ],
                "asm": "OP_DUP OP_HASH160 b210404c1bd7b4d4fba84fc6366a0ce3b27897d8 OP_EQUALVERIFY OP_CHECKSIG",
                "hex": "76a914b210404c1bd7b4d4fba84fc6366a0ce3b27897d888ac",
                "type": "pubkeyhash"
            },
            "spentHeight": null,
            "spentIndex": null,
            "spentTxId": null,
            "value": "0.00180770",
            "valueSat": 180770
        },
        {
            "n": 5,
            "scriptPubKey": {
                "addresses": [
                    "1LTc6Eu8s9fy2zpsJRUjRHBF12th43N9je"
                ],
                "asm": "OP_DUP OP_HASH160 d5727f30c2e05e6301d381ff0a8b09421b7a07b9 OP_EQUALVERIFY OP_CHECKSIG",
                "hex": "76a914d5727f30c2e05e6301d381ff0a8b09421b7a07b988ac",
                "type": "pubkeyhash"
            },
            "spentHeight": null,
            "spentIndex": null,
            "spentTxId": null,
            "value": "0.07125452",
            "valueSat": 7125452
        }
    ]
}