{
    "_id": {
        "$oid": "5ad4739d4c372215dd13d63e"
    },
    "fee": 1870,
    "id": "54831a9527892a2fd419d7989de7c7839dd7d453d5777074f084fe9187a525a9",
    "raw": "0100000002c21e8765f3437171fe5b46ca70837b26aa41470a11ed0e321f73ea04f69a5b07000000006a47304402203bb85af40db2b2b04f08d7cd5c56f8d6b24cd3bbd1b6a224b2e3d33d13a6aac40220131e9845d12f54850ef97e8d565e1e5900145be2934a6d0e18018d829cafaa28012103f01a29f0f99cfd67f4e27b46b137548228455772911ba82f4a9a263a3645ddd1ffffffffd368f231ed3813b5ebe9a23504f5ea53138aa184a83b4a08357c19dcbd567836000000006b483045022100fc372a717379b814c01e47c500484d80c749217c3630f6d0faa38def0568d3de022035455839221abac1d02934a5bd900ade681625428136c74bc5dbae3182fe31e9012103f01a29f0f99cfd67f4e27b46b137548228455772911ba82f4a9a263a3645ddd1ffffffff02f6ca0300000000001976a914dbcaa95cce11cc23d0533ae8cd9bef2afbdd3aef88ac48af0700000000001976a9143fd58a7a5409384bf30d9da31756e79ca100c03a88ac00000000",
    "size": 1492,
    "time": 1523872664,
    "valueOut": 0.0075219,
    "vin": [
        {
            "addr": "18dDMCB93wq2N2Qk8bWoYB6fHJ2iMubCrR",
            "utxo": [
                {
                    "choosen": 1,
                    "confirmations": 56162,
                    "scriptPubKey": "76a91453a229af06ba87d74a81f8ecca184c36b7e72b1388ac",
                    "txid": "075b9af604ea731f320eed110a4741aa267b8370ca465bfe717143f365871ec2",
                    "type": "pubkeyhash",
                    "value": 313628,
                    "vout": 0
                },
                {
                    "choosen": 1,
                    "confirmations": 36459,
                    "scriptPubKey": "76a91453a229af06ba87d74a81f8ecca184c36b7e72b1388ac",
                    "txid": "367856bddc197c35084a3ba884a18a1353eaf50435a2e9ebb51338ed31f268d3",
                    "type": "pubkeyhash",
                    "value": 440432,
                    "vout": 0
                },
                {
                    "choosen": 0,
                    "confirmations": 60589,
                    "scriptPubKey": "76a91453a229af06ba87d74a81f8ecca184c36b7e72b1388ac",
                    "txid": "e6176f8ed748d3db1f7ba74ec1520ccf2ff4dc6181549a351f1d4dd6e58e26ce",
                    "type": "pubkeyhash",
                    "value": 104981,
                    "vout": 0
                }
            ]
        }
    ],
    "vout": [
        {
            "n": 0,
            "scriptPubKey": {
                "addresses": [
                    "1M39mBfCHdj8L5XA84KGvKzERb91DzAKcj"
                ],
                "asm": "OP_DUP OP_HASH160 dbcaa95cce11cc23d0533ae8cd9bef2afbdd3aef OP_EQUALVERIFY OP_CHECKSIG",
                "hex": "76a914dbcaa95cce11cc23d0533ae8cd9bef2afbdd3aef88ac",
                "type": "pubkeyhash"
            },
            "spentHeight": null,
            "spentIndex": null,
            "spentTxId": null,
            "value": "0.00248566",
            "valueSat": 248566
        },
        {
            "n": 1,
            "scriptPubKey": {
                "addresses": [
                    "16pXPAp8A3CzcVW43Vm6cTQ3Dn7ei1akDi"
                ],
                "asm": "OP_DUP OP_HASH160 3fd58a7a5409384bf30d9da31756e79ca100c03a OP_EQUALVERIFY OP_CHECKSIG",
                "hex": "76a9143fd58a7a5409384bf30d9da31756e79ca100c03a88ac",
                "type": "pubkeyhash"
            },
            "spentHeight": null,
            "spentIndex": null,
            "spentTxId": null,
            "value": "0.00503624",
            "valueSat": 503624
        }
    ]
}