{
    "_id": {
        "$oid": "5ad4742c4c372215dd13d63f"
    },
    "fee": 11528,
    "id": "aea0254ce0678062ed4308f14d5cddc1a4d878dbe786757cd4be2820b7b67416",
    "raw": "01000000027b9165efe749484c32e9b5359c783b09908a4e7ad521fa040d03018f6490cf460b0000006a47304402202dda3e3f54874167cf1caaebef5b95bf46b92170080950846b324c9a3d7b806d0220061ce3776a9f59534e6bdae44a43e38b4ed4d9796a1edc95db99d8859555b7550121027ab2d66eb9a4022a41dda058563fc5e1e697e3d573b2eb1a8821267269f756e2ffffffffcba8e375aef6a8800da3d7e161c24254e1a4dbc83be7f83e98f654b3871635ab010000006a4730440220427b99202ecdc4146b2432bca35841f57e16ceeec211dad32115008296f5657e0220615b1195fab8164f00d4c4615e880fa3aeef875462f25af5a71177160e148fb40121027ab2d66eb9a4022a41dda058563fc5e1e697e3d573b2eb1a8821267269f756e2ffffffff01c8900100000000001976a91403271da4e221aacd6613763f7bd0fead67080a2f88ac00000000",
    "size": 1352,
    "time": 1523872808,
    "valueOut": 0.001026,
    "vin": [
        {
            "addr": "12scYitG59jakHqK8C6M5WsKPfwDBrJg4D",
            "utxo": [
                {
                    "choosen": 1,
                    "confirmations": 3,
                    "scriptPubKey": "76a914148a98d24c00d611fe73b69bda0e129978b4c1ce88ac",
                    "txid": "46cf90648f01030d04fa21d57a4e8a90093b789c35b5e9324c4849e7ef65917b",
                    "type": "pubkeyhash",
                    "value": 102800,
                    "vout": 11
                },
                {
                    "choosen": 1,
                    "confirmations": 1,
                    "scriptPubKey": "76a914148a98d24c00d611fe73b69bda0e129978b4c1ce88ac",
                    "txid": "ab351687b354f6983ef8e73bc8dba4e15442c261e1d7a30d80a8f6ae75e3a8cb",
                    "type": "pubkeyhash",
                    "value": 11328,
                    "vout": 1
                }
            ]
        }
    ],
    "vout": [
        {
            "n": 0,
            "scriptPubKey": {
                "addresses": [
                    "1HftPYfvvZuAb18YtPLqqo7C8cuD6H1sq"
                ],
                "asm": "OP_DUP OP_HASH160 03271da4e221aacd6613763f7bd0fead67080a2f OP_EQUALVERIFY OP_CHECKSIG",
                "hex": "76a91403271da4e221aacd6613763f7bd0fead67080a2f88ac",
                "type": "pubkeyhash"
            },
            "spentHeight": null,
            "spentIndex": null,
            "spentTxId": null,
            "value": "0.00102600",
            "valueSat": 102600
        }
    ]
}