{
    "_id": {
        "$oid": "5ad476594c372215dd13d643"
    },
    "fee": 1870,
    "id": "2938cf48556ebd3d337839322a9a872af88193ae2c62e3fc5313c484deb4ed3d",
    "raw": "01000000020075dfc1a9e8b0d5000bf99e0e747212025a475d2c70f8637448ee9c62f59442010000006a47304402202a796e8cfc6cb43603e6867e750ae68eb7a935022e93a1c2958e6c176779c08a022062a6c618da0f7d14374ca027bef176ccd13cd85b9d69843f163b3e675d8e850a0121037f839acbb2048d2be519e51ef973fb5f17f6c2613559e14e725c7615c8251f53fffffffff95845df75916e7b1e36f545cd25ff5b93c572f938e7a4053789a4f81d56a3d0010000006a4730440220581f6cc6fb7238eb0295fec8ae180d307b6eeb4790e1956847e07724a149a4a102202bfbb4d337e91dacda0c7b16b5a7310a627c12620724aafaec67598793597c8c0121037f839acbb2048d2be519e51ef973fb5f17f6c2613559e14e725c7615c8251f53ffffffff02b2d9f505000000001976a9140a9b5f2cdd97af4b319d98638ff7a41583e9a0d488ac00e1f505000000001976a91486b4a69d3317ce5e6bef0982c025c87e33ca6b4288ac00000000",
    "size": 1488,
    "time": 1523873364,
    "valueOut": 1.9999813,
    "vin": [
        {
            "addr": "1PXzphqPLsjwQDJG5LCdEARugW1eLUSZ3A",
            "utxo": [
                {
                    "choosen": 1,
                    "confirmations": 3,
                    "scriptPubKey": "76a914f72f838d532e2c2a9682c2d536bdb2cf643a095c88ac",
                    "txid": "4294f5629cee487463f8702c5d475a021272740e9ef90b00d5b0e8a9c1df7500",
                    "type": "pubkeyhash",
                    "value": 100000000,
                    "vout": 1
                },
                {
                    "choosen": 1,
                    "confirmations": 3,
                    "scriptPubKey": "76a914f72f838d532e2c2a9682c2d536bdb2cf643a095c88ac",
                    "txid": "d0a3561df8a4893705a4e738f972c5935bff25cd45f5361e7b6e9175df4558f9",
                    "type": "pubkeyhash",
                    "value": 100000000,
                    "vout": 1
                }
            ]
        }
    ],
    "vout": [
        {
            "n": 0,
            "scriptPubKey": {
                "addresses": [
                    "1y5tLeTLiFoP4iLh2jcRLEbtkmRWLwj8M"
                ],
                "asm": "OP_DUP OP_HASH160 0a9b5f2cdd97af4b319d98638ff7a41583e9a0d4 OP_EQUALVERIFY OP_CHECKSIG",
                "hex": "76a9140a9b5f2cdd97af4b319d98638ff7a41583e9a0d488ac",
                "type": "pubkeyhash"
            },
            "spentHeight": null,
            "spentIndex": null,
            "spentTxId": null,
            "value": "0.99998130",
            "valueSat": 99998130
        },
        {
            "n": 1,
            "scriptPubKey": {
                "addresses": [
                    "1DHFxYdoRTZcLNGWEAP1JfAjrcvRkkbrUX"
                ],
                "asm": "OP_DUP OP_HASH160 86b4a69d3317ce5e6bef0982c025c87e33ca6b42 OP_EQUALVERIFY OP_CHECKSIG",
                "hex": "76a91486b4a69d3317ce5e6bef0982c025c87e33ca6b4288ac",
                "type": "pubkeyhash"
            },
            "spentHeight": null,
            "spentIndex": null,
            "spentTxId": null,
            "value": "1.00000000",
            "valueSat": 100000000
        }
    ]
}