{
    "_id": {
        "$oid": "5ad477294c372215dd13d646"
    },
    "fee": 9380,
    "id": "54173cd8d0cdf2f36560edd54f378fd37eb9ea0b89cfab213b43518398138ac5",
    "raw": "0100000004b4181790480f566972088c1b048e54640e549663e784f3794d5f6e43e640962c010000006b483045022100bb083d99c4f5d8ebbd55b6e7ef4c3cfcf46d14a86e8166d8414c43ae6e6bffd8022056448fc4144ae41575087fb8f874c735ccde45df1f473523772c6714677ebac501210360feda4140c934f7079b069d1e010dc6aaefe22b7c62fc46cfd8666c746a5257fdffffff1940976be1918a445e766d29c45dec0cd6dc8f8d92f66f16d1435b1214365b52000000006b483045022100e95096e0a9663e668ef8d08da0df89c98ac0882c29d02153c597a54ef9588d5602205fd494c58f66d1a65a66bb4fb3ed5db3515d25b282b3bbf2f5bfbfb9f449121701210360feda4140c934f7079b069d1e010dc6aaefe22b7c62fc46cfd8666c746a5257fdffffff45456a7956a4567acf371c3ec33a6b0cd3e40dc125c5309c8284412091e1eb7d010000006b483045022100f9459214a8c4d72c2f343ee112d142d918bd4d3a512826de4a7a6a9064e3a45a022041ffc9ee6ff2c30b9a01fa24750da2033cc66d66675d92f6ff0f264b1ffefd2801210360feda4140c934f7079b069d1e010dc6aaefe22b7c62fc46cfd8666c746a5257fdffffffc69ca14bf7472fcbf1d7d5c41bf9b929ee5c1a9356a15b16ca4f809e4c95b1a0010000006b483045022100be50a31fc25a5cffc592d7758e40eb4bf033a875e1165449243c48cff5353c94022046061dbcd55c8362191de3a3302e596c7b2ec17872e15b65367415ed03ed919b01210360feda4140c934f7079b069d1e010dc6aaefe22b7c62fc46cfd8666c746a5257fdffffff0254480000000000001976a914a3fb93420b46ff9830c936fbe2b6e067636d9be688acc05c1500000000001976a91453de70339b54d3838480111c81bec1bfd713bfc588ac35e90700",
    "size": 2680,
    "time": 1523873572,
    "valueOut": 0.01418516,
    "vin": [
        {
            "addr": "17XzQtgmYef1D7hpkiGrc1YdKcVXrsStr7",
            "utxo": [
                {
                    "choosen": 1,
                    "confirmations": 5,
                    "scriptPubKey": "76a91447ad289ab0c2d1a71f7f2a4f43dba23af151a9bc88ac",
                    "txid": "2c9640e6436e5f4d79f384e76396540e64548e041b8c087269560f48901718b4",
                    "type": "pubkeyhash",
                    "value": 356988,
                    "vout": 1
                },
                {
                    "choosen": 1,
                    "confirmations": 6,
                    "scriptPubKey": "76a91447ad289ab0c2d1a71f7f2a4f43dba23af151a9bc88ac",
                    "txid": "525b3614125b43d1166ff6928d8fdcd60cec5dc4296d765e448a91e16b974019",
                    "type": "pubkeyhash",
                    "value": 356993,
                    "vout": 0
                },
                {
                    "choosen": 1,
                    "confirmations": 5,
                    "scriptPubKey": "76a91447ad289ab0c2d1a71f7f2a4f43dba23af151a9bc88ac",
                    "txid": "7debe191204184829c30c525c10de4d30c6b3ac33e1c37cf7a56a456796a4545",
                    "type": "pubkeyhash",
                    "value": 356983,
                    "vout": 1
                },
                {
                    "choosen": 1,
                    "confirmations": 5,
                    "scriptPubKey": "76a91447ad289ab0c2d1a71f7f2a4f43dba23af151a9bc88ac",
                    "txid": "a0b1954c9e804fca165ba156931a5cee29b9f91bc4d5d7f1cb2f47f74ba19cc6",
                    "type": "pubkeyhash",
                    "value": 356932,
                    "vout": 1
                }
            ]
        }
    ],
    "vout": [
        {
            "n": 0,
            "scriptPubKey": {
                "addresses": [
                    "1Fx4X2FT1zJ19GYTTWfPesxABRZivDPBt5"
                ],
                "asm": "OP_DUP OP_HASH160 a3fb93420b46ff9830c936fbe2b6e067636d9be6 OP_EQUALVERIFY OP_CHECKSIG",
                "hex": "76a914a3fb93420b46ff9830c936fbe2b6e067636d9be688ac",
                "type": "pubkeyhash"
            },
            "spentHeight": null,
            "spentIndex": null,
            "spentTxId": null,
            "value": "0.00018516",
            "valueSat": 18516
        },
        {
            "n": 1,
            "scriptPubKey": {
                "addresses": [
                    "18eTZCtus71B2agApUVJZZS9gGNZoKwPEo"
                ],
                "asm": "OP_DUP OP_HASH160 53de70339b54d3838480111c81bec1bfd713bfc5 OP_EQUALVERIFY OP_CHECKSIG",
                "hex": "76a91453de70339b54d3838480111c81bec1bfd713bfc588ac",
                "type": "pubkeyhash"
            },
            "spentHeight": null,
            "spentIndex": null,
            "spentTxId": null,
            "value": "0.01400000",
            "valueSat": 1400000
        }
    ]
}