{
    "_id": {
        "$oid": "5ad4778d4c372215dd13d647"
    },
    "fee": 12558,
    "id": "2045f1092d82f3bc8a336c11448dfc5ce00477ac7b98ee01b39527486c720c6b",
    "raw": "0100000000010303aba2641461f195cbb6f92871437e8f44a6e76a4aadf5044ece42e0df48d9340100000023220020f7efa2f6c59f4a45be152c896fc1ea79fd25945f1f19e04faedcae7ac7583c76ffffffff9377a55a77ddc3ff7e0d6356c840b71c6063a7d842ed677afe44517c0c2890070100000023220020f7efa2f6c59f4a45be152c896fc1ea79fd25945f1f19e04faedcae7ac7583c76ffffffff20dbf4875cc7a14715f706519558b0d2d1ed3e74617ac3641192ae7c21a0bdd70100000023220020f7efa2f6c59f4a45be152c896fc1ea79fd25945f1f19e04faedcae7ac7583c76ffffffff02c0cf6a00000000001976a914bf1b55741d360898c5cb8384364fa49b80e8f9cd88ac733609000000000017a91415eef97abad45785157e826ebdae9a366a6c5db48704004730440220074a48eabdb92a05646608b27b02839d8e25dce855441b395b233559adc1908802203b9a0139deb2d2d428c52cd0670034764a4306d134ddbfb3c71d258ad60339f701483045022100c0759836b58b85bf74bec0eab8a045acf89920e03ddad4bb13a89a651a349d86022006d8f602c2344a971bc662980db240fec88e1bac3735234a52cc94f47b44adbc0147522102a7b959071d7237f8d09d501051e6ea429198b7bd84c6ee8a348f1f012d4f6dd72103148c80a5bdfddb05ff5bcffc397c8ca748d8b435ec6a175bc9d7bfc7fc6f853752ae0400483045022100d0d944e26f1408aa6660214f59862ca98e43357dc6b8cf2a609593a068f0cc0c02206e0dbf1619fbb579cee1e23b0ac20d48e19f10bfabb907aa1d630e571686bb9d0147304402205619447d629994f683c4ea6fad2061197a57f1b2c65e83de131689109c216ce7022038ada6549f982f02843f4bdc6cfc99162414ef04a0eab30a0ae33c7dbb70d5ba0147522102a7b959071d7237f8d09d501051e6ea429198b7bd84c6ee8a348f1f012d4f6dd72103148c80a5bdfddb05ff5bcffc397c8ca748d8b435ec6a175bc9d7bfc7fc6f853752ae040047304402205298722effaf66d0226b29ce71925008990a1230b1ce8e17d4a04289817e74f002200d394ed6d84ddbf86c76e8d3e6b7db92696d9d2e8e7378caa087eaba624cd5570147304402200e815b242cb8b13cf4f3a68db513de69fe95352b0415b3d9c5dfde015f9be7a50220028b01580a8cf02ce8e68ad1049ceb40d9820aa44d32a0b62a7dd3bc29bfb3cf0147522102a7b959071d7237f8d09d501051e6ea429198b7bd84c6ee8a348f1f012d4f6dd72103148c80a5bdfddb05ff5bcffc397c8ca748d8b435ec6a175bc9d7bfc7fc6f853752ae00000000",
    "size": 3848,
    "time": 1523873672,
    "valueOut": 0.07603763,
    "vin": [
        {
            "addr": "33gzPp94JRiZeiqa51KpVpeRQk6ct31GBZ",
            "utxo": [
                {
                    "choosen": 1,
                    "confirmations": 65,
                    "scriptPubKey": "a91415eef97abad45785157e826ebdae9a366a6c5db487",
                    "txid": "34d948dfe042ce4e04f5ad4a6ae7a6448f7e437128f9b6cb95f1611464a2ab03",
                    "type": "scripthash",
                    "value": 19950,
                    "vout": 1
                },
                {
                    "choosen": 1,
                    "confirmations": 65,
                    "scriptPubKey": "a91415eef97abad45785157e826ebdae9a366a6c5db487",
                    "txid": "0790280c7c5144fe7a67ed42d8a763601cb740c856630d7effc3dd775aa57793",
                    "type": "scripthash",
                    "value": 219723,
                    "vout": 1
                },
                {
                    "choosen": 1,
                    "confirmations": 50,
                    "scriptPubKey": "a91415eef97abad45785157e826ebdae9a366a6c5db487",
                    "txid": "d7bda0217cae921164c37a61743eedd1d2b058955106f71547a1c75c87f4db20",
                    "type": "scripthash",
                    "value": 7376648,
                    "vout": 1
                },
                {
                    "choosen": 0,
                    "confirmations": 0,
                    "scriptPubKey": "a91415eef97abad45785157e826ebdae9a366a6c5db487",
                    "txid": "2045f1092d82f3bc8a336c11448dfc5ce00477ac7b98ee01b39527486c720c6b",
                    "type": "scripthash",
                    "value": 603763,
                    "vout": 1
                },
                {
                    "choosen": 0,
                    "confirmations": 14,
                    "scriptPubKey": "a91415eef97abad45785157e826ebdae9a366a6c5db487",
                    "txid": "99da9a402f3a1651818b8f99c9bbd9cca43a3467107605492354eadc955511e8",
                    "type": "scripthash",
                    "value": 12579,
                    "vout": 0
                },
                {
                    "choosen": 0,
                    "confirmations": 30,
                    "scriptPubKey": "a91415eef97abad45785157e826ebdae9a366a6c5db487",
                    "txid": "13a19e1a05ae61801ee63a971ec840b224c6515491df506e19c904d3ce447509",
                    "type": "scripthash",
                    "value": 31816,
                    "vout": 0
                }
            ]
        }
    ],
    "vout": [
        {
            "n": 0,
            "scriptPubKey": {
                "addresses": [
                    "1JRUopt7RpqXZY3aMTuvFdVzcrfBJZRTD1"
                ],
                "asm": "OP_DUP OP_HASH160 bf1b55741d360898c5cb8384364fa49b80e8f9cd OP_EQUALVERIFY OP_CHECKSIG",
                "hex": "76a914bf1b55741d360898c5cb8384364fa49b80e8f9cd88ac",
                "type": "pubkeyhash"
            },
            "spentHeight": null,
            "spentIndex": null,
            "spentTxId": null,
            "value": "0.07000000",
            "valueSat": 7000000
        },
        {
            "n": 1,
            "scriptPubKey": {
                "addresses": [
                    "33gzPp94JRiZeiqa51KpVpeRQk6ct31GBZ"
                ],
                "asm": "OP_HASH160 15eef97abad45785157e826ebdae9a366a6c5db4 OP_EQUAL",
                "hex": "a91415eef97abad45785157e826ebdae9a366a6c5db487",
                "type": "scripthash"
            },
            "spentHeight": null,
            "spentIndex": null,
            "spentTxId": null,
            "value": "0.00603763",
            "valueSat": 603763
        }
    ]
}