{
    "_id": {
        "$oid": "5ad4796d4c372215dd13d649"
    },
    "fee": 518,
    "id": "d8d1cab44a5d8538b9d407db68ddd5d788ab0b89dc97d1cafcc481111497df52",
    "raw": "0100000000010258492bb9915ef82d2be1792e761208c544b3e19f5ffde3f664998f0130f3e77a0000000017160014d8077d99d7b198da1061dda1e8ea413fb26c2321ffffffff58492bb9915ef82d2be1792e761208c544b3e19f5ffde3f664998f0130f3e77a0100000017160014d8077d99d7b198da1061dda1e8ea413fb26c2321ffffffff021c3134460400000017a9147ee8734500270275142ae13c0079e9fe151494fc8700ac23fc0600000017a914511099ffab4e4a734ad714b7580410d32bfd5c1887024730440220085ac39c29c0303dce196e009a96e0e00cb18de6d543e827117059eebc3f9936022019c7586b3682f8bc9fbdb3e98e98bcd18c7ce326f5b5ebbc2bbb23037bf6e83d0121038f1af5f3324658b24d1b04739c7a8544a34700c87fc0b6fb0e80ed152f58af1302483045022100dbcc3f65469702e59190dd599ae8e37ecb1abe4e431ea4d99f684057d0c22daa02207762028db329d1e9254896d492f097de0993676608e104805e67b68c437eb0e10121038f1af5f3324658b24d1b04739c7a8544a34700c87fc0b6fb0e80ed152f58af1300000000",
    "size": 1676,
    "time": 1523874152,
    "valueOut": 483.57694748,
    "vin": [
        {
            "addr": "3ApkoC44wdAytaWuFZ4yevLJZPvxYQLPYX",
            "utxo": [
                {
                    "choosen": 1,
                    "confirmations": 5,
                    "scriptPubKey": "a914642fd522b43d64016dbc1eebcade97f012f6833487",
                    "txid": "7ae7f330018f9964f6e3fd5f9fe1b344c50812762e79e12b2df85e91b92b4958",
                    "type": "scripthash",
                    "value": 48355493536.0,
                    "vout": 0
                },
                {
                    "choosen": 1,
                    "confirmations": 5,
                    "scriptPubKey": "a914642fd522b43d64016dbc1eebcade97f012f6833487",
                    "txid": "7ae7f330018f9964f6e3fd5f9fe1b344c50812762e79e12b2df85e91b92b4958",
                    "type": "scripthash",
                    "value": 2201730,
                    "vout": 1
                }
            ]
        }
    ],
    "vout": [
        {
            "n": 0,
            "scriptPubKey": {
                "addresses": [
                    "3DG3XeDJFgEZxyven5KdgNAPPnoHB1qTzP"
                ],
                "asm": "OP_HASH160 7ee8734500270275142ae13c0079e9fe151494fc OP_EQUAL",
                "hex": "a9147ee8734500270275142ae13c0079e9fe151494fc87",
                "type": "scripthash"
            },
            "spentHeight": null,
            "spentIndex": null,
            "spentTxId": null,
            "value": "183.57694748",
            "valueSat": 18357694748.0
        },
        {
            "n": 1,
            "scriptPubKey": {
                "addresses": [
                    "395eYaWAXVPrn8E71twUFGeHR8FdpxbqtN"
                ],
                "asm": "OP_HASH160 511099ffab4e4a734ad714b7580410d32bfd5c18 OP_EQUAL",
                "hex": "a914511099ffab4e4a734ad714b7580410d32bfd5c1887",
                "type": "scripthash"
            },
            "spentHeight": null,
            "spentIndex": null,
            "spentTxId": null,
            "value": "300.00000000",
            "valueSat": 30000000000.0
        }
    ]
}