{
    "_id": {
        "$oid": "5ad47be34c372215dd13d64a"
    },
    "fee": 4144,
    "id": "5ca32cd80c883a788bb448eab54f8ead95bf7feb3e78fc63fe8f64bef12423d9",
    "raw": "01000000032661c27d2898f87f132430d9bcdc859115da0957941829420b1a87b71086809b000000006a47304402206527df6367cc0e018c76d604596ed58bb3786c63746618ddba9398599398053302201a18582f7864218bdf376705c38be3bdedee499da19141b0b5e6dc608ba7ed670121028b954676de8ea8bb63eb8949472e3fa0a61fb348df21de5fcb545a0a7001e4ddffffffffb8c689f42e802af9bcdcc60a4962c1d4ed043e9f0dd0afae47f0f0dfdd17bc59000000006a473044022005f361d980beeb740b235355e6ce3594315e037b020c890821bc021c0e4e70c302204269e58b9f0daefa21e759f6feb7fe2e1ead369135071c801884ca2579e1a4030121028b954676de8ea8bb63eb8949472e3fa0a61fb348df21de5fcb545a0a7001e4ddffffffff7b2268ccb6c1372ffa796659b2007e17b299f164c1608b82f48a502fc82733be010000006b483045022100e61543acf06f75509df4c645823b4e5884c34a3e953860659e9faedd2fd979930220624169a7baa1e777787a0c45810a5b7274d12e350a194d381b4ae00945a659760121028b954676de8ea8bb63eb8949472e3fa0a61fb348df21de5fcb545a0a7001e4ddffffffff02307925000000000017a914861de84cad8d02732771b373d7f5992af975f47d875d1a0000000000001976a914bedb71d986e8afd04ba65b33ba2f09abae97885688ac00000000",
    "size": 2072,
    "time": 1523874782,
    "valueOut": 0.02462605,
    "vin": [
        {
            "addr": "1JQAGjcDbhgf56riUKNZCqMzgscvEFMkU3",
            "utxo": [
                {
                    "choosen": 1,
                    "confirmations": 284,
                    "scriptPubKey": "76a914bedb71d986e8afd04ba65b33ba2f09abae97885688ac",
                    "txid": "9b808610b7871a0b422918945709da159185dcbcd93024137ff898287dc26126",
                    "type": "pubkeyhash",
                    "value": 1594645,
                    "vout": 0
                },
                {
                    "choosen": 1,
                    "confirmations": 2739,
                    "scriptPubKey": "76a914bedb71d986e8afd04ba65b33ba2f09abae97885688ac",
                    "txid": "59bc17dddff0f047aeafd00d9f3e04edd4c162490ac6dcbcf92a802ef489c6b8",
                    "type": "pubkeyhash",
                    "value": 870290,
                    "vout": 0
                },
                {
                    "choosen": 1,
                    "confirmations": 3334,
                    "scriptPubKey": "76a914bedb71d986e8afd04ba65b33ba2f09abae97885688ac",
                    "txid": "be3327c82f508af4828b60c164f199b2177e00b2596679fa2f37c1b6cc68227b",
                    "type": "pubkeyhash",
                    "value": 1814,
                    "vout": 1
                },
                {
                    "choosen": 0,
                    "confirmations": 0,
                    "scriptPubKey": "76a914bedb71d986e8afd04ba65b33ba2f09abae97885688ac",
                    "txid": "5ca32cd80c883a788bb448eab54f8ead95bf7feb3e78fc63fe8f64bef12423d9",
                    "type": "pubkeyhash",
                    "value": 6749,
                    "vout": 1
                }
            ]
        }
    ],
    "vout": [
        {
            "n": 0,
            "scriptPubKey": {
                "addresses": [
                    "3DvAJFdMTH9Uad5X7LVKE1jaCn4giEWYWs"
                ],
                "asm": "OP_HASH160 861de84cad8d02732771b373d7f5992af975f47d OP_EQUAL",
                "hex": "a914861de84cad8d02732771b373d7f5992af975f47d87",
                "type": "scripthash"
            },
            "spentHeight": null,
            "spentIndex": null,
            "spentTxId": null,
            "value": "0.02455856",
            "valueSat": 2455856
        },
        {
            "n": 1,
            "scriptPubKey": {
                "addresses": [
                    "1JQAGjcDbhgf56riUKNZCqMzgscvEFMkU3"
                ],
                "asm": "OP_DUP OP_HASH160 bedb71d986e8afd04ba65b33ba2f09abae978856 OP_EQUALVERIFY OP_CHECKSIG",
                "hex": "76a914bedb71d986e8afd04ba65b33ba2f09abae97885688ac",
                "type": "pubkeyhash"
            },
            "spentHeight": null,
            "spentIndex": null,
            "spentTxId": null,
            "value": "0.00006749",
            "valueSat": 6749
        }
    ]
}