{
    "_id": {
        "$oid": "5ad47d4b4c372215dd13d64b"
    },
    "fee": 2268,
    "id": "cee303b6e3d4c28d8bf5830e1a41c5dfa5c344d1623bd16cd4402b42677d19a2",
    "raw": "01000000000102e806cd05f7daff759959a3b1b848dd5a5f56b0174876f732b218420b6ffe1ca30100000017160014286cea41d4ca5a24149c042073dbb5e07a89f157ffffffff39cd2e201a022161b4e75d0f9595b08af2d48148fa8278ea0d001fd7b8dadd8f0100000017160014286cea41d4ca5a24149c042073dbb5e07a89f157ffffffff0200e1f5050000000017a914093d5ed2c7336f796e43f9cc6925ccd9940204358724d8f5050000000017a914c66dba8bfbce86771119820405d0ea31d543bb5d8702473044022069a1077775453c83c8b28e34fb22bf4eee089f15ef1df5e75313eb253af3b808022023a2d06a8ad51befcfdc9bb8f41018b4907eb62ce5f147a7873d0dfa59a98682012103ca1629bf3f66595354775bb06f3ed9e134545ce8b6f281bbcd7c4d0c1e55b9f102483045022100c3f847dccc2095002c0e71c698042ce549045a1f0da209505a801d11b1b880a302201801c3a498169b1fb311cd4205d34d7b8897580557e2377453ef385cac6e0551012103ca1629bf3f66595354775bb06f3ed9e134545ce8b6f281bbcd7c4d0c1e55b9f100000000",
    "size": 1676,
    "time": 1523875142,
    "valueOut": 1.99997732,
    "vin": [
        {
            "addr": "334Fe25cSCutx8DC8R6MWcxQzqNYWxPqac",
            "utxo": [
                {
                    "choosen": 1,
                    "confirmations": 165,
                    "scriptPubKey": "a9140efc4f4cfc9dc95143eb07e26d1eba47c753341387",
                    "txid": "a31cfe6f0b4218b232f7764817b0565f5add48b8b1a3599975ffdaf705cd06e8",
                    "type": "scripthash",
                    "value": 100000000,
                    "vout": 1
                },
                {
                    "choosen": 1,
                    "confirmations": 205,
                    "scriptPubKey": "a9140efc4f4cfc9dc95143eb07e26d1eba47c753341387",
                    "txid": "8fdddab8d71f000dea7882fa4881d4f28ab095950f5de7b46121021a202ecd39",
                    "type": "scripthash",
                    "value": 100000000,
                    "vout": 1
                }
            ]
        }
    ],
    "vout": [
        {
            "n": 0,
            "scriptPubKey": {
                "addresses": [
                    "32XsXMsRPSJxnM3jkXUwCMPaoaJoJnhEcp"
                ],
                "asm": "OP_HASH160 093d5ed2c7336f796e43f9cc6925ccd994020435 OP_EQUAL",
                "hex": "a914093d5ed2c7336f796e43f9cc6925ccd99402043587",
                "type": "scripthash"
            },
            "spentHeight": null,
            "spentIndex": null,
            "spentTxId": null,
            "value": "1.00000000",
            "valueSat": 100000000
        },
        {
            "n": 1,
            "scriptPubKey": {
                "addresses": [
                    "3KnDAcKeDncMNwpuyM2rihCs7puPpVY2sE"
                ],
                "asm": "OP_HASH160 c66dba8bfbce86771119820405d0ea31d543bb5d OP_EQUAL",
                "hex": "a914c66dba8bfbce86771119820405d0ea31d543bb5d87",
                "type": "scripthash"
            },
            "spentHeight": null,
            "spentIndex": null,
            "spentTxId": null,
            "value": "0.99997732",
            "valueSat": 99997732
        }
    ]
}