{
    "_id": {
        "$oid": "5ad47d664c372215dd13d64c"
    },
    "fee": 63500,
    "id": "c152d51739934bd37a35595c04f72d8b3cd76608a337bcb93622e30fa48fd358",
    "raw": "01000000093660601f0344f52dc80546020c0d27fac9cb12348efa4b285f5934684628ad30000000006a47304402206fd18773a88a44701c4c2ce70396206db45d93e2560951a9da6fa72b5137fcc802201a047da3acc1f22df5c2bb5789823b454e5359f5d3647e20b0a5d1d65bd13892012103c53a239fbee1c79608f67b941dc778636f41f63c2d0fb107c19e3421eea04792ffffffff844856b484ef485362c58eb564d41f72a92be026e0669c9e0105d6f93158e0e4000000006a4730440220265b82760a293d24db93347b39cdf77305d36514d25d32c443f9b8248a41f8d1022004990449e3088a11ff72093fd34aaa90eddd883146eb0278b482cb578a743f5e012103c53a239fbee1c79608f67b941dc778636f41f63c2d0fb107c19e3421eea04792fffffffff67d26001a7e9feabce3198b759e88fdae4bd48239335b94c114c5dd1d2f6803000000006b483045022100f3847dddb44cdf3ff5dd6703deec7965a793709ec3b4c908db617c9611db368a02201b3c4c373fefcd2aa51c44d5fafe9089b13a1c74af194b1b6ef87365577cbda6012103c53a239fbee1c79608f67b941dc778636f41f63c2d0fb107c19e3421eea04792ffffffffaea1de3072ba8bd666757b4dab8586dc48f6bf715660a57e130daf05ca9e7c87000000006a47304402205e08916bc4f11338d49fe314fdca262552b10fd32b1da5f3bd90f2c5b1eea1f002206f2f93902a829c1fe00afc08d75dcf5797b2a1feab2eb34e965ef01016443f42012103c53a239fbee1c79608f67b941dc778636f41f63c2d0fb107c19e3421eea04792ffffffff2fb15acc478d7c3c9efcf82f937176c7fac71cff3c711fe37bfcf27661f1e371010000006b483045022100cd386680f043f153076b1b34d6919a61bdf3c6b0cb32e8e43b4eb29e25fa2d2f02201f23286c36b6b249e857396effe2f0977458821e2565278d3e4d63c7f881fb79012103c53a239fbee1c79608f67b941dc778636f41f63c2d0fb107c19e3421eea04792ffffffffe35826daca9479a8580e4de22ffcb63b81b6cf53ec2f1644d870cfa28c99bd6c000000006a47304402205c289d57ab82fefaa674b1a49593d89906b13814a3fbe7627904b5b5387f829002204ea4ab245a2dfe12f9c5d17f6f1494a18b0cfcf494462b483a0d351e3fdcf0d3012103c53a239fbee1c79608f67b941dc778636f41f63c2d0fb107c19e3421eea04792ffffffff1942bd03c90075cc3af37139bc6670e163fd7a34d90b4fd25116e2e05a96a137000000006a473044022032ca2426febef3d932c1234f8e3652b8ad22874a3e329811e0b645776e3ce7e802204628bbff8ef8a8bba0292c1ae03783f3da94b4ab57c29f221c545631514c2cac012103c53a239fbee1c79608f67b941dc778636f41f63c2d0fb107c19e3421eea04792ffffffff43444566e9da7b30f37e1c9e259ed9ebcfe39b959e07fc5882712b70df36524b010000006b483045022100a6311a00b0eabc7dfd173fa5dace10bdd46da0751a965c2027501a8564851ebe022064259ac1d96a0b656241bf45ec48d2e8173280c8182097532bf26b70a10145ad012103c53a239fbee1c79608f67b941dc778636f41f63c2d0fb107c19e3421eea04792ffffffff65436a67befa154fa17fdbe8f66261afa1453b08b2653c931fa69e5a71b133b1010000006b483045022100a16986a608bf9a3aa11f5fa2860ff58aa79f4b8173e79c4614e2d56cacbeafd702201b2f4697c6b68a1612726917193203cefe84e6cd1973188341029ca5206e02cf012103c53a239fbee1c79608f67b941dc778636f41f63c2d0fb107c19e3421eea04792ffffffff0280711d190000000017a91443953c94fb9046fa473de28a736506955a1c1eb587641ff317000000001976a9147f64616e9df240663f767e85863644b2e538143388ac00000000",
    "size": 5612,
    "time": 1523875169,
    "valueOut": 8.23169252,
    "vin": [
        {
            "addr": "1Ccb4vrC5atJHHdj3hHhYwJmYxtVZLZXWc",
            "utxo": [
                {
                    "choosen": 1,
                    "confirmations": 48,
                    "scriptPubKey": "76a9147f64616e9df240663f767e85863644b2e538143388ac",
                    "txid": "30ad28466834595f284bfa8e3412cbc9fa270d0c024605c82df544031f606036",
                    "type": "pubkeyhash",
                    "value": 49971300,
                    "vout": 0
                },
                {
                    "choosen": 1,
                    "confirmations": 48,
                    "scriptPubKey": "76a9147f64616e9df240663f767e85863644b2e538143388ac",
                    "txid": "e4e05831f9d605019e9c66e026e02ba9721fd464b58ec5625348ef84b4564884",
                    "type": "pubkeyhash",
                    "value": 4120141,
                    "vout": 0
                },
                {
                    "choosen": 1,
                    "confirmations": 47,
                    "scriptPubKey": "76a9147f64616e9df240663f767e85863644b2e538143388ac",
                    "txid": "03682f1dddc514c1945b333982d44baefd889e758b19e3bcea9f7e1a00267df6",
                    "type": "pubkeyhash",
                    "value": 1879100,
                    "vout": 0
                },
                {
                    "choosen": 1,
                    "confirmations": 46,
                    "scriptPubKey": "76a9147f64616e9df240663f767e85863644b2e538143388ac",
                    "txid": "877c9eca05af0d137ea5605671bff648dc8685ab4d7b7566d68bba7230dea1ae",
                    "type": "pubkeyhash",
                    "value": 6577700,
                    "vout": 0
                },
                {
                    "choosen": 1,
                    "confirmations": 42,
                    "scriptPubKey": "76a9147f64616e9df240663f767e85863644b2e538143388ac",
                    "txid": "71e3f16176f2fc7be31f713cff1cc7fac77671932ff8fc9e3c7c8d47cc5ab12f",
                    "type": "pubkeyhash",
                    "value": 33616593,
                    "vout": 1
                },
                {
                    "choosen": 1,
                    "confirmations": 35,
                    "scriptPubKey": "76a9147f64616e9df240663f767e85863644b2e538143388ac",
                    "txid": "6cbd998ca2cf70d844162fec53cfb6813bb6fc2fe24d0e58a87994cada2658e3",
                    "type": "pubkeyhash",
                    "value": 575195,
                    "vout": 0
                },
                {
                    "choosen": 1,
                    "confirmations": 32,
                    "scriptPubKey": "76a9147f64616e9df240663f767e85863644b2e538143388ac",
                    "txid": "37a1965ae0e21651d24f0bd9347afd63e17066bc3971f33acc7500c903bd4219",
                    "type": "pubkeyhash",
                    "value": 3603172,
                    "vout": 0
                },
                {
                    "choosen": 1,
                    "confirmations": 32,
                    "scriptPubKey": "76a9147f64616e9df240663f767e85863644b2e538143388ac",
                    "txid": "4b5236df702b718258fc079e959be3cfebd99e259e1c7ef3307bdae966454443",
                    "type": "pubkeyhash",
                    "value": 25479400,
                    "vout": 1
                },
                {
                    "choosen": 1,
                    "confirmations": 28,
                    "scriptPubKey": "76a9147f64616e9df240663f767e85863644b2e538143388ac",
                    "txid": "b133b1715a9ea61f933c65b2083b45a1af6162f6e8db7fa14f15fabe676a4365",
                    "type": "pubkeyhash",
                    "value": 697410151,
                    "vout": 1
                },
                {
                    "choosen": 0,
                    "confirmations": 0,
                    "scriptPubKey": "76a9147f64616e9df240663f767e85863644b2e538143388ac",
                    "txid": "c152d51739934bd37a35595c04f72d8b3cd76608a337bcb93622e30fa48fd358",
                    "type": "pubkeyhash",
                    "value": 401809252,
                    "vout": 1
                },
                {
                    "choosen": 0,
                    "confirmations": 7,
                    "scriptPubKey": "76a9147f64616e9df240663f767e85863644b2e538143388ac",
                    "txid": "6257d2d0852a69e3b39229793bf495e549bdc5539e4066f8c68dbd87d4b3bf6c",
                    "type": "pubkeyhash",
                    "value": 14724390,
                    "vout": 0
                },
                {
                    "choosen": 0,
                    "confirmations": 7,
                    "scriptPubKey": "76a9147f64616e9df240663f767e85863644b2e538143388ac",
                    "txid": "fb30a464e946c47f8691404edb318c72d311cc95ed537080c3f414c7d43c1053",
                    "type": "pubkeyhash",
                    "value": 119989700,
                    "vout": 0
                },
                {
                    "choosen": 0,
                    "confirmations": 14,
                    "scriptPubKey": "76a9147f64616e9df240663f767e85863644b2e538143388ac",
                    "txid": "f6e4c318317e7fa4282b6429ced3e5d5168a21090e65b5292545b2c40d41ef39",
                    "type": "pubkeyhash",
                    "value": 10046421,
                    "vout": 1
                },
                {
                    "choosen": 0,
                    "confirmations": 15,
                    "scriptPubKey": "76a9147f64616e9df240663f767e85863644b2e538143388ac",
                    "txid": "567be4a809472e366705a736c010637b4de22bc745563ca068108c30075c02ea",
                    "type": "pubkeyhash",
                    "value": 1479400,
                    "vout": 1
                },
                {
                    "choosen": 0,
                    "confirmations": 16,
                    "scriptPubKey": "76a9147f64616e9df240663f767e85863644b2e538143388ac",
                    "txid": "1f4ad6f939580167959761672dbc59610de648773c6db61694d7afd3ca429a22",
                    "type": "pubkeyhash",
                    "value": 99989700,
                    "vout": 0
                },
                {
                    "choosen": 0,
                    "confirmations": 17,
                    "scriptPubKey": "76a9147f64616e9df240663f767e85863644b2e538143388ac",
                    "txid": "37aeef12fa907c29adc6a4fb1dacb977e49ed95651b28c8f26073497c4f6fb35",
                    "type": "pubkeyhash",
                    "value": 399883000,
                    "vout": 0
                },
                {
                    "choosen": 0,
                    "confirmations": 25,
                    "scriptPubKey": "76a9147f64616e9df240663f767e85863644b2e538143388ac",
                    "txid": "22510a325d228cfb3e8185baeb8fc304c8ca47debb3874e5d0b0c40ba712702e",
                    "type": "pubkeyhash",
                    "value": 51896295,
                    "vout": 1
                },
                {
                    "choosen": 0,
                    "confirmations": 2988,
                    "scriptPubKey": "76a9147f64616e9df240663f767e85863644b2e538143388ac",
                    "txid": "937301806f2156fb14f8ac109b1476e73f207fe2337a04ea64c32f180026433c",
                    "type": "pubkeyhash",
                    "value": 660469,
                    "vout": 0
                }
            ]
        }
    ],
    "vout": [
        {
            "n": 0,
            "scriptPubKey": {
                "addresses": [
                    "37rMyYJVTMnZpPM7skgAJsML97r6QYC5u5"
                ],
                "asm": "OP_HASH160 43953c94fb9046fa473de28a736506955a1c1eb5 OP_EQUAL",
                "hex": "a91443953c94fb9046fa473de28a736506955a1c1eb587",
                "type": "scripthash"
            },
            "spentHeight": null,
            "spentIndex": null,
            "spentTxId": null,
            "value": "4.21360000",
            "valueSat": 421360000
        },
        {
            "n": 1,
            "scriptPubKey": {
                "addresses": [
                    "1Ccb4vrC5atJHHdj3hHhYwJmYxtVZLZXWc"
                ],
                "asm": "OP_DUP OP_HASH160 7f64616e9df240663f767e85863644b2e5381433 OP_EQUALVERIFY OP_CHECKSIG",
                "hex": "76a9147f64616e9df240663f767e85863644b2e538143388ac",
                "type": "pubkeyhash"
            },
            "spentHeight": null,
            "spentIndex": null,
            "spentTxId": null,
            "value": "4.01809252",
            "valueSat": 401809252
        }
    ]
}