{
    "_id": {
        "$oid": "5ad47eb64c372215dd13d64e"
    },
    "fee": 9660,
    "id": "bd19b90d6a7c4488d14bf46180549b767374212deb5dfc64b824a6337a72279c",
    "raw": "0100000006919e57eb20f93b2099378d8da77ecbd4e2cb69a562eec6cadbd00d5ebb1ba671340000006a47304402202c89081a1ec209e76e46f5548306ae5de6c60f61c2e50c62655bfe4515766ee102201661412669b04820cd2a1493948ce796f334c2cdaa4f9cca4d98a88339b3555d01210303320ef1544eeed45ffdee2b088cbe7df9663af0eb1e9c9b084e0236f68568f9ffffffffdf3feda5afee714ac8a155a8611545261b5cf0fba40f3d22845ef7b2b8eb3d8f960000006a47304402207d32a5041262123c0c3acef36fc136092a691928a45f448cfa9e5ae0da788fb602200592af622a904205a9979d69300d0c0bd890c6e7859736ace48e85af01794d5301210303320ef1544eeed45ffdee2b088cbe7df9663af0eb1e9c9b084e0236f68568f9ffffffffecd0ae3ae692043835e34504e26bf2fa80a12b2b275563de0a2c0dc6a8cbf5af930000006a47304402203575454dc9f9f19d0f6e79074ca885af842df14002f3e424ff2a25f6c1f2b93902201b130960e064dfcd52b2459f63e33c6c13d98c7a924b9587c99ad03cffb6500201210303320ef1544eeed45ffdee2b088cbe7df9663af0eb1e9c9b084e0236f68568f9ffffffff4092db76ad6cd07354289e7ed0a00778dad4a8e89ed5e4c534ddac060ec76bbb9a0000006a47304402200960ea6c3d69ba5aaf0f5f1aeaca6163374622d1791a67e803e2fd4086f7467202204c25909e471be5e988e73b39c95c856b9ea4710966d4709227b0d9ee25fad43e01210303320ef1544eeed45ffdee2b088cbe7df9663af0eb1e9c9b084e0236f68568f9ffffffffb6c7e424501dcb39aa2d29e6c8a8b2c4d820b3c782f9b1b05f2c2d2d9cece5c9970000006a47304402205297f22b1fe27d8d6f42ee4d2d0ef0e02b478b7a50361636d043c05660b937fa022072f6b3bf0541755dfa82cc941baa330ad17de62e7d115a89ce40df76b902572c01210303320ef1544eeed45ffdee2b088cbe7df9663af0eb1e9c9b084e0236f68568f9ffffffff8fc8438983a8c3e32280ec8c5ddd43e9d01e9256cc021d0770ccd7901291e5ef990000006a47304402201d85ca4eb09196c3c89d084e811860faad8e836eb2840c0fcc5b857fee25d790022001a03588c7d77a83989f3cd46df304c498980523e841763edd54b8fa6df788f501210303320ef1544eeed45ffdee2b088cbe7df9663af0eb1e9c9b084e0236f68568f9ffffffff024e5e0300000000001976a9148c48cec9e928ce6ab9dc07e7b48dcb598185eaca88ac16ba4300000000001976a9140467067d190846fea5c8723cac1e2edbc188fecf88ac00000000",
    "size": 3840,
    "time": 1523875502,
    "valueOut": 0.046593,
    "vin": [
        {
            "addr": "1DGxX1o8qq6rqgUP4PyQGfLcRY6VuRbVsm",
            "utxo": [
                {
                    "choosen": 1,
                    "confirmations": 10034,
                    "scriptPubKey": "76a91486a617ad58d9832056b16d1b3e6156cc5534cc7b88ac",
                    "txid": "71a61bbb5e0dd0dbcac6ee62a569cbe2d4cb7ea78d8d3799203bf920eb579e91",
                    "type": "pubkeyhash",
                    "value": 678240,
                    "vout": 52
                },
                {
                    "choosen": 1,
                    "confirmations": 1578,
                    "scriptPubKey": "76a91486a617ad58d9832056b16d1b3e6156cc5534cc7b88ac",
                    "txid": "8f3debb8b2f75e84223d0fa4fbf05c1b26451561a855a1c84a71eeafa5ed3fdf",
                    "type": "pubkeyhash",
                    "value": 314900,
                    "vout": 150
                },
                {
                    "choosen": 1,
                    "confirmations": 6854,
                    "scriptPubKey": "76a91486a617ad58d9832056b16d1b3e6156cc5534cc7b88ac",
                    "txid": "aff5cba8c60d2c0ade6355272b2ba180faf26be20445e335380492e63aaed0ec",
                    "type": "pubkeyhash",
                    "value": 638707,
                    "vout": 147
                },
                {
                    "choosen": 1,
                    "confirmations": 466,
                    "scriptPubKey": "76a91486a617ad58d9832056b16d1b3e6156cc5534cc7b88ac",
                    "txid": "bb6bc70e06acdd34c5e4d59ee8a8d4da7807a0d07e9e285473d06cad76db9240",
                    "type": "pubkeyhash",
                    "value": 963566,
                    "vout": 154
                },
                {
                    "choosen": 1,
                    "confirmations": 1884,
                    "scriptPubKey": "76a91486a617ad58d9832056b16d1b3e6156cc5534cc7b88ac",
                    "txid": "c9e5ec9c2d2d2c5fb0b1f982c7b320d8c4b2a8c8e6292daa39cb1d5024e4c7b6",
                    "type": "pubkeyhash",
                    "value": 911441,
                    "vout": 151
                },
                {
                    "choosen": 1,
                    "confirmations": 2632,
                    "scriptPubKey": "76a91486a617ad58d9832056b16d1b3e6156cc5534cc7b88ac",
                    "txid": "efe5911290d7cc70071d02cc56921ed0e943dd5d8cec8022e3c3a8838943c88f",
                    "type": "pubkeyhash",
                    "value": 1162106,
                    "vout": 153
                }
            ]
        }
    ],
    "vout": [
        {
            "n": 0,
            "scriptPubKey": {
                "addresses": [
                    "1DnkpdTvpZSZj3ehWNYtUKwKut2PyC61ac"
                ],
                "asm": "OP_DUP OP_HASH160 8c48cec9e928ce6ab9dc07e7b48dcb598185eaca OP_EQUALVERIFY OP_CHECKSIG",
                "hex": "76a9148c48cec9e928ce6ab9dc07e7b48dcb598185eaca88ac",
                "type": "pubkeyhash"
            },
            "spentHeight": null,
            "spentIndex": null,
            "spentTxId": null,
            "value": "0.00220750",
            "valueSat": 220750
        },
        {
            "n": 1,
            "scriptPubKey": {
                "addresses": [
                    "1QH86Soyz9YwghmwEnksWDMAyyhSrTwwt"
                ],
                "asm": "OP_DUP OP_HASH160 0467067d190846fea5c8723cac1e2edbc188fecf OP_EQUALVERIFY OP_CHECKSIG",
                "hex": "76a9140467067d190846fea5c8723cac1e2edbc188fecf88ac",
                "type": "pubkeyhash"
            },
            "spentHeight": null,
            "spentIndex": null,
            "spentTxId": null,
            "value": "0.04438550",
            "valueSat": 4438550
        }
    ]
}