{
    "_id": {
        "$oid": "5ad481874c372215dd13d650"
    },
    "fee": 34300,
    "id": "c209a51bf8cb44a5cec47c6b019fb64cd36b98948146e8c93806f19407236f94",
    "raw": "01000000082e10ac4728c5383867a120da21cbed352fba859f475c9b4901c462ee2c11292800000000fdfd00004730440220192fcf8c134d2c3dffae7f149750a9c8f60674767d42f18e8e5bc108d2172bf1022028e9bd4b6cbb58803c6926202e2e119feab7eec8b25316f4425734dca32da5640148304502210098c170bd224ffdb9ae205764a96c245f01875d20a8ce33eb4e9fcd55a6c673bf0220343d9314ba40122b01b7144ac28c2fa6403fb90e0dee107d96ea630527cf2fe6014c695221026be8884b99072078db7ea5ec6bec17d3555a89b4ced07101c064202b07bb2bbe21030fa8a5eea253b16bba4f0bfa791fc424a0b206541b5a145680fc66973b53322e210395b3e97d78965d1d6fab4f67a2b009c660a8444b7e7294d05158a6d90f2ea51553aefdffffff7271a30eb7168bc1bc93c4939fe5b976ce10b45a903450e0e4f4e32687297c3601000000fdfd00004830450221009322eac89f24ab4375139b4c06480da26e5aaae17593061cf02f4c4ed087330e022054d9de09e047361b799e518325f3d5d73c2fcdaf60330432c74872e75aed5df00147304402203dbee34d8f9c09794a11b0faf7abd5b6c759910c8037ec27fd739f782468cf7002203f03f1a994a52a4a4fef486630c1db2d69ccba606e328df9549b96a45b42038a014c695221026be8884b99072078db7ea5ec6bec17d3555a89b4ced07101c064202b07bb2bbe21030fa8a5eea253b16bba4f0bfa791fc424a0b206541b5a145680fc66973b53322e210395b3e97d78965d1d6fab4f67a2b009c660a8444b7e7294d05158a6d90f2ea51553aefdffffff460d62b7a5195c0182ac8479eb60c9f32c735c4e7510f3b077e09b7eea52ae3601000000fc004730440220344ac4151f155837ee3378080aaebe8133b90e4ff93d073fce01c7b863096e1b02204e7aca21e35175ea7e882624d7a2efdce7435b21868f917fc5dcfec1e6abe04d0147304402206a05f1805917ad0fda26cb370cfcbfc373dc3c3909b1804dd4308fce10c36836022037bc59e64c5f3beb120c3a2e2724cce4eba2bddcdbacacf27fee9519d0c67da6014c695221026be8884b99072078db7ea5ec6bec17d3555a89b4ced07101c064202b07bb2bbe21030fa8a5eea253b16bba4f0bfa791fc424a0b206541b5a145680fc66973b53322e210395b3e97d78965d1d6fab4f67a2b009c660a8444b7e7294d05158a6d90f2ea51553aefdffffff6a0dbb9d219574a192a2786a517f1ceb7497e6b6716c03eeef62fd57c546884300000000fc00473044022075aae842a5433892a19de1027a000a140098483a7da94ab23544d4bb8c1303660220476b627ace0a5562d5e6ab2bd94cd713ebb9bcfe8a5b290b567062ea8eebd8d7014730440221009f624a29d7481c246a05d7c90b730eef3c4ef0f17ffcf07a542a49a63fa9e919021f391a53ca98971733a09b9684ae294a058f78e589fa38d6d45c0b9d138f781d014c695221026be8884b99072078db7ea5ec6bec17d3555a89b4ced07101c064202b07bb2bbe21030fa8a5eea253b16bba4f0bfa791fc424a0b206541b5a145680fc66973b53322e210395b3e97d78965d1d6fab4f67a2b009c660a8444b7e7294d05158a6d90f2ea51553aefdffffff937b2b5a334e0930f9d47911ad6ec4a3ec33496c983763b706ef07ce82397b4b00000000fdfd0000483045022100f5817dbb44361a7dd90ba4e5dacf10025e0a93a23a999c7f48a3f49b6074cc5e022027e85453bf550d524be3a3837652ef8324ff267aaea93e0451adb36516bfd7cb0147304402205b9719d0bcd2bb97afec3dd4823aca762a20bc7dd1a8dccc8b2d1365be416077022028aba3c22a12c87313fef56839db6877a5224789da8e9860bd1fa704010962d4014c695221026be8884b99072078db7ea5ec6bec17d3555a89b4ced07101c064202b07bb2bbe21030fa8a5eea253b16bba4f0bfa791fc424a0b206541b5a145680fc66973b53322e210395b3e97d78965d1d6fab4f67a2b009c660a8444b7e7294d05158a6d90f2ea51553aefdffffff52722f8672c1599deb2c2d070982929b14a798b14b0ef542accc9ba0154fab6803000000fdfe00004830450221008265aff3bd93d35670dbb1e9840a636f61bf7a3032b2354a341cb2c06f08aa820220348ad1e12b8f6e64fac09896c14bb8d4aee650d74cbddb3d3be7b94885b4da2901483045022100ccd4281b09b2a8bec3b56bb07371d2f69a8a32ecaa9de1d9505a3aabc625385a02206bc672abc69d74bab305f53a503cd4eb9d8f229044adfae2e31377cdd4ee6f81014c695221026be8884b99072078db7ea5ec6bec17d3555a89b4ced07101c064202b07bb2bbe21030fa8a5eea253b16bba4f0bfa791fc424a0b206541b5a145680fc66973b53322e210395b3e97d78965d1d6fab4f67a2b009c660a8444b7e7294d05158a6d90f2ea51553aefdffffff72f629e8e320181173dadcf9beb9f341ce8d00798905517dac7f8a9d41d64b8d00000000fdfe00004830450221008bc2334c6e5c76100b32727346bd58c6500949bca1c412c7fa5844ed5d3a7585022009d600a6969c2e94721837872e8f6cfdd769f6068a8e3c15f89d417021638a930148304502210095a888ef0f430b7241c1cfb29bb60fa3ae5d77dad4e1dffe93046eea8836d944022027c8b121efa715f645164e27c52ad30b6440adf992e8e8d8c753fd6875730618014c695221026be8884b99072078db7ea5ec6bec17d3555a89b4ced07101c064202b07bb2bbe21030fa8a5eea253b16bba4f0bfa791fc424a0b206541b5a145680fc66973b53322e210395b3e97d78965d1d6fab4f67a2b009c660a8444b7e7294d05158a6d90f2ea51553aefdffffff27e125ca2d0a9aa42c6ec1fadef75c57b470d2bf574ff6c7404536bf95d8fac100000000fdfe0000483045022100851da65def4c7186303eaabcd603ca3f510767615adfde187ad707dbce1cb36f0220039f24d6eb391a27481b91629a9bcc5f287587579715c7150a5a45ddfca09897014830450221008ceeac1eebfaad17e24564167f895e612931987976407fd6403cc9e4bc9bba1a022017b2b2cb42601a68e2772cd4cdb1b027d6c95bb69f0b7840283eb79a821a47b7014c695221026be8884b99072078db7ea5ec6bec17d3555a89b4ced07101c064202b07bb2bbe21030fa8a5eea253b16bba4f0bfa791fc424a0b206541b5a145680fc66973b53322e210395b3e97d78965d1d6fab4f67a2b009c660a8444b7e7294d05158a6d90f2ea51553aefdffffff02e01736090000000017a914631b54ac717db2d5b4700d5d9088eae98e389e3387d97af10d0000000017a9144725f68f10dac7d165ec5cd80dd8a77552e6bb2a8738e90700",
    "size": 9756,
    "time": 1523876225,
    "valueOut": 3.88469433,
    "vin": [
        {
            "addr": "36MjaSzBW58cR3nfEQuzzfVLycNfLc3Rs1",
            "utxo": [
                {
                    "choosen": 1,
                    "confirmations": 16,
                    "scriptPubKey": "a9143333148ecdf58fb1e815b0e8698d9d0906e19efc87",
                    "txid": "2829112cee62c401499b5c479f85ba2f35edcb21da20a1673838c52847ac102e",
                    "type": "scripthash",
                    "value": 200000000,
                    "vout": 0
                },
                {
                    "choosen": 1,
                    "confirmations": 8,
                    "scriptPubKey": "a9143333148ecdf58fb1e815b0e8698d9d0906e19efc87",
                    "txid": "367c298726e3f4e4e05034905ab410ce76b9e59f93c493bcc18b16b70ea37172",
                    "type": "scripthash",
                    "value": 25000000,
                    "vout": 1
                },
                {
                    "choosen": 1,
                    "confirmations": 1,
                    "scriptPubKey": "a9143333148ecdf58fb1e815b0e8698d9d0906e19efc87",
                    "txid": "36ae52ea7e9be077b0f310754e5c732cf3c960eb7984ac82015c19a5b7620d46",
                    "type": "scripthash",
                    "value": 10000000,
                    "vout": 1
                },
                {
                    "choosen": 1,
                    "confirmations": 21,
                    "scriptPubKey": "a9143333148ecdf58fb1e815b0e8698d9d0906e19efc87",
                    "txid": "438846c557fd62efee036c71b6e69774eb1c7f516a78a292a17495219dbb0d6a",
                    "type": "scripthash",
                    "value": 40183733,
                    "vout": 0
                },
                {
                    "choosen": 1,
                    "confirmations": 21,
                    "scriptPubKey": "a9143333148ecdf58fb1e815b0e8698d9d0906e19efc87",
                    "txid": "4b7b3982ce07ef06b76337986c4933eca3c46ead1179d4f930094e335a2b7b93",
                    "type": "scripthash",
                    "value": 10000000,
                    "vout": 0
                },
                {
                    "choosen": 1,
                    "confirmations": 16,
                    "scriptPubKey": "a9143333148ecdf58fb1e815b0e8698d9d0906e19efc87",
                    "txid": "68ab4f15a09bccac42f50e4bb198a7149b928209072d2ceb9d59c172862f7252",
                    "type": "scripthash",
                    "value": 10000000,
                    "vout": 3
                },
                {
                    "choosen": 1,
                    "confirmations": 4,
                    "scriptPubKey": "a9143333148ecdf58fb1e815b0e8698d9d0906e19efc87",
                    "txid": "8d4bd6419d8a7fac7d51058979008dce41f3b9bef9dcda73111820e3e829f672",
                    "type": "scripthash",
                    "value": 10320000,
                    "vout": 0
                },
                {
                    "choosen": 1,
                    "confirmations": 9,
                    "scriptPubKey": "a9143333148ecdf58fb1e815b0e8698d9d0906e19efc87",
                    "txid": "c1fad895bf364540c7f64f57bfd270b4575cf7defac16e2ca49a0a2dca25e127",
                    "type": "scripthash",
                    "value": 83000000,
                    "vout": 0
                }
            ]
        }
    ],
    "vout": [
        {
            "n": 0,
            "scriptPubKey": {
                "addresses": [
                    "3Aj3ZWVDDFfGVRSiwKNt8cDrD4RwVuTuRQ"
                ],
                "asm": "OP_HASH160 631b54ac717db2d5b4700d5d9088eae98e389e33 OP_EQUAL",
                "hex": "a914631b54ac717db2d5b4700d5d9088eae98e389e3387",
                "type": "scripthash"
            },
            "spentHeight": null,
            "spentIndex": null,
            "spentTxId": null,
            "value": "1.54540000",
            "valueSat": 154540000
        },
        {
            "n": 1,
            "scriptPubKey": {
                "addresses": [
                    "38BDNtS33mSenMX4GMy4kMPng5Nhmux9HB"
                ],
                "asm": "OP_HASH160 4725f68f10dac7d165ec5cd80dd8a77552e6bb2a OP_EQUAL",
                "hex": "a9144725f68f10dac7d165ec5cd80dd8a77552e6bb2a87",
                "type": "scripthash"
            },
            "spentHeight": null,
            "spentIndex": null,
            "spentTxId": null,
            "value": "2.33929433",
            "valueSat": 233929433
        }
    ]
}