{
    "_id": {
        "$oid": "5ad484584c372215dd13d651"
    },
    "fee": 81800,
    "id": "e3f5036b04899a6a723055536ae08b04ca410e2d07fa77847009a97a5df5cc4a",
    "raw": "01000000055c75c9b5c7862894051908a19816e438902fd6ea277359def36c227d9c52da8e990000006a47304402202f1e2cf761a31d9b251e11ddf34955c3044a77b75809027444ee0901213b9d3e02207d8f9a6f4188b9863a1b2116f596537b2b05e1e727644607c3d1d5d0a2f4ab35012103e8404751e16059ffbb9dbc8ad7ffe2b53440ce059613683187a0be6a6973c859ffffffff55d2bbd1855894bfe57649f6b9e2a3e37d2c366afd65749de1dd8a0051d9fd316c0000006b483045022100f8a18c07e9a4c53406739d9e793d00650cd6ba558a90c5a4253214465a603eb302200c7d198d08ebbad604a753bec950760208fc4cf059be7ef3a1e3cb9572c90a99012103e8404751e16059ffbb9dbc8ad7ffe2b53440ce059613683187a0be6a6973c859ffffffff9991b9929da6416c47072279cf2958995ab0690366553009d35359dd58d92a19230000006a4730440220138d86d12723cd4d0ba162f4694f840565890609bec9e9ab31796717acb37e26022016c80b1be8160eb005fa73c711bd90f04fd6252dfa72b254d130ed88fbbb19c0012103e8404751e16059ffbb9dbc8ad7ffe2b53440ce059613683187a0be6a6973c859ffffffffe16e5e51fe95c1c24be5b72a671f435643516ec5c5353f0b37f114047f3e6ff7050000006a473044022027688da50e05d4ef445c131832d22c95c786ed3014c184a3d6f2057b98a5869502202047f1e7c9640cf4aa63d44e0b6ba4b086017d57cf78635e9dee7c643f77566d012103e8404751e16059ffbb9dbc8ad7ffe2b53440ce059613683187a0be6a6973c859ffffffff79fc6125cb32968c44ecbcb6bcf8304301fabb5880b57ae8ebee1b11da8c890d010000006b483045022100c8bcbe567de0707a386cdc487f046a6d110425d7d437d6cf023e31751c1a10f302201b515f9d26a5680cc3dd0f64e996b4f8d8ebf72bb36112fb99f1375325f3aebc012103e8404751e16059ffbb9dbc8ad7ffe2b53440ce059613683187a0be6a6973c859ffffffff02dcdf1200000000001976a91444810cd2756a40f2acb4d55cf8577fe58d2a091388ac3e910700000000001976a914d7a3afbc64a6314e175da6f6f15d3b9079caf94588ac00000000",
    "size": 3260,
    "time": 1523876946,
    "valueOut": 0.0173289,
    "vin": [
        {
            "addr": "1FpuLtf7iFb9Eb7vsBcysAJz9sZdioUCfg",
            "utxo": [
                {
                    "choosen": 1,
                    "confirmations": 1580,
                    "scriptPubKey": "76a914a2a1013ecf067969c0ee08c58ed3f0374f8113b288ac",
                    "txid": "8eda529c7d226cf3de597327ead62f9038e41698a1081905942886c7b5c9755c",
                    "type": "pubkeyhash",
                    "value": 182339,
                    "vout": 153
                },
                {
                    "choosen": 1,
                    "confirmations": 290,
                    "scriptPubKey": "76a914a2a1013ecf067969c0ee08c58ed3f0374f8113b288ac",
                    "txid": "31fdd951008adde19d7465fd6a362c7de3a3e2b9f64976e5bf945885d1bbd255",
                    "type": "pubkeyhash",
                    "value": 188682,
                    "vout": 108
                },
                {
                    "choosen": 1,
                    "confirmations": 612,
                    "scriptPubKey": "76a914a2a1013ecf067969c0ee08c58ed3f0374f8113b288ac",
                    "txid": "192ad958dd5953d3093055660369b05a995829cf792207476c41a69d92b99199",
                    "type": "pubkeyhash",
                    "value": 191382,
                    "vout": 35
                },
                {
                    "choosen": 1,
                    "confirmations": 700,
                    "scriptPubKey": "76a914a2a1013ecf067969c0ee08c58ed3f0374f8113b288ac",
                    "txid": "f76f3e7f0414f1370b3f35c5c56e514356431f672ab7e54bc2c195fe515e6ee1",
                    "type": "pubkeyhash",
                    "value": 624687,
                    "vout": 5
                },
                {
                    "choosen": 1,
                    "confirmations": 4013,
                    "scriptPubKey": "76a914a2a1013ecf067969c0ee08c58ed3f0374f8113b288ac",
                    "txid": "0d898cda111beeebe87ab58058bbfa014330f8bcb6bcec448c9632cb2561fc79",
                    "type": "pubkeyhash",
                    "value": 627600,
                    "vout": 1
                },
                {
                    "choosen": 0,
                    "confirmations": 4013,
                    "scriptPubKey": "76a914a2a1013ecf067969c0ee08c58ed3f0374f8113b288ac",
                    "txid": "13b8e54af2902e58643ede8bfb4c812c1d201c3a9b80329da45fa3db9aeca3cb",
                    "type": "pubkeyhash",
                    "value": 673043,
                    "vout": 0
                }
            ]
        }
    ],
    "vout": [
        {
            "n": 0,
            "scriptPubKey": {
                "addresses": [
                    "17FDYbtzV2WRzpk5kQRWwkkysWRxCPjxnU"
                ],
                "asm": "OP_DUP OP_HASH160 44810cd2756a40f2acb4d55cf8577fe58d2a0913 OP_EQUALVERIFY OP_CHECKSIG",
                "hex": "76a91444810cd2756a40f2acb4d55cf8577fe58d2a091388ac",
                "type": "pubkeyhash"
            },
            "spentHeight": null,
            "spentIndex": null,
            "spentTxId": null,
            "value": "0.01236956",
            "valueSat": 1236956
        },
        {
            "n": 1,
            "scriptPubKey": {
                "addresses": [
                    "1LfCNNy7WwVzRazF7peKLMjDkfk2hmJXhX"
                ],
                "asm": "OP_DUP OP_HASH160 d7a3afbc64a6314e175da6f6f15d3b9079caf945 OP_EQUALVERIFY OP_CHECKSIG",
                "hex": "76a914d7a3afbc64a6314e175da6f6f15d3b9079caf94588ac",
                "type": "pubkeyhash"
            },
            "spentHeight": null,
            "spentIndex": null,
            "spentTxId": null,
            "value": "0.00495934",
            "valueSat": 495934
        }
    ]
}