{
    "_id": {
        "$oid": "5ad484ba4c372215dd13d652"
    },
    "fee": 2610,
    "id": "19058484f7ae9a507109a7929c908cafb276214b539a3317fb77d717b3349d70",
    "raw": "0100000003cc2694a83dee3643eef727c1fb8099db35910bd4642e556043bb8291809c7e0b080000006a47304402205eb3205c776dcd5acbd62050f2e2dda3b60f608f8da6487a8a4e8f21aeb4352702206aaebbd7626fc6a80a3cc64a1160409048130621a6b9539c1f70ca7bf324e6140121021b7d72b6e6a570e23b5e5a54f4058bd64e3cbde4f06fb5e1150c714415482bdbffffffff987653060a2a2ca9459b3ca6b41c1734b1cd02984cd91b024837fb104aea11cb620000006a473044022002cfadf1697e45b9204bb6bf33278aa84838d5a2cd60b9665ca9fd05ab9221b002203304c3c066ed118a7c4669e9858674de4072e02ebe72bed708c1aa05bcce24ff0121021b7d72b6e6a570e23b5e5a54f4058bd64e3cbde4f06fb5e1150c714415482bdbffffffff6cea1aadb5317c553e598865f82d8444b16fe7732c39ea638e9dc38ee491cdd4110000006b483045022100a77bc299758c32466f2c9ae1b1d32401294a359c190456611c07af0ceac87c5502200d1b998818cee0aacc8702fbaa729dcb2070b24b3d78d0691eceda81ecc1d4ee0121021b7d72b6e6a570e23b5e5a54f4058bd64e3cbde4f06fb5e1150c714415482bdbffffffff0235070000000000001976a91402cb2900d466eb71938be6f32d4ebfdcf02d467888ac001711000000000017a914e2518c94a0825733232dee26c65921476fe593c08700000000",
    "size": 2072,
    "time": 1523877045,
    "valueOut": 0.01121845,
    "vin": [
        {
            "addr": "1K4mqistnHMtkMxQg4LcsfKr6deSeSqMwb",
            "utxo": [
                {
                    "choosen": 1,
                    "confirmations": 1224,
                    "scriptPubKey": "76a914c628f14c3c7c9f4dcafb9c0d647ae887c84e1a3888ac",
                    "txid": "0b7e9c809182bb4360552e64d40b9135db9980fbc127f7ee4336ee3da89426cc",
                    "type": "pubkeyhash",
                    "value": 502816,
                    "vout": 8
                },
                {
                    "choosen": 1,
                    "confirmations": 1566,
                    "scriptPubKey": "76a914c628f14c3c7c9f4dcafb9c0d647ae887c84e1a3888ac",
                    "txid": "cb11ea4a10fb3748021bd94c9802cdb134171cb4a63c9b45a92c2a0a06537698",
                    "type": "pubkeyhash",
                    "value": 117020,
                    "vout": 98
                },
                {
                    "choosen": 1,
                    "confirmations": 1526,
                    "scriptPubKey": "76a914c628f14c3c7c9f4dcafb9c0d647ae887c84e1a3888ac",
                    "txid": "d4cd91e48ec39d8e63ea392c73e76fb144842df86588593e557c31b5ad1aea6c",
                    "type": "pubkeyhash",
                    "value": 504619,
                    "vout": 17
                }
            ]
        }
    ],
    "vout": [
        {
            "n": 0,
            "scriptPubKey": {
                "addresses": [
                    "1FmjCafmGM4ZL1x3CV4mbpGV1TiWgXAJ6"
                ],
                "asm": "OP_DUP OP_HASH160 02cb2900d466eb71938be6f32d4ebfdcf02d4678 OP_EQUALVERIFY OP_CHECKSIG",
                "hex": "76a91402cb2900d466eb71938be6f32d4ebfdcf02d467888ac",
                "type": "pubkeyhash"
            },
            "spentHeight": null,
            "spentIndex": null,
            "spentTxId": null,
            "value": "0.00001845",
            "valueSat": 1845
        },
        {
            "n": 1,
            "scriptPubKey": {
                "addresses": [
                    "3NKgL2mEvoRwT8LfQvujWpWv53mBKFTAxU"
                ],
                "asm": "OP_HASH160 e2518c94a0825733232dee26c65921476fe593c0 OP_EQUAL",
                "hex": "a914e2518c94a0825733232dee26c65921476fe593c087",
                "type": "scripthash"
            },
            "spentHeight": null,
            "spentIndex": null,
            "spentTxId": null,
            "value": "0.01120000",
            "valueSat": 1120000
        }
    ]
}