{
    "_id": {
        "$oid": "5ad486864c372215dd13d654"
    },
    "fee": 15960,
    "id": "51d461f048809811d7a97a99d5ca52604796dac472c036fe1348ba45d2d2530f",
    "raw": "010000000356c36ed599ece9c02275bdb3b683f533187dc82b6341406becc89d694046419e010000006a47304402206504c89efd2802a829b0dc38f3c1ed5f0cd284a304b338f60b7690940f9f037c0220673b7ac6ce609b910cb6befd23286b39a099ce37afe13612e823b84b2425429f0121028665ce62b6e0c411966b5cbb5c0ae023faa58731da196395f8d63a6c3661c921f0ffffffa1e354abc68665da6310c7efb6b65992e368b1aadb0c5bb66cd12d47edcda4a2010000006a47304402200c4b6174de0b337e285c78b3cc33888144b7ad19afe33ed0924b458ca3cd1a2002203489a95f404a163658d9d505bdb5dd19df3bec65b60296a6279c3e799d5a0ac40121028665ce62b6e0c411966b5cbb5c0ae023faa58731da196395f8d63a6c3661c921f0ffffff64c471cc998aae7fcb569f6e4d6b8c009207b8a821ce902b43f07e668780fded010000006b483045022100d01dd9701a0631a65fb397c514aad105da374d3d30a78dd3b86a4f87280af3c00220081f352bdbd5a12c8208c1474c6853237f8ce921a98ec2b3bd9ebc773bed57e70121028665ce62b6e0c411966b5cbb5c0ae023faa58731da196395f8d63a6c3661c921f0ffffff024c8a5100000000001976a914da8b88e47a517807d37862b3bf93d53483237d1f88ac624e1200000000001976a9143ecf5a32aa5ad6d4cae8da863f1ff08427df966088ac00000000",
    "size": 2080,
    "time": 1523877505,
    "valueOut": 0.06543534,
    "vin": [
        {
            "addr": "16j7HzD34N51f2EwWARyWrfxDFvNjXGdhU",
            "utxo": [
                {
                    "choosen": 1,
                    "confirmations": 445,
                    "scriptPubKey": "76a9143ecf5a32aa5ad6d4cae8da863f1ff08427df966088ac",
                    "txid": "9e414640699dc8ec6b4041632bc87d1833f583b6b3bd7522c0e9ec99d56ec356",
                    "type": "pubkeyhash",
                    "value": 4737880,
                    "vout": 1
                },
                {
                    "choosen": 1,
                    "confirmations": 443,
                    "scriptPubKey": "76a9143ecf5a32aa5ad6d4cae8da863f1ff08427df966088ac",
                    "txid": "a2a4cded472dd16cb65b0cdbaab168e39259b6b6efc71063da6586c6ab54e3a1",
                    "type": "pubkeyhash",
                    "value": 76934,
                    "vout": 1
                },
                {
                    "choosen": 1,
                    "confirmations": 430,
                    "scriptPubKey": "76a9143ecf5a32aa5ad6d4cae8da863f1ff08427df966088ac",
                    "txid": "edfd8087667ef0432b90ce21a8b80792008c6b4d6e9f56cb7fae8a99cc71c464",
                    "type": "pubkeyhash",
                    "value": 1744680,
                    "vout": 1
                },
                {
                    "choosen": 0,
                    "confirmations": 0,
                    "scriptPubKey": "76a9143ecf5a32aa5ad6d4cae8da863f1ff08427df966088ac",
                    "txid": "51d461f048809811d7a97a99d5ca52604796dac472c036fe1348ba45d2d2530f",
                    "type": "pubkeyhash",
                    "value": 1199714,
                    "vout": 1
                },
                {
                    "choosen": 0,
                    "confirmations": 399,
                    "scriptPubKey": "76a9143ecf5a32aa5ad6d4cae8da863f1ff08427df966088ac",
                    "txid": "e12feeef5b2b6b2181106bd099eb416293f70c10bd7a57c7c908c597ae759cdf",
                    "type": "pubkeyhash",
                    "value": 484175,
                    "vout": 1
                },
                {
                    "choosen": 0,
                    "confirmations": 426,
                    "scriptPubKey": "76a9143ecf5a32aa5ad6d4cae8da863f1ff08427df966088ac",
                    "txid": "d718f2ed63f6c8b33af25a3480258209481607c964537c4a8af228d2151941c2",
                    "type": "pubkeyhash",
                    "value": 27867,
                    "vout": 1
                },
                {
                    "choosen": 0,
                    "confirmations": 426,
                    "scriptPubKey": "76a9143ecf5a32aa5ad6d4cae8da863f1ff08427df966088ac",
                    "txid": "f8b69c9172db2d2b6a3446f5ad6e0b074c6e10bfb0b277f5c3d5b9cb36e15d1e",
                    "type": "pubkeyhash",
                    "value": 79036,
                    "vout": 1
                },
                {
                    "choosen": 0,
                    "confirmations": 426,
                    "scriptPubKey": "76a9143ecf5a32aa5ad6d4cae8da863f1ff08427df966088ac",
                    "txid": "8da9ea9e0b4df2e1754e1dad6dce74634de904c06b5af68e57a409adc427c412",
                    "type": "pubkeyhash",
                    "value": 671087,
                    "vout": 1
                }
            ]
        }
    ],
    "vout": [
        {
            "n": 0,
            "scriptPubKey": {
                "addresses": [
                    "1LvZTs2NBBf3m6Lox73pEFUfs6JnQFZS46"
                ],
                "asm": "OP_DUP OP_HASH160 da8b88e47a517807d37862b3bf93d53483237d1f OP_EQUALVERIFY OP_CHECKSIG",
                "hex": "76a914da8b88e47a517807d37862b3bf93d53483237d1f88ac",
                "type": "pubkeyhash"
            },
            "spentHeight": null,
            "spentIndex": null,
            "spentTxId": null,
            "value": "0.05343820",
            "valueSat": 5343820
        },
        {
            "n": 1,
            "scriptPubKey": {
                "addresses": [
                    "16j7HzD34N51f2EwWARyWrfxDFvNjXGdhU"
                ],
                "asm": "OP_DUP OP_HASH160 3ecf5a32aa5ad6d4cae8da863f1ff08427df9660 OP_EQUALVERIFY OP_CHECKSIG",
                "hex": "76a9143ecf5a32aa5ad6d4cae8da863f1ff08427df966088ac",
                "type": "pubkeyhash"
            },
            "spentHeight": null,
            "spentIndex": null,
            "spentTxId": null,
            "value": "0.01199714",
            "valueSat": 1199714
        }
    ]
}