{
    "_id": {
        "$oid": "5ad486964c372215dd13d655"
    },
    "fee": 22609,
    "id": "a3341ab38aabce06d0030d306ce9f18f100b9b3006b5006cd118ca4a91436457",
    "raw": "01000000064fbf7b7f307d038b291122f0717ce50c42719afd77fdbafed04029348ab48423460000006b48304502210097e361ec3e5078a2c2fe43370804c8229a10d7d2b63c1aac6dc388e0568dd61e02201abab4f1548a50413b64efb818a9854eaaeb4216b79244815df7b17c2acee3b1012103939221ab1a2071074c59494c052297cd6684321bed868a652c7489180784c8bdffffffff2145c3a0d6225965f54da8966b4ee861b732635a8dd838965f44cfe5b0ffd32d0b0000006b483045022100fdd88c2b8c8ec47d442a815c5aa5fe64088b8f98b7f07301e3fb7e0add00a98002207f1f9a2d753f3db97382e6cf7360f6de3ad06a95a3544426336887cec27ea3a4012103939221ab1a2071074c59494c052297cd6684321bed868a652c7489180784c8bdffffffffc01ff9fbe2c9c2602e6352532894c5c95b74e77bd631291649d736a83ef0fc73080000006b483045022100956042decce44a9f44f65e145a49e92cee5851cacce63c16a1e7db73c92ad9c3022048ac9a90607aef0d2546e99b195406f7269cb88b5546aa2eba5a6b6e14d57c18012103939221ab1a2071074c59494c052297cd6684321bed868a652c7489180784c8bdffffffff63741d732f8f2bd3eef4a8003457fde885b9d91bd3c997f0a6743069d5ac481f1b0000006b483045022100e2cca00e1316db027b611f17e696720e64a30053b2730983569b48bcc35d86a1022018cacbf846bfb1fe14f57f2ae39f9f7d33f889cafca19d106b6f6c41141653bd012103939221ab1a2071074c59494c052297cd6684321bed868a652c7489180784c8bdffffffffce6b5ca782253d6dd7d296e60417cc966bb78959e8e85474aeab303e2eb6bb1f550000006b483045022100c11db76d89c60cbb5e87c1735cc9ab19b875d0630f415535d9cdb7c0ad480d2f02201283143e7532ba8dafacfb00788f9189c82dbbd102f1c7e6c527838edbd8850f012103939221ab1a2071074c59494c052297cd6684321bed868a652c7489180784c8bdffffffff583e4df3e8eb41d2f05bd457d41b590fb95fd59e6c189e149b71f1c91078aa801e0000006a473044022068118838b9a706f6d6919824a9dc1bc7a15a18d6f8e4370fc2ba80f104923c9f022040cdf3bd541c975d7723d43bda3203dfbe0e919cc8643c68f278da72aa9523e8012103939221ab1a2071074c59494c052297cd6684321bed868a652c7489180784c8bdffffffff01fb571c00000000001976a9146ef691f707dabf92bb64f521424f998fb8d50fe588ac00000000",
    "size": 3724,
    "time": 1523877520,
    "valueOut": 0.01857531,
    "vin": [
        {
            "addr": "15KkzHXibUHMnmmGS9VA1hPoMAQm97eVHE",
            "utxo": [
                {
                    "choosen": 1,
                    "confirmations": 10316,
                    "scriptPubKey": "76a9142f6cb5a2400d98f93772c20abed8e496aa83d62f88ac",
                    "txid": "2384b48a342940d0febafd77fd9a71420ce57c71f02211298b037d307f7bbf4f",
                    "type": "pubkeyhash",
                    "value": 209367,
                    "vout": 70
                },
                {
                    "choosen": 1,
                    "confirmations": 5988,
                    "scriptPubKey": "76a9142f6cb5a2400d98f93772c20abed8e496aa83d62f88ac",
                    "txid": "2dd3ffb0e5cf445f9638d88d5a6332b761e84e6b96a84df5655922d6a0c34521",
                    "type": "pubkeyhash",
                    "value": 189994,
                    "vout": 11
                },
                {
                    "choosen": 1,
                    "confirmations": 5988,
                    "scriptPubKey": "76a9142f6cb5a2400d98f93772c20abed8e496aa83d62f88ac",
                    "txid": "73fcf03ea836d749162931d67be7745bc9c594285352632e60c2c9e2fbf91fc0",
                    "type": "pubkeyhash",
                    "value": 210441,
                    "vout": 8
                },
                {
                    "choosen": 1,
                    "confirmations": 1680,
                    "scriptPubKey": "76a9142f6cb5a2400d98f93772c20abed8e496aa83d62f88ac",
                    "txid": "1f48acd5693074a6f097c9d31bd9b985e8fd573400a8f4eed32b8f2f731d7463",
                    "type": "pubkeyhash",
                    "value": 462453,
                    "vout": 27
                },
                {
                    "choosen": 1,
                    "confirmations": 5988,
                    "scriptPubKey": "76a9142f6cb5a2400d98f93772c20abed8e496aa83d62f88ac",
                    "txid": "1fbbb62e3e30abae7454e8e85989b76b96cc1704e696d2d76d3d2582a75c6bce",
                    "type": "pubkeyhash",
                    "value": 210441,
                    "vout": 85
                },
                {
                    "choosen": 1,
                    "confirmations": 10316,
                    "scriptPubKey": "76a9142f6cb5a2400d98f93772c20abed8e496aa83d62f88ac",
                    "txid": "80aa7810c9f1719b149e186c9ed55fb90f591bd457d45bf0d241ebe8f34d3e58",
                    "type": "pubkeyhash",
                    "value": 597444,
                    "vout": 30
                }
            ]
        }
    ],
    "vout": [
        {
            "n": 0,
            "scriptPubKey": {
                "addresses": [
                    "1B7ii6eyBGhJTybmyiC7kcfDQShcDyDhyp"
                ],
                "asm": "OP_DUP OP_HASH160 6ef691f707dabf92bb64f521424f998fb8d50fe5 OP_EQUALVERIFY OP_CHECKSIG",
                "hex": "76a9146ef691f707dabf92bb64f521424f998fb8d50fe588ac",
                "type": "pubkeyhash"
            },
            "spentHeight": null,
            "spentIndex": null,
            "spentTxId": null,
            "value": "0.01857531",
            "valueSat": 1857531
        }
    ]
}