{
    "_id": {
        "$oid": "5ad4874d4c372215dd13d656"
    },
    "fee": 5236,
    "id": "4b4ff120edc122e2a21b99c5386579ffd94d56773005487ddaaab274a3483c6b",
    "raw": "0100000002388e9910aee3e46a3921db6fac15f316960b604ae8a1ac38f66381f1a5e3af83060000006a4730440220094a26a1fbd2beb2a8d83eea46ef379b8e85ed63e57a9daacee83d289e13920f02206c0299777fdc5f7c649278878fd805732bb1533e4f96dac016a34adc44810f6001210366284dfabb59441bc2f82630c6480f2f743de52b16b4ba074664a7c3fc74400afeffffff455b82d0039b58a9edb9fc6acaf0f24237e16ab3a3e28c22b0cd93d4d9e8ccec040000006a47304402204e9f5b94d6df09f6ad7cd0607f501443f146cd75d261431c1a0fabf6c1d770fd0220586c50bfb9e48d967487ebadab12734b29086c6b1443612711a97d29f7f9247a01210366284dfabb59441bc2f82630c6480f2f743de52b16b4ba074664a7c3fc74400afeffffff021e220000000000001976a914ab54929d97fa48c4ebb80a7142dc9022350a8a8588ac54a6e300000000001976a9145a4c5ebf1d996aa65dd1721c1f2afecd559e469c88ac36990700",
    "size": 1488,
    "time": 1523877705,
    "valueOut": 0.14927986,
    "vin": [
        {
            "addr": "1FF1Go9c6sGGU27U7aQWR2sPkhak7PBoMy",
            "utxo": [
                {
                    "choosen": 1,
                    "confirmations": 2932,
                    "scriptPubKey": "76a9149c37cfd07dd13947ad55c5ea2f8b108081d0855e88ac",
                    "txid": "83afe3a5f18163f638aca1e84a600b9616f315ac6fdb21396ae4e3ae10998e38",
                    "type": "pubkeyhash",
                    "value": 6639204,
                    "vout": 6
                },
                {
                    "choosen": 1,
                    "confirmations": 2934,
                    "scriptPubKey": "76a9149c37cfd07dd13947ad55c5ea2f8b108081d0855e88ac",
                    "txid": "eccce8d9d493cdb0228ce2a3b36ae13742f2f0ca6afcb9eda9589b03d0825b45",
                    "type": "pubkeyhash",
                    "value": 8294018,
                    "vout": 4
                }
            ]
        }
    ],
    "vout": [
        {
            "n": 0,
            "scriptPubKey": {
                "addresses": [
                    "1Gcus24vpEof4CDZnBMy46FpmMrEhptHCy"
                ],
                "asm": "OP_DUP OP_HASH160 ab54929d97fa48c4ebb80a7142dc9022350a8a85 OP_EQUALVERIFY OP_CHECKSIG",
                "hex": "76a914ab54929d97fa48c4ebb80a7142dc9022350a8a8588ac",
                "type": "pubkeyhash"
            },
            "spentHeight": null,
            "spentIndex": null,
            "spentTxId": null,
            "value": "0.00008734",
            "valueSat": 8734
        },
        {
            "n": 1,
            "scriptPubKey": {
                "addresses": [
                    "19ETJZ3qcdMQMfNiMe4qEoABckLr1iUdmG"
                ],
                "asm": "OP_DUP OP_HASH160 5a4c5ebf1d996aa65dd1721c1f2afecd559e469c OP_EQUALVERIFY OP_CHECKSIG",
                "hex": "76a9145a4c5ebf1d996aa65dd1721c1f2afecd559e469c88ac",
                "type": "pubkeyhash"
            },
            "spentHeight": null,
            "spentIndex": null,
            "spentTxId": null,
            "value": "0.14919252",
            "valueSat": 14919252
        }
    ]
}