{
    "_id": {
        "$oid": "5ad487e34c372215dd13d657"
    },
    "fee": 1870,
    "id": "62d6a3f5212b155cbdfee9402e305dba598fa38d107ee450108a24bb085102fa",
    "raw": "01000000026c2f1197940044887c0d89c5283b6e84d59bdf39aad35a6dcba1ae411b45e742010000006a473044022076feb960217e9e7a43c11de68f0e1c482f7792afca15135eae1aee0b5e34ad4a022068d95b009114f65f97265c859df30b3a17f2496e4f2d3899f49d259cdce6c735012103203b3bffd2e2db39e77222cb80d7b61dbf4345de68c0851fe076fe25e5fbcfcaffffffffaa36a6542130b89b55067dc301a78f055e4d55f69e0f077ee178f59eeae8acd4010000006a473044022039fa8f0cdd4d3f963fa6ef66145a2969e8432dc82e62a95930c259f58c2570a30220557aa4734e887d21b9638a998017617ef6f186156b8b68e103e37ea7dc4c785d012103203b3bffd2e2db39e77222cb80d7b61dbf4345de68c0851fe076fe25e5fbcfcaffffffff02b2830d00000000001976a9147d1534d3ddbb1b18ccd75aeebb18d505bdf272c488ac20c57801000000001976a9146badb2635354325cd9258ecacbb8ceb805a4d61688ac00000000",
    "size": 1488,
    "time": 1523877854,
    "valueOut": 0.25577682,
    "vin": [
        {
            "addr": "12kJMF4wzW5hLHMffA6sXfVAEYMZLJSwv4",
            "utxo": [
                {
                    "choosen": 1,
                    "confirmations": 386,
                    "scriptPubKey": "76a91413287e8eacece8ad0912f20ee52a5f61300f20d388ac",
                    "txid": "42e7451b41aea1cb6d5ad3aa39df9bd5846e3b28c5890d7c8844009497112f6c",
                    "type": "pubkeyhash",
                    "value": 12541445,
                    "vout": 1
                },
                {
                    "choosen": 1,
                    "confirmations": 233,
                    "scriptPubKey": "76a91413287e8eacece8ad0912f20ee52a5f61300f20d388ac",
                    "txid": "d4ace8ea9ef578e17e070f9ef6554d5e058fa701c37d06559bb8302154a636aa",
                    "type": "pubkeyhash",
                    "value": 13038107,
                    "vout": 1
                },
                {
                    "choosen": 0,
                    "confirmations": 79,
                    "scriptPubKey": "76a91413287e8eacece8ad0912f20ee52a5f61300f20d388ac",
                    "txid": "fe1aca427579962ec1bd0fe608d4dafee9abd8adafd01dbff3abcefc6d82876b",
                    "type": "pubkeyhash",
                    "value": 11355092,
                    "vout": 1
                },
                {
                    "choosen": 0,
                    "confirmations": 540,
                    "scriptPubKey": "76a91413287e8eacece8ad0912f20ee52a5f61300f20d388ac",
                    "txid": "f2eb64ad98f784724c8e414e4bb297ff4a9cf7a8ae12cddb073674cee69a2a65",
                    "type": "pubkeyhash",
                    "value": 270235,
                    "vout": 0
                },
                {
                    "choosen": 0,
                    "confirmations": 698,
                    "scriptPubKey": "76a91413287e8eacece8ad0912f20ee52a5f61300f20d388ac",
                    "txid": "7249b543ec94398808d68529c0402ba5dadcda510961782b70cf176eb3ad8560",
                    "type": "pubkeyhash",
                    "value": 292742,
                    "vout": 0
                },
                {
                    "choosen": 0,
                    "confirmations": 862,
                    "scriptPubKey": "76a91413287e8eacece8ad0912f20ee52a5f61300f20d388ac",
                    "txid": "c725f5dd3fe8e62d157627e292d7269f3fdc34420c169cbaa227ddaa6a9314ad",
                    "type": "pubkeyhash",
                    "value": 29687,
                    "vout": 0
                },
                {
                    "choosen": 0,
                    "confirmations": 1021,
                    "scriptPubKey": "76a91413287e8eacece8ad0912f20ee52a5f61300f20d388ac",
                    "txid": "d416dba850e4e90da6b4752b8046c9e8441a84b413a85ffdd9ca947bee3b403f",
                    "type": "pubkeyhash",
                    "value": 163219,
                    "vout": 0
                },
                {
                    "choosen": 0,
                    "confirmations": 1175,
                    "scriptPubKey": "76a91413287e8eacece8ad0912f20ee52a5f61300f20d388ac",
                    "txid": "b8e0672695a9399ad14933f86e7f881c9e9ff5c048924d93d1c2c346efcbffa0",
                    "type": "pubkeyhash",
                    "value": 94330,
                    "vout": 1
                },
                {
                    "choosen": 0,
                    "confirmations": 1331,
                    "scriptPubKey": "76a91413287e8eacece8ad0912f20ee52a5f61300f20d388ac",
                    "txid": "b5a720ec85bbbb656ea463a372e5f1db98b9ac4a669580e3b0bcf2809eada0a0",
                    "type": "pubkeyhash",
                    "value": 266109,
                    "vout": 1
                },
                {
                    "choosen": 0,
                    "confirmations": 1510,
                    "scriptPubKey": "76a91413287e8eacece8ad0912f20ee52a5f61300f20d388ac",
                    "txid": "b2b4622a059c145a742dce4fc7b7fe0859a96dfa2cd2adbfaac5b4825e0169b3",
                    "type": "pubkeyhash",
                    "value": 86879,
                    "vout": 0
                }
            ]
        }
    ],
    "vout": [
        {
            "n": 0,
            "scriptPubKey": {
                "addresses": [
                    "1CQNsRVsSQqxGVCx5HkpryRqQu8UD8Dqo8"
                ],
                "asm": "OP_DUP OP_HASH160 7d1534d3ddbb1b18ccd75aeebb18d505bdf272c4 OP_EQUALVERIFY OP_CHECKSIG",
                "hex": "76a9147d1534d3ddbb1b18ccd75aeebb18d505bdf272c488ac",
                "type": "pubkeyhash"
            },
            "spentHeight": null,
            "spentIndex": null,
            "spentTxId": null,
            "value": "0.00885682",
            "valueSat": 885682
        },
        {
            "n": 1,
            "scriptPubKey": {
                "addresses": [
                    "1ApMPCCR3dRRXbA98T1ir5QRQsRhdN2FoJ"
                ],
                "asm": "OP_DUP OP_HASH160 6badb2635354325cd9258ecacbb8ceb805a4d616 OP_EQUALVERIFY OP_CHECKSIG",
                "hex": "76a9146badb2635354325cd9258ecacbb8ceb805a4d61688ac",
                "type": "pubkeyhash"
            },
            "spentHeight": null,
            "spentIndex": null,
            "spentTxId": null,
            "value": "0.24692000",
            "valueSat": 24692000
        }
    ]
}