{
    "_id": {
        "$oid": "5ad489a44c372215dd13d65a"
    },
    "fee": 1441,
    "id": "ce0d4b62a5034c952070f6919cacaa26e121ab7b1e015f96446f3c4f7423f631",
    "raw": "0100000002d3420b4b21a083fe3f2ccd70a902844051d399562c052a81437de5f0bfcaf2a3030000006a4730440220372d94a93a5949da38c3762ad3558fe4b4c18cb450512dea99afca21ea46d58e0220320d0e8b280bd761a7a23ab34bf16893a4e94ce2edc60f1634ed7a748db5c347012102002f377159bf6458a69a2f3fe05ba249ad794546421ded4aeea0c179faa64689feffffffd73b573d6e3bf0942c146c782b837351e42956f9255279e34cafb91786c2a4a6020000006a4730440220717464e934f48c02ce91a589c56ec6224300d6923d78cfcb36bca73925d02444022011cef6f85061b3b5321293dea8e6b8c64ba246c4127858321e7b86331d84cb46012102002f377159bf6458a69a2f3fe05ba249ad794546421ded4aeea0c179faa64689feffffff030000000000000000166a146f6d6e69000000000000001f00000002540be40022020000000000001976a914a25dec4d0011064ef106a983c39c7a540699f22088ac4eb10f00000000001976a914e74942e740ed005444e3428944e3ab15af745f6588ac3ae90700",
    "size": 1612,
    "time": 1523878303,
    "valueOut": 0.01028976,
    "vin": [
        {
            "addr": "1N5vrboZibWgJ92jGr23kG7XYrCEUsGCAD",
            "utxo": [
                {
                    "choosen": 1,
                    "confirmations": 264,
                    "scriptPubKey": "76a914e74942e740ed005444e3428944e3ab15af745f6588ac",
                    "txid": "a3f2cabff0e57d43812a052c5699d351408402a970cd2c3ffe83a0214b0b42d3",
                    "type": "pubkeyhash",
                    "value": 50000,
                    "vout": 3
                },
                {
                    "choosen": 1,
                    "confirmations": 261,
                    "scriptPubKey": "76a914e74942e740ed005444e3428944e3ab15af745f6588ac",
                    "txid": "a6a4c28617b9af4ce3795225f95629e45173832b786c142c94f03b6e3d573bd7",
                    "type": "pubkeyhash",
                    "value": 980417,
                    "vout": 2
                },
                {
                    "choosen": 0,
                    "confirmations": 0,
                    "scriptPubKey": "76a914e74942e740ed005444e3428944e3ab15af745f6588ac",
                    "txid": "ce0d4b62a5034c952070f6919cacaa26e121ab7b1e015f96446f3c4f7423f631",
                    "type": "pubkeyhash",
                    "value": 1028430,
                    "vout": 2
                },
                {
                    "choosen": 0,
                    "confirmations": 1,
                    "scriptPubKey": "76a914e74942e740ed005444e3428944e3ab15af745f6588ac",
                    "txid": "3dbb112e6c0322c5b2383a1b314661eda3352b305a4e50a79b72c23f46c5e8b0",
                    "type": "pubkeyhash",
                    "value": 600,
                    "vout": 3
                },
                {
                    "choosen": 0,
                    "confirmations": 887,
                    "scriptPubKey": "76a914e74942e740ed005444e3428944e3ab15af745f6588ac",
                    "txid": "9094513c86865b0b498276a1cbdc53c4bb4527b3aa0466124329f57ea892f1db",
                    "type": "pubkeyhash",
                    "value": 95764,
                    "vout": 2
                },
                {
                    "choosen": 0,
                    "confirmations": 11867,
                    "scriptPubKey": "76a914e74942e740ed005444e3428944e3ab15af745f6588ac",
                    "txid": "d08009d4678d7017028352a7bfc6a627f52b2d66edfc4645f1b791381f844e44",
                    "type": "pubkeyhash",
                    "value": 546,
                    "vout": 2
                }
            ]
        }
    ],
    "vout": [
        {
            "n": 0,
            "scriptPubKey": {
                "asm": "OP_RETURN 6f6d6e69000000000000001f00000002540be400",
                "hex": "6a146f6d6e69000000000000001f00000002540be400",
                "type": "nulldata"
            },
            "spentHeight": null,
            "spentIndex": null,
            "spentTxId": null,
            "value": "0.00000000",
            "valueSat": 0
        },
        {
            "n": 1,
            "scriptPubKey": {
                "addresses": [
                    "1FoWyxwPXuj4C6abqwhjDWdz6D4PZgYRjA"
                ],
                "asm": "OP_DUP OP_HASH160 a25dec4d0011064ef106a983c39c7a540699f220 OP_EQUALVERIFY OP_CHECKSIG",
                "hex": "76a914a25dec4d0011064ef106a983c39c7a540699f22088ac",
                "type": "pubkeyhash"
            },
            "spentHeight": null,
            "spentIndex": null,
            "spentTxId": null,
            "value": "0.00000546",
            "valueSat": 546
        },
        {
            "n": 2,
            "scriptPubKey": {
                "addresses": [
                    "1N5vrboZibWgJ92jGr23kG7XYrCEUsGCAD"
                ],
                "asm": "OP_DUP OP_HASH160 e74942e740ed005444e3428944e3ab15af745f65 OP_EQUALVERIFY OP_CHECKSIG",
                "hex": "76a914e74942e740ed005444e3428944e3ab15af745f6588ac",
                "type": "pubkeyhash"
            },
            "spentHeight": null,
            "spentIndex": null,
            "spentTxId": null,
            "value": "0.01028430",
            "valueSat": 1028430
        }
    ]
}