{
    "_id": {
        "$oid": "5ad489ba4c372215dd13d65b"
    },
    "fee": 56200,
    "id": "2a75131a29d0bd2c370117bc29a1066d267750cc5a28757072f8d10aef85d8fb",
    "raw": "0100000006b2132c927d629513d602b75d2f29bf567011f43721242f74882bdf4a25933c9c000000006a47304402205bdccfd770b835089ef7ac7295ce6f86be405f34452b5dc9c7e5f080df4ee3500220043e1f0d23f9f9a6ab9ed0a0c45adf200913131fd00a406a4f424c7c37ae049601210273cd29e39333026bb6a864994b5ee5e8ffffc2035648a5ac60bee3f6cf818381ffffffff93e3544bbcb626debfb5b1317053bacf822fca995293f8a094fd54a00ac74df5000000006a47304402204bb11975caefc9060233550429d54751e5ef719925ec2af6d0a67812385f32fa02201651cb8bec003df539d6f2be18e25b5a72c7b25b2eac7ad5bc89fc1d8cae7a8e01210273cd29e39333026bb6a864994b5ee5e8ffffc2035648a5ac60bee3f6cf818381ffffffffea79492904563fe4c229f9eebd9e9b531864147bb4ce892c63a5fead31ac18de000000006b483045022100980b7c74b149bbc9b6b00d9a40f82eee2cec9cfbe5e9b6733f9f8e9f599e9328022039018765465e9dccde28870c7c13695dbbeaa7a35cb81598ddc46d2b9148737401210273cd29e39333026bb6a864994b5ee5e8ffffc2035648a5ac60bee3f6cf818381ffffffff57f9859aa9c4bdf4d984a68334ce72be569ab054b091cef1f076a9ed304ac4a43b0000006b4830450221008e2088a331bcfd727653f4401a2b7b693012defc09879f2b1f537882579956e30220037e540ed1704964bc3f86271e908631cc0ad5fcc6960bbf0b1ed0329280d2b701210273cd29e39333026bb6a864994b5ee5e8ffffc2035648a5ac60bee3f6cf818381ffffffffdbe9d55604a5773e966fd924338657f646aff722dd4731f0eabb40fbce80b6110e0000006b483045022100a26b461b34d75374b4e82bbbd897c323de739c6dc411c0a0648e3770d855df4002201fe5e5a277e816b46a3d45ef2dfa54951a1a0d010cecf03fd4febb96e46920df01210273cd29e39333026bb6a864994b5ee5e8ffffc2035648a5ac60bee3f6cf818381ffffffff6291e434a194a171cb415c96e6e6dad9581c75cef9c8cbfe7aad603d25ffd1a1000000006a473044022056ba2e990443176a775d8f58db65b59fb9a9e6047bdd8ee69b8352c1d9b28a3202201a50137c8a807fd81bf837f1b2dc0985a611689ec2c269ae9c1e2fc416f2bf1001210273cd29e39333026bb6a864994b5ee5e8ffffc2035648a5ac60bee3f6cf818381ffffffff016ea70b20000000001976a91468f7825e4d9fa74f78b608ead2582d1fb563019c88ac00000000",
    "size": 3716,
    "time": 1523878325,
    "valueOut": 5.3763467,
    "vin": [
        {
            "addr": "14vFwk8Gg59GSgqE1dUJhXxtfHEJHu7wHn",
            "utxo": [
                {
                    "choosen": 1,
                    "confirmations": 4101,
                    "scriptPubKey": "76a9142afae5d8041f667ef78eb6971b43709578afa39988ac",
                    "txid": "9c3c93254adf2b88742f242137f4117056bf292f5db702d61395627d922c13b2",
                    "type": "pubkeyhash",
                    "value": 212658870,
                    "vout": 0
                },
                {
                    "choosen": 1,
                    "confirmations": 4130,
                    "scriptPubKey": "76a9142afae5d8041f667ef78eb6971b43709578afa39988ac",
                    "txid": "f54dc70aa054fd94a0f8935299ca2f82cfba537031b1b5bfde26b6bc4b54e393",
                    "type": "pubkeyhash",
                    "value": 218060000,
                    "vout": 0
                },
                {
                    "choosen": 1,
                    "confirmations": 5002,
                    "scriptPubKey": "76a9142afae5d8041f667ef78eb6971b43709578afa39988ac",
                    "txid": "de18ac31adfea5632c89ceb47b146418539b9ebdeef929c2e43f5604294979ea",
                    "type": "pubkeyhash",
                    "value": 26320000,
                    "vout": 0
                },
                {
                    "choosen": 1,
                    "confirmations": 5145,
                    "scriptPubKey": "76a9142afae5d8041f667ef78eb6971b43709578afa39988ac",
                    "txid": "a4c44a30eda976f0f1ce91b054b09a56be72ce3483a684d9f4bdc4a99a85f957",
                    "type": "pubkeyhash",
                    "value": 14830000,
                    "vout": 59
                },
                {
                    "choosen": 1,
                    "confirmations": 5151,
                    "scriptPubKey": "76a9142afae5d8041f667ef78eb6971b43709578afa39988ac",
                    "txid": "11b680cefb40bbeaf03147dd22f7af46f657863324d96f963e77a50456d5e9db",
                    "type": "pubkeyhash",
                    "value": 29700000,
                    "vout": 14
                },
                {
                    "choosen": 1,
                    "confirmations": 5152,
                    "scriptPubKey": "76a9142afae5d8041f667ef78eb6971b43709578afa39988ac",
                    "txid": "a1d1ff253d60ad7afecbc8f9ce751c58d9dae6e6965c41cb71a194a134e49162",
                    "type": "pubkeyhash",
                    "value": 36122000,
                    "vout": 0
                }
            ]
        }
    ],
    "vout": [
        {
            "n": 0,
            "scriptPubKey": {
                "addresses": [
                    "1Aa1nCHn6TZU9LWCae8BemmDhKJ6Yksaai"
                ],
                "asm": "OP_DUP OP_HASH160 68f7825e4d9fa74f78b608ead2582d1fb563019c OP_EQUALVERIFY OP_CHECKSIG",
                "hex": "76a91468f7825e4d9fa74f78b608ead2582d1fb563019c88ac",
                "type": "pubkeyhash"
            },
            "spentHeight": null,
            "spentIndex": null,
            "spentTxId": null,
            "value": "5.37634670",
            "valueSat": 537634670
        }
    ]
}