{
    "_id": {
        "$oid": "5ad48ad14c372215dd13d65c"
    },
    "fee": 5220,
    "id": "2ddadd1ecd8766090f63f7541ecce8188fb60fcfa75cb4ab9f35f5e28845dca9",
    "raw": "010000000365c38cd6120327e7eee673b869078cae2f86f00ce7afc22188b9834affcf3a400b0000006a47304402206f77eaff856e194147991942c7116268eb5e49c48c11807e05ece5955f0de095022054acd109f2356d0fe71b8fdcde36146c4cc099101164f221295e121a1fa2fa31012103c2d017229b81f192c6015bc03c6d2171b7f77c63bcce89e54107db6c503c815cffffffff6f2c1ec9211f61edd8888da9e5511b89d1f4f2a078138762d153317a52c8c8450b0000006a47304402207b0dd103cf294cd571051fc8b834a84951b053f99707f9c68e5ac50e20dd081b022026ed68a9d34aa1b8bef5ca572d19d5783be2b7139cb3dc0784bcd7eb2f4dd5de012103c2d017229b81f192c6015bc03c6d2171b7f77c63bcce89e54107db6c503c815cffffffff286de56898abf5b2d46f8c497eb6c97aad57ec1435ea2e98a7e3104b7776604a000000006b483045022100f47ad9d20d7b76a212fd9ecb6e09fd8ebf756fe6d9a948d86a11ce07a0b3885d022009601ec6d0a70536c4d24bb1b8db547407d34aa86edc0ed59d5609e7928a1a90012103c2d017229b81f192c6015bc03c6d2171b7f77c63bcce89e54107db6c503c815cffffffff0250000100000000001976a914799d6ac7b951d93e7171a632017fdbdecefa7f4388ac98de8300000000001976a914329c435e6be90bd34ec1f354121ee28aa82f408e88ac00000000",
    "size": 2080,
    "time": 1523878604,
    "valueOut": 0.08707816,
    "vin": [
        {
            "addr": "1KA2bJDeMkaPd24wM6RKgASdeH4E4NUXzi",
            "utxo": [
                {
                    "choosen": 1,
                    "confirmations": 1247,
                    "scriptPubKey": "76a914c727560cf9b1a5bd41fa1d79b4aeaf6588f61fc188ac",
                    "txid": "403acfff4a83b98821c2afe70cf0862fae8c0769b873e6eee7270312d68cc365",
                    "type": "pubkeyhash",
                    "value": 1136483,
                    "vout": 11
                },
                {
                    "choosen": 1,
                    "confirmations": 288,
                    "scriptPubKey": "76a914c727560cf9b1a5bd41fa1d79b4aeaf6588f61fc188ac",
                    "txid": "45c8c8527a3153d162871378a0f2f4d1891b51e5a98d88d8ed611f21c91e2c6f",
                    "type": "pubkeyhash",
                    "value": 909186,
                    "vout": 11
                },
                {
                    "choosen": 1,
                    "confirmations": 2218,
                    "scriptPubKey": "76a914c727560cf9b1a5bd41fa1d79b4aeaf6588f61fc188ac",
                    "txid": "4a6076774b10e3a7982eea3514ec57ad7ac9b67e498c6fd4b2f5ab9868e56d28",
                    "type": "pubkeyhash",
                    "value": 6667367,
                    "vout": 0
                }
            ]
        }
    ],
    "vout": [
        {
            "n": 0,
            "scriptPubKey": {
                "addresses": [
                    "1C63Lk9w4ijfstbWMLFLrbD5bS4rhMbDDe"
                ],
                "asm": "OP_DUP OP_HASH160 799d6ac7b951d93e7171a632017fdbdecefa7f43 OP_EQUALVERIFY OP_CHECKSIG",
                "hex": "76a914799d6ac7b951d93e7171a632017fdbdecefa7f4388ac",
                "type": "pubkeyhash"
            },
            "spentHeight": null,
            "spentIndex": null,
            "spentTxId": null,
            "value": "0.00065616",
            "valueSat": 65616
        },
        {
            "n": 1,
            "scriptPubKey": {
                "addresses": [
                    "15cbywsyD3g1N4F8q1gEV1PdYaY6zLa9hc"
                ],
                "asm": "OP_DUP OP_HASH160 329c435e6be90bd34ec1f354121ee28aa82f408e OP_EQUALVERIFY OP_CHECKSIG",
                "hex": "76a914329c435e6be90bd34ec1f354121ee28aa82f408e88ac",
                "type": "pubkeyhash"
            },
            "spentHeight": null,
            "spentIndex": null,
            "spentTxId": null,
            "value": "0.08642200",
            "valueSat": 8642200
        }
    ]
}