{
    "_id": {
        "$oid": "5ad48afa4c372215dd13d65d"
    },
    "fee": 14960,
    "id": "1ce94742ea05533032a72d9c7b86e647534c6be0582a7099e4e483b07ff515c1",
    "raw": "0100000002e2a89cbde9e404ccf670725c0b1eda2f1081bf37c79fa2780c6267709c6629847e0100006a473044022052521f5f25e8391c89755ef079ab9e69bd3ae7d2fb9d8e80abcdc09eee2cf0aa02205c73786d1e662ec57d3f7f547678e1babf61ba625268d7e87c637aaafd983d66012103ffa0f08dbb57def9e3c9d442bcfd5a3ad997ee0775743250af0edd7077e710d1ffffffff9fe8ecf22089abc344d60f87ef3ded97f855aec1e2ee749ec6660a15aa5cae89700000006b4830450221009f28d3a1d318e7d51c2b44f1bc248d80f2f8d1735a0ecc450e0305ea915cc47402205d8925f6b0657a06463e34c97fb477a82a4273381727a01fc277bf6f14061387012103ffa0f08dbb57def9e3c9d442bcfd5a3ad997ee0775743250af0edd7077e710d1ffffffff02ca510200000000001976a914704670ef135f194cd845e6bbefa82c4dddbd67dd88ac40420f00000000001976a9149d9532b7d31f67915b2e1e29ea145964735fa8d588ac00000000",
    "size": 1492,
    "time": 1523878645,
    "valueOut": 0.0115201,
    "vin": [
        {
            "addr": "1LG75dnAyJfUVw3og2fYETVxXNtAs6EgGU",
            "utxo": [
                {
                    "choosen": 1,
                    "confirmations": 1,
                    "scriptPubKey": "76a914d345b45e32ed2a534c045546a2db1d11e0776e8f88ac",
                    "txid": "8429669c7067620c78a29fc737bf81102fda1e0b5c7270f6cc04e4e9bd9ca8e2",
                    "type": "pubkeyhash",
                    "value": 1003613,
                    "vout": 382
                },
                {
                    "choosen": 1,
                    "confirmations": 1569,
                    "scriptPubKey": "76a914d345b45e32ed2a534c045546a2db1d11e0776e8f88ac",
                    "txid": "89ae5caa150a66c69e74eee2c1ae55f897ed3def870fd644c3ab8920f2ece89f",
                    "type": "pubkeyhash",
                    "value": 163357,
                    "vout": 112
                }
            ]
        }
    ],
    "vout": [
        {
            "n": 0,
            "scriptPubKey": {
                "addresses": [
                    "1BEf4pfSwvjqDqme9KzWdN66av7sog9Bcu"
                ],
                "asm": "OP_DUP OP_HASH160 704670ef135f194cd845e6bbefa82c4dddbd67dd OP_EQUALVERIFY OP_CHECKSIG",
                "hex": "76a914704670ef135f194cd845e6bbefa82c4dddbd67dd88ac",
                "type": "pubkeyhash"
            },
            "spentHeight": null,
            "spentIndex": null,
            "spentTxId": null,
            "value": "0.00152010",
            "valueSat": 152010
        },
        {
            "n": 1,
            "scriptPubKey": {
                "addresses": [
                    "1FNDpatdK4xj5SUPREE1EtUhNKK48FDELt"
                ],
                "asm": "OP_DUP OP_HASH160 9d9532b7d31f67915b2e1e29ea145964735fa8d5 OP_EQUALVERIFY OP_CHECKSIG",
                "hex": "76a9149d9532b7d31f67915b2e1e29ea145964735fa8d588ac",
                "type": "pubkeyhash"
            },
            "spentHeight": null,
            "spentIndex": null,
            "spentTxId": null,
            "value": "0.01000000",
            "valueSat": 1000000
        }
    ]
}