{
    "_id": {
        "$oid": "5ad48f254c372215dd13d663"
    },
    "fee": 10400,
    "id": "9d7bf9a8faedb2eaffd7d6e687cf983cac50121489fc914e460cf00ecf25b335",
    "raw": "0100000003dbf44e9284894ef44a441fd09ea12a0c451472ab1010342f066a423b4cf107647f0000006a4730440220065e081c35da0eba5aa05a0772e41e54d2a5b66cb27a79943cf6f5e218082fe1022043a0881f37c05996c6650512b47063f43175146ba299001b9139998727fc1067012103f552cc465f9c02d9f6d2215adc67e2a5f7c701ee7f700f1f6cf679d2e07db86fffffffff634d9247775a23ca5b13c12e1b25378e5a65c4c8a7c83a1397bf32fed99880e3780000006b4830450221008f2d55ccccd845585e530cf0d579e6b19a1afa7b105b2e0492dbc8c17346ea9302204a27b381952be2d536d540a6eb4aa69c13ae1b4a37a001f855e1c8f405d60557012103f552cc465f9c02d9f6d2215adc67e2a5f7c701ee7f700f1f6cf679d2e07db86fffffffff71f4f84f67263393ad96d97017cce0362805884c8c1f54279bb451b71a93eed1000000006b483045022100d63dc55cab23043594c0e014ba2c0d0980caf52ed20494259bdbd7e9410628c1022026f59a93254b5616b52a663ce24877deb19abf558cab63a31affab9b2f546bf2012103f552cc465f9c02d9f6d2215adc67e2a5f7c701ee7f700f1f6cf679d2e07db86fffffffff02402414000000000017a9146f9b782e7a846f6babdf19b278e0e47a8c033ea487141f1d00000000001976a914d5552791b5a93a051851dfd0252a37c3c441a81788ac00000000",
    "size": 2076,
    "time": 1523879711,
    "valueOut": 0.032285,
    "vin": [
        {
            "addr": "197rGqz8FJys9G5DkUhVRK2u1uyk8yMU3M",
            "utxo": [
                {
                    "choosen": 1,
                    "confirmations": 6843,
                    "scriptPubKey": "76a914590ca21ad8013039c9f64d272eb7160947316f1388ac",
                    "txid": "6407f14c3b426a062f341010ab7214450c2aa19ed01f444af44e8984924ef4db",
                    "type": "pubkeyhash",
                    "value": 185304,
                    "vout": 127
                },
                {
                    "choosen": 1,
                    "confirmations": 10521,
                    "scriptPubKey": "76a914590ca21ad8013039c9f64d272eb7160947316f1388ac",
                    "txid": "e38098d9fe32bf97133ac8a7c8c4655a8e37251b2ec1135bca235a7747924d63",
                    "type": "pubkeyhash",
                    "value": 1094391,
                    "vout": 120
                },
                {
                    "choosen": 1,
                    "confirmations": 11033,
                    "scriptPubKey": "76a914590ca21ad8013039c9f64d272eb7160947316f1388ac",
                    "txid": "d1ee931ab751b49b27541f8c4c88052836e0cc1770d996ad933326674ff8f471",
                    "type": "pubkeyhash",
                    "value": 1959205,
                    "vout": 0
                },
                {
                    "choosen": 0,
                    "confirmations": 10063,
                    "scriptPubKey": "76a914590ca21ad8013039c9f64d272eb7160947316f1388ac",
                    "txid": "1da7d1782862ae524d9bc97b670e068bb4aa6665b57ccb24efd459dce92da7bc",
                    "type": "pubkeyhash",
                    "value": 5016800,
                    "vout": 0
                }
            ]
        }
    ],
    "vout": [
        {
            "n": 0,
            "scriptPubKey": {
                "addresses": [
                    "3Bs9B3XPGMAjZZPASTf39FM6FozkpPG9jU"
                ],
                "asm": "OP_HASH160 6f9b782e7a846f6babdf19b278e0e47a8c033ea4 OP_EQUAL",
                "hex": "a9146f9b782e7a846f6babdf19b278e0e47a8c033ea487",
                "type": "scripthash"
            },
            "spentHeight": null,
            "spentIndex": null,
            "spentTxId": null,
            "value": "0.01320000",
            "valueSat": 1320000
        },
        {
            "n": 1,
            "scriptPubKey": {
                "addresses": [
                    "1LSzwWArAYRtQ5R9CySwcnxt6w693i6EmR"
                ],
                "asm": "OP_DUP OP_HASH160 d5552791b5a93a051851dfd0252a37c3c441a817 OP_EQUALVERIFY OP_CHECKSIG",
                "hex": "76a914d5552791b5a93a051851dfd0252a37c3c441a81788ac",
                "type": "pubkeyhash"
            },
            "spentHeight": null,
            "spentIndex": null,
            "spentTxId": null,
            "value": "0.01908500",
            "valueSat": 1908500
        }
    ]
}