{
    "_id": {
        "$oid": "5ad48f8a4c372215dd13d664"
    },
    "fee": 36994,
    "id": "75a2d0d5f7d24092969311a3827615a6c98a1e0dba7b467162b9ed313dba10b3",
    "raw": "010000000001025aaa1dbb7721c02c99f5185eaba912e8d1236d0cc45a24e11571c855b38520210100000023220020bf001c6b98d8befbfecbe055e1e610abbead0ab167600d30514d300f45af2168ffffffff7fc0cf4cee962a37020ae395e3ebc070a200d314e64030fb9f9b70414003bfb40000000023220020bf001c6b98d8befbfecbe055e1e610abbead0ab167600d30514d300f45af2168ffffffff0230cb8d030000000017a91475764b2552c48ff131150d4c4410747a90dfad2187563910000000000017a914694417cda62d41c06f8ad416834a7dc1ec6b13ad870400473044022015cb3cccdff6438f8e01f9a1d0eb253e073ad6b9bf009ce047060541dfbb19d40220185651b3e87a4c4357d04b929f8d2b0725666d03ebab69c5f1e2b1fa21b8c3f101473044022018e9620f4e0c2a4f2570f4dfc9627c79362d8de579ba950ffce61c3375fc0b80022003b212adf297678e6a2c232aa254e25145c10dfd1c9ca70b47f11b96f57194700147522102e2832993831d3e7a51583578d140638ce6644f5af642ea95b41c1b25af8fc3be21034ac7265b62973759f7316129aff65c85bc8012b2ee6a34c7964372175c71fed752ae04004830450221009bd36ffbe504872450e04be814ed3ac472436841e94f42b88e1413d9fbed6b86022003215f272bea2e89f9e9104755e7f02628ab1094ebab28cfa5aa5dafe251496d01473044022068694067495e03780403cca47069a0713e3e4d6d0450dc7a5010f64d2b98bedb02207facdeb717be05939d535366a108913883eaf89ec19c6cc1e99ba817df509f940147522102e2832993831d3e7a51583578d140638ce6644f5af642ea95b41c1b25af8fc3be21034ac7265b62973759f7316129aff65c85bc8012b2ee6a34c7964372175c71fed752ae00000000",
    "size": 2660,
    "time": 1523879813,
    "valueOut": 0.60687494,
    "vin": [
        {
            "addr": "3BHcSsNSj9TZromVKh1DaetBfuoskGvykC",
            "utxo": [
                {
                    "choosen": 1,
                    "confirmations": 8,
                    "scriptPubKey": "a914694417cda62d41c06f8ad416834a7dc1ec6b13ad87",
                    "txid": "212085b355c87115e1245ac40c6d23d1e812a9ab5e18f5992cc02177bb1daa5a",
                    "type": "scripthash",
                    "value": 1176488,
                    "vout": 1
                },
                {
                    "choosen": 1,
                    "confirmations": 6,
                    "scriptPubKey": "a914694417cda62d41c06f8ad416834a7dc1ec6b13ad87",
                    "txid": "b4bf034041709b9ffb3040e614d300a270c0ebe395e30a02372a96ee4ccfc07f",
                    "type": "scripthash",
                    "value": 59548000,
                    "vout": 0
                },
                {
                    "choosen": 0,
                    "confirmations": 0,
                    "scriptPubKey": "a914694417cda62d41c06f8ad416834a7dc1ec6b13ad87",
                    "txid": "75a2d0d5f7d24092969311a3827615a6c98a1e0dba7b467162b9ed313dba10b3",
                    "type": "scripthash",
                    "value": 1063254,
                    "vout": 1
                }
            ]
        }
    ],
    "vout": [
        {
            "n": 0,
            "scriptPubKey": {
                "addresses": [
                    "3CQ6hAeBkXkA7AsKeaVt7KJiUJSWoD6BKj"
                ],
                "asm": "OP_HASH160 75764b2552c48ff131150d4c4410747a90dfad21 OP_EQUAL",
                "hex": "a91475764b2552c48ff131150d4c4410747a90dfad2187",
                "type": "scripthash"
            },
            "spentHeight": null,
            "spentIndex": null,
            "spentTxId": null,
            "value": "0.59624240",
            "valueSat": 59624240
        },
        {
            "n": 1,
            "scriptPubKey": {
                "addresses": [
                    "3BHcSsNSj9TZromVKh1DaetBfuoskGvykC"
                ],
                "asm": "OP_HASH160 694417cda62d41c06f8ad416834a7dc1ec6b13ad OP_EQUAL",
                "hex": "a914694417cda62d41c06f8ad416834a7dc1ec6b13ad87",
                "type": "scripthash"
            },
            "spentHeight": null,
            "spentIndex": null,
            "spentTxId": null,
            "value": "0.01063254",
            "valueSat": 1063254
        }
    ]
}