{
    "_id": {
        "$oid": "5ad492534c372215dd13d667"
    },
    "fee": 22724,
    "id": "53abc3a5e5e6f1fe9d258c08bc65c92468dab001c965d8068c88e5a70f58918b",
    "raw": "01000000030065caade600a5915d124a6f9d06b66d6051d026124e61383d851bfc675f8c9d01000000db00483045022100c36c96674f469b20416bba704bb5d2989c1665f62cf6396df8e14016ddd2e55402200534d447a598486a931182574d50455458b1af8bade62da0997b363cc5e3016a014830450221008d8cb898e55d6e19a958a79d2742110d95cc21f518b94f45e81c641073cad65902202cfddaaef98d2f2a800365bcb4aca6f953383cae6bf95fbe98332776c8448a15014752210313b8525ee68b22c97dcfd6a30f8d5cca36bf210714480ccf265287544034045f210327b06310bbeb2482a81a12f6c8277beee68442b0ccc59f460bfb5a63357615b352aeffffffffa8bd2dbdd864a180fd2ce374ee0304dc7e3b89af8ea23eb63d6a3792cfdea1a70c000000d90047304402202a057baca4638e0c5c10a8336b12c033c02893322ee20d437d77f227a1c52bdc02202856044d18545f75033314d4fee4a21d1264a1be0b4969cee390164db8960a160147304402207da20330abcee04f153b522b54d1f52264043c883425c3e2170e05a1b872270502204b285da59b321be4cd12e62a486792cbe750b0de6798e227b86b02a9f0fcd1f3014752210313b8525ee68b22c97dcfd6a30f8d5cca36bf210714480ccf265287544034045f210327b06310bbeb2482a81a12f6c8277beee68442b0ccc59f460bfb5a63357615b352aeffffffffa5fd1843cb58399644989e6570c31e8473242752942d2fe5ca68987a93d2a36863000000da00473044022071c760c0b44f8c490c28032fff280e2817a37a61087334a2e112730b574ad16202204c33743b73558f267b78183fa4f996bff7af77cdcfe61462e5476d655bbbdca801483045022100b80c6239c9c7d623663b4c8f7cf9d865671696a700bcf8b1f5d1a40a96538234022053c899a83d29d148a334426f00d7773c654968d6cde18b46c7cf2287c3b13733014752210313b8525ee68b22c97dcfd6a30f8d5cca36bf210714480ccf265287544034045f210327b06310bbeb2482a81a12f6c8277beee68442b0ccc59f460bfb5a63357615b352aeffffffff0288e9ea000000000017a914604670e9a731d9da3ebc9a9d910ab5406f1606cd8710ac6b000000000017a914b9c45d7601a330dfa4718b8c527abe6f2032c0358700000000",
    "size": 3404,
    "time": 1523880526,
    "valueOut": 0.22451608,
    "vin": [
        {
            "addr": "3JdGAiZnqmJRgpTYqrVVYLhnHXaLqxJBBV",
            "utxo": [
                {
                    "choosen": 1,
                    "confirmations": 244,
                    "scriptPubKey": "a914b9c45d7601a330dfa4718b8c527abe6f2032c03587",
                    "txid": "9d8c5f67fc1b853d38614e1226d051606db6069d6f4a125d91a500e6adca6500",
                    "type": "scripthash",
                    "value": 30951,
                    "vout": 1
                },
                {
                    "choosen": 1,
                    "confirmations": 8,
                    "scriptPubKey": "a914b9c45d7601a330dfa4718b8c527abe6f2032c03587",
                    "txid": "a7a1decf92376a3db63ea28eaf893b7edc0403ee74e32cfd80a164d8bd2dbda8",
                    "type": "scripthash",
                    "value": 483443,
                    "vout": 12
                },
                {
                    "choosen": 1,
                    "confirmations": 6,
                    "scriptPubKey": "a914b9c45d7601a330dfa4718b8c527abe6f2032c03587",
                    "txid": "68a3d2937a9868cae52f2d9452272473841ec370659e9844963958cb4318fda5",
                    "type": "scripthash",
                    "value": 21959938,
                    "vout": 99
                },
                {
                    "choosen": 0,
                    "confirmations": 0,
                    "scriptPubKey": "a914b9c45d7601a330dfa4718b8c527abe6f2032c03587",
                    "txid": "53abc3a5e5e6f1fe9d258c08bc65c92468dab001c965d8068c88e5a70f58918b",
                    "type": "scripthash",
                    "value": 7056400,
                    "vout": 1
                }
            ]
        }
    ],
    "vout": [
        {
            "n": 0,
            "scriptPubKey": {
                "addresses": [
                    "3AU5BHoU8UM82MFWqaM142trVMfijNWand"
                ],
                "asm": "OP_HASH160 604670e9a731d9da3ebc9a9d910ab5406f1606cd OP_EQUAL",
                "hex": "a914604670e9a731d9da3ebc9a9d910ab5406f1606cd87",
                "type": "scripthash"
            },
            "spentHeight": null,
            "spentIndex": null,
            "spentTxId": null,
            "value": "0.15395208",
            "valueSat": 15395208
        },
        {
            "n": 1,
            "scriptPubKey": {
                "addresses": [
                    "3JdGAiZnqmJRgpTYqrVVYLhnHXaLqxJBBV"
                ],
                "asm": "OP_HASH160 b9c45d7601a330dfa4718b8c527abe6f2032c035 OP_EQUAL",
                "hex": "a914b9c45d7601a330dfa4718b8c527abe6f2032c03587",
                "type": "scripthash"
            },
            "spentHeight": null,
            "spentIndex": null,
            "spentTxId": null,
            "value": "0.07056400",
            "valueSat": 7056400
        }
    ]
}