{
    "_id": {
        "$oid": "5ad4933b4c372215dd13d669"
    },
    "fee": 40000,
    "id": "74af1070946799f68060c5b9d7e00721e1f8399237de6f5d18d58e5bb7543ff3",
    "raw": "0200000006ec564625849ba8fe3dc418693bd9c0559c90b750393187f2a1f367d3a3637ae0010000006a47304402207e2dc15ea6fbc8664b8e1779be57ea94e51934093fa0fcff1c90895d87788010022075cc99cb8dc492faa253206050eccd93cc435470cd501fb5ee9e6cd7102c2a890121024ab0d255ba2fa22d2ab2a0eef15372237103f1f24dd3a4bede9d85badb87a3b5ffffffff4e8ad350a53ae83c3b3e292c10940ea17f488c9f5ead77f7e6ebd3a56505c67fb70900006a47304402202549f3d92209c3846bc2389309c96438c2eb086a3e3fe79c890963ee049dc6c202206a8723ee58dca3271faebfab53d76db2f8b561358514fb87ef0ab2f2725bba010121024ab0d255ba2fa22d2ab2a0eef15372237103f1f24dd3a4bede9d85badb87a3b5ffffffff812ba60d7a77b0cb9e0d9f66e7aeff7cfb4e397d38793469a71a9292645008aaf20700006a4730440220010dfa3623073c8f1433ac5a653df503d04dbbe2fea54a74ecc733fc4dac473802206d18646eee595ca399931ae0cb729b86412a8ca3e5541b4016bb13038eab33180121024ab0d255ba2fa22d2ab2a0eef15372237103f1f24dd3a4bede9d85badb87a3b5ffffffff69105dcdbac638ced2ab97487b025f40ed2c548d120c4c19932636b3e479b5db270a00006b483045022100e1dd5c782799b17378e685ca16783fc29998953c95f36ef4f3dad42675991d4f022074cc7589a17e854196d6c7e4e084f566c1a8ec369da7b34ecf2175782f3896430121024ab0d255ba2fa22d2ab2a0eef15372237103f1f24dd3a4bede9d85badb87a3b5ffffffff90c5ffa7a790599742f082dbea80f2340740887dc9c0ca81023cdccf2a7a2fc72f0800006b483045022100d1d229f989debcdf23a68010aa057a18d516e50e4d8792334a0fc9ffe410cc7202205f595f7fd1a701688f3173998fb200fbe8b70df2df702568cd469751374f38a20121024ab0d255ba2fa22d2ab2a0eef15372237103f1f24dd3a4bede9d85badb87a3b5ffffffff7d552e774804bc873939f7964263180d5ba13b048b752bdeef6812f65a194458e60800006a47304402201a02ed3e1d326c15a508af578df4969e9ce34d533c2691ac6679e7109629a31f02205d8edef620800a016280c501a434fd9e64bb8bc9f7de8baf001b4993722261340121024ab0d255ba2fa22d2ab2a0eef15372237103f1f24dd3a4bede9d85badb87a3b5ffffffff02c0fb3900000000001976a9148ac1969a959659666756bd4d5a611a445203f6d288ac672f0100000000001976a914a6e6845983cc29d893a32ceb48406310da5c5c1b88ac00000000",
    "size": 3848,
    "time": 1523880751,
    "valueOut": 0.03877671,
    "vin": [
        {
            "addr": "1GDVKSpYKDpm5PpgPV9yw4zGB8wm2s9UbL",
            "utxo": [
                {
                    "choosen": 1,
                    "confirmations": 753,
                    "scriptPubKey": "76a914a6e6845983cc29d893a32ceb48406310da5c5c1b88ac",
                    "txid": "e07a63a3d367f3a1f287313950b7909c55c0d93b6918c43dfea89b84254656ec",
                    "type": "pubkeyhash",
                    "value": 6004,
                    "vout": 1
                },
                {
                    "choosen": 1,
                    "confirmations": 683,
                    "scriptPubKey": "76a914a6e6845983cc29d893a32ceb48406310da5c5c1b88ac",
                    "txid": "7fc60565a5d3ebe6f777ad5e9f8c487fa10e94102c293e3b3ce83aa550d38a4e",
                    "type": "pubkeyhash",
                    "value": 738481,
                    "vout": 2487
                },
                {
                    "choosen": 1,
                    "confirmations": 511,
                    "scriptPubKey": "76a914a6e6845983cc29d893a32ceb48406310da5c5c1b88ac",
                    "txid": "aa08506492921aa7693479387d394efb7cffaee7669f0d9ecbb0777a0da62b81",
                    "type": "pubkeyhash",
                    "value": 873000,
                    "vout": 2034
                },
                {
                    "choosen": 1,
                    "confirmations": 337,
                    "scriptPubKey": "76a914a6e6845983cc29d893a32ceb48406310da5c5c1b88ac",
                    "txid": "dbb579e4b3362693194c0c128d542ced405f027b4897abd2ce38c6bacd5d1069",
                    "type": "pubkeyhash",
                    "value": 723282,
                    "vout": 2599
                },
                {
                    "choosen": 1,
                    "confirmations": 212,
                    "scriptPubKey": "76a914a6e6845983cc29d893a32ceb48406310da5c5c1b88ac",
                    "txid": "c72f7a2acfdc3c0281cac0c97d88400734f280eadb82f042975990a7a7ffc590",
                    "type": "pubkeyhash",
                    "value": 796917,
                    "vout": 2095
                },
                {
                    "choosen": 1,
                    "confirmations": 64,
                    "scriptPubKey": "76a914a6e6845983cc29d893a32ceb48406310da5c5c1b88ac",
                    "txid": "5844195af61268efde2b758b043ba15b0d18634296f7393987bc0448772e557d",
                    "type": "pubkeyhash",
                    "value": 779987,
                    "vout": 2278
                },
                {
                    "choosen": 0,
                    "confirmations": 0,
                    "scriptPubKey": "76a914a6e6845983cc29d893a32ceb48406310da5c5c1b88ac",
                    "txid": "74af1070946799f68060c5b9d7e00721e1f8399237de6f5d18d58e5bb7543ff3",
                    "type": "pubkeyhash",
                    "value": 77671,
                    "vout": 1
                }
            ]
        }
    ],
    "vout": [
        {
            "n": 0,
            "scriptPubKey": {
                "addresses": [
                    "1DegADwwtuUztUqfCoJiMFuJEfn63TY7bt"
                ],
                "asm": "OP_DUP OP_HASH160 8ac1969a959659666756bd4d5a611a445203f6d2 OP_EQUALVERIFY OP_CHECKSIG",
                "hex": "76a9148ac1969a959659666756bd4d5a611a445203f6d288ac",
                "type": "pubkeyhash"
            },
            "spentHeight": null,
            "spentIndex": null,
            "spentTxId": null,
            "value": "0.03800000",
            "valueSat": 3800000
        },
        {
            "n": 1,
            "scriptPubKey": {
                "addresses": [
                    "1GDVKSpYKDpm5PpgPV9yw4zGB8wm2s9UbL"
                ],
                "asm": "OP_DUP OP_HASH160 a6e6845983cc29d893a32ceb48406310da5c5c1b OP_EQUALVERIFY OP_CHECKSIG",
                "hex": "76a914a6e6845983cc29d893a32ceb48406310da5c5c1b88ac",
                "type": "pubkeyhash"
            },
            "spentHeight": null,
            "spentIndex": null,
            "spentTxId": null,
            "value": "0.00077671",
            "valueSat": 77671
        }
    ]
}