{
    "_id": {
        "$oid": "5ad495554c372215dd13d66b"
    },
    "fee": 4510,
    "id": "24f6578574354e61ca8a355c376517e9e8a11251cca598e7c731307bfa86f60d",
    "raw": "02000000057cfaefaa566b6c45cd962955d86910dacb88a01c91e37eaf514ec92332b4c878070000006a47304402205b99ada35c55b6f9c0559fc6837cfc9957af026055ace48813603e62eb8b290702200b9a6d849abb6bd7c53466532f432c05a1f47ca4a34f066f374d69086b08cefb012103196486a1cc2d5ad02fd8a591a4cf8e68c8ac9f1fbd798888c10e3c5091ef162fffffffffe324df71d9c6adbd5245c551cd36d33270154bbcd94ae6c8ad8d86bea9fae7ce1b0000006b483045022100ab6647ca1f341e901b894b7a2d907843f3bcb34145616bb8d7556d73280c11e102201c9648707cbf64bcfde9138d6ed91efc347c12213bf6f1d93b3fd1b4de70ae2a012103196486a1cc2d5ad02fd8a591a4cf8e68c8ac9f1fbd798888c10e3c5091ef162fffffffffc721fd4ffed1e075360fedf62b50c1d540b334f2d672e3f848d5e6b8d87962ea000000006a47304402200cf7430d06cf0aed1c80ab84d391416ef7249be50add38d0dd034715437a2833022045cdeb7845f3f12223e7f5ba59a53b53e7b76417d85fe557a3dbb0c3f93e3807012103196486a1cc2d5ad02fd8a591a4cf8e68c8ac9f1fbd798888c10e3c5091ef162fffffffffdc0e147b123e1375e47ad181838b094a724782e36ae83072744ae8c6d2c2895f000000006a47304402203c40325d8893b372ff7ca840c99fd54bfa5957c0da647d53bc0638d4ac4f152702202e41c8fa94c19f79c6313e7b020a9889410867500966725821cca0b8f7de4369012103196486a1cc2d5ad02fd8a591a4cf8e68c8ac9f1fbd798888c10e3c5091ef162fffffffff7675d9a70cb54290e257ce148846884d851bf73ae208bae3fae2a751a2ba2fd4180000006b483045022100bb18301662b51b8f5f709b61ef0720b3e0faff262e1deffef4cfa86a3d1451ef02207fb227b5ce37c20cad0ec1b67b52f434aa0c5314c8c76ef632cb6867f5375412012103196486a1cc2d5ad02fd8a591a4cf8e68c8ac9f1fbd798888c10e3c5091ef162fffffffff014219540000000000160014219c7223736c490b369a9e00afda6726728304ec00000000",
    "size": 3112,
    "time": 1523881296,
    "valueOut": 0.0551149,
    "vin": [
        {
            "addr": "12WsHTGvjbLM9Z7xEFoaynpKCHs4oiM1to",
            "utxo": [
                {
                    "choosen": 1,
                    "confirmations": 167,
                    "scriptPubKey": "76a914109e29d2ba88c80c7aa5112c17048ecf39b0552188ac",
                    "txid": "78c8b43223c94e51af7ee3911ca088cbda1069d8552996cd456c6b56aaeffa7c",
                    "type": "pubkeyhash",
                    "value": 1100000,
                    "vout": 7
                },
                {
                    "choosen": 1,
                    "confirmations": 150,
                    "scriptPubKey": "76a914109e29d2ba88c80c7aa5112c17048ecf39b0552188ac",
                    "txid": "cee7faa9be868dadc8e64ad9bc4b157032d336cd51c54552bdadc6d971df24e3",
                    "type": "pubkeyhash",
                    "value": 1100000,
                    "vout": 27
                },
                {
                    "choosen": 1,
                    "confirmations": 96,
                    "scriptPubKey": "76a914109e29d2ba88c80c7aa5112c17048ecf39b0552188ac",
                    "txid": "ea6279d8b8e6d548f8e372d6f234b340d5c1502bf6ed0f3675e0d1fe4ffd21c7",
                    "type": "pubkeyhash",
                    "value": 1100000,
                    "vout": 0
                },
                {
                    "choosen": 1,
                    "confirmations": 26,
                    "scriptPubKey": "76a914109e29d2ba88c80c7aa5112c17048ecf39b0552188ac",
                    "txid": "5f89c2d2c6e84a747230e86ae38247724a098b8381d17ae475133e127b140edc",
                    "type": "pubkeyhash",
                    "value": 1116000,
                    "vout": 0
                },
                {
                    "choosen": 1,
                    "confirmations": 4,
                    "scriptPubKey": "76a914109e29d2ba88c80c7aa5112c17048ecf39b0552188ac",
                    "txid": "d42fbaa251a7e2fae3ba08e23af71b854d88468814ce57e29042b50ca7d97576",
                    "type": "pubkeyhash",
                    "value": 1100000,
                    "vout": 24
                }
            ]
        }
    ],
    "vout": [
        {
            "n": 0,
            "scriptPubKey": {
                "addresses": [
                    "bc1qyxw8ygmnd3yskd56ncq2lkn8yeegxp8vndp2xd"
                ],
                "asm": "0 219c7223736c490b369a9e00afda6726728304ec",
                "hex": "0014219c7223736c490b369a9e00afda6726728304ec",
                "type": "witnesspubkeyhash"
            },
            "spentHeight": null,
            "spentIndex": null,
            "spentTxId": null,
            "value": "0.05511490",
            "valueSat": 5511490
        }
    ]
}