{
    "_id": {
        "$oid": "5ad497514c372215dd13d66d"
    },
    "fee": 65332,
    "id": "8732c4c089b9abe2a5b7b42b99448fbef6ca642d31c7701508522a117e14ab88",
    "raw": "020000000201af8881049189872f1ab3a09bf3df9884177e0cc998dda0e39050930c4b631801000000fdfd0000473044022028aee748b7537c2dbda02778b5e142e448159615c091d372fc5b006f8b6cb545022060b4541da9fe02512ab2debf889e9605ea651c4d307164a8dd06d93974756d1401483045022100a4d25d95efe983b44d8f5e2f8e56aaf2e8903dc69e8d7467f78aea65d7a3a3c902204a4b253542e6d24ad9b1482d37f7a56e429f983c1d11f05a77d0586e31653317014c69522102e77cbafdfed7e2c186c54e9e6a5b4c87f6f9e677553872366689099966ad59ba21027531fdadd621bd8b523149d93c56b0c0b6b60b6e0705d32fbc0eee06240c99032102af5c3dce5fb0cab4a37daa5b8037d2ecd2ebd26f7af7a735f401e101760376b253aeffffffff6af814370f9fba29f96a9541c54fd177b6f5109c2a76ce1a029b41ecc98afb5c00000000fdfd00004830450221009d49b96d15d41bce815ffe558d4b7b4f4e87784b90be2c4da28629a7559bb51402204a51d1a9613f4c1f89b58bec84f2f66ed3970e7319bda8c8802cc99e604091a20147304402200faa96ea6e81953817e7ba56b81964b8467af8299ee079b3b8cc6976602d5cb202200b3163c51c5a275dfbc598f7dc8c50b57a377e42622da15eec80288d618cc7b9014c69522102e77cbafdfed7e2c186c54e9e6a5b4c87f6f9e677553872366689099966ad59ba21027531fdadd621bd8b523149d93c56b0c0b6b60b6e0705d32fbc0eee06240c99032102af5c3dce5fb0cab4a37daa5b8037d2ecd2ebd26f7af7a735f401e101760376b253aeffffffff02130a33000000000017a91455b4fb0a6efeff1dc13a5aefdc0f720384545340872998d6000000000017a914db5e31579bc459cc8c47e6250cc4a4d2130629c88700000000",
    "size": 2664,
    "time": 1523881804,
    "valueOut": 0.17408572,
    "vin": [
        {
            "addr": "3MgvkBTbown7LyKZVtarPz7VVjPMwkNjLW",
            "utxo": [
                {
                    "choosen": 1,
                    "confirmations": 245,
                    "scriptPubKey": "a914db5e31579bc459cc8c47e6250cc4a4d2130629c887",
                    "txid": "18634b0c935090e3a0dd98c90c7e178498dff39ba0b31a2f878991048188af01",
                    "type": "scripthash",
                    "value": 2928553,
                    "vout": 1
                },
                {
                    "choosen": 1,
                    "confirmations": 133,
                    "scriptPubKey": "a914db5e31579bc459cc8c47e6250cc4a4d2130629c887",
                    "txid": "5cfb8ac9ec419b021ace762a9c10f5b677d14fc541956af929ba9f0f3714f86a",
                    "type": "scripthash",
                    "value": 14545351,
                    "vout": 0
                },
                {
                    "choosen": 0,
                    "confirmations": 0,
                    "scriptPubKey": "a914db5e31579bc459cc8c47e6250cc4a4d2130629c887",
                    "txid": "8732c4c089b9abe2a5b7b42b99448fbef6ca642d31c7701508522a117e14ab88",
                    "type": "scripthash",
                    "value": 14063657,
                    "vout": 1
                },
                {
                    "choosen": 0,
                    "confirmations": 136,
                    "scriptPubKey": "a914db5e31579bc459cc8c47e6250cc4a4d2130629c887",
                    "txid": "4a41694cb55ac56c2972a7a76041fa9e9b6befb999e393ae086aeba21a30bdc5",
                    "type": "scripthash",
                    "value": 14319566,
                    "vout": 0
                },
                {
                    "choosen": 0,
                    "confirmations": 539,
                    "scriptPubKey": "a914db5e31579bc459cc8c47e6250cc4a4d2130629c887",
                    "txid": "0bc11220ad2399a949ee10fcc1d31b550761d3669c51bdbd64f696f697d59a7f",
                    "type": "scripthash",
                    "value": 1982280038,
                    "vout": 1
                },
                {
                    "choosen": 0,
                    "confirmations": 778,
                    "scriptPubKey": "a914db5e31579bc459cc8c47e6250cc4a4d2130629c887",
                    "txid": "0c93c3576a0ef0b22fcc8b70c737cdd655ea748ffcea90483af55697cbe8e7f6",
                    "type": "scripthash",
                    "value": 84730666,
                    "vout": 1
                },
                {
                    "choosen": 0,
                    "confirmations": 1112,
                    "scriptPubKey": "a914db5e31579bc459cc8c47e6250cc4a4d2130629c887",
                    "txid": "3c21466b1ab2eabb1be64f58c260d4b2f85847ea18ebed6ffbce99229a44dee9",
                    "type": "scripthash",
                    "value": 500049784,
                    "vout": 1
                },
                {
                    "choosen": 0,
                    "confirmations": 1905,
                    "scriptPubKey": "a914db5e31579bc459cc8c47e6250cc4a4d2130629c887",
                    "txid": "18fcd9a319f64a25d07a150d8bba27bafac6b81368895d19841482d2d96edcce",
                    "type": "scripthash",
                    "value": 3999999774.0,
                    "vout": 0
                },
                {
                    "choosen": 0,
                    "confirmations": 2234,
                    "scriptPubKey": "a914db5e31579bc459cc8c47e6250cc4a4d2130629c887",
                    "txid": "3a3550abc47b3392ee316881d06755642bc909a43a81d24f76b099e6683556f6",
                    "type": "scripthash",
                    "value": 72489331,
                    "vout": 1
                },
                {
                    "choosen": 0,
                    "confirmations": 3151,
                    "scriptPubKey": "a914db5e31579bc459cc8c47e6250cc4a4d2130629c887",
                    "txid": "708aa17e42e29a30b069967c943759707a301852e8d1804fe308f0d56cb1cce9",
                    "type": "scripthash",
                    "value": 2676274747.0,
                    "vout": 1
                },
                {
                    "choosen": 0,
                    "confirmations": 4257,
                    "scriptPubKey": "a914db5e31579bc459cc8c47e6250cc4a4d2130629c887",
                    "txid": "1d27ab119a9e5ce5222f22de14ba2bd5583b28ac19599e5727611329d9a811e0",
                    "type": "scripthash",
                    "value": 100476468,
                    "vout": 0
                },
                {
                    "choosen": 0,
                    "confirmations": 4656,
                    "scriptPubKey": "a914db5e31579bc459cc8c47e6250cc4a4d2130629c887",
                    "txid": "dcdfff504e9e7c175f1d3d056d408fdb1ab62e544ec9592ec05fda356633d8ea",
                    "type": "scripthash",
                    "value": 6644908,
                    "vout": 1
                },
                {
                    "choosen": 0,
                    "confirmations": 4721,
                    "scriptPubKey": "a914db5e31579bc459cc8c47e6250cc4a4d2130629c887",
                    "txid": "2d0b7de94b7da0f34801b1f96fabba6c4daadbaf7b38e158683c0808f3e2c7f6",
                    "type": "scripthash",
                    "value": 311746,
                    "vout": 0
                },
                {
                    "choosen": 0,
                    "confirmations": 4835,
                    "scriptPubKey": "a914db5e31579bc459cc8c47e6250cc4a4d2130629c887",
                    "txid": "2b72472ed600b1423ae070f897f56962912951838adb125bc94acd642d5b01e2",
                    "type": "scripthash",
                    "value": 103279162,
                    "vout": 1
                },
                {
                    "choosen": 0,
                    "confirmations": 4863,
                    "scriptPubKey": "a914db5e31579bc459cc8c47e6250cc4a4d2130629c887",
                    "txid": "a76c149d933f460c0d8f07ac0749d26de47877f0160b7e9b75088fac28a986f2",
                    "type": "scripthash",
                    "value": 1657596,
                    "vout": 1
                },
                {
                    "choosen": 0,
                    "confirmations": 4874,
                    "scriptPubKey": "a914db5e31579bc459cc8c47e6250cc4a4d2130629c887",
                    "txid": "65b79076fdbaf2b323341fbc61d15e21034eb9885b78ad91e30718dc72927df9",
                    "type": "scripthash",
                    "value": 35373084,
                    "vout": 0
                },
                {
                    "choosen": 0,
                    "confirmations": 4884,
                    "scriptPubKey": "a914db5e31579bc459cc8c47e6250cc4a4d2130629c887",
                    "txid": "120b68868b94b3ba0ad38734cb84118ac6b07d526d9f82049862b7f951c4c1ee",
                    "type": "scripthash",
                    "value": 1999201,
                    "vout": 0
                },
                {
                    "choosen": 0,
                    "confirmations": 4891,
                    "scriptPubKey": "a914db5e31579bc459cc8c47e6250cc4a4d2130629c887",
                    "txid": "3c677b62342613d876dd11b079bd6690a2f199257369f3406e75af95b2b2cbe5",
                    "type": "scripthash",
                    "value": 198978,
                    "vout": 0
                }
            ]
        }
    ],
    "vout": [
        {
            "n": 0,
            "scriptPubKey": {
                "addresses": [
                    "39WCAbyWBGWHsudqTxBqJq93oaK74UgYDM"
                ],
                "asm": "OP_HASH160 55b4fb0a6efeff1dc13a5aefdc0f720384545340 OP_EQUAL",
                "hex": "a91455b4fb0a6efeff1dc13a5aefdc0f72038454534087",
                "type": "scripthash"
            },
            "spentHeight": null,
            "spentIndex": null,
            "spentTxId": null,
            "value": "0.03344915",
            "valueSat": 3344915
        },
        {
            "n": 1,
            "scriptPubKey": {
                "addresses": [
                    "3MgvkBTbown7LyKZVtarPz7VVjPMwkNjLW"
                ],
                "asm": "OP_HASH160 db5e31579bc459cc8c47e6250cc4a4d2130629c8 OP_EQUAL",
                "hex": "a914db5e31579bc459cc8c47e6250cc4a4d2130629c887",
                "type": "scripthash"
            },
            "spentHeight": null,
            "spentIndex": null,
            "spentTxId": null,
            "value": "0.14063657",
            "valueSat": 14063657
        }
    ]
}