{
    "_id": {
        "$oid": "5ad498914c372215dd13d66e"
    },
    "fee": 38200,
    "id": "2390cf3b7e09ee64360c43124dc93b5cbf4d5e32a3b9f4bf6e3a1df7cb7865a7",
    "raw": "01000000045d388ba05be169dbee212099b336d736764a724b500ad2d69be5b3ea30761402000000008b483045022100e5046d8c64943975ee07a8acb1f45a4e0c20a20d554e1326d16d89183f0dfa3402204141365ce71b004838cf5444db048e9b23138220108c1371ccddad119baa8d3f01410434eef676d4d8e5fd67a990e24975ebca65e177aea17e7b936f753569793a2a7fb84386b614967e6007ca8c0c584779aaffccfb8c5c0b865c1bd8be18e7704870ffffffff17597a2a052a32a8f67b74c4c0331305af1d6e91c67558eb27837a614887909b010000008a47304402202bccd1ca1aac65764633b5edfdb9f585ae01c56fc2974afbc3e56a40156c2aed022055dc82ce028d0feb28433b0e623183ad7cc6d7f8108840eecf786ef6e071b9e901410434eef676d4d8e5fd67a990e24975ebca65e177aea17e7b936f753569793a2a7fb84386b614967e6007ca8c0c584779aaffccfb8c5c0b865c1bd8be18e7704870ffffffffb247cfea27dd90492c6a6dbff1efe440f1a18d12b0a3b913931b7cc469b35a66040000008b483045022100d4ba9788811bc216e1d71a8320c98dfad12e5769d13751bab60ed9cac2239a42022003cf6bb2ccf9cf8bc3782129a81eddda64ffb9c3d51fcef9e8fdcf2e26924a3101410434eef676d4d8e5fd67a990e24975ebca65e177aea17e7b936f753569793a2a7fb84386b614967e6007ca8c0c584779aaffccfb8c5c0b865c1bd8be18e7704870ffffffff1e47190542d3d65a32d8cc323d4ec4327eb66cec5ab932cb312dfc2d34ffc3dd000000008a473044022065cdfe88cebd44d42064904d2098d420e5b7eb1b1208b02fb4953f89e92518ab0220605bcfaf873309c49c2d72a87d397db46f3f8d759ea21f51055ec1d4327913ef01410434eef676d4d8e5fd67a990e24975ebca65e177aea17e7b936f753569793a2a7fb84386b614967e6007ca8c0c584779aaffccfb8c5c0b865c1bd8be18e7704870ffffffff01e0f71f00000000001976a914ac3a7ff2a4942aaf71e0da82e9ff45f4f82577a688ac45e90700",
    "size": 3048,
    "time": 1523882124,
    "valueOut": 0.02095072,
    "vin": [
        {
            "addr": "1FwNZ1XFJwtGyeNg5ijPAwaxwodwQcGGHa",
            "utxo": [
                {
                    "choosen": 1,
                    "confirmations": 3335,
                    "scriptPubKey": "76a914a3da36a8bccc37d2bae7f679fcf791ea4923e38688ac",
                    "txid": "02147630eab3e59bd6d20a504b724a7636d736b3992021eedb69e15ba08b385d",
                    "type": "pubkeyhash",
                    "value": 1740000,
                    "vout": 0
                },
                {
                    "choosen": 1,
                    "confirmations": 8342,
                    "scriptPubKey": "76a914a3da36a8bccc37d2bae7f679fcf791ea4923e38688ac",
                    "txid": "9b908748617a8327eb5875c6916e1daf051333c0c4747bf6a8322a052a7a5917",
                    "type": "pubkeyhash",
                    "value": 85602,
                    "vout": 1
                },
                {
                    "choosen": 1,
                    "confirmations": 7779,
                    "scriptPubKey": "76a914a3da36a8bccc37d2bae7f679fcf791ea4923e38688ac",
                    "txid": "665ab369c47c1b9313b9a3b0128da1f140e4eff1bf6d6a2c4990dd27eacf47b2",
                    "type": "pubkeyhash",
                    "value": 10000,
                    "vout": 4
                },
                {
                    "choosen": 1,
                    "confirmations": 2973,
                    "scriptPubKey": "76a914a3da36a8bccc37d2bae7f679fcf791ea4923e38688ac",
                    "txid": "ddc3ff342dfc2d31cb32b95aec6cb67e32c44e3d32ccd8325ad6d3420519471e",
                    "type": "pubkeyhash",
                    "value": 297670,
                    "vout": 0
                }
            ]
        }
    ],
    "vout": [
        {
            "n": 0,
            "scriptPubKey": {
                "addresses": [
                    "1GhfJdeox7UbgegkCL41YEFQ3JrEfoR7f5"
                ],
                "asm": "OP_DUP OP_HASH160 ac3a7ff2a4942aaf71e0da82e9ff45f4f82577a6 OP_EQUALVERIFY OP_CHECKSIG",
                "hex": "76a914ac3a7ff2a4942aaf71e0da82e9ff45f4f82577a688ac",
                "type": "pubkeyhash"
            },
            "spentHeight": null,
            "spentIndex": null,
            "spentTxId": null,
            "value": "0.02095072",
            "valueSat": 2095072
        }
    ]
}