{
    "_id": {
        "$oid": "5ad49caa4c372215dd13d672"
    },
    "fee": 6732,
    "id": "0dfffe0e625c43d830052a448f0469b7a7289498e8f3e341d93c1cf5fb7d7da9",
    "raw": "01000000021789be0a54e08aeb50818dce1be6bee4c222378196d6667319264fac14ca0a61000000006b483045022100e559e403e7b340dc946af6e2cfcf674d68611925364a72fc885567724feb626f022071d03027a92f7eedb86ba6d83b571d4bd4c8a0e71e8eaca7046b47d1c1b8f42e0121021dd38d14591a3a0ca96a4f11f4eedba25868108d28de90258960f2e7b8c09271ffffffff14a78a136273134984b42f5139f8cfdb7f15455dc69520f07472bfe126513594000000006a473044022069f0367c44906d912e2bd40278f4d99f0f923a628c63caf99dab9e69c98168330220268e552b437518a538f6171fe155700b007f04f85f8afe0e51e97b810a4f7c390121021dd38d14591a3a0ca96a4f11f4eedba25868108d28de90258960f2e7b8c09271ffffffff0293831500000000001976a9145fb5635205548a6f680d6dd77c2239d58deff8cb88acdba4f0000000000017a9148d410f125e92cd862d6e98c9301013bd6b1684e58700000000",
    "size": 1484,
    "time": 1523883172,
    "valueOut": 0.17180782,
    "vin": [
        {
            "addr": "1AtVXeG2ah73M63nMhUGAyVSbmcS1Gqrn5",
            "utxo": [
                {
                    "choosen": 1,
                    "confirmations": 3805,
                    "scriptPubKey": "76a9146c76290c61ba9159e77ad8fb7fd91562c7a0bd2088ac",
                    "txid": "610aca14ac4f26197366d696813722c2e4bee61bce8d8150eb8ae0540abe8917",
                    "type": "pubkeyhash",
                    "value": 10495465,
                    "vout": 0
                },
                {
                    "choosen": 1,
                    "confirmations": 1612,
                    "scriptPubKey": "76a9146c76290c61ba9159e77ad8fb7fd91562c7a0bd2088ac",
                    "txid": "94355126e1bf7274f02095c65d45157fdbcff839512fb48449137362138aa714",
                    "type": "pubkeyhash",
                    "value": 6692049,
                    "vout": 0
                }
            ]
        }
    ],
    "vout": [
        {
            "n": 0,
            "scriptPubKey": {
                "addresses": [
                    "19j4VHJKoTw2iTabqqfUwD9mt9K4HV8azZ"
                ],
                "asm": "OP_DUP OP_HASH160 5fb5635205548a6f680d6dd77c2239d58deff8cb OP_EQUALVERIFY OP_CHECKSIG",
                "hex": "76a9145fb5635205548a6f680d6dd77c2239d58deff8cb88ac",
                "type": "pubkeyhash"
            },
            "spentHeight": null,
            "spentIndex": null,
            "spentTxId": null,
            "value": "0.01409939",
            "valueSat": 1409939
        },
        {
            "n": 1,
            "scriptPubKey": {
                "addresses": [
                    "3EZu8xjGsqqbUJe8XGZ9M8gY8MZjVCfRFr"
                ],
                "asm": "OP_HASH160 8d410f125e92cd862d6e98c9301013bd6b1684e5 OP_EQUAL",
                "hex": "a9148d410f125e92cd862d6e98c9301013bd6b1684e587",
                "type": "scripthash"
            },
            "spentHeight": null,
            "spentIndex": null,
            "spentTxId": null,
            "value": "0.15770843",
            "valueSat": 15770843
        }
    ]
}