{
    "_id": {
        "$oid": "5ad49d7e4c372215dd13d675"
    },
    "fee": 546,
    "id": "41825330eebe887adb128444148196042fc7bbe076a7edb1f946e2bbf95ee00e",
    "raw": "01000000021ccfd160b29a5f3b0b08dc370bc568cdef1a642efc27b2e0ec57ddf6a94960eb010000006a473044022030c31d2e2ade385e9da446b075c245354d69b32b2c793cb7bf86d7e2fb14b00f022030233269f4e27765150843b1d450e68af13d7c2b0e42f6d49473b6f83994a42f012102509ec0c47897cfda7f8d126ed2e6b7c8e937163f6b02428a020984b3021ab5ccffffffff7b83e50aac1e6401dd0182c2297c5d1ed61276e9a9fa41536c47f28a5426c08a010000006a473044022001fa086d3037e896040baeec06b79cae0b73bf1c6884846b6b2693c1a3aa4cc4022006fe3766d1443a5a4f3aa878e80892ee617a8a85a0614436fd83a966ab046c9d012102509ec0c47897cfda7f8d126ed2e6b7c8e937163f6b02428a020984b3021ab5ccffffffff0222020000000000001976a9148a4fd1372b1dd683fede7d68f2332fae2e9c9f7188ac0000000000000000166a146f6d6e69000000000000001f0000001e010fedb600000000",
    "size": 1476,
    "time": 1523883386,
    "valueOut": 5.46e-06,
    "vin": [
        {
            "addr": "1PRUTWg7XFAu3avDuYTcDs4spors2YtTcq",
            "utxo": [
                {
                    "choosen": 1,
                    "confirmations": 23,
                    "scriptPubKey": "76a914f5f3ab9c79fc9653f9dbc2692df237034eddd1d288ac",
                    "txid": "eb6049a9f6dd57ece0b227fc2e641aefcd68c50b37dc080b3b5f9ab260d1cf1c",
                    "type": "pubkeyhash",
                    "value": 546,
                    "vout": 1
                },
                {
                    "choosen": 1,
                    "confirmations": 26,
                    "scriptPubKey": "76a914f5f3ab9c79fc9653f9dbc2692df237034eddd1d288ac",
                    "txid": "8ac026548af2476c5341faa9e97612d61e5d7c29c28201dd01641eac0ae5837b",
                    "type": "pubkeyhash",
                    "value": 546,
                    "vout": 1
                }
            ]
        }
    ],
    "vout": [
        {
            "n": 0,
            "scriptPubKey": {
                "addresses": [
                    "1DcKsGnjpD38bfj6RMxz945YwohZUTVLby"
                ],
                "asm": "OP_DUP OP_HASH160 8a4fd1372b1dd683fede7d68f2332fae2e9c9f71 OP_EQUALVERIFY OP_CHECKSIG",
                "hex": "76a9148a4fd1372b1dd683fede7d68f2332fae2e9c9f7188ac",
                "type": "pubkeyhash"
            },
            "spentHeight": null,
            "spentIndex": null,
            "spentTxId": null,
            "value": "0.00000546",
            "valueSat": 546
        },
        {
            "n": 1,
            "scriptPubKey": {
                "asm": "OP_RETURN 6f6d6e69000000000000001f0000001e010fedb6",
                "hex": "6a146f6d6e69000000000000001f0000001e010fedb6",
                "type": "nulldata"
            },
            "spentHeight": null,
            "spentIndex": null,
            "spentTxId": null,
            "value": "0.00000000",
            "valueSat": 0
        }
    ]
}