{
    "_id": {
        "$oid": "5ad49faf4c372215dd13d679"
    },
    "fee": 26328,
    "id": "d7ab84445c9e822f6f2a47a89e5fd15a322398e8cd45530d244164804d639b88",
    "raw": "0100000002f01efddc7ee803e3b6a9535a175b9067f80d8067b2e7dca11cd1a44f38ab1fe1010000006b483045022100dda59ab53ce768f8a316223e2f8344730625f54f80992eae91e8e69ea1248f76022012486b4cd4eb7720e411035bbb52b158ca0053f2a6ae1566d3090bab4213de4201210331d8551a7f351097d80a185f1d61ab20393335acb835b549d5ee2b3eb101da72ffffffff5c669b24c34dfe5841f67cefc00f9fa53685ca1dccd4821d9e3b48b7e7d2ca3d000000006a47304402201a9de3c7bec7ca3af9b34f986aae3c3e7837c13ba6bb0a5d483d85af0aa75bd402200c88aecc046c4cf4b0445af59dfee8e80b7f5f890e9265c4582fc773abe3a45501210331d8551a7f351097d80a185f1d61ab20393335acb835b549d5ee2b3eb101da72ffffffff01a8490001000000001976a9146ef187ce24142fc7948468eaea42b19ac7f219eb88ac00000000",
    "size": 1356,
    "time": 1523883947,
    "valueOut": 0.16796072,
    "vin": [
        {
            "addr": "1HDoeft4487K6NvBUHdy6Uc3riukStdid4",
            "utxo": [
                {
                    "choosen": 1,
                    "confirmations": 446,
                    "scriptPubKey": "76a914b1edf1f2ff13847e2765297353bbd61b8f900bb288ac",
                    "txid": "e11fab384fa4d11ca1dce7b267800df867905b175a53a9b6e303e87edcfd1ef0",
                    "type": "pubkeyhash",
                    "value": 16672200,
                    "vout": 1
                },
                {
                    "choosen": 1,
                    "confirmations": 446,
                    "scriptPubKey": "76a914b1edf1f2ff13847e2765297353bbd61b8f900bb288ac",
                    "txid": "3dcad2e7b7483b9e1d82d4cc1dca8536a59f0fc0ef7cf64158fe4dc3249b665c",
                    "type": "pubkeyhash",
                    "value": 150200,
                    "vout": 0
                }
            ]
        }
    ],
    "vout": [
        {
            "n": 0,
            "scriptPubKey": {
                "addresses": [
                    "1B7cfwAnFyi3Swc2vz25HHX4mcWqfxvYU2"
                ],
                "asm": "OP_DUP OP_HASH160 6ef187ce24142fc7948468eaea42b19ac7f219eb OP_EQUALVERIFY OP_CHECKSIG",
                "hex": "76a9146ef187ce24142fc7948468eaea42b19ac7f219eb88ac",
                "type": "pubkeyhash"
            },
            "spentHeight": null,
            "spentIndex": null,
            "spentTxId": null,
            "value": "0.16796072",
            "valueSat": 16796072
        }
    ]
}