{
    "_id": {
        "$oid": "5ad49fd24c372215dd13d67a"
    },
    "fee": 200000,
    "id": "fb831e4eb307fd57127121ebf4faa398f73770335d77ca9890b4ca7d06fe4482",
    "raw": "0200000004581a09d938013b493df8a9d1d52a6aa4d113b03781bd6061d6db0c7b4c80838201000000fde80100483045022100a778f8fe699d704d24a9fdbe1634ddfc11889cd751a3f88a94088ffaf970188e02203aa07831342f69bc7639c5ee1762e670df4b6f6b2e1e7db5d364214bc3303fa70147304402200c6b0f68fed341140032f9141b08876aa73f46e8bea957f952ab7a750db150f4022057f17360b6d10ac863ea24d8c4637aa4ac2ec2ec05d83aee8b03bd41b1b59b400147304402202be213b7e66f736c1642305e6dfad1ed3d974e11f7fbe736a6bade55408d3100022059fd42f12889b0b4b4238abdadb4333208fd7effb4f1f2482374ca7d587f94ec014d0b01534104220936c3245597b1513a9a7fe96d96facf1a840ee21432a1b73c2cf42c1810284dd730f21ded9d818b84402863a2b5cd1afe3a3d13719d524482592fb23c88a3410443141ee2d51dc3adf6b23821a1a48ca80eae18491cf1e05f929a25c1dcd95979d8c5d7c098a0f72bf23d387a09d6c3ceda7535f2437e95b1035edd5cf42bf524410472225d3abc8665cf01f703a270ee65be5421c6a495ce34830061eb0690ec27dfd1194e27b6b0b659418d9f91baec18923078aac18dc19699aae82583561fefe54104a24db5c0e8ed34da1fd3b6f9f797244981b928a8750c8f11f9252041daad7b2d95309074fed791af77dc85abdd8bb2774ed8d53379d28cd49f251b9c08cab7fc54aeffffffffe227b654e321df995c87b617ac6a831f266b5b4090112e266206b08f5cc6df8639000000fde801004730440220694a1e6f6bfd1702d2f71dc56fde21ab7ce9152acb0a096c9db42627c520782d02207577cc9555d589df6a8baf6db45cb27602f344067a49106892f9050f73e49f4e01483045022100c72c1fc11f8947de14360f10026c2eb8c858a7dfab9bf459e2dead9179a0610902204c7fa0e61d85def731686c6df944a90398453de002b69654659dd80648615e4f0147304402206ebae52ad18df413d2c74cd8aea1afde98800760d7ff61de1ed786215ed3887e0220321e5898bb08e1c23e6ea111052a83e2fcc5b92bb67c943be96202cec05219d5014d0b01534104220936c3245597b1513a9a7fe96d96facf1a840ee21432a1b73c2cf42c1810284dd730f21ded9d818b84402863a2b5cd1afe3a3d13719d524482592fb23c88a3410443141ee2d51dc3adf6b23821a1a48ca80eae18491cf1e05f929a25c1dcd95979d8c5d7c098a0f72bf23d387a09d6c3ceda7535f2437e95b1035edd5cf42bf524410472225d3abc8665cf01f703a270ee65be5421c6a495ce34830061eb0690ec27dfd1194e27b6b0b659418d9f91baec18923078aac18dc19699aae82583561fefe54104a24db5c0e8ed34da1fd3b6f9f797244981b928a8750c8f11f9252041daad7b2d95309074fed791af77dc85abdd8bb2774ed8d53379d28cd49f251b9c08cab7fc54aeffffffff4a8fb7663a1293cf6d9b15484952278686ff6931e200c482c09298a19ab2e0731f000000fdea0100483045022100d75c49136165f4452e29b4d2bda14763b77b6f23803e7a95ba487b69ee08d2fc022014bee29fd48bef7496c7cbf933fa47aaf02ed1791274dc17de98400177c7fa02014830450221009aafe3717dc59caa20442d94e1603b6c573189b48b42baf9addc0879eaf16692022030a8ce6324581f4b0ff32e401917d1e183b50f4c4ad6fb7cb34096fe8b33d91201483045022100d07bc9dd374dfcddcd8f185100983c65067b79f4064017092e58ffa0faab508e022027ef13b2a56bd3f01ed2b736548cba5a005e10ba3e0c7b623b033c9594dd7e63014d0b01534104220936c3245597b1513a9a7fe96d96facf1a840ee21432a1b73c2cf42c1810284dd730f21ded9d818b84402863a2b5cd1afe3a3d13719d524482592fb23c88a3410443141ee2d51dc3adf6b23821a1a48ca80eae18491cf1e05f929a25c1dcd95979d8c5d7c098a0f72bf23d387a09d6c3ceda7535f2437e95b1035edd5cf42bf524410472225d3abc8665cf01f703a270ee65be5421c6a495ce34830061eb0690ec27dfd1194e27b6b0b659418d9f91baec18923078aac18dc19699aae82583561fefe54104a24db5c0e8ed34da1fd3b6f9f797244981b928a8750c8f11f9252041daad7b2d95309074fed791af77dc85abdd8bb2774ed8d53379d28cd49f251b9c08cab7fc54aeffffffff40d729fe662a6a95490082a166b2749e8f49b51b765ab6138fc9a0c6cb4cc55001000000fde90100483045022100c81334d99906a53e10618090a0d728402cf534970bcbfb67ff94cd9512fdc925022011b4ae0bd3deaa7fdf9c77b8108cfc0924fbd2b4251f64a45c886a89c5e31a7e014730440220096fcc87d2026c9edf18f86e0c110eee810a3967266134aa97637bd757b6a79202203cacb760bdd5c7175abe75974c50f748c8cf9778ef071846dcecc91bd76571ac01483045022100e3d27c06acc088ebaf27739830b4c5f9d100b4ea206689f1d501e6e70ba462b6022045dc06bca53f546c11863d091b8a24751beff45736e4c3808ef1a8b3c5d0f91a014d0b01534104220936c3245597b1513a9a7fe96d96facf1a840ee21432a1b73c2cf42c1810284dd730f21ded9d818b84402863a2b5cd1afe3a3d13719d524482592fb23c88a3410443141ee2d51dc3adf6b23821a1a48ca80eae18491cf1e05f929a25c1dcd95979d8c5d7c098a0f72bf23d387a09d6c3ceda7535f2437e95b1035edd5cf42bf524410472225d3abc8665cf01f703a270ee65be5421c6a495ce34830061eb0690ec27dfd1194e27b6b0b659418d9f91baec18923078aac18dc19699aae82583561fefe54104a24db5c0e8ed34da1fd3b6f9f797244981b928a8750c8f11f9252041daad7b2d95309074fed791af77dc85abdd8bb2774ed8d53379d28cd49f251b9c08cab7fc54aeffffffff02377b5000000000001976a9140369ead776ce269e16c522a0d80f9e95b215cbc088ac94c158000000000017a91469f3748eb24a7115139d52a4c2335dd57be1be298700000000",
    "size": 8812,
    "time": 1523883981,
    "valueOut": 0.11091147,
    "vin": [
        {
            "addr": "3BMEXFrVFUv5j8vg7FLMTxt4ETa29WR6WG",
            "utxo": [
                {
                    "choosen": 1,
                    "confirmations": 141,
                    "scriptPubKey": "a91469f3748eb24a7115139d52a4c2335dd57be1be2987",
                    "txid": "8283804c7b0cdbd66160bd8137b013d1a46a2ad5d1a9f83d493b0138d9091a58",
                    "type": "scripthash",
                    "value": 5900000,
                    "vout": 1
                },
                {
                    "choosen": 1,
                    "confirmations": 7794,
                    "scriptPubKey": "a91469f3748eb24a7115139d52a4c2335dd57be1be2987",
                    "txid": "86dfc65c8fb00662262e1190405b6b261f836aac17b6875c99df21e354b627e2",
                    "type": "scripthash",
                    "value": 4291147,
                    "vout": 57
                },
                {
                    "choosen": 1,
                    "confirmations": 8404,
                    "scriptPubKey": "a91469f3748eb24a7115139d52a4c2335dd57be1be2987",
                    "txid": "73e0b29aa19892c082c400e23169ff868627524948159b6dcf93123a66b78f4a",
                    "type": "scripthash",
                    "value": 1000000,
                    "vout": 31
                },
                {
                    "choosen": 1,
                    "confirmations": 9337,
                    "scriptPubKey": "a91469f3748eb24a7115139d52a4c2335dd57be1be2987",
                    "txid": "50c54ccbc6a0c98f13b65a761bb5498f9e74b266a1820049956a2a66fe29d740",
                    "type": "scripthash",
                    "value": 100000,
                    "vout": 1
                },
                {
                    "choosen": 0,
                    "confirmations": 0,
                    "scriptPubKey": "a91469f3748eb24a7115139d52a4c2335dd57be1be2987",
                    "txid": "fb831e4eb307fd57127121ebf4faa398f73770335d77ca9890b4ca7d06fe4482",
                    "type": "scripthash",
                    "value": 5816724,
                    "vout": 1
                }
            ]
        }
    ],
    "vout": [
        {
            "n": 0,
            "scriptPubKey": {
                "addresses": [
                    "1K3uqqVYTnCMUue6WsfmYtioXHK1X26CR"
                ],
                "asm": "OP_DUP OP_HASH160 0369ead776ce269e16c522a0d80f9e95b215cbc0 OP_EQUALVERIFY OP_CHECKSIG",
                "hex": "76a9140369ead776ce269e16c522a0d80f9e95b215cbc088ac",
                "type": "pubkeyhash"
            },
            "spentHeight": null,
            "spentIndex": null,
            "spentTxId": null,
            "value": "0.05274423",
            "valueSat": 5274423
        },
        {
            "n": 1,
            "scriptPubKey": {
                "addresses": [
                    "3BMEXFrVFUv5j8vg7FLMTxt4ETa29WR6WG"
                ],
                "asm": "OP_HASH160 69f3748eb24a7115139d52a4c2335dd57be1be29 OP_EQUAL",
                "hex": "a91469f3748eb24a7115139d52a4c2335dd57be1be2987",
                "type": "scripthash"
            },
            "spentHeight": null,
            "spentIndex": null,
            "spentTxId": null,
            "value": "0.05816724",
            "valueSat": 5816724
        }
    ]
}