{
    "_id": {
        "$oid": "5ad49fdb4c372215dd13d67b"
    },
    "fee": 100000,
    "id": "fdaca5dd7f8bfda89949e70ba2730868db477cfea0af8f969fc662768c577036",
    "raw": "02000000046fa8f6542ccc87cfba43792e13d75be8ce7e3dfbf246d70988a464d75535e4e201000000fde7010047304402203d3632c8632a9f88d1277cc304a1c5b2065f7ac52996a042faff64c3954be43a02204fc4504ae54ec584bc080bc26827d3c9fc43e60fb57783cfaed3a9d4ad721c1301473044022044e00bd3387121ff37639d9902d65194251ae0a94cc25547112863a2a15fff9202206fa0b9d665a43344da2ec2b32e5407e3057bd0c415156681f850d3dcb24eaf38014730440220383fd349432d7b6e373b884381872c4edb45e2aa9ecf2ecd9721cf489e0dc8c0022064209bff8540eba510530d7f05ec4e28e6e8aca836fa9a6f446dfb4cbdd4a064014d0b01534104220936c3245597b1513a9a7fe96d96facf1a840ee21432a1b73c2cf42c1810284dd730f21ded9d818b84402863a2b5cd1afe3a3d13719d524482592fb23c88a3410472225d3abc8665cf01f703a270ee65be5421c6a495ce34830061eb0690ec27dfd1194e27b6b0b659418d9f91baec18923078aac18dc19699aae82583561fefe54104975d729061a1644e7203f64f0e2e41c61eb8fcd240850b862b6c683d38211fe7f56fd583ca627cb6496800f8a051424abcd6336a5d7095a8ac1bb2690cc72bfb4104a24db5c0e8ed34da1fd3b6f9f797244981b928a8750c8f11f9252041daad7b2d95309074fed791af77dc85abdd8bb2774ed8d53379d28cd49f251b9c08cab7fc54aefffffffff86f3b77dc100ea6ae7a46cd1e8210c8295ec0aa2d695f3dcd4ea3ed63d7922700000000fdea0100483045022100d656e3d63be482f6ad76f68b87e74cee60f99e283cdca3df9eef76f33b194cad02203886ea3125f6e667f426bb02e83937c03af3adf535db212ca6f2eb9e2724b858014830450221008286ee33e0f9ea4548bb913a3c91c0317430cc9a3caedcd21d887d6dfeb7929d0220511a5ca8eeff86c2642c3d650b5cbf163094a481c34ed846457ae4ab38a9b7c701483045022100f75a8aefd3388d439e60bd6e4f80d68a50001363c5943d2b70cf1a5677ecf9b302205937fddc220b2d49327a03df32b658d357d1812b88900b37a1e2bbcd53313c17014d0b01534104220936c3245597b1513a9a7fe96d96facf1a840ee21432a1b73c2cf42c1810284dd730f21ded9d818b84402863a2b5cd1afe3a3d13719d524482592fb23c88a3410472225d3abc8665cf01f703a270ee65be5421c6a495ce34830061eb0690ec27dfd1194e27b6b0b659418d9f91baec18923078aac18dc19699aae82583561fefe54104975d729061a1644e7203f64f0e2e41c61eb8fcd240850b862b6c683d38211fe7f56fd583ca627cb6496800f8a051424abcd6336a5d7095a8ac1bb2690cc72bfb4104a24db5c0e8ed34da1fd3b6f9f797244981b928a8750c8f11f9252041daad7b2d95309074fed791af77dc85abdd8bb2774ed8d53379d28cd49f251b9c08cab7fc54aeffffffff2d03a4cb690d612331d4fc7046f7ded7de5ddf574390d983f55c81c1796042be00000000fde90100483045022100c7976e97657d6e693ccf4c16f103d9b949fbf1cd30c2b111ce4d7b1f7bd61e2a02202c61db7ea374bdfe03545b106707322d0e571f05ff86d29d3d42da404feee60a01483045022100fb3c42929acce505ab430dd2b0240fd3f9833db348cd76f0fe37d66b281072d6022076806298f577dc249e1479c0dc029080b68f44210a3343dcb464de51b4e913f30147304402206a617d12a90f9f3c7ac51876a354f46619441eb802ef407956fe776b2fbc1ef40220356db895e943a1096bfbec4496581d89f31725f73bdb8e3e7ddc0e9f4e21218a014d0b01534104220936c3245597b1513a9a7fe96d96facf1a840ee21432a1b73c2cf42c1810284dd730f21ded9d818b84402863a2b5cd1afe3a3d13719d524482592fb23c88a3410472225d3abc8665cf01f703a270ee65be5421c6a495ce34830061eb0690ec27dfd1194e27b6b0b659418d9f91baec18923078aac18dc19699aae82583561fefe54104975d729061a1644e7203f64f0e2e41c61eb8fcd240850b862b6c683d38211fe7f56fd583ca627cb6496800f8a051424abcd6336a5d7095a8ac1bb2690cc72bfb4104a24db5c0e8ed34da1fd3b6f9f797244981b928a8750c8f11f9252041daad7b2d95309074fed791af77dc85abdd8bb2774ed8d53379d28cd49f251b9c08cab7fc54aeffffffff2529dbd1a1ce0497d99223adb78262c5cfc4d261bbea9dfd3ad882a3099ddabf00000000fde70100473044022076e3b8df2de735678caf3b220719ccdd259dcf8ffbf4ee0d709e1c1f1dd34f2002205a477cc37a22684da3096568c61c532433c1e143594d910217e464343e2828aa014730440220492dbec9b49c16ef8fbc2f22bc2f2cc37192feb00ecd9ce565911e69e730e4f502204fd6c387547b53bd38dfe216613fc7ce3ddd3bcf9f8ad379f7c52f46a9cdd92401473044022075af86c2ecbd1f1a32d55b8f77a7254589cce7652825da21c963dfea04595255022012089f17edfaa9506ac9b516246784a55f904f6c10f7664e4538c5bc3f0e4720014d0b01534104220936c3245597b1513a9a7fe96d96facf1a840ee21432a1b73c2cf42c1810284dd730f21ded9d818b84402863a2b5cd1afe3a3d13719d524482592fb23c88a3410472225d3abc8665cf01f703a270ee65be5421c6a495ce34830061eb0690ec27dfd1194e27b6b0b659418d9f91baec18923078aac18dc19699aae82583561fefe54104975d729061a1644e7203f64f0e2e41c61eb8fcd240850b862b6c683d38211fe7f56fd583ca627cb6496800f8a051424abcd6336a5d7095a8ac1bb2690cc72bfb4104a24db5c0e8ed34da1fd3b6f9f797244981b928a8750c8f11f9252041daad7b2d95309074fed791af77dc85abdd8bb2774ed8d53379d28cd49f251b9c08cab7fc54aeffffffff02404b4c000000000017a91486c37d8d13d6928c8956425efcf564bea51cfdea87c043c8100000000017a91469f3763f2928314e4874cabe419b87e0c917a0a68700000000",
    "size": 8796,
    "time": 1523883989,
    "valueOut": 2.8656,
    "vin": [
        {
            "addr": "3BMEXiSsnDXZ5Jjvz1mzvLMeUUYsG8a4Mj",
            "utxo": [
                {
                    "choosen": 1,
                    "confirmations": 11645,
                    "scriptPubKey": "a91469f3763f2928314e4874cabe419b87e0c917a0a687",
                    "txid": "e2e43555d764a48809d746f2fb3d7ecee85bd7132e7943bacf87cc2c54f6a86f",
                    "type": "scripthash",
                    "value": 112700000,
                    "vout": 1
                },
                {
                    "choosen": 1,
                    "confirmations": 5096,
                    "scriptPubKey": "a91469f3763f2928314e4874cabe419b87e0c917a0a687",
                    "txid": "2792d763eda34ecd3d5f692daac05e29c810821ecd467aaea60e10dc773b6ff8",
                    "type": "scripthash",
                    "value": 100000000,
                    "vout": 0
                },
                {
                    "choosen": 1,
                    "confirmations": 568,
                    "scriptPubKey": "a91469f3763f2928314e4874cabe419b87e0c917a0a687",
                    "txid": "be426079c1815cf583d9904357df5dded7def74670fcd43123610d69cba4032d",
                    "type": "scripthash",
                    "value": 64000000,
                    "vout": 0
                },
                {
                    "choosen": 1,
                    "confirmations": 58,
                    "scriptPubKey": "a91469f3763f2928314e4874cabe419b87e0c917a0a687",
                    "txid": "bfda9d09a382d83afd9deabb61d2c4cfc56282b7ad2392d99704cea1d1db2925",
                    "type": "scripthash",
                    "value": 9960000,
                    "vout": 0
                },
                {
                    "choosen": 0,
                    "confirmations": 0,
                    "scriptPubKey": "a91469f3763f2928314e4874cabe419b87e0c917a0a687",
                    "txid": "fdaca5dd7f8bfda89949e70ba2730868db477cfea0af8f969fc662768c577036",
                    "type": "scripthash",
                    "value": 281560000,
                    "vout": 1
                }
            ]
        }
    ],
    "vout": [
        {
            "n": 0,
            "scriptPubKey": {
                "addresses": [
                    "3DyafANv23y38zC7Robp3Njj1vdwYpxEAp"
                ],
                "asm": "OP_HASH160 86c37d8d13d6928c8956425efcf564bea51cfdea OP_EQUAL",
                "hex": "a91486c37d8d13d6928c8956425efcf564bea51cfdea87",
                "type": "scripthash"
            },
            "spentHeight": null,
            "spentIndex": null,
            "spentTxId": null,
            "value": "0.05000000",
            "valueSat": 5000000
        },
        {
            "n": 1,
            "scriptPubKey": {
                "addresses": [
                    "3BMEXiSsnDXZ5Jjvz1mzvLMeUUYsG8a4Mj"
                ],
                "asm": "OP_HASH160 69f3763f2928314e4874cabe419b87e0c917a0a6 OP_EQUAL",
                "hex": "a91469f3763f2928314e4874cabe419b87e0c917a0a687",
                "type": "scripthash"
            },
            "spentHeight": null,
            "spentIndex": null,
            "spentTxId": null,
            "value": "2.81560000",
            "valueSat": 281560000
        }
    ]
}