{
    "_id": {
        "$oid": "5ad49fe34c372215dd13d67c"
    },
    "fee": 300000,
    "id": "bb2b126512cddb89acb40cab89206ec62163ecf484429caaab70b005d95283a6",
    "raw": "0200000004281c5817a05c1fa8a79787826ed9b1242fc0c2b35236189109eff3b29dff173a00000000fdea0100483045022100bc1a40157104bcc804d27555cad197f6430f248b3cc6cbd97b87a15c2e71252102204732bc3f48970052ce84c0ebb44921599f06d595b196f5067476b9ed4cf5c56301483045022100bce871bd5db991f7d3607cfda61879e410ce547c51b2a0626348864a088dc432022056ab69d80d6b83328b0f7f42c416a086e798fd3acb43a05d89036cbd1287ee3901483045022100826375bcbd0b2afa15d906fdcd08b4351721ed27f0b80169a304254875f25834022003a58498a57671d428c0dfc33bf8da1f6f8a81b3abb72d05ee86d4d59b0101c6014d0b01534104220936c3245597b1513a9a7fe96d96facf1a840ee21432a1b73c2cf42c1810284dd730f21ded9d818b84402863a2b5cd1afe3a3d13719d524482592fb23c88a3410472225d3abc8665cf01f703a270ee65be5421c6a495ce34830061eb0690ec27dfd1194e27b6b0b659418d9f91baec18923078aac18dc19699aae82583561fefe54104a24db5c0e8ed34da1fd3b6f9f797244981b928a8750c8f11f9252041daad7b2d95309074fed791af77dc85abdd8bb2774ed8d53379d28cd49f251b9c08cab7fc4104be504ce201558297658aa9b544c923e04b128dc6315ccdc3deb06f282d0786fa372bba38cb67aa020aec97b7c9500857c9d0c316e066e0ed77c0f22a7c79210054aeffffffff2da3ec3fc4a612ff9b4b0335aebe2e9bdb6a003417e7e37f99a3cc808126fcbe00000000fdea010048304502210091ec1fd1fa2e1e49443d6ea40767ec67a73b002f0035b7f3982ec8ac27bf272e02205e776bef9ebe959d905a9592b78a568f09f20b9419d37561ea0c738eff6055b501483045022100dedb72a2a1ec087275ffbb2c54fce7afea0006b62e7096bf18dc4d19f4dd1935022074bce94ccbe0e2b2628bf7ba6d4c482397f7db23652e9f59cc332b7c295eaec20148304502210092b77b9afcf82371013d1619daf07ce1e4ed80cbb581f89a82aebf9f59319cc4022078157edb05e3cc6279eb8eb938b15297eb2eb5ea5a35f3de074b6db0b20bd393014d0b01534104220936c3245597b1513a9a7fe96d96facf1a840ee21432a1b73c2cf42c1810284dd730f21ded9d818b84402863a2b5cd1afe3a3d13719d524482592fb23c88a3410472225d3abc8665cf01f703a270ee65be5421c6a495ce34830061eb0690ec27dfd1194e27b6b0b659418d9f91baec18923078aac18dc19699aae82583561fefe54104a24db5c0e8ed34da1fd3b6f9f797244981b928a8750c8f11f9252041daad7b2d95309074fed791af77dc85abdd8bb2774ed8d53379d28cd49f251b9c08cab7fc4104be504ce201558297658aa9b544c923e04b128dc6315ccdc3deb06f282d0786fa372bba38cb67aa020aec97b7c9500857c9d0c316e066e0ed77c0f22a7c79210054aeffffffff242b7c4eaf93f4bd23a49a2f08ba2d612a583911b9fea1d91801fdf5bc53e8e800000000fde9010047304402200a7d8c5017b9242f42ea55d8202122158151706e419c58d5f9ba6238dc3355810220059fa3c09944bd44545098bb55c3cb6d5f694717e59ada1138bb8a064633e16b01483045022100fdcbe24005a96db7db33403750ede6fa0a5d0e50d3eb09451852acf3cf3a65fd0220168190a642f25988391ffb449f2565d082c59dd9f4bca97a3e9c1f8ffde3036c01483045022100f276fa95613d6a2a89541b2a000f55065085d7dfbba93831ca5db216fa80674e02204098cdd97ab637f7968287c0d3fcb4d9ae1fcbc91bafc1ce143f45758c82a451014d0b01534104220936c3245597b1513a9a7fe96d96facf1a840ee21432a1b73c2cf42c1810284dd730f21ded9d818b84402863a2b5cd1afe3a3d13719d524482592fb23c88a3410472225d3abc8665cf01f703a270ee65be5421c6a495ce34830061eb0690ec27dfd1194e27b6b0b659418d9f91baec18923078aac18dc19699aae82583561fefe54104a24db5c0e8ed34da1fd3b6f9f797244981b928a8750c8f11f9252041daad7b2d95309074fed791af77dc85abdd8bb2774ed8d53379d28cd49f251b9c08cab7fc4104be504ce201558297658aa9b544c923e04b128dc6315ccdc3deb06f282d0786fa372bba38cb67aa020aec97b7c9500857c9d0c316e066e0ed77c0f22a7c79210054aeffffffffc00156425467dae08799e14f6ba987775f4bff9a7e38ec466900f0edfb0ba00b00000000fde90100483045022100989f21df88bea7a0dc9636f6b4f17eff66bcd2b15f879e4f9e899bd7f081ee660220419ab0612e9310024b4ec4471bd47bb64aed3df6eb46fbac3a1b11866bd476ec014730440220611f629fb5f453ff4eb2657b8258ad0043774077d073532f96502384f83668b60220508ea832a36a1f35487df1fb1aa187d1af7d79c4a4ba4567863e9fd49ea5617001483045022100c6b7b45695f79bdbdfb439f55f81e2a5fa6de02d43ea3054ec207fa69eac420f0220653eb475bc387496fb613d13c2d2eef7d115dcef48c127a7cb2f318da4e0b811014d0b01534104220936c3245597b1513a9a7fe96d96facf1a840ee21432a1b73c2cf42c1810284dd730f21ded9d818b84402863a2b5cd1afe3a3d13719d524482592fb23c88a3410472225d3abc8665cf01f703a270ee65be5421c6a495ce34830061eb0690ec27dfd1194e27b6b0b659418d9f91baec18923078aac18dc19699aae82583561fefe54104a24db5c0e8ed34da1fd3b6f9f797244981b928a8750c8f11f9252041daad7b2d95309074fed791af77dc85abdd8bb2774ed8d53379d28cd49f251b9c08cab7fc4104be504ce201558297658aa9b544c923e04b128dc6315ccdc3deb06f282d0786fa372bba38cb67aa020aec97b7c9500857c9d0c316e066e0ed77c0f22a7c79210054aeffffffff0200e1f5050000000017a914caf6ea905d1d92f69555ea0e7e4233f9cd33a1e287569ffd050000000017a91469f374341fc46f2a2b2ffff4afaf08d461696b698700000000",
    "size": 8816,
    "time": 1523883998,
    "valueOut": 2.00507478,
    "vin": [
        {
            "addr": "3BMEXAHTfqRdjRombDq8MdnZpfJM86RWqH",
            "utxo": [
                {
                    "choosen": 1,
                    "confirmations": 109,
                    "scriptPubKey": "a91469f374341fc46f2a2b2ffff4afaf08d461696b6987",
                    "txid": "3a17ff9db2f3ef0991183652b3c2c02f24b1d96e828797a7a81f5ca017581c28",
                    "type": "scripthash",
                    "value": 140000000,
                    "vout": 0
                },
                {
                    "choosen": 1,
                    "confirmations": 118,
                    "scriptPubKey": "a91469f374341fc46f2a2b2ffff4afaf08d461696b6987",
                    "txid": "befc268180cca3997fe3e71734006adb9b2ebeae35034b9bff12a6c43feca32d",
                    "type": "scripthash",
                    "value": 36680000,
                    "vout": 0
                },
                {
                    "choosen": 1,
                    "confirmations": 1180,
                    "scriptPubKey": "a91469f374341fc46f2a2b2ffff4afaf08d461696b6987",
                    "txid": "e8e853bcf5fd0118d9a1feb91139582a612dba082f9aa423bdf493af4e7c2b24",
                    "type": "scripthash",
                    "value": 23733558,
                    "vout": 0
                },
                {
                    "choosen": 1,
                    "confirmations": 1201,
                    "scriptPubKey": "a91469f374341fc46f2a2b2ffff4afaf08d461696b6987",
                    "txid": "0ba00bfbedf0006946ec387e9aff4b5f7787a96b4fe19987e0da6754425601c0",
                    "type": "scripthash",
                    "value": 393920,
                    "vout": 0
                },
                {
                    "choosen": 0,
                    "confirmations": 0,
                    "scriptPubKey": "a91469f374341fc46f2a2b2ffff4afaf08d461696b6987",
                    "txid": "bb2b126512cddb89acb40cab89206ec62163ecf484429caaab70b005d95283a6",
                    "type": "scripthash",
                    "value": 100507478,
                    "vout": 1
                }
            ]
        }
    ],
    "vout": [
        {
            "n": 0,
            "scriptPubKey": {
                "addresses": [
                    "3LCCDLTq7LHubk74k6zdez2F1oncGo2qtB"
                ],
                "asm": "OP_HASH160 caf6ea905d1d92f69555ea0e7e4233f9cd33a1e2 OP_EQUAL",
                "hex": "a914caf6ea905d1d92f69555ea0e7e4233f9cd33a1e287",
                "type": "scripthash"
            },
            "spentHeight": null,
            "spentIndex": null,
            "spentTxId": null,
            "value": "1.00000000",
            "valueSat": 100000000
        },
        {
            "n": 1,
            "scriptPubKey": {
                "addresses": [
                    "3BMEXAHTfqRdjRombDq8MdnZpfJM86RWqH"
                ],
                "asm": "OP_HASH160 69f374341fc46f2a2b2ffff4afaf08d461696b69 OP_EQUAL",
                "hex": "a91469f374341fc46f2a2b2ffff4afaf08d461696b6987",
                "type": "scripthash"
            },
            "spentHeight": null,
            "spentIndex": null,
            "spentTxId": null,
            "value": "1.00507478",
            "valueSat": 100507478
        }
    ]
}