{
    "_id": {
        "$oid": "5ad49fed4c372215dd13d67d"
    },
    "fee": 40000,
    "id": "941b2b66e1d444d9934aceb6d3940097a5a03aa0ced4fe586392686847072cc4",
    "raw": "0200000004f0b91d41a2f8a1e1580faf1c436d504b94f8a273531acf614edf435bfbe628d705000000fde8010047304402205567fd5a0e66282b2ef98f71fcf1ea4ada3809ba2527e5cb2fd3eff6b8cb817702201c0b1d73011b5aead6646b198aeda8239c82d803c571ac9db3338066acc6cda101483045022100c46e735bebf7f19c6aa168a294d5cf95c3f98eb5648e68f247b3e368dee71381022065bef7933ad40cba1d3f8996acf3b1c4b2e4ba32ca085fe09db278290404319001473044022062a96dc701371f72add3f81af8b8f5f26f6bb7a4688b639730e4c4645609b4e7022035b7933fb6caa29bfcdfaa2e0fffceecbc229047f3b778ae92ce30a67d6afb48014d0b01534104220936c3245597b1513a9a7fe96d96facf1a840ee21432a1b73c2cf42c1810284dd730f21ded9d818b84402863a2b5cd1afe3a3d13719d524482592fb23c88a3410469beadcaacde0b2966f9f6f559644b05faff3db6af51a05b33182e3a2c6e6eac2af0f73fec66a63d47cd7f5af6cd97602197d4f29325dcc21b1c266b2b10cfba410472225d3abc8665cf01f703a270ee65be5421c6a495ce34830061eb0690ec27dfd1194e27b6b0b659418d9f91baec18923078aac18dc19699aae82583561fefe54104a24db5c0e8ed34da1fd3b6f9f797244981b928a8750c8f11f9252041daad7b2d95309074fed791af77dc85abdd8bb2774ed8d53379d28cd49f251b9c08cab7fc54aeffffffff5121f6b45e7c91d2e006cfb3b10abeaaab7234bfd327b28ac09b02cec68ea2cd1b000000fde901004830450221009c1f9a42555d9bed3ae6135122e7a978a3a8781522e302be5755364163d5a4df02201225b3cf2f35251f5443343f296979fd945ad60cb01d3c3b6d250cf0b915fd8801473044022007cac2b5be3e2816fd9bf94f051cded6088bc6743bbd3dfeef67de762aaa9f1002205c0b16e4f3de46f49af9271f4514e167e54fb7ac114298fd0da952555bd5006e01483045022100ece0b9abaf13accc53d55774d908a304cedb11cd99f94daefd1bebff1cc99a4402203c1064d040b8fd43ef75febdc7cd3e395b314cac977e47fb90d9890d841824a0014d0b01534104220936c3245597b1513a9a7fe96d96facf1a840ee21432a1b73c2cf42c1810284dd730f21ded9d818b84402863a2b5cd1afe3a3d13719d524482592fb23c88a3410469beadcaacde0b2966f9f6f559644b05faff3db6af51a05b33182e3a2c6e6eac2af0f73fec66a63d47cd7f5af6cd97602197d4f29325dcc21b1c266b2b10cfba410472225d3abc8665cf01f703a270ee65be5421c6a495ce34830061eb0690ec27dfd1194e27b6b0b659418d9f91baec18923078aac18dc19699aae82583561fefe54104a24db5c0e8ed34da1fd3b6f9f797244981b928a8750c8f11f9252041daad7b2d95309074fed791af77dc85abdd8bb2774ed8d53379d28cd49f251b9c08cab7fc54aeffffffffcd60612d0dd5959bfd11d52dd1fe074cf46d54a0cfb1f274c4d946c9874bcb400c000000fde90100483045022100c44ea16195479901ac4298378ecc736e69ff0694112dad168ef767625383cfa802205d419b3cc1634e8991a17db07474680d11b3642636c30a38d47980a2280b956e01483045022100e5a619e011aaee68c426ca63822da20571ade6f4518ba5af1ae2fb9d58201d09022035981533da11c175cadb1839ba9fdd474965d0cf9b559fb6537fcaa4acb8735f014730440220088a0b07ccd46aebb6ee3cff76c3abec3375436254eba9d6361ccfe4bdba58eb02206f8aa4106ab90dfc8de86b2fe9cd8efcbf7de51503336a4876dfe5edc0924f7e014d0b01534104220936c3245597b1513a9a7fe96d96facf1a840ee21432a1b73c2cf42c1810284dd730f21ded9d818b84402863a2b5cd1afe3a3d13719d524482592fb23c88a3410469beadcaacde0b2966f9f6f559644b05faff3db6af51a05b33182e3a2c6e6eac2af0f73fec66a63d47cd7f5af6cd97602197d4f29325dcc21b1c266b2b10cfba410472225d3abc8665cf01f703a270ee65be5421c6a495ce34830061eb0690ec27dfd1194e27b6b0b659418d9f91baec18923078aac18dc19699aae82583561fefe54104a24db5c0e8ed34da1fd3b6f9f797244981b928a8750c8f11f9252041daad7b2d95309074fed791af77dc85abdd8bb2774ed8d53379d28cd49f251b9c08cab7fc54aeffffffff53ed2cb65a358173a8408edbd3f8b9c5afacfa32efa6b90e2704b24168a28d1706000000fde90100483045022100e0abc7423a77171e9e7aee8a4fe114bdedee5527b2d7a0237469f57f1165dabc02205c04b84d3ab2af477481d2ac01a27a47f36a5422cca1dc0fdff04b769e07a9a801483045022100c875d9b80516e724d46f69671021b6ea71636e0b5a8d0648146c844933c0d56a022010b0e4297e125f670ac53760d5c8acf703f541008e591019a109a9d338d0c15d0147304402201f9f28d4a0bf948c6ce6989be2f90659b2be33b99dd9450bd058db3c436f6b2f022008fb16828ac06127dc68c24da867a486745f213f27591048184f5ae8dfebd58e014d0b01534104220936c3245597b1513a9a7fe96d96facf1a840ee21432a1b73c2cf42c1810284dd730f21ded9d818b84402863a2b5cd1afe3a3d13719d524482592fb23c88a3410469beadcaacde0b2966f9f6f559644b05faff3db6af51a05b33182e3a2c6e6eac2af0f73fec66a63d47cd7f5af6cd97602197d4f29325dcc21b1c266b2b10cfba410472225d3abc8665cf01f703a270ee65be5421c6a495ce34830061eb0690ec27dfd1194e27b6b0b659418d9f91baec18923078aac18dc19699aae82583561fefe54104a24db5c0e8ed34da1fd3b6f9f797244981b928a8750c8f11f9252041daad7b2d95309074fed791af77dc85abdd8bb2774ed8d53379d28cd49f251b9c08cab7fc54aeffffffff02c0c62d00000000001976a9141c0d30496810f38f46c47e6fbe2da11a6f3cf4e888ace05da1110000000017a91469f373d162b392328ad40241105650ca7501b2048700000000",
    "size": 8812,
    "time": 1523884007,
    "valueOut": 2.98788,
    "vin": [
        {
            "addr": "3BMEX4DJrTvM8vEdxHrTnjHNSpCNxEpCuT",
            "utxo": [
                {
                    "choosen": 1,
                    "confirmations": 5431,
                    "scriptPubKey": "a91469f373d162b392328ad40241105650ca7501b20487",
                    "txid": "d728e6fb5b43df4e61cf1a5373a2f8944b506d431caf0f58e1a1f8a2411db9f0",
                    "type": "scripthash",
                    "value": 100000000,
                    "vout": 5
                },
                {
                    "choosen": 1,
                    "confirmations": 4961,
                    "scriptPubKey": "a91469f373d162b392328ad40241105650ca7501b20487",
                    "txid": "cda28ec6ce029bc08ab227d3bf3472abaabe0ab1b3cf06e0d2917c5eb4f62151",
                    "type": "scripthash",
                    "value": 98828000,
                    "vout": 27
                },
                {
                    "choosen": 1,
                    "confirmations": 9770,
                    "scriptPubKey": "a91469f373d162b392328ad40241105650ca7501b20487",
                    "txid": "40cb4b87c946d9c474f2b1cfa0546df44c07fed12dd511fd9b95d50d2d6160cd",
                    "type": "scripthash",
                    "value": 80000000,
                    "vout": 12
                },
                {
                    "choosen": 1,
                    "confirmations": 10107,
                    "scriptPubKey": "a91469f373d162b392328ad40241105650ca7501b20487",
                    "txid": "178da26841b204270eb9a6ef32faacafc5b9f8d3db8e40a87381355ab62ced53",
                    "type": "scripthash",
                    "value": 20000000,
                    "vout": 6
                },
                {
                    "choosen": 0,
                    "confirmations": 0,
                    "scriptPubKey": "a91469f373d162b392328ad40241105650ca7501b20487",
                    "txid": "941b2b66e1d444d9934aceb6d3940097a5a03aa0ced4fe586392686847072cc4",
                    "type": "scripthash",
                    "value": 295788000,
                    "vout": 1
                }
            ]
        }
    ],
    "vout": [
        {
            "n": 0,
            "scriptPubKey": {
                "addresses": [
                    "13ZKijVc1jzqKrAbjHm5dVbzkb3kD3THgQ"
                ],
                "asm": "OP_DUP OP_HASH160 1c0d30496810f38f46c47e6fbe2da11a6f3cf4e8 OP_EQUALVERIFY OP_CHECKSIG",
                "hex": "76a9141c0d30496810f38f46c47e6fbe2da11a6f3cf4e888ac",
                "type": "pubkeyhash"
            },
            "spentHeight": null,
            "spentIndex": null,
            "spentTxId": null,
            "value": "0.03000000",
            "valueSat": 3000000
        },
        {
            "n": 1,
            "scriptPubKey": {
                "addresses": [
                    "3BMEX4DJrTvM8vEdxHrTnjHNSpCNxEpCuT"
                ],
                "asm": "OP_HASH160 69f373d162b392328ad40241105650ca7501b204 OP_EQUAL",
                "hex": "a91469f373d162b392328ad40241105650ca7501b20487",
                "type": "scripthash"
            },
            "spentHeight": null,
            "spentIndex": null,
            "spentTxId": null,
            "value": "2.95788000",
            "valueSat": 295788000
        }
    ]
}