{
    "_id": {
        "$oid": "5ad49ff94c372215dd13d67e"
    },
    "fee": 120000,
    "id": "1946c5de8fb468f48d84ac7b7327771cb9b624245533d995bad0dd65982cdd3f",
    "raw": "020000000402b7e36cc16e0408a8a5d2f634fc609010b643635a83944e628ad8e3c4309fad00000000fdea0100483045022100d5a5db6c1eeb3f39283e0b03f3db20d5435b3799151632f75a42a0427f3cd7c302206d26474ce96f766a671c017f52c56835e30f405cb162362b96541caeea38424301483045022100a903fba158675cdebe28053e4eef28a334245e75825bbbff53b4d3d8125f3d91022075a101c4f5f4220cbfd1dc425496d8481d46f9df8dbee4e5ec9c4e6ec8ad9ac401483045022100cc36d3a8ca45f7129d27171802da0a9583fd81feac4c64776334483976e76f0c0220156d1792a03b87dcf76d617cb2ad328591139abcc57636f44cc18b7bbe33d423014d0b01534104220936c3245597b1513a9a7fe96d96facf1a840ee21432a1b73c2cf42c1810284dd730f21ded9d818b84402863a2b5cd1afe3a3d13719d524482592fb23c88a3410472225d3abc8665cf01f703a270ee65be5421c6a495ce34830061eb0690ec27dfd1194e27b6b0b659418d9f91baec18923078aac18dc19699aae82583561fefe54104a24db5c0e8ed34da1fd3b6f9f797244981b928a8750c8f11f9252041daad7b2d95309074fed791af77dc85abdd8bb2774ed8d53379d28cd49f251b9c08cab7fc4104d3e7a8f2d6e4f7203af6fcb57b31ed450b110eea113346b02af4bbea013ba7e4d7c7a44eb943adc5adf40adac40cccb77765bf49b0f2b3f7a2033db3fa5bc28d54aeffffffffffc0e096ccba26802739507a351c7bcbacdee3ce1ed96feaaf3e5a412d01748400000000fde8010047304402207ad287653803f62543d5cdeeeb6cd9212b17e8a0a550de06c80049ca1a32bcf9022034be6b61cd5dc6c243b332bc666342a4779f8931291cac132847cf2fe175ed5501483045022100cfe31ab3c18812f7401a3a95a742567734de56bbbac001cb69debfa4a950791702202e220c457a0138612cf0d809e6089df27b7a4c9198c19f0999efe1a42ab5279e0147304402203c552a18e6aa5b42bcacf778522a8142903e22028d634c825c6872d203ad4e3002206631227272eabc4dfeb33e2e3cb754f141d1805a7a2b2de8ff1db6397d3613cb014d0b01534104220936c3245597b1513a9a7fe96d96facf1a840ee21432a1b73c2cf42c1810284dd730f21ded9d818b84402863a2b5cd1afe3a3d13719d524482592fb23c88a3410472225d3abc8665cf01f703a270ee65be5421c6a495ce34830061eb0690ec27dfd1194e27b6b0b659418d9f91baec18923078aac18dc19699aae82583561fefe54104a24db5c0e8ed34da1fd3b6f9f797244981b928a8750c8f11f9252041daad7b2d95309074fed791af77dc85abdd8bb2774ed8d53379d28cd49f251b9c08cab7fc4104d3e7a8f2d6e4f7203af6fcb57b31ed450b110eea113346b02af4bbea013ba7e4d7c7a44eb943adc5adf40adac40cccb77765bf49b0f2b3f7a2033db3fa5bc28d54aeffffffff978543bac48c269a80523fcc7629b4d4f508a3ae8a530f29d4090162dfbaa76201000000fdea010048304502210084a06a03e2bab4fe51fa4e9bb4c57f593e49a07af1092397f324236a72e9221c02204407c830e7b45b3b8ce63914016737c3c77ca17cc69994c51380df0da6a2bcef0148304502210083d2a69bab93b167fce74a757aee70674083406ebe1967a6c489b584f1cf2d720220669441489ee686296f0d7287f20e9d7b3bfbed8197e1dc652fa71902a3b4fbb5014830450221009d5a38f4af91ddaa87f849b8149943a5bd87ac8fa9c11ad0df709d737faeb1e10220116a1a58db24846517bc32a7a8e259807dcad109a9d749d30f8b37c9c5aef834014d0b01534104220936c3245597b1513a9a7fe96d96facf1a840ee21432a1b73c2cf42c1810284dd730f21ded9d818b84402863a2b5cd1afe3a3d13719d524482592fb23c88a3410472225d3abc8665cf01f703a270ee65be5421c6a495ce34830061eb0690ec27dfd1194e27b6b0b659418d9f91baec18923078aac18dc19699aae82583561fefe54104a24db5c0e8ed34da1fd3b6f9f797244981b928a8750c8f11f9252041daad7b2d95309074fed791af77dc85abdd8bb2774ed8d53379d28cd49f251b9c08cab7fc4104d3e7a8f2d6e4f7203af6fcb57b31ed450b110eea113346b02af4bbea013ba7e4d7c7a44eb943adc5adf40adac40cccb77765bf49b0f2b3f7a2033db3fa5bc28d54aeffffffff3e4955d68ec1d731f8785081bdc9c67da74551f52e211f42f67950272b19b89300000000fde7010047304402206f81fbb310d4a6dd93bf6552af361cfc43c4057e77e9aee240f4ba5eca89653302201d21c873483686294a7e406273395590a344de1251fbb3e2d163b57831d7cbf80147304402207e4659058a2fa74f40ff8f9ac561553f7f654528d819d0c9bdd75d16b5d9bc53022070eb7e32bd241d1ac74921e30bc67b9dcce008783ccfaef60b67c34db697591401473044022064d1f6002aec8156954b3087dd8de6e40801771b177f7bdafc03a5b6b12a2d59022066f2f1c430f0227858594a9d1c81d5106e653f23222030ee0bc5e0dfa97d3823014d0b01534104220936c3245597b1513a9a7fe96d96facf1a840ee21432a1b73c2cf42c1810284dd730f21ded9d818b84402863a2b5cd1afe3a3d13719d524482592fb23c88a3410472225d3abc8665cf01f703a270ee65be5421c6a495ce34830061eb0690ec27dfd1194e27b6b0b659418d9f91baec18923078aac18dc19699aae82583561fefe54104a24db5c0e8ed34da1fd3b6f9f797244981b928a8750c8f11f9252041daad7b2d95309074fed791af77dc85abdd8bb2774ed8d53379d28cd49f251b9c08cab7fc4104d3e7a8f2d6e4f7203af6fcb57b31ed450b110eea113346b02af4bbea013ba7e4d7c7a44eb943adc5adf40adac40cccb77765bf49b0f2b3f7a2033db3fa5bc28d54aeffffffff020c0c1f00000000001976a9144253c3d4098c19d62a561aeec031e007045928ec88acb45859120000000017a91469f376d23ba1d267f7a52c64fd641a2a4d85c05d8700000000",
    "size": 8812,
    "time": 1523884020,
    "valueOut": 3.0988,
    "vin": [
        {
            "addr": "3BMEXsVQmwThuAPDbg4vL1ErVc9KeD8oUS",
            "utxo": [
                {
                    "choosen": 1,
                    "confirmations": 2239,
                    "scriptPubKey": "a91469f376d23ba1d267f7a52c64fd641a2a4d85c05d87",
                    "txid": "ad9f30c4e3d88a624e94835a6343b6109060fc34f6d2a5a808046ec16ce3b702",
                    "type": "scripthash",
                    "value": 100000000,
                    "vout": 0
                },
                {
                    "choosen": 1,
                    "confirmations": 1759,
                    "scriptPubKey": "a91469f376d23ba1d267f7a52c64fd641a2a4d85c05d87",
                    "txid": "8474012d415a3eafea6fd91ecee3deaccb7b1c357a5039278026bacc96e0c0ff",
                    "type": "scripthash",
                    "value": 100000000,
                    "vout": 0
                },
                {
                    "choosen": 1,
                    "confirmations": 252,
                    "scriptPubKey": "a91469f376d23ba1d267f7a52c64fd641a2a4d85c05d87",
                    "txid": "62a7badf620109d4290f538aaea308f5d4b42976cc3f52809a268cc4ba438597",
                    "type": "scripthash",
                    "value": 100000000,
                    "vout": 1
                },
                {
                    "choosen": 1,
                    "confirmations": 2434,
                    "scriptPubKey": "a91469f376d23ba1d267f7a52c64fd641a2a4d85c05d87",
                    "txid": "93b8192b275079f6421f212ef55145a77dc6c9bd815078f831d7c18ed655493e",
                    "type": "scripthash",
                    "value": 10000000,
                    "vout": 0
                },
                {
                    "choosen": 0,
                    "confirmations": 0,
                    "scriptPubKey": "a91469f376d23ba1d267f7a52c64fd641a2a4d85c05d87",
                    "txid": "1946c5de8fb468f48d84ac7b7327771cb9b624245533d995bad0dd65982cdd3f",
                    "type": "scripthash",
                    "value": 307845300,
                    "vout": 1
                }
            ]
        }
    ],
    "vout": [
        {
            "n": 0,
            "scriptPubKey": {
                "addresses": [
                    "173hwkcFPXXKrhRJmpEUKySGqiNT82qU3a"
                ],
                "asm": "OP_DUP OP_HASH160 4253c3d4098c19d62a561aeec031e007045928ec OP_EQUALVERIFY OP_CHECKSIG",
                "hex": "76a9144253c3d4098c19d62a561aeec031e007045928ec88ac",
                "type": "pubkeyhash"
            },
            "spentHeight": null,
            "spentIndex": null,
            "spentTxId": null,
            "value": "0.02034700",
            "valueSat": 2034700
        },
        {
            "n": 1,
            "scriptPubKey": {
                "addresses": [
                    "3BMEXsVQmwThuAPDbg4vL1ErVc9KeD8oUS"
                ],
                "asm": "OP_HASH160 69f376d23ba1d267f7a52c64fd641a2a4d85c05d OP_EQUAL",
                "hex": "a91469f376d23ba1d267f7a52c64fd641a2a4d85c05d87",
                "type": "scripthash"
            },
            "spentHeight": null,
            "spentIndex": null,
            "spentTxId": null,
            "value": "3.07845300",
            "valueSat": 307845300
        }
    ]
}