{
    "_id": {
        "$oid": "5ad4a0064c372215dd13d67f"
    },
    "fee": 400000,
    "id": "cc760979b782ed9dd91773321151126e2d2c766a0bd75fa6e930e79b502013b3",
    "raw": "020000000441d2a99f9ec36acaf3f9f57d55d5e706185e44b4111bf15ed5baa10e7a65d0ad00000000fde90100483045022100b414b62593d53e3a2ebbc3aa3ad1c5c4c0f6ce6dfffbbb330b1dc288fb19282702205fbdaa7a858525cd4d5e8c481e482670aca96702893a6b0278567bbf039ad2cc01483045022100c01e2cfde42733b89715c0fdb7b05556d260cfdefa8d4940cd7a8eac44f790cd022020d382330bae2805734c71849c5b4887b2e993c5d426b0ddbad95b8e3947b9c10147304402202cdf98fa6efdb61e6479c7c48ea49c16d7311cf3a6985320620931fe6749190b02207953b976fde78ac88d50b570f4fa607719e8378cc55d2c6de07e16e2eb62a16e014d0b01534104220936c3245597b1513a9a7fe96d96facf1a840ee21432a1b73c2cf42c1810284dd730f21ded9d818b84402863a2b5cd1afe3a3d13719d524482592fb23c88a3410472225d3abc8665cf01f703a270ee65be5421c6a495ce34830061eb0690ec27dfd1194e27b6b0b659418d9f91baec18923078aac18dc19699aae82583561fefe54104a24db5c0e8ed34da1fd3b6f9f797244981b928a8750c8f11f9252041daad7b2d95309074fed791af77dc85abdd8bb2774ed8d53379d28cd49f251b9c08cab7fc4104aeaf7bf79519774da10f217c39b4987fb5500959c4be8318cd7592782d056a576f0b8dffc484896adb9fa152be715b54571b8be833aa8395f122e9a98860a5b154aeffffffffbf9317a127065ee989916063a37348979d4519e525a6775ac484043ccc7cb9ad02000000fde90100483045022100c6189cfdae05ecb941e55fd08b3754ff5802c5625066f3a309c1178dda6fb9da02202518c232e482bce9544f333cad7d8fc328f0f012e1adf2118a2acaa8f17c87ab0147304402202dac6322954fe3a76c2662147a019329678c35c60e68aa453f8167c26e5f904302206961ed5fc949b42922df78fd63b099adff2aaa079b1de2884dff616f7b7f380e01483045022100dac421519795c2b55650dee24c1cb7455a0cd664cb8e7f5e0607e757b86a15ae02205453631ad505875886cac1282af8e8dad2ae6fd7b4d7d8d70d58c33ccc64ef92014d0b01534104220936c3245597b1513a9a7fe96d96facf1a840ee21432a1b73c2cf42c1810284dd730f21ded9d818b84402863a2b5cd1afe3a3d13719d524482592fb23c88a3410472225d3abc8665cf01f703a270ee65be5421c6a495ce34830061eb0690ec27dfd1194e27b6b0b659418d9f91baec18923078aac18dc19699aae82583561fefe54104a24db5c0e8ed34da1fd3b6f9f797244981b928a8750c8f11f9252041daad7b2d95309074fed791af77dc85abdd8bb2774ed8d53379d28cd49f251b9c08cab7fc4104aeaf7bf79519774da10f217c39b4987fb5500959c4be8318cd7592782d056a576f0b8dffc484896adb9fa152be715b54571b8be833aa8395f122e9a98860a5b154aeffffffff46ffd149cf6d7bbc4d09a647116a97f40031f4f0e38af983007f88cd893a825c01000000fde90100483045022100be0c817f97c0d9a0509a9cd468910bd03da03ac6853c7fadae1560d6a867264102202431f620bc1ffe1733872c30f09fc61364a418138078db81b269e9886b0fbc7a01483045022100f0b7cccbee78f8f5c1d16c9d87535251219759427aa82871e2a3b43870295383022073e19d637f60e79ae15fb6878d7b7233aef25c16d22bfdc4e86063872a58b3530147304402207e1f87f30e3d660765dbe6082fd32832527d258276886b35df2d7064f6b37c5102207dcb49223b88b09a12220ca58ed42bbfddaf555b5236d847fddfbb29cf382f6c014d0b01534104220936c3245597b1513a9a7fe96d96facf1a840ee21432a1b73c2cf42c1810284dd730f21ded9d818b84402863a2b5cd1afe3a3d13719d524482592fb23c88a3410472225d3abc8665cf01f703a270ee65be5421c6a495ce34830061eb0690ec27dfd1194e27b6b0b659418d9f91baec18923078aac18dc19699aae82583561fefe54104a24db5c0e8ed34da1fd3b6f9f797244981b928a8750c8f11f9252041daad7b2d95309074fed791af77dc85abdd8bb2774ed8d53379d28cd49f251b9c08cab7fc4104aeaf7bf79519774da10f217c39b4987fb5500959c4be8318cd7592782d056a576f0b8dffc484896adb9fa152be715b54571b8be833aa8395f122e9a98860a5b154aeffffffffbf5ddb86483d9ae08040947972daa3769c745b6231fce4ddba82d0d223cd8f7701000000fde90100483045022100910bb037d791d7e7d36e80124f5847dc80d8914dd01828505e75df2ea100e03802206a480ba610eca2c8c4d9c14c436c3a7140df65fa16fa4e3241b01727ca05cd2901483045022100b441c5c4539973ac8b4ace0ca8e7dcf49f6e8bf3f2e9d84f2e84cb4bd806f19002206b978f450aeb45d21a96dc2b948f2a2921fe42824c68c711403dbcd976917b53014730440220210cc6a66d886ae521378ed82e352c533ad96a4d40206f2354821e07e9215e5302201b5a97606f7feeba6e452f05475c6339222b0e960f29813eba7a6897432feae2014d0b01534104220936c3245597b1513a9a7fe96d96facf1a840ee21432a1b73c2cf42c1810284dd730f21ded9d818b84402863a2b5cd1afe3a3d13719d524482592fb23c88a3410472225d3abc8665cf01f703a270ee65be5421c6a495ce34830061eb0690ec27dfd1194e27b6b0b659418d9f91baec18923078aac18dc19699aae82583561fefe54104a24db5c0e8ed34da1fd3b6f9f797244981b928a8750c8f11f9252041daad7b2d95309074fed791af77dc85abdd8bb2774ed8d53379d28cd49f251b9c08cab7fc4104aeaf7bf79519774da10f217c39b4987fb5500959c4be8318cd7592782d056a576f0b8dffc484896adb9fa152be715b54571b8be833aa8395f122e9a98860a5b154aeffffffff02ad627701000000001976a9148dd0152acd76a91ac4b24496ea128d943daf85cb88acddeeba010000000017a91469f37576b9adf148bb8adbc0200248f1e44e44ff8700000000",
    "size": 8816,
    "time": 1523884033,
    "valueOut": 0.53629322,
    "vin": [
        {
            "addr": "3BMEXW82BaKXbgG5qaimaMzaAqWeyZk3YP",
            "utxo": [
                {
                    "choosen": 1,
                    "confirmations": 34,
                    "scriptPubKey": "a91469f37576b9adf148bb8adbc0200248f1e44e44ff87",
                    "txid": "add0657a0ea1bad55ef11b11b4445e1806e7d5557df5f9f3ca6ac39e9fa9d241",
                    "type": "scripthash",
                    "value": 23010000,
                    "vout": 0
                },
                {
                    "choosen": 1,
                    "confirmations": 29,
                    "scriptPubKey": "a91469f37576b9adf148bb8adbc0200248f1e44e44ff87",
                    "txid": "adb97ccc3c0484c45a77a625e519459d974873a363609189e95e0627a11793bf",
                    "type": "scripthash",
                    "value": 21983866,
                    "vout": 2
                },
                {
                    "choosen": 1,
                    "confirmations": 315,
                    "scriptPubKey": "a91469f37576b9adf148bb8adbc0200248f1e44e44ff87",
                    "txid": "5c823a89cd887f0083f98ae3f0f43100f4976a1147a6094dbc7b6dcf49d1ff46",
                    "type": "scripthash",
                    "value": 7400000,
                    "vout": 1
                },
                {
                    "choosen": 1,
                    "confirmations": 1730,
                    "scriptPubKey": "a91469f37576b9adf148bb8adbc0200248f1e44e44ff87",
                    "txid": "778fcd23d2d082badde4fc31625b749c76a3da7279944080e09a3d4886db5dbf",
                    "type": "scripthash",
                    "value": 1635456,
                    "vout": 1
                },
                {
                    "choosen": 0,
                    "confirmations": 0,
                    "scriptPubKey": "a91469f37576b9adf148bb8adbc0200248f1e44e44ff87",
                    "txid": "cc760979b782ed9dd91773321151126e2d2c766a0bd75fa6e930e79b502013b3",
                    "type": "scripthash",
                    "value": 29028061,
                    "vout": 1
                }
            ]
        }
    ],
    "vout": [
        {
            "n": 0,
            "scriptPubKey": {
                "addresses": [
                    "1DvqYtR4LmnNo14RNuDM8EQcSXaDwnYUyy"
                ],
                "asm": "OP_DUP OP_HASH160 8dd0152acd76a91ac4b24496ea128d943daf85cb OP_EQUALVERIFY OP_CHECKSIG",
                "hex": "76a9148dd0152acd76a91ac4b24496ea128d943daf85cb88ac",
                "type": "pubkeyhash"
            },
            "spentHeight": null,
            "spentIndex": null,
            "spentTxId": null,
            "value": "0.24601261",
            "valueSat": 24601261
        },
        {
            "n": 1,
            "scriptPubKey": {
                "addresses": [
                    "3BMEXW82BaKXbgG5qaimaMzaAqWeyZk3YP"
                ],
                "asm": "OP_HASH160 69f37576b9adf148bb8adbc0200248f1e44e44ff OP_EQUAL",
                "hex": "a91469f37576b9adf148bb8adbc0200248f1e44e44ff87",
                "type": "scripthash"
            },
            "spentHeight": null,
            "spentIndex": null,
            "spentTxId": null,
            "value": "0.29028061",
            "valueSat": 29028061
        }
    ]
}