{
    "_id": {
        "$oid": "5ad4a00f4c372215dd13d680"
    },
    "fee": 100000,
    "id": "22856590b62f468e8545bf22ae5c9e84b9725fd3f95de706fe10195eefb9a5a5",
    "raw": "0200000004cf0b8e5386c087e39a11f4161dfaa6514bb675175b4e0b33046f71edfaad8c6d01000000fde7010047304402204b65e73723b2a6f473320feca41ded5d09ab3cba8b50897593ad1dbc1a8f5bea0220019c606e4ac5fe26f354df6b5378159e7d1bb41f2fb2ac9c589f0b6606a40240014730440220384eadb395df38af7aa472910455af92a085f949fc7a869f7de3e4e9296cd18f022049ba9fb1b13d2fc6ecc36233a6a1c0b60507d87ca71afbe5cb2f339d0a0cafd90147304402202148a711ee863448279525df33c18466ff151cc196451841a41506e581ef7bc502201a599d2e32f5044d0e3e93a40d2aa0d0a4501b02dd56ae5884db92e53e18747a014d0b01534104220936c3245597b1513a9a7fe96d96facf1a840ee21432a1b73c2cf42c1810284dd730f21ded9d818b84402863a2b5cd1afe3a3d13719d524482592fb23c88a3410472225d3abc8665cf01f703a270ee65be5421c6a495ce34830061eb0690ec27dfd1194e27b6b0b659418d9f91baec18923078aac18dc19699aae82583561fefe541048a6922d87e22125169a7c6f408497fbcbe77abec47b09fc84ec1d704723e803820f59d12961da4b818e71c9e5d3c99a3652cec030011ebd411c3e4a3846505544104a24db5c0e8ed34da1fd3b6f9f797244981b928a8750c8f11f9252041daad7b2d95309074fed791af77dc85abdd8bb2774ed8d53379d28cd49f251b9c08cab7fc54aeffffffff9de3eb9d3f43260e1d1c5c508386738e35dd9e456cf776852195ffb460cb31e800000000fde8010047304402205336bbc825541a90237f834b5bf6752bca8273b3063ad3ca0d03fdaf23c91e66022075b37fc2fe4135d35cc77b9b440dbbbd7d286479ab8ac4c4d2f18aeccd8430bd0147304402205a9317659d845065e4bf87b2eceb2fd2f80b71531628003d167a021481d00a7b02201490fdcc65ff58d6e0083ebfd0e1438e7d4fbce33357a0c34966a7ff15b2cdaa01483045022100a7f0f54478f6e674bb9e87252af3543da3878a74fd67459506b50603547a95ad022076be05c0959691a3417b3a58e35cb2a9f5a19e300914565d4e21021108a6b6ac014d0b01534104220936c3245597b1513a9a7fe96d96facf1a840ee21432a1b73c2cf42c1810284dd730f21ded9d818b84402863a2b5cd1afe3a3d13719d524482592fb23c88a3410472225d3abc8665cf01f703a270ee65be5421c6a495ce34830061eb0690ec27dfd1194e27b6b0b659418d9f91baec18923078aac18dc19699aae82583561fefe541048a6922d87e22125169a7c6f408497fbcbe77abec47b09fc84ec1d704723e803820f59d12961da4b818e71c9e5d3c99a3652cec030011ebd411c3e4a3846505544104a24db5c0e8ed34da1fd3b6f9f797244981b928a8750c8f11f9252041daad7b2d95309074fed791af77dc85abdd8bb2774ed8d53379d28cd49f251b9c08cab7fc54aefffffffff2941c130316c0fd769f8e709531015b3179b12f6767e8580e7352a412193c4201000000fde8010047304402203ee4611a71a78ecbbf3e663ca7faac13d5c267606c460e2c338472b8942e820c02202b29487522720589e6441f81927833991bef24fbe35e9dea3b4938b748db008001483045022100c65414f8bb77df2f942559ad5c052e50504ef82040eb4fdfd2d51cf5d3ed6240022060303913e55361b1681049e6b6a18d47649e6e048f35f20e06a65f77d000902d0147304402203ec7ffd2f92092915ddde3f5aaa4fbcbc72dba02027b498bfcea2a582e7318bd0220262688e2ff513189453a4fdaa9934c3b3a9b432aa8fcc7029f97bd510550d63e014d0b01534104220936c3245597b1513a9a7fe96d96facf1a840ee21432a1b73c2cf42c1810284dd730f21ded9d818b84402863a2b5cd1afe3a3d13719d524482592fb23c88a3410472225d3abc8665cf01f703a270ee65be5421c6a495ce34830061eb0690ec27dfd1194e27b6b0b659418d9f91baec18923078aac18dc19699aae82583561fefe541048a6922d87e22125169a7c6f408497fbcbe77abec47b09fc84ec1d704723e803820f59d12961da4b818e71c9e5d3c99a3652cec030011ebd411c3e4a3846505544104a24db5c0e8ed34da1fd3b6f9f797244981b928a8750c8f11f9252041daad7b2d95309074fed791af77dc85abdd8bb2774ed8d53379d28cd49f251b9c08cab7fc54aeffffffffa38c9795632a588cdeb780bd54bada159b8bcc111d56981e6c655afb1fdbec1402000000fde90100483045022100971da1487a2866ae10c2ca5eaf840ce7020b9506f8d5ff4f85d2d8fc7340120a022049f4ce4f0fc11d53eb57af5241622d49979f465aa013ac25f7c839193a74756201483045022100b18686638acae6f8c60a20cadc7b4f30e030ecce29070bc79d6994694ebf12be022065678e43b622ef7f5c83c281aa39d440a903a49ea3ab4626bc22296bc530ec1c0147304402205ffe1850467a0ad846af0a89d69562bcdb0225d879b168d253b2a21ec61e2f9402204fdb9839f249389057282d243ca3012d3a1f6242ff099d1cfc0bb95d3ec6a5a1014d0b01534104220936c3245597b1513a9a7fe96d96facf1a840ee21432a1b73c2cf42c1810284dd730f21ded9d818b84402863a2b5cd1afe3a3d13719d524482592fb23c88a3410472225d3abc8665cf01f703a270ee65be5421c6a495ce34830061eb0690ec27dfd1194e27b6b0b659418d9f91baec18923078aac18dc19699aae82583561fefe541048a6922d87e22125169a7c6f408497fbcbe77abec47b09fc84ec1d704723e803820f59d12961da4b818e71c9e5d3c99a3652cec030011ebd411c3e4a3846505544104a24db5c0e8ed34da1fd3b6f9f797244981b928a8750c8f11f9252041daad7b2d95309074fed791af77dc85abdd8bb2774ed8d53379d28cd49f251b9c08cab7fc54aeffffffff02dc23c2000000000017a91469f37413ec0d804d6d614f557fa01ef9c4a90a538706efc3000000000017a91469f375ddab9e7495fd1b33940c275b0e7e456cc58700000000",
    "size": 8792,
    "time": 1523884042,
    "valueOut": 0.25563874,
    "vin": [
        {
            "addr": "3BMEXcTB9tm2bUh3g7tz5GzpY5hKn9CKu2",
            "utxo": [
                {
                    "choosen": 1,
                    "confirmations": 4686,
                    "scriptPubKey": "a91469f375ddab9e7495fd1b33940c275b0e7e456cc587",
                    "txid": "6d8cadfaed716f04330b4e5b1775b64b51a6fa1d16f4119ae387c086538e0bcf",
                    "type": "scripthash",
                    "value": 13441052,
                    "vout": 1
                },
                {
                    "choosen": 1,
                    "confirmations": 4503,
                    "scriptPubKey": "a91469f375ddab9e7495fd1b33940c275b0e7e456cc587",
                    "txid": "e831cb60b4ff95218576f76c459edd358e738683505c1c1d0e26433f9debe39d",
                    "type": "scripthash",
                    "value": 10245870,
                    "vout": 0
                },
                {
                    "choosen": 1,
                    "confirmations": 2844,
                    "scriptPubKey": "a91469f375ddab9e7495fd1b33940c275b0e7e456cc587",
                    "txid": "423c1912a452730e58e867672fb179315b013195708e9f76fdc01603131c94f2",
                    "type": "scripthash",
                    "value": 1123786,
                    "vout": 1
                },
                {
                    "choosen": 1,
                    "confirmations": 80,
                    "scriptPubKey": "a91469f375ddab9e7495fd1b33940c275b0e7e456cc587",
                    "txid": "14ecdb1ffb5a656c1e98561d11cc8b9b15daba54bd80b7de8c582a6395978ca3",
                    "type": "scripthash",
                    "value": 853166,
                    "vout": 2
                },
                {
                    "choosen": 0,
                    "confirmations": 0,
                    "scriptPubKey": "a91469f375ddab9e7495fd1b33940c275b0e7e456cc587",
                    "txid": "22856590b62f468e8545bf22ae5c9e84b9725fd3f95de706fe10195eefb9a5a5",
                    "type": "scripthash",
                    "value": 12840710,
                    "vout": 1
                }
            ]
        }
    ],
    "vout": [
        {
            "n": 0,
            "scriptPubKey": {
                "addresses": [
                    "3BMEX8JcSUN3tfQ3jYdif6yDG8j51LPBdp"
                ],
                "asm": "OP_HASH160 69f37413ec0d804d6d614f557fa01ef9c4a90a53 OP_EQUAL",
                "hex": "a91469f37413ec0d804d6d614f557fa01ef9c4a90a5387",
                "type": "scripthash"
            },
            "spentHeight": null,
            "spentIndex": null,
            "spentTxId": null,
            "value": "0.12723164",
            "valueSat": 12723164
        },
        {
            "n": 1,
            "scriptPubKey": {
                "addresses": [
                    "3BMEXcTB9tm2bUh3g7tz5GzpY5hKn9CKu2"
                ],
                "asm": "OP_HASH160 69f375ddab9e7495fd1b33940c275b0e7e456cc5 OP_EQUAL",
                "hex": "a91469f375ddab9e7495fd1b33940c275b0e7e456cc587",
                "type": "scripthash"
            },
            "spentHeight": null,
            "spentIndex": null,
            "spentTxId": null,
            "value": "0.12840710",
            "valueSat": 12840710
        }
    ]
}