{
    "_id": {
        "$oid": "5ad4a0184c372215dd13d681"
    },
    "fee": 100000,
    "id": "ef68770d86611967dd229d9c706c1e7dddae6fb40197dd4f35c60ac1c4185af4",
    "raw": "0200000004d6ae11f74fe24b4e601d4259e8c2ff9acbde0fe763b0435a7911b1bac547a19c04000000fde90100483045022100e7a3d64116813a7dab59e0faae087ac2a505db04d5bbf7ac624ca939bdc88f7302202c110c71b1f0c3b1cf6e3fc7231402d68fd07f2b562942e74e4f9db6cc170b7701473044022050dc63ec5eae944436df249159d914f7faad492b0664fca574b8210794eb630702205309bfaad98721977d84f97d0f840cca7f2655bae4726e24b66d12f3712eac3d01483045022100ff26b6c31f1eec3bb3b8f7e3674347a424b6f7e72df8b8265ef7b9d1f067e74802202196a5ed27997721764d082373902c769c6900eca07a3774a257430b2a4661a1014d0b01534104220936c3245597b1513a9a7fe96d96facf1a840ee21432a1b73c2cf42c1810284dd730f21ded9d818b84402863a2b5cd1afe3a3d13719d524482592fb23c88a3410472225d3abc8665cf01f703a270ee65be5421c6a495ce34830061eb0690ec27dfd1194e27b6b0b659418d9f91baec18923078aac18dc19699aae82583561fefe54104a24db5c0e8ed34da1fd3b6f9f797244981b928a8750c8f11f9252041daad7b2d95309074fed791af77dc85abdd8bb2774ed8d53379d28cd49f251b9c08cab7fc4104e7a4842af35a8836257da7667c81cbf3d2cf8e5bbd2499d8c5c7f64d3e38e754c6f4ed0cf2e68ac7b8f6f48599479618d6c938bc3196349aa1f006c1f7b98b0954aeffffffff542504e5c7d2458e8655e6ce2cafee5451c4fc3f1e1b39b157a3f4af9078ddba01000000fde901004830450221008af5ba13ba3cc9f6ffaa8fd0eed6e39b8281912730ee5062bad503e091e1259a0220178adcc5b30670599d956cd787aa04a5e70d6aec893c48e9bf6917ae283273ef01483045022100b023e57072c62dbae6896d3f4412847305224719fae2d03e2e2dfff1289ce351022003049367cc0c4892b99e60a331caa0f8217582ea7ec2238a6d67b5ab1cd391680147304402207487cd0aa3a02b8f86ea5a44cc164fd6ce66a0969081c884509565663602fada0220094b4fc53d244ffc3f3a466e790396b904e19a40f893ece760aede6329dc7b42014d0b01534104220936c3245597b1513a9a7fe96d96facf1a840ee21432a1b73c2cf42c1810284dd730f21ded9d818b84402863a2b5cd1afe3a3d13719d524482592fb23c88a3410472225d3abc8665cf01f703a270ee65be5421c6a495ce34830061eb0690ec27dfd1194e27b6b0b659418d9f91baec18923078aac18dc19699aae82583561fefe54104a24db5c0e8ed34da1fd3b6f9f797244981b928a8750c8f11f9252041daad7b2d95309074fed791af77dc85abdd8bb2774ed8d53379d28cd49f251b9c08cab7fc4104e7a4842af35a8836257da7667c81cbf3d2cf8e5bbd2499d8c5c7f64d3e38e754c6f4ed0cf2e68ac7b8f6f48599479618d6c938bc3196349aa1f006c1f7b98b0954aefffffffff0e38249fe953139a2b855d16033fd69e68fcf4b8b10ec5f1d8579d4e7b814fd05000000fde90100483045022100aabd41bc92247eb48d1242ad5b164d276036347fe133ebabce7db1e5a88884e9022056f375c6f5b1b3d2c4a0f8f2f5faf41ae2a6a7aed9fa4fe14664304a0ff90d5401483045022100dac269f2f38e642ed242650e0729a90da058045c2d236649f0a2b15770f6cba702205fa80e5ad5abbcf5abd3dd20f112adb8efeec63a3d02e3e9c1482ad481cace6b0147304402201f9f4ec1ddee80b1529f36eda512d05ee4cac9f06d67c2723c8958b1defe32750220097b5aa2dd2f9d6cc5fca71b1f259842ccf290b6720210cbceeef673eeedbeaf014d0b01534104220936c3245597b1513a9a7fe96d96facf1a840ee21432a1b73c2cf42c1810284dd730f21ded9d818b84402863a2b5cd1afe3a3d13719d524482592fb23c88a3410472225d3abc8665cf01f703a270ee65be5421c6a495ce34830061eb0690ec27dfd1194e27b6b0b659418d9f91baec18923078aac18dc19699aae82583561fefe54104a24db5c0e8ed34da1fd3b6f9f797244981b928a8750c8f11f9252041daad7b2d95309074fed791af77dc85abdd8bb2774ed8d53379d28cd49f251b9c08cab7fc4104e7a4842af35a8836257da7667c81cbf3d2cf8e5bbd2499d8c5c7f64d3e38e754c6f4ed0cf2e68ac7b8f6f48599479618d6c938bc3196349aa1f006c1f7b98b0954aeffffffff5f0c852bc302ba16ad9d820b9cbfd48078ab15810212061bcc595bdb7ef03c8c04000000fde80100473044022040402f7d28f2754b8a06e517850bdd0278f0393add107eeed3b09b3955db385502201d45de77084e2c446f948684784f3a376aeb7eb197407e9d2b23e010d8977aac0147304402206e79da8270fd852892397a527b0435747111fa7ad4007f7a54fe6b69f592726c0220416800a589f7ebe0f3fd7c5e42a5810bcdfab43108157a1264cde10e4c153c0101483045022100e550ac7898caf5fadab59f4fdbb5a529b3ebbb817ad7f19abe33370f2361312b02203a87969da90a7deadd9e3faad41fce9ffe72524bced0f1f253f2c004f347c06e014d0b01534104220936c3245597b1513a9a7fe96d96facf1a840ee21432a1b73c2cf42c1810284dd730f21ded9d818b84402863a2b5cd1afe3a3d13719d524482592fb23c88a3410472225d3abc8665cf01f703a270ee65be5421c6a495ce34830061eb0690ec27dfd1194e27b6b0b659418d9f91baec18923078aac18dc19699aae82583561fefe54104a24db5c0e8ed34da1fd3b6f9f797244981b928a8750c8f11f9252041daad7b2d95309074fed791af77dc85abdd8bb2774ed8d53379d28cd49f251b9c08cab7fc4104e7a4842af35a8836257da7667c81cbf3d2cf8e5bbd2499d8c5c7f64d3e38e754c6f4ed0cf2e68ac7b8f6f48599479618d6c938bc3196349aa1f006c1f7b98b0954aeffffffff021b511a00000000001976a914c0f8e89c6661f7ec4d7149a86a09dc0fb0ec199788ac06ff6a160000000017a91469f376b16f4fb77707576de9ca16ee411efe5cca8700000000",
    "size": 8812,
    "time": 1523884051,
    "valueOut": 3.77835553,
    "vin": [
        {
            "addr": "3BMEXqUSEWa7oKH8ae5ytzXfAiyiiZz2Zi",
            "utxo": [
                {
                    "choosen": 1,
                    "confirmations": 959,
                    "scriptPubKey": "a91469f376b16f4fb77707576de9ca16ee411efe5cca87",
                    "txid": "9ca147c5bab111795a43b063e70fdecb9affc2e859421d604e4be24ff711aed6",
                    "type": "scripthash",
                    "value": 149950000,
                    "vout": 4
                },
                {
                    "choosen": 1,
                    "confirmations": 920,
                    "scriptPubKey": "a91469f376b16f4fb77707576de9ca16ee411efe5cca87",
                    "txid": "badd7890aff4a357b1391b1e3ffcc45154eeaf2ccee655868e45d2c7e5042554",
                    "type": "scripthash",
                    "value": 99950000,
                    "vout": 1
                },
                {
                    "choosen": 1,
                    "confirmations": 918,
                    "scriptPubKey": "a91469f376b16f4fb77707576de9ca16ee411efe5cca87",
                    "txid": "fd14b8e7d479851d5fec108b4bcf8fe669fd3360d155b8a2393195fe4982e3f0",
                    "type": "scripthash",
                    "value": 86138734,
                    "vout": 5
                },
                {
                    "choosen": 1,
                    "confirmations": 625,
                    "scriptPubKey": "a91469f376b16f4fb77707576de9ca16ee411efe5cca87",
                    "txid": "8c3cf07edb5b59cc1b0612028115ab7880d4bf9c0b829dad16ba02c32b850c5f",
                    "type": "scripthash",
                    "value": 41896819,
                    "vout": 4
                },
                {
                    "choosen": 0,
                    "confirmations": 0,
                    "scriptPubKey": "a91469f376b16f4fb77707576de9ca16ee411efe5cca87",
                    "txid": "ef68770d86611967dd229d9c706c1e7dddae6fb40197dd4f35c60ac1c4185af4",
                    "type": "scripthash",
                    "value": 376110854,
                    "vout": 1
                }
            ]
        }
    ],
    "vout": [
        {
            "n": 0,
            "scriptPubKey": {
                "addresses": [
                    "1JbLvJnivpXPTWaYXaeWzEgXx49zu899fy"
                ],
                "asm": "OP_DUP OP_HASH160 c0f8e89c6661f7ec4d7149a86a09dc0fb0ec1997 OP_EQUALVERIFY OP_CHECKSIG",
                "hex": "76a914c0f8e89c6661f7ec4d7149a86a09dc0fb0ec199788ac",
                "type": "pubkeyhash"
            },
            "spentHeight": null,
            "spentIndex": null,
            "spentTxId": null,
            "value": "0.01724699",
            "valueSat": 1724699
        },
        {
            "n": 1,
            "scriptPubKey": {
                "addresses": [
                    "3BMEXqUSEWa7oKH8ae5ytzXfAiyiiZz2Zi"
                ],
                "asm": "OP_HASH160 69f376b16f4fb77707576de9ca16ee411efe5cca OP_EQUAL",
                "hex": "a91469f376b16f4fb77707576de9ca16ee411efe5cca87",
                "type": "scripthash"
            },
            "spentHeight": null,
            "spentIndex": null,
            "spentTxId": null,
            "value": "3.76110854",
            "valueSat": 376110854
        }
    ]
}