{
    "_id": {
        "$oid": "5ad4a0214c372215dd13d682"
    },
    "fee": 110000,
    "id": "5b75e0c4ce961142c267055750d47b0e05545022cd30d23797b654bffc0fd3dd",
    "raw": "0200000005d0ca46d628fac567638ecdd455e3cc0cdc36783003afcf23811807e24a25b0f305000000fde80100473044022006c2fd9568dd151e3037f9f603dea1ec6191d28123c6a300e5505c30bcf5e07a022073ee203e76d94cb7bdabedbc9fea0d5c109df2e8673ab8a51280d616df22b69c01483045022100e434dc1d55d0c84d5044cb2017a25a785c93b171547c1f8bd9f9cfeebf364c08022017746471d268a52cc9c32fddd79138944acf996d2f0895e7b32172ee52c6da0f01473044022023992452772b24a09fc9cb45500aab6021adcc1dc120a38190b81ffc70d13c8d02201a276cb008842e88f553229e0e4fa6d66a1c0346e75fa513eabe890015ec3c93014d0b01534104220936c3245597b1513a9a7fe96d96facf1a840ee21432a1b73c2cf42c1810284dd730f21ded9d818b84402863a2b5cd1afe3a3d13719d524482592fb23c88a3410472225d3abc8665cf01f703a270ee65be5421c6a495ce34830061eb0690ec27dfd1194e27b6b0b659418d9f91baec18923078aac18dc19699aae82583561fefe54104a24db5c0e8ed34da1fd3b6f9f797244981b928a8750c8f11f9252041daad7b2d95309074fed791af77dc85abdd8bb2774ed8d53379d28cd49f251b9c08cab7fc4104d68e8af3a44365a385b1bf0451fb738ee111bc2a3445ad4615f3f1262cf2168ed78dfa75d3f48331f9d4d9fb47d34f37e7cd25b86abbad99dc54746fe258c6ba54aeffffffff80667124e0b01b980d4d4e4de4e28dc8c76fe3d7907dcd6ed16ec2392955baf201000000fde90100483045022100e988fd18cde274bc53458cef9382fad08b70f18de0af784b112ef219792bc6740220035c4ccbeb65f366cbce7f14c0ea8ebf912b36e8aa44d3470923bf5f4297932701483045022100996bb109d4f9d949de8acc0f80c43a18771cc779bf86761f6b09b828bf67c61802204e16fa4a68dc6849167c39895d38d01becadac1671a8c4f1886e47b14d0dbdbd01473044022074e557ed0c43ec763467286c55f90904cf220e16e71290d46f4dd891bbdc6912022077203d58fd8db73d8b3a9a696627e4efe170fe6586b5827fe5ca54a2f51e9247014d0b01534104220936c3245597b1513a9a7fe96d96facf1a840ee21432a1b73c2cf42c1810284dd730f21ded9d818b84402863a2b5cd1afe3a3d13719d524482592fb23c88a3410472225d3abc8665cf01f703a270ee65be5421c6a495ce34830061eb0690ec27dfd1194e27b6b0b659418d9f91baec18923078aac18dc19699aae82583561fefe54104a24db5c0e8ed34da1fd3b6f9f797244981b928a8750c8f11f9252041daad7b2d95309074fed791af77dc85abdd8bb2774ed8d53379d28cd49f251b9c08cab7fc4104d68e8af3a44365a385b1bf0451fb738ee111bc2a3445ad4615f3f1262cf2168ed78dfa75d3f48331f9d4d9fb47d34f37e7cd25b86abbad99dc54746fe258c6ba54aeffffffff4b312f669d00ac60d19237f342e5da0d64114b1625ae461a0d82533b17a9e12800000000fde901004830450221008b05487e8fe366210bd6bb04afa393cba6a9d3946a90ffed6b04cfc7c5c528b40220112c316597cbd986e49f93551fa4a111223db33fe071ebce2223d29d41e3c17401483045022100ccdc098494513b59b04dd753e40251a7e6a177cdffa2682758ab0ec799f9fc0d02200bda4878ec6dc05e331a9096c39ca0ccbf243cbf83047a1a237f12ac442c01cf01473044022072697ba5bedc68ebbaa1d72ad1c4175ae322c28cb7e5dae8cee8c0a32193b31302202084397feb0d3a754b3707a4eefcaa4396a42303b3bf54dd7f01653ce3189e5b014d0b01534104220936c3245597b1513a9a7fe96d96facf1a840ee21432a1b73c2cf42c1810284dd730f21ded9d818b84402863a2b5cd1afe3a3d13719d524482592fb23c88a3410472225d3abc8665cf01f703a270ee65be5421c6a495ce34830061eb0690ec27dfd1194e27b6b0b659418d9f91baec18923078aac18dc19699aae82583561fefe54104a24db5c0e8ed34da1fd3b6f9f797244981b928a8750c8f11f9252041daad7b2d95309074fed791af77dc85abdd8bb2774ed8d53379d28cd49f251b9c08cab7fc4104d68e8af3a44365a385b1bf0451fb738ee111bc2a3445ad4615f3f1262cf2168ed78dfa75d3f48331f9d4d9fb47d34f37e7cd25b86abbad99dc54746fe258c6ba54aeffffffff4c7714a08245e073bd2e6f22a3b505912af14e9077d5aa8bb0fccc71b8486b5802000000fde7010047304402207bb37dc981f972453c74e96dbcf2351c379c527531f52ad5000083f31dcc31f202206d7bb017a1ee0468b263517f8831135b2aad7fe231730bedf3599e8dc679528501473044022055dd4eeeb89310b7da0c9b0cb14f90477ec0b2752ec9b90f8b1942e3cbbf4f6602202e891778d86a45b1217cb3420d8df8f5983542bf4f869c2ed9489e09c9bdb4400147304402205818bb9aa4ec5257c9a3de9c45de2ee6c9b57c512a1b4a3c934f1f9bccd7ed770220141e0de244b252045c33b306da85520807ce323749e6f3bbe8297fcdbf4d9cef014d0b01534104220936c3245597b1513a9a7fe96d96facf1a840ee21432a1b73c2cf42c1810284dd730f21ded9d818b84402863a2b5cd1afe3a3d13719d524482592fb23c88a3410472225d3abc8665cf01f703a270ee65be5421c6a495ce34830061eb0690ec27dfd1194e27b6b0b659418d9f91baec18923078aac18dc19699aae82583561fefe54104a24db5c0e8ed34da1fd3b6f9f797244981b928a8750c8f11f9252041daad7b2d95309074fed791af77dc85abdd8bb2774ed8d53379d28cd49f251b9c08cab7fc4104d68e8af3a44365a385b1bf0451fb738ee111bc2a3445ad4615f3f1262cf2168ed78dfa75d3f48331f9d4d9fb47d34f37e7cd25b86abbad99dc54746fe258c6ba54aeffffffffd0ca46d628fac567638ecdd455e3cc0cdc36783003afcf23811807e24a25b0f302000000fdea010048304502210097d41d2a43fd65276e1b312e5afe7e42b7dfec660d4c8874c91494f4b16f0175022003601d0aaf72121db5864a23cd05e808e4978973a21d28177554dfd5ed07d4ec01483045022100e4e979854e68a7b0c0597f0418d97cd683a4b4f254812126b16d7a7ab37c4e70022007986afda0ca67024d17031251844be65a6a834611d68fa9c5570d01de56eeb7014830450221008cf7b0a24c7183bb6c0e595b990f49f024691f1b68386c395264bf16d6a1b02c02207e91b9e1b6f9702178ae26b4ed81e2b42fdfd90df8e49adcc05e74b4148402a1014d0b01534104220936c3245597b1513a9a7fe96d96facf1a840ee21432a1b73c2cf42c1810284dd730f21ded9d818b84402863a2b5cd1afe3a3d13719d524482592fb23c88a3410472225d3abc8665cf01f703a270ee65be5421c6a495ce34830061eb0690ec27dfd1194e27b6b0b659418d9f91baec18923078aac18dc19699aae82583561fefe54104a24db5c0e8ed34da1fd3b6f9f797244981b928a8750c8f11f9252041daad7b2d95309074fed791af77dc85abdd8bb2774ed8d53379d28cd49f251b9c08cab7fc4104d68e8af3a44365a385b1bf0451fb738ee111bc2a3445ad4615f3f1262cf2168ed78dfa75d3f48331f9d4d9fb47d34f37e7cd25b86abbad99dc54746fe258c6ba54aeffffffff02809698000000000017a91469f3772acad535d071977e1b5c1c236a785fe87e872d7800000000000017a91469f376164357455060290f58abdcbce01358ba258700000000",
    "size": 10928,
    "time": 1523884060,
    "valueOut": 0.10030765,
    "vin": [
        {
            "addr": "3BMEXfw1mzWA9dcnjdcg5Tx8Dfb8v7V4P6",
            "utxo": [
                {
                    "choosen": 1,
                    "confirmations": 74,
                    "scriptPubKey": "a91469f376164357455060290f58abdcbce01358ba2587",
                    "txid": "f3b0254ae207188123cfaf03307836dc0ccce355d4cd8e6367c5fa28d646cad0",
                    "type": "scripthash",
                    "value": 4400000,
                    "vout": 5
                },
                {
                    "choosen": 1,
                    "confirmations": 6840,
                    "scriptPubKey": "a91469f376164357455060290f58abdcbce01358ba2587",
                    "txid": "f2ba552939c26ed16ecd7d90d7e36fc7c88de2e44d4e4d0d981bb0e024716680",
                    "type": "scripthash",
                    "value": 2320765,
                    "vout": 1
                },
                {
                    "choosen": 1,
                    "confirmations": 3160,
                    "scriptPubKey": "a91469f376164357455060290f58abdcbce01358ba2587",
                    "txid": "28e1a9173b53820d1a46ae25164b11640ddae542f33792d160ac009d662f314b",
                    "type": "scripthash",
                    "value": 1960000,
                    "vout": 0
                },
                {
                    "choosen": 1,
                    "confirmations": 5046,
                    "scriptPubKey": "a91469f376164357455060290f58abdcbce01358ba2587",
                    "txid": "586b48b871ccfcb08baad577904ef12a9105b5a3226f2ebd73e04582a014774c",
                    "type": "scripthash",
                    "value": 1000000,
                    "vout": 2
                },
                {
                    "choosen": 1,
                    "confirmations": 74,
                    "scriptPubKey": "a91469f376164357455060290f58abdcbce01358ba2587",
                    "txid": "f3b0254ae207188123cfaf03307836dc0ccce355d4cd8e6367c5fa28d646cad0",
                    "type": "scripthash",
                    "value": 460000,
                    "vout": 2
                },
                {
                    "choosen": 0,
                    "confirmations": 0,
                    "scriptPubKey": "a91469f376164357455060290f58abdcbce01358ba2587",
                    "txid": "5b75e0c4ce961142c267055750d47b0e05545022cd30d23797b654bffc0fd3dd",
                    "type": "scripthash",
                    "value": 30765,
                    "vout": 1
                }
            ]
        }
    ],
    "vout": [
        {
            "n": 0,
            "scriptPubKey": {
                "addresses": [
                    "3BMEXxwFxP52JT54CzmpYZ96GsDXa2gbSe"
                ],
                "asm": "OP_HASH160 69f3772acad535d071977e1b5c1c236a785fe87e OP_EQUAL",
                "hex": "a91469f3772acad535d071977e1b5c1c236a785fe87e87",
                "type": "scripthash"
            },
            "spentHeight": null,
            "spentIndex": null,
            "spentTxId": null,
            "value": "0.10000000",
            "valueSat": 10000000
        },
        {
            "n": 1,
            "scriptPubKey": {
                "addresses": [
                    "3BMEXfw1mzWA9dcnjdcg5Tx8Dfb8v7V4P6"
                ],
                "asm": "OP_HASH160 69f376164357455060290f58abdcbce01358ba25 OP_EQUAL",
                "hex": "a91469f376164357455060290f58abdcbce01358ba2587",
                "type": "scripthash"
            },
            "spentHeight": null,
            "spentIndex": null,
            "spentTxId": null,
            "value": "0.00030765",
            "valueSat": 30765
        }
    ]
}