{
    "_id": {
        "$oid": "5ad4a02d4c372215dd13d683"
    },
    "fee": 20000,
    "id": "da9db04ac70ea4d693e93fa15a7ceb3d4ba840cf699898f11f68427db25e3a61",
    "raw": "02000000041dc293fc8979fceeab760b0939c305e3afc843744c79c246f330b8a75034ab5501000000fde801004730440220314749f80b972bba22506cebc6e0285763c8bcd3e3f2360e9355e13578e344a50220518625200a1314c840391f457f8b0762ebf18a6cbf8f869317d5cbcb7b6191dc01473044022039fe733eb3b70e934cdd1bb42fe6aead10596cb133b1acc589f2a6fbfa9e42ef022033375a97d2d6f00da8f796bd13df4898aad647a96b97de4c77c8c7b0f3fb4c7601483045022100fd122b5b8d2517225eeb45cbd33273f12924783fde4f61062696c65a410abc4202205ae4910048bd2176869a789aa1f920ac5c8b0abed8d4e6dc657f7238129b8533014d0b01534104220936c3245597b1513a9a7fe96d96facf1a840ee21432a1b73c2cf42c1810284dd730f21ded9d818b84402863a2b5cd1afe3a3d13719d524482592fb23c88a3410472225d3abc8665cf01f703a270ee65be5421c6a495ce34830061eb0690ec27dfd1194e27b6b0b659418d9f91baec18923078aac18dc19699aae82583561fefe54104a24db5c0e8ed34da1fd3b6f9f797244981b928a8750c8f11f9252041daad7b2d95309074fed791af77dc85abdd8bb2774ed8d53379d28cd49f251b9c08cab7fc4104df3f85c1d6231c64772e9f1aca033152d09d394143ed58b1111ed8a5720a39dd05228a437ff7cc17b4a791f3c794ba694824258eef410388bad0a2744a5b5da054aeffffffff6951b8271a56059abb06a8892ac06a54aea8a305f88d0cf727215afd8fbd92c807000000fde80100483045022100dfef322610235580852dd505cf0713d385aee9e757a0788d924ed01a1769c17d022027f9c115c7a290bf192f13bb70fb1d08110941b10185d92dcd4f8134b4129d46014730440220389b0339783518f50bbeb7befc719b53055b7db15b416213cf663aae520801ee02207ef7804a64bcf0e545cba7a05b622cd9825a2e758af648ab81d45444aa8e419a0147304402200a314b2da975f179135707377d34953f3c8257421dfdd681f5cd8d71c874b6f2022024fdf15fbfb7fa47ac51a45a561e3ec8efbf0dc6036aad09707ede4d5ec285af014d0b01534104220936c3245597b1513a9a7fe96d96facf1a840ee21432a1b73c2cf42c1810284dd730f21ded9d818b84402863a2b5cd1afe3a3d13719d524482592fb23c88a3410472225d3abc8665cf01f703a270ee65be5421c6a495ce34830061eb0690ec27dfd1194e27b6b0b659418d9f91baec18923078aac18dc19699aae82583561fefe54104a24db5c0e8ed34da1fd3b6f9f797244981b928a8750c8f11f9252041daad7b2d95309074fed791af77dc85abdd8bb2774ed8d53379d28cd49f251b9c08cab7fc4104df3f85c1d6231c64772e9f1aca033152d09d394143ed58b1111ed8a5720a39dd05228a437ff7cc17b4a791f3c794ba694824258eef410388bad0a2744a5b5da054aeffffffff8bd9b2e1dab8096b2ade99f00a11f206f6c78e44a411a40c929f354e73e0c89a11000000fde8010047304402203d608045137a6f7b12715f9732d6e8a102600b259d46b50a722ad287bc35cbcf0220388c1fbe882d9f819041d604ba0f8d138534637e7a6843357fd6786b4dd020ac0147304402207f043b35f9f125f8f739c6b357433c6edb9b2355abdf58e9fe7c61e94d36b3c6022037f9cbaeb965cadac8cccd8fcbebf699e72f4a529f6387a055be91e0d7089066014830450221009ece3866e355aad41fb8541b4a640a2f5e6056d49e9f14af5ee12d0eef839a73022016cce7fa163e236fbcfb69468823c9e827619c56203e478f53ef190ba668127f014d0b01534104220936c3245597b1513a9a7fe96d96facf1a840ee21432a1b73c2cf42c1810284dd730f21ded9d818b84402863a2b5cd1afe3a3d13719d524482592fb23c88a3410472225d3abc8665cf01f703a270ee65be5421c6a495ce34830061eb0690ec27dfd1194e27b6b0b659418d9f91baec18923078aac18dc19699aae82583561fefe54104a24db5c0e8ed34da1fd3b6f9f797244981b928a8750c8f11f9252041daad7b2d95309074fed791af77dc85abdd8bb2774ed8d53379d28cd49f251b9c08cab7fc4104df3f85c1d6231c64772e9f1aca033152d09d394143ed58b1111ed8a5720a39dd05228a437ff7cc17b4a791f3c794ba694824258eef410388bad0a2744a5b5da054aeffffffffe4bcadf9ea8595b35637dda42e32254496e962e688fe81c22d9ae65730c472b40a000000fde90100483045022100d00cc1bd4ea778cb983ab11fb286b142969cfde9f7f5f14b1044f7f70f8395ce02205899c6141252dac54c23f111f22ca8b3849ada201a667a084efb53c92e6f0a8a01473044022067092331f27746ca0cb6ace38afaf80814be79922f2a07cc5539df9cb0fc0d4f02201139c86ec5c2e9defb71a11f7420bc6f2f3e97cbbdaff639d15cd050bfb7280601483045022100a205c90e6210438cc4cbd77ac75027ee9d302a909c87f3e010ffd679fb90a9fb022038adc508102cfff1d26e3073624d1a9477c1f98e799120d94768661f8d176d85014d0b01534104220936c3245597b1513a9a7fe96d96facf1a840ee21432a1b73c2cf42c1810284dd730f21ded9d818b84402863a2b5cd1afe3a3d13719d524482592fb23c88a3410472225d3abc8665cf01f703a270ee65be5421c6a495ce34830061eb0690ec27dfd1194e27b6b0b659418d9f91baec18923078aac18dc19699aae82583561fefe54104a24db5c0e8ed34da1fd3b6f9f797244981b928a8750c8f11f9252041daad7b2d95309074fed791af77dc85abdd8bb2774ed8d53379d28cd49f251b9c08cab7fc4104df3f85c1d6231c64772e9f1aca033152d09d394143ed58b1111ed8a5720a39dd05228a437ff7cc17b4a791f3c794ba694824258eef410388bad0a2744a5b5da054aeffffffff0240420f000000000017a91469f374de168875b2d9f51f052cbe6b5012f5ee02873d757a140000000017a91469f3769c0588916e906c4ab64a51bab5dd40eaf28700000000",
    "size": 8796,
    "time": 1523884072,
    "valueOut": 3.44569725,
    "vin": [
        {
            "addr": "3BMEXpA4kYxqqxBLDh8xhg941YhqGZALB6",
            "utxo": [
                {
                    "choosen": 1,
                    "confirmations": 6202,
                    "scriptPubKey": "a91469f3769c0588916e906c4ab64a51bab5dd40eaf287",
                    "txid": "55ab3450a7b830f346c2794c7443c8afe305c339090b76abeefc7989fc93c21d",
                    "type": "scripthash",
                    "value": 126880819,
                    "vout": 1
                },
                {
                    "choosen": 1,
                    "confirmations": 4044,
                    "scriptPubKey": "a91469f3769c0588916e906c4ab64a51bab5dd40eaf287",
                    "txid": "c892bd8ffd5a2127f70c8df805a3a8ae546ac02a89a806bb9a05561a27b85169",
                    "type": "scripthash",
                    "value": 109950000,
                    "vout": 7
                },
                {
                    "choosen": 1,
                    "confirmations": 3102,
                    "scriptPubKey": "a91469f3769c0588916e906c4ab64a51bab5dd40eaf287",
                    "txid": "9ac8e0734e359f920ca411a4448ec7f606f2110af099de2a6b09b8dae1b2d98b",
                    "type": "scripthash",
                    "value": 97801835,
                    "vout": 17
                },
                {
                    "choosen": 1,
                    "confirmations": 5721,
                    "scriptPubKey": "a91469f3769c0588916e906c4ab64a51bab5dd40eaf287",
                    "txid": "b472c43057e69a2dc281fe88e662e9964425322ea4dd3756b39585eaf9adbce4",
                    "type": "scripthash",
                    "value": 9957071,
                    "vout": 10
                },
                {
                    "choosen": 0,
                    "confirmations": 0,
                    "scriptPubKey": "a91469f3769c0588916e906c4ab64a51bab5dd40eaf287",
                    "txid": "da9db04ac70ea4d693e93fa15a7ceb3d4ba840cf699898f11f68427db25e3a61",
                    "type": "scripthash",
                    "value": 343569725,
                    "vout": 1
                }
            ]
        }
    ],
    "vout": [
        {
            "n": 0,
            "scriptPubKey": {
                "addresses": [
                    "3BMEXLjdzxa96j5dTnnyp2dy1pzr9rBYkp"
                ],
                "asm": "OP_HASH160 69f374de168875b2d9f51f052cbe6b5012f5ee02 OP_EQUAL",
                "hex": "a91469f374de168875b2d9f51f052cbe6b5012f5ee0287",
                "type": "scripthash"
            },
            "spentHeight": null,
            "spentIndex": null,
            "spentTxId": null,
            "value": "0.01000000",
            "valueSat": 1000000
        },
        {
            "n": 1,
            "scriptPubKey": {
                "addresses": [
                    "3BMEXpA4kYxqqxBLDh8xhg941YhqGZALB6"
                ],
                "asm": "OP_HASH160 69f3769c0588916e906c4ab64a51bab5dd40eaf2 OP_EQUAL",
                "hex": "a91469f3769c0588916e906c4ab64a51bab5dd40eaf287",
                "type": "scripthash"
            },
            "spentHeight": null,
            "spentIndex": null,
            "spentTxId": null,
            "value": "3.43569725",
            "valueSat": 343569725
        }
    ]
}