{
    "_id": {
        "$oid": "5ad4a2ec4c372215dd13d686"
    },
    "fee": 11220,
    "id": "489223b4f512aa2a0909c6c7843c70d10d4beb43c22bff9ee067a79510d374a3",
    "raw": "0100000002da70aa28891686b571c4fd8589a83d4ef0a3c69ff556f513b8aa919b3ea2074b110000006b483045022100b1968ecf4b8c0da77742cdecd56f12650efd138d0a838e7df7b5919da67a634e02201c82971dccad9a26bbc45e4b2eb9435c12238e889fc4b4a535e4d0417481b0e2012102362ba4998a9fd77187085cce8a76eb0acbd14e9d94d2d70de3390f3d6b5aa30fffffffff5c21f0bbeea1d4906f05a3d4f2ca3aeb88ff65e1959aa619aebefc2efd45bc3b0c0000006b483045022100ddc1866a0f28643d146803880bbcc9f089799ef16157a8563e5c71044ff43b1a022054b435115f6b7cc9b664b8fc3f058b5043c46815994c41aafb9b9bcf346c7aee012102362ba4998a9fd77187085cce8a76eb0acbd14e9d94d2d70de3390f3d6b5aa30fffffffff02001bb700000000001976a914ddde4a5191abb00da12064c30a1cd289027c31a088ac50f15b02000000001976a9148a85c31e756b60dd4fdb0a6535307eef646c533e88ac00000000",
    "size": 1496,
    "time": 1523884775,
    "valueOut": 0.51579984,
    "vin": [
        {
            "addr": "1BMdipjo8TKP79FKxuPDnjTMXMscBFGz7P",
            "utxo": [
                {
                    "choosen": 1,
                    "confirmations": 3795,
                    "scriptPubKey": "76a91471983af4856ca7de22d0ded05a64c8c3392f041688ac",
                    "txid": "4b07a23e9b91aab813f556f59fc6a3f04e3da88985fdc471b586168928aa70da",
                    "type": "pubkeyhash",
                    "value": 4900000,
                    "vout": 17
                },
                {
                    "choosen": 1,
                    "confirmations": 2644,
                    "scriptPubKey": "76a91471983af4856ca7de22d0ded05a64c8c3392f041688ac",
                    "txid": "3bbc45fd2efcbeae19a69a95e165ff88eb3acaf2d4a3056f90d4a1eebbf0215c",
                    "type": "pubkeyhash",
                    "value": 46691204,
                    "vout": 12
                },
                {
                    "choosen": 0,
                    "confirmations": 108,
                    "scriptPubKey": "76a91471983af4856ca7de22d0ded05a64c8c3392f041688ac",
                    "txid": "9f5e82639d280eb65c5014efa7b6c3dfed50ed16755bba576ceea29af1c547f5",
                    "type": "pubkeyhash",
                    "value": 19950000,
                    "vout": 15
                },
                {
                    "choosen": 0,
                    "confirmations": 176,
                    "scriptPubKey": "76a91471983af4856ca7de22d0ded05a64c8c3392f041688ac",
                    "txid": "fb5a86fc884ccfcbc59639ef1bc04397478a11845bb63352abc407fe1509741d",
                    "type": "pubkeyhash",
                    "value": 20950000,
                    "vout": 4
                }
            ]
        }
    ],
    "vout": [
        {
            "n": 0,
            "scriptPubKey": {
                "addresses": [
                    "1ME8dPxacZsdLX9A4kMugYqTp9EDsQTw7v"
                ],
                "asm": "OP_DUP OP_HASH160 ddde4a5191abb00da12064c30a1cd289027c31a0 OP_EQUALVERIFY OP_CHECKSIG",
                "hex": "76a914ddde4a5191abb00da12064c30a1cd289027c31a088ac",
                "type": "pubkeyhash"
            },
            "spentHeight": null,
            "spentIndex": null,
            "spentTxId": null,
            "value": "0.12000000",
            "valueSat": 12000000
        },
        {
            "n": 1,
            "scriptPubKey": {
                "addresses": [
                    "1DdSVS4PfAVY6gyccLb86q8Q8AGmJyY31f"
                ],
                "asm": "OP_DUP OP_HASH160 8a85c31e756b60dd4fdb0a6535307eef646c533e OP_EQUALVERIFY OP_CHECKSIG",
                "hex": "76a9148a85c31e756b60dd4fdb0a6535307eef646c533e88ac",
                "type": "pubkeyhash"
            },
            "spentHeight": null,
            "spentIndex": null,
            "spentTxId": null,
            "value": "0.39579984",
            "valueSat": 39579984
        }
    ]
}