{
    "_id": {
        "$oid": "5ad4a3084c372215dd13d687"
    },
    "fee": 2610,
    "id": "8b3a799194b9f34ff9f274f89f99cf998f9f913d067cee5dc721cd3e5c79a30e",
    "raw": "0100000003eb026b57f4640a25d075d2c3e3d5d713d8c996e0ce54c07ad17c17d6edd00e4b0b0000006a4730440220757cf625e8b3f669009b2893133a2b388bc36026a3aa1c0083a44ff82235784b022016e1883a8fae6931e36d2a0fab44897a1cf0802f2cb06ab6e7f05f8c66faae0801210268629a0c2c5b6848c2895b6adc85fee488ada278574570952b49272d01402e9affffffffc099aa062c439346447491598a48905a21f5a2712e4118bb03c1d6a467291584e50000006b483045022100db8a8d1e968fee3797368fde3cd83c6cf021919620aaba131eedcab47cf5dab4022040613894e38ea74645cde89b1c696d03807e1848068ba7753b725061ce4fbae601210268629a0c2c5b6848c2895b6adc85fee488ada278574570952b49272d01402e9affffffff2e9486a716f74dc91b488b1d025c76a1e52f6d22838fc4c7896c75f32d1761d83a0000006a47304402200592bdcbd2758cef902aa684ba686f1454f49f0f719ae2868c32a5d18cd0ecbe0220556018571a761a7f7049a5f7353666050efa9e1422e8f9e26c52a58dd59b88d601210268629a0c2c5b6848c2895b6adc85fee488ada278574570952b49272d01402e9affffffff013b8815000000000017a914142adbae04e0d79b918add1ba0f3182c81f1ac008700000000",
    "size": 1936,
    "time": 1523884803,
    "valueOut": 0.01411131,
    "vin": [
        {
            "addr": "18aRLovrPUzgFaSjQaEakQXynQ34gaXaHf",
            "utxo": [
                {
                    "choosen": 1,
                    "confirmations": 106,
                    "scriptPubKey": "76a914531aed3034a50a2ed629b5cd0bcc8dbcd5e627ab88ac",
                    "txid": "4b0ed0edd6177cd17ac054cee096c9d813d7d5e3c3d275d0250a64f4576b02eb",
                    "type": "pubkeyhash",
                    "value": 453508,
                    "vout": 11
                },
                {
                    "choosen": 1,
                    "confirmations": 99,
                    "scriptPubKey": "76a914531aed3034a50a2ed629b5cd0bcc8dbcd5e627ab88ac",
                    "txid": "84152967a4d6c103bb18412e71a2f5215a90488a599174444693432c06aa99c0",
                    "type": "pubkeyhash",
                    "value": 110100,
                    "vout": 229
                },
                {
                    "choosen": 1,
                    "confirmations": 24,
                    "scriptPubKey": "76a914531aed3034a50a2ed629b5cd0bcc8dbcd5e627ab88ac",
                    "txid": "d861172df3756c89c7c48f83226d2fe5a1765c021d8b481bc94df716a786942e",
                    "type": "pubkeyhash",
                    "value": 850133,
                    "vout": 58
                }
            ]
        }
    ],
    "vout": [
        {
            "n": 0,
            "scriptPubKey": {
                "addresses": [
                    "33XenDRc7NmPcnuF8YApqoBAAXzxLmPpCu"
                ],
                "asm": "OP_HASH160 142adbae04e0d79b918add1ba0f3182c81f1ac00 OP_EQUAL",
                "hex": "a914142adbae04e0d79b918add1ba0f3182c81f1ac0087",
                "type": "scripthash"
            },
            "spentHeight": null,
            "spentIndex": null,
            "spentTxId": null,
            "value": "0.01411131",
            "valueSat": 1411131
        }
    ]
}