{
    "_id": {
        "$oid": "5ad4a4934c372215dd13d688"
    },
    "fee": 5571,
    "id": "d321b2f4ca2a7613aed8103edc63460da05b691580c41ef5a6c80220089a9ddc",
    "raw": "010000000782f31bf5129b6c8d4be51af037f12aaed689c463bbe5c817a0cc4074fce855055b0000006a4730440220555115805d390534acbb9ab2e3633de657e40734eb57940c86d5744870bfbc1a022020ebf23d30bf67df0e4f6ef530e10e0e1c92241ff59ef8d235002207ef82fabb01210368a5d585794b03c27392da03505c3d6c8b33bfc7bfd9b367b1cc2c3e5b5bb87fffffffff83e5bf607e8b6aeb83dd0e91f37125a39bc650dc5633ade6ae8909c22ed3d11e570000006b483045022100b8d2be0f05b36d69707a804aa3d42ecff1df843c1f57097095c87e05f3574a5b022006362fe3c03d14eae31b80a76b6e4433a9053ca3ade52c947b671233e287c2f601210368a5d585794b03c27392da03505c3d6c8b33bfc7bfd9b367b1cc2c3e5b5bb87fffffffff3f44f3f5061e81a85f2a5e170d218ab842afe1a8cbd8c61fb6bf0bbb5195242e5d0000006b483045022100c8032e46c5b9f45af19c34777341af83b848d1c6f75d680b820ad2219c75d04a02202d833f0f1ba133e262342b1e4066074117763f526a60edd09deed7d258a3c21101210368a5d585794b03c27392da03505c3d6c8b33bfc7bfd9b367b1cc2c3e5b5bb87ffffffffff4611fef33c89d5d89f49af6617a6da9ff5ccc2497be5a685eedbc5550da902f5e0000006b483045022100fa284c897231c247332ee70fdee1081fbc7f4c363d3704703f050934ab51a434022061ea949dcf8efe955cc56da3ddd7c33ea3d71e032199a86c508725c250dee47201210368a5d585794b03c27392da03505c3d6c8b33bfc7bfd9b367b1cc2c3e5b5bb87fffffffffedbe1868e00f518184628c85e3b23aec66d2a06fe38bb6328c26ad0f7750a8ab590000006a47304402200b87cb95b8cf488897bb4d7883772ecd9295338ab54464e901dc56a5af38392f02204d7000e980386eb0047820ab781a8deeb578bd25721098daa3abb9c3058e0a1c01210368a5d585794b03c27392da03505c3d6c8b33bfc7bfd9b367b1cc2c3e5b5bb87fffffffff9b0a02e16ca99a186305caa3ea91cb0d889bce95f9202dd45f7d05e02b7a65e25e0000006b483045022100f9715a6f0a54ed72201dabb40b9c2bbad19639cfe0a4884b8bd4091e590e511c0220084c1684601ef450f4a9920136f300198955094d9ef6f6caa6402d768c84201401210368a5d585794b03c27392da03505c3d6c8b33bfc7bfd9b367b1cc2c3e5b5bb87fffffffff6f919e0e887a22e2750b063cef398029d3322c23232bf63b1c019fd303e67af1560000006b483045022100d26d56a6d9ef559eed67b2752237647dcb994e4b3be2f2b8de8986eb573945570220028a8436db2411aa0ca29b61dfa7712b127063e3db2a1ee55d1cead262d94b8901210368a5d585794b03c27392da03505c3d6c8b33bfc7bfd9b367b1cc2c3e5b5bb87fffffffff0202a00000000000001976a914b9189557b29c818185df8e80dae8c599fbb6605788ac40420f00000000001976a9142940b654f9f1029c24b5ea1d667b86afa9917fed88ac00000000",
    "size": 4448,
    "time": 1523885197,
    "valueOut": 0.01040962,
    "vin": [
        {
            "addr": "1HojTUuZ6Ah3aYXPt1SJf13Yvi4pN6Tbho",
            "utxo": [
                {
                    "choosen": 1,
                    "confirmations": 347,
                    "scriptPubKey": "76a914b85896765f94c806fe4f036fc9e3325b4cd4ac5788ac",
                    "txid": "0555e8fc7440cca017c8e5bb63c489d6ae2af137f01ae54b8d6c9b12f51bf382",
                    "type": "pubkeyhash",
                    "value": 167372,
                    "vout": 91
                },
                {
                    "choosen": 1,
                    "confirmations": 888,
                    "scriptPubKey": "76a914b85896765f94c806fe4f036fc9e3325b4cd4ac5788ac",
                    "txid": "1ed1d32ec20989aee6ad3356dc50c69ba32571f3910edd83eb6a8b7e60bfe583",
                    "type": "pubkeyhash",
                    "value": 157769,
                    "vout": 87
                },
                {
                    "choosen": 1,
                    "confirmations": 923,
                    "scriptPubKey": "76a914b85896765f94c806fe4f036fc9e3325b4cd4ac5788ac",
                    "txid": "2e249551bb0bbfb61fc6d8cba8e1af42b88a210d175e2a5fa8811e06f5f3443f",
                    "type": "pubkeyhash",
                    "value": 123284,
                    "vout": 93
                },
                {
                    "choosen": 1,
                    "confirmations": 749,
                    "scriptPubKey": "76a914b85896765f94c806fe4f036fc9e3325b4cd4ac5788ac",
                    "txid": "2f90da5055bced5e685abe9724cc5cffa96d7a61f69af4895d9dc833ef1f61f4",
                    "type": "pubkeyhash",
                    "value": 168051,
                    "vout": 94
                },
                {
                    "choosen": 1,
                    "confirmations": 191,
                    "scriptPubKey": "76a914b85896765f94c806fe4f036fc9e3325b4cd4ac5788ac",
                    "txid": "aba850770fad268c32b68be36fa0d266ec3ab2e3858c628481510fe06818beed",
                    "type": "pubkeyhash",
                    "value": 160259,
                    "vout": 89
                },
                {
                    "choosen": 1,
                    "confirmations": 22,
                    "scriptPubKey": "76a914b85896765f94c806fe4f036fc9e3325b4cd4ac5788ac",
                    "txid": "e2657a2be0057d5fd42d20f995ce9b880dcb91eaa3ca0563189aa96ce1020a9b",
                    "type": "pubkeyhash",
                    "value": 132053,
                    "vout": 94
                },
                {
                    "choosen": 1,
                    "confirmations": 362,
                    "scriptPubKey": "76a914b85896765f94c806fe4f036fc9e3325b4cd4ac5788ac",
                    "txid": "f17ae603d39f011c3bf62b23232c32d3298039ef3c060b75e2227a880e9e916f",
                    "type": "pubkeyhash",
                    "value": 137745,
                    "vout": 86
                }
            ]
        }
    ],
    "vout": [
        {
            "n": 0,
            "scriptPubKey": {
                "addresses": [
                    "1HshTa87N4UgrnMiCPJahUjP8o18t2AhkL"
                ],
                "asm": "OP_DUP OP_HASH160 b9189557b29c818185df8e80dae8c599fbb66057 OP_EQUALVERIFY OP_CHECKSIG",
                "hex": "76a914b9189557b29c818185df8e80dae8c599fbb6605788ac",
                "type": "pubkeyhash"
            },
            "spentHeight": null,
            "spentIndex": null,
            "spentTxId": null,
            "value": "0.00040962",
            "valueSat": 40962
        },
        {
            "n": 1,
            "scriptPubKey": {
                "addresses": [
                    "14m8E9hGKL5mzeSEdgTuqoWDqBDuDsNVCW"
                ],
                "asm": "OP_DUP OP_HASH160 2940b654f9f1029c24b5ea1d667b86afa9917fed OP_EQUALVERIFY OP_CHECKSIG",
                "hex": "76a9142940b654f9f1029c24b5ea1d667b86afa9917fed88ac",
                "type": "pubkeyhash"
            },
            "spentHeight": null,
            "spentIndex": null,
            "spentTxId": null,
            "value": "0.01000000",
            "valueSat": 1000000
        }
    ]
}