{
    "_id": {
        "$oid": "5ad4a74f4c372215dd13d68a"
    },
    "fee": 1419,
    "id": "3aa8d35539ebb4866f7e4cec6d1f3f7ffa116ad4c27560052ad7d9ab1825fb48",
    "raw": "01000000091203020a112b909f2f373f870c28eb9cade804f34b19f465fc11c6ecfef0c400010000006a4730440220191f93b5bdc66da135616639bc876ed1625f5510c054837330a625c75ca16bc60220709f1f30d6db62cc20f373fa45a3c2fd0a0cb238ea04d4fc10ccdff86fa848310121038edf49c48a96cb12166009f23d904f5b8de53b6e890e88aeae48fae3bf5c0aecfdffffff992b97edf180704c55ac9da5124b8b3a0bd1fb8b198ef989e034dec164a9720b000000006b4830450221008c4dd0949f709ecca8ffa914192e4cea7d19d127ec3c3fc7eb752f2a20164b95022007bf939323dcc744f817c42167930f07f1b2b8563b77d0b002cf3848d9b1e69e0121038edf49c48a96cb12166009f23d904f5b8de53b6e890e88aeae48fae3bf5c0aecfdffffff916d4846621e8f4bad931f3a8c2d83670755eab102f26712aaf6b267f4455f3c000000006a4730440220155bc6c15097d90154a94b9d95c960be7fad42ab45879554989e8a38138ca7e102205530aca8d840411500dfcbdf530218c79a859cd6d66f081ec086f4d8b13f5aae0121038edf49c48a96cb12166009f23d904f5b8de53b6e890e88aeae48fae3bf5c0aecfdffffffade8fa994639922a7de798d83d6fceb37503fd8c60fb7488e4ad979aaffd193d040000006b483045022100f24c2dfbdae30066f345ff1a17ec814e79c2ac973fcdd0c0b7a5f48214f2f4420220758260f677cc1382d77851b14e5870f6b713e1142c6294f93b5db61fd76228660121038edf49c48a96cb12166009f23d904f5b8de53b6e890e88aeae48fae3bf5c0aecfdffffff06ea483b52a27700703378d23856cd45fcd2184185921c74743325c350b3ac72050000006b483045022100a90388f17af55447cf751b0f12a045064a135f7612931d2478269fb511a34689022013c7402a2a4e18d721b2eb9b47439dc53191ddf6ef39e001f97e6c192b65eda80121038edf49c48a96cb12166009f23d904f5b8de53b6e890e88aeae48fae3bf5c0aecfdffffff8a0ed109e96178bad8a44600585c9bb440b08826e87827f4738943df2d8129bc000000006a47304402200af72617c818f5be13f859cc6c6e0d338729f8333319321c04d5523c6624b27502202fa85424793246718716f3cdf19422c1c9f29cb6d188cff214320dc3abc91e430121038edf49c48a96cb12166009f23d904f5b8de53b6e890e88aeae48fae3bf5c0aecfdffffffe6c639dba3a2c94d42473dae2ea943e5caf15842fd1ec4b0066ed6bb94ad94d5000000006a473044022020c91509278c9013bb3072aeae6e4f9ac3a031edf99195b0da21b3402b232c520220655cac33bc2f0ead17edf0a247a09551818a35f4ca8e675a07c389f14eb13f2a0121038edf49c48a96cb12166009f23d904f5b8de53b6e890e88aeae48fae3bf5c0aecfdffffff883485679d1ae62efe548ecbab09c5288a8531a7affce41fccc2cf636ccf7cdb010000006a47304402203cfb83ba1ec3bb0e6d57c543eaf101060c42ab480439ca7424ecc484f2f6493702203ab0e91519ead83e0ab64b7ccf0c83bb6f111d5588b5bf65e8280fa389d7f5840121038edf49c48a96cb12166009f23d904f5b8de53b6e890e88aeae48fae3bf5c0aecfdffffffaf39f84e5260ec4ca1b18b27e57557037b1fb58c8de05c86793d5191c3afa2f6000000006a473044022050522407fc5eb6a1ba4273f3bccc8fc0522a6f22440680baacb2c6f830de0dda022047eeb93dc6d0e0b6301ca1ff5ce8204b3c137490768aaa5bc9a804192c3fae140121038edf49c48a96cb12166009f23d904f5b8de53b6e890e88aeae48fae3bf5c0aecfdffffff0230560100000000001976a9147c70ea55c4c69277ba572b3d14633256122d750188ac00fd4314000000001976a91461c91a0119537ef954b38d9f6374f2a2ca67e0df88ac4ce90700",
    "size": 5616,
    "time": 1523885897,
    "valueOut": 3.400876,
    "vin": [
        {
            "addr": "1CLz4HW5Tf9g9Xkyq73EVD2xGpWeykxEFX",
            "utxo": [
                {
                    "choosen": 1,
                    "confirmations": 769,
                    "scriptPubKey": "76a9147c70ea55c4c69277ba572b3d14633256122d750188ac",
                    "txid": "00c4f0feecc611fc65f4194bf304e8ad9ceb280c873f372f9f902b110a020312",
                    "type": "pubkeyhash",
                    "value": 98400000,
                    "vout": 1
                },
                {
                    "choosen": 1,
                    "confirmations": 111,
                    "scriptPubKey": "76a9147c70ea55c4c69277ba572b3d14633256122d750188ac",
                    "txid": "0b72a964c1de34e089f98e198bfbd10b3a8b4b12a59dac554c7080f1ed972b99",
                    "type": "pubkeyhash",
                    "value": 7613900,
                    "vout": 0
                },
                {
                    "choosen": 1,
                    "confirmations": 5583,
                    "scriptPubKey": "76a9147c70ea55c4c69277ba572b3d14633256122d750188ac",
                    "txid": "3c5f45f467b2f6aa1267f202b1ea550767832d8c3a1f93ad4b8f1e6246486d91",
                    "type": "pubkeyhash",
                    "value": 357500,
                    "vout": 0
                },
                {
                    "choosen": 1,
                    "confirmations": 1093,
                    "scriptPubKey": "76a9147c70ea55c4c69277ba572b3d14633256122d750188ac",
                    "txid": "3d19fdaf9a97ade48874fb608cfd0375b3ce6f3dd898e77d2a92394699fae8ad",
                    "type": "pubkeyhash",
                    "value": 203553175,
                    "vout": 4
                },
                {
                    "choosen": 1,
                    "confirmations": 1846,
                    "scriptPubKey": "76a9147c70ea55c4c69277ba572b3d14633256122d750188ac",
                    "txid": "72acb350c3253374741c92854118d2fc45cd5638d27833700077a2523b48ea06",
                    "type": "pubkeyhash",
                    "value": 788189,
                    "vout": 5
                },
                {
                    "choosen": 1,
                    "confirmations": 9450,
                    "scriptPubKey": "76a9147c70ea55c4c69277ba572b3d14633256122d750188ac",
                    "txid": "bc29812ddf438973f42778e82688b040b49b5c580046a4d8ba7861e909d10e8a",
                    "type": "pubkeyhash",
                    "value": 315600,
                    "vout": 0
                },
                {
                    "choosen": 1,
                    "confirmations": 1418,
                    "scriptPubKey": "76a9147c70ea55c4c69277ba572b3d14633256122d750188ac",
                    "txid": "d594ad94bbd66e06b0c41efd4258f1cae543a92eae3d47424dc9a2a3db39c6e6",
                    "type": "pubkeyhash",
                    "value": 7918754,
                    "vout": 0
                },
                {
                    "choosen": 1,
                    "confirmations": 33,
                    "scriptPubKey": "76a9147c70ea55c4c69277ba572b3d14633256122d750188ac",
                    "txid": "db7ccf6c63cfc2cc1fe4fcafa731858a28c509abcb8e54fe2ee61a9d67853488",
                    "type": "pubkeyhash",
                    "value": 14502371,
                    "vout": 1
                },
                {
                    "choosen": 1,
                    "confirmations": 758,
                    "scriptPubKey": "76a9147c70ea55c4c69277ba572b3d14633256122d750188ac",
                    "txid": "f6a2afc391513d79865ce08d8cb51f7b035775e5278bb1a14cec60524ef839af",
                    "type": "pubkeyhash",
                    "value": 6639530,
                    "vout": 0
                },
                {
                    "choosen": 0,
                    "confirmations": 0,
                    "scriptPubKey": "76a9147c70ea55c4c69277ba572b3d14633256122d750188ac",
                    "txid": "3aa8d35539ebb4866f7e4cec6d1f3f7ffa116ad4c27560052ad7d9ab1825fb48",
                    "type": "pubkeyhash",
                    "value": 87600,
                    "vout": 0
                },
                {
                    "choosen": 0,
                    "confirmations": 0,
                    "scriptPubKey": "76a9147c70ea55c4c69277ba572b3d14633256122d750188ac",
                    "txid": "631393172ad3544724adfbe6b44d4986e6e1f0fab23356c795765e50c39c153b",
                    "type": "pubkeyhash",
                    "value": 989000,
                    "vout": 0
                }
            ]
        }
    ],
    "vout": [
        {
            "n": 0,
            "scriptPubKey": {
                "addresses": [
                    "1CLz4HW5Tf9g9Xkyq73EVD2xGpWeykxEFX"
                ],
                "asm": "OP_DUP OP_HASH160 7c70ea55c4c69277ba572b3d14633256122d7501 OP_EQUALVERIFY OP_CHECKSIG",
                "hex": "76a9147c70ea55c4c69277ba572b3d14633256122d750188ac",
                "type": "pubkeyhash"
            },
            "spentHeight": null,
            "spentIndex": null,
            "spentTxId": null,
            "value": "0.00087600",
            "valueSat": 87600
        },
        {
            "n": 1,
            "scriptPubKey": {
                "addresses": [
                    "19v3TPdm3HxeyZXhnrEkfiCLvJRLzfYeNW"
                ],
                "asm": "OP_DUP OP_HASH160 61c91a0119537ef954b38d9f6374f2a2ca67e0df OP_EQUALVERIFY OP_CHECKSIG",
                "hex": "76a91461c91a0119537ef954b38d9f6374f2a2ca67e0df88ac",
                "type": "pubkeyhash"
            },
            "spentHeight": null,
            "spentIndex": null,
            "spentTxId": null,
            "value": "3.40000000",
            "valueSat": 340000000
        }
    ]
}