{
    "_id": {
        "$oid": "5ad4aacf4c372215dd13d68d"
    },
    "fee": 50250,
    "id": "918d4830e709e969912369d1d67ee8e450f0eb8f598af18114f9372c3fa8fc89",
    "raw": "0100000003a3f699a2daccdf8db1ed4d989bfa4db44e15c0f85549d58f90ce2b45056f4412010000008b483045022100c4938c5fbfdb06044685dfde5b271a13b6c2f5573e9597d08a230bb86505ce9d02207849b1bb041990516a8ef4d5b69da1b52b00b0466b53d379d109aba3e827669f014104a7ea0a464eae3f792cfd586fce9288fd6ce8a3749e46199ac1b40f01977fce795d63644ad788f3df1627078364d8cba01177354a7a401b2caf822e42cc260a86ffffffff05150b0cee69b756dffc2559bd9243160d793911fe41ec9f311f33452d6f9c1d010000008b4830450221008caf83c52437074fd5330ab58d71508ff58194f662f7d031f4674661529ea23c022079505da33c063e416ddc39fa0699f5cb3626b0025e49a0542249cb66e5169ba6014104a7ea0a464eae3f792cfd586fce9288fd6ce8a3749e46199ac1b40f01977fce795d63644ad788f3df1627078364d8cba01177354a7a401b2caf822e42cc260a86ffffffff64a37e7ef9ef4ed352c421a7f4ccaf8a67a7aba23daef25c1a69693d8b804ec4010000008a4730440220289211e22d362c957e1a48f25c44ef13227f1a7ad3779a44fea83d9f93345128022029d96526eecd47758c60916d508548324696c5f03687f4b85bec62c3c40844bc014104a7ea0a464eae3f792cfd586fce9288fd6ce8a3749e46199ac1b40f01977fce795d63644ad788f3df1627078364d8cba01177354a7a401b2caf822e42cc260a86ffffffff0207990000000000001976a914d8965301b7c44b2c30571c9a6797d15f1572912b88ac50c30000000000001976a9143a10b7e6da699e4244caa86a249bc96a36e7c45a88ac00000000",
    "size": 2468,
    "time": 1523886794,
    "valueOut": 0.00089175,
    "vin": [
        {
            "addr": "1LkD39Xa7brS6CuGmw39ffDjDR4qifp333",
            "utxo": [
                {
                    "choosen": 1,
                    "confirmations": 33,
                    "scriptPubKey": "76a914d8965301b7c44b2c30571c9a6797d15f1572912b88ac",
                    "txid": "12446f05452bce908fd54955f8c0154eb44dfa9b984dedb18ddfccdaa299f6a3",
                    "type": "pubkeyhash",
                    "value": 42350,
                    "vout": 1
                },
                {
                    "choosen": 1,
                    "confirmations": 4,
                    "scriptPubKey": "76a914d8965301b7c44b2c30571c9a6797d15f1572912b88ac",
                    "txid": "1d9c6f2d45331f319fec41fe1139790d164392bd5925fcdf56b769ee0c0b1505",
                    "type": "pubkeyhash",
                    "value": 42125,
                    "vout": 1
                },
                {
                    "choosen": 1,
                    "confirmations": 27,
                    "scriptPubKey": "76a914d8965301b7c44b2c30571c9a6797d15f1572912b88ac",
                    "txid": "c44e808b3d69691a5cf2ae3da2aba7678aafccf4a721c452d34eeff97e7ea364",
                    "type": "pubkeyhash",
                    "value": 54950,
                    "vout": 1
                },
                {
                    "choosen": 0,
                    "confirmations": 0,
                    "scriptPubKey": "76a914d8965301b7c44b2c30571c9a6797d15f1572912b88ac",
                    "txid": "918d4830e709e969912369d1d67ee8e450f0eb8f598af18114f9372c3fa8fc89",
                    "type": "pubkeyhash",
                    "value": 39175,
                    "vout": 0
                },
                {
                    "choosen": 0,
                    "confirmations": 20,
                    "scriptPubKey": "76a914d8965301b7c44b2c30571c9a6797d15f1572912b88ac",
                    "txid": "40e10bf00f9cbcf2aa1695427b41c7d672834b5e84cd0f9c40b4740d889d1240",
                    "type": "pubkeyhash",
                    "value": 34700,
                    "vout": 1
                },
                {
                    "choosen": 0,
                    "confirmations": 30,
                    "scriptPubKey": "76a914d8965301b7c44b2c30571c9a6797d15f1572912b88ac",
                    "txid": "2bc1c08aaa845fec5d2e414c88f5153fca082c3a4878832582245b697415e028",
                    "type": "pubkeyhash",
                    "value": 19350,
                    "vout": 0
                },
                {
                    "choosen": 0,
                    "confirmations": 64,
                    "scriptPubKey": "76a914d8965301b7c44b2c30571c9a6797d15f1572912b88ac",
                    "txid": "b2d09ab6e8691648b8e871238de78861f9d3fc1e78cd07a961db99c6bb10330b",
                    "type": "pubkeyhash",
                    "value": 21701,
                    "vout": 0
                },
                {
                    "choosen": 0,
                    "confirmations": 312,
                    "scriptPubKey": "76a914d8965301b7c44b2c30571c9a6797d15f1572912b88ac",
                    "txid": "875df68cbce1a96d494ba7462a17ba2b58920aea5e1895631e2aff079f00ef48",
                    "type": "pubkeyhash",
                    "value": 4540,
                    "vout": 0
                },
                {
                    "choosen": 0,
                    "confirmations": 614,
                    "scriptPubKey": "76a914d8965301b7c44b2c30571c9a6797d15f1572912b88ac",
                    "txid": "e7636cbf6f75c93ca2fa31ce8d639dbc6f6edd3a698d5239db30411996fb8f1d",
                    "type": "pubkeyhash",
                    "value": 2608,
                    "vout": 0
                },
                {
                    "choosen": 0,
                    "confirmations": 942,
                    "scriptPubKey": "76a914d8965301b7c44b2c30571c9a6797d15f1572912b88ac",
                    "txid": "fedd987c09290400d5a20edf26f335831803c8325feee6390584768317c7f2c6",
                    "type": "pubkeyhash",
                    "value": 4000,
                    "vout": 0
                },
                {
                    "choosen": 0,
                    "confirmations": 2470,
                    "scriptPubKey": "76a914d8965301b7c44b2c30571c9a6797d15f1572912b88ac",
                    "txid": "3b639088bf4b04d82637d65e493d23eb86dc57f656ad5985378c12d185ce5018",
                    "type": "pubkeyhash",
                    "value": 10859,
                    "vout": 0
                },
                {
                    "choosen": 0,
                    "confirmations": 5895,
                    "scriptPubKey": "76a914d8965301b7c44b2c30571c9a6797d15f1572912b88ac",
                    "txid": "8ad3cf1219269b57850173773d18062cbf0f3986fe0f2b5317996d8ce5f5a541",
                    "type": "pubkeyhash",
                    "value": 4339,
                    "vout": 0
                },
                {
                    "choosen": 0,
                    "confirmations": 7783,
                    "scriptPubKey": "76a914d8965301b7c44b2c30571c9a6797d15f1572912b88ac",
                    "txid": "fe72fd2012ee55c527283f3f2c7cb9c8661cf623feaada2377dc23e9f0db471d",
                    "type": "pubkeyhash",
                    "value": 1322,
                    "vout": 0
                },
                {
                    "choosen": 0,
                    "confirmations": 7924,
                    "scriptPubKey": "76a914d8965301b7c44b2c30571c9a6797d15f1572912b88ac",
                    "txid": "7e1042716f9ddde8491f6b69e8ad9d158fbb857c42743c8de2f492dadf660449",
                    "type": "pubkeyhash",
                    "value": 4450,
                    "vout": 0
                },
                {
                    "choosen": 0,
                    "confirmations": 10427,
                    "scriptPubKey": "76a914d8965301b7c44b2c30571c9a6797d15f1572912b88ac",
                    "txid": "1f0901bab4cea1fb51b5dc4b324061f52d308cdfcc76985407126b82ac0c6b73",
                    "type": "pubkeyhash",
                    "value": 807,
                    "vout": 0
                },
                {
                    "choosen": 0,
                    "confirmations": 10434,
                    "scriptPubKey": "76a914d8965301b7c44b2c30571c9a6797d15f1572912b88ac",
                    "txid": "4638fedde33fd2615e24e3cf49894a3cb5d54f59dfc6cbf3de1a9385fee79159",
                    "type": "pubkeyhash",
                    "value": 858,
                    "vout": 0
                },
                {
                    "choosen": 0,
                    "confirmations": 11009,
                    "scriptPubKey": "76a914d8965301b7c44b2c30571c9a6797d15f1572912b88ac",
                    "txid": "20a3ff2b9e6ef802a70abe3c20094d65aee18a4d3b41c335812fb39a3e4d7168",
                    "type": "pubkeyhash",
                    "value": 843,
                    "vout": 0
                }
            ]
        }
    ],
    "vout": [
        {
            "n": 0,
            "scriptPubKey": {
                "addresses": [
                    "1LkD39Xa7brS6CuGmw39ffDjDR4qifp333"
                ],
                "asm": "OP_DUP OP_HASH160 d8965301b7c44b2c30571c9a6797d15f1572912b OP_EQUALVERIFY OP_CHECKSIG",
                "hex": "76a914d8965301b7c44b2c30571c9a6797d15f1572912b88ac",
                "type": "pubkeyhash"
            },
            "spentHeight": null,
            "spentIndex": null,
            "spentTxId": null,
            "value": "0.00039175",
            "valueSat": 39175
        },
        {
            "n": 1,
            "scriptPubKey": {
                "addresses": [
                    "16J2DjqiMNXDpZV5SJ9VLvKaxJn1ua1dzt"
                ],
                "asm": "OP_DUP OP_HASH160 3a10b7e6da699e4244caa86a249bc96a36e7c45a OP_EQUALVERIFY OP_CHECKSIG",
                "hex": "76a9143a10b7e6da699e4244caa86a249bc96a36e7c45a88ac",
                "type": "pubkeyhash"
            },
            "spentHeight": null,
            "spentIndex": null,
            "spentTxId": null,
            "value": "0.00050000",
            "valueSat": 50000
        }
    ]
}