{
    "_id": {
        "$oid": "5ad4ab444c372215dd13d68e"
    },
    "fee": 54598,
    "id": "991f7753f3b41270deedd2ed3f6d54a324cf8d06792f7fcc9573b76c71307be8",
    "raw": "01000000032f4bee59e0200f8f7704ac2ab43bfcf316be4a300fb7c047323e08685e8be681010000006b483045022100ad6d8e3f493f070ba3099b3245b452cb4c01952e0033414747cfb2828dcc83a502203e9696e0cb0711cfe1dbce760c83339c773e6741d7604a6040e94d6aa504b15a012103b091e46430e3d28626a3b5fd34bed1c41cf87304867e78bbd91a6a70d6f013c2ffffffffa8c164ca482f8c1cc0ba7b1396b416ebd5688656e5158ab2802e7c949b35bdf5000000006b48304502210097c611ce8c96302d3a17d3a80dddb1dba68fb8d522cfef4f11b114020e9f45df02200c1b335d7f56a617f4d108bbf7225f664ba1a7064addbaf2b6a67d48ea5c9a44012103b091e46430e3d28626a3b5fd34bed1c41cf87304867e78bbd91a6a70d6f013c2ffffffff545733abf3becb41c40483ab0851256a099274c6eb76c9b071cdef965668c8cc010000006a47304402204ee477d0dcf3104ec511d21391d3ac64ec34df2299ac1c3480a6ab2937c496ba02202a92cdff8d16f9ff1e501f6932530f0c4aae76c33c4d25318b1b06d2d718ffe3012103b091e46430e3d28626a3b5fd34bed1c41cf87304867e78bbd91a6a70d6f013c2ffffffff0142660900000000001976a9140438a2174ec40bc1f0d43add178d1e66e3076c6d88ac00000000",
    "size": 1948,
    "time": 1523886912,
    "valueOut": 0.00616002,
    "vin": [
        {
            "addr": "1DytAdmzEESMcBor1EB6vQPNQWfKBa4H5j",
            "utxo": [
                {
                    "choosen": 1,
                    "confirmations": 94,
                    "scriptPubKey": "76a9148e6383bb6d64e09c08d2783a8d5dfa7b4565d1ae88ac",
                    "txid": "81e68b5e68083e3247c0b70f304abe16f3fc3bb42aac04778f0f20e059ee4b2f",
                    "type": "pubkeyhash",
                    "value": 326900,
                    "vout": 1
                },
                {
                    "choosen": 1,
                    "confirmations": 569,
                    "scriptPubKey": "76a9148e6383bb6d64e09c08d2783a8d5dfa7b4565d1ae88ac",
                    "txid": "f5bd359b947c2e80b28a15e5568668d5eb16b496137bbac01c8c2f48ca64c1a8",
                    "type": "pubkeyhash",
                    "value": 50376,
                    "vout": 0
                },
                {
                    "choosen": 1,
                    "confirmations": 121,
                    "scriptPubKey": "76a9148e6383bb6d64e09c08d2783a8d5dfa7b4565d1ae88ac",
                    "txid": "ccc8685696efcd71b0c976ebc67492096a255108ab8304c441cbbef3ab335754",
                    "type": "pubkeyhash",
                    "value": 293324,
                    "vout": 1
                }
            ]
        }
    ],
    "vout": [
        {
            "n": 0,
            "scriptPubKey": {
                "addresses": [
                    "1PKYi7Vz1U2JeQ9rNx78Q8e4kHRVB1jsb"
                ],
                "asm": "OP_DUP OP_HASH160 0438a2174ec40bc1f0d43add178d1e66e3076c6d OP_EQUALVERIFY OP_CHECKSIG",
                "hex": "76a9140438a2174ec40bc1f0d43add178d1e66e3076c6d88ac",
                "type": "pubkeyhash"
            },
            "spentHeight": null,
            "spentIndex": null,
            "spentTxId": null,
            "value": "0.00616002",
            "valueSat": 616002
        }
    ]
}