{
    "_id": {
        "$oid": "5ad4ac0f4c372215dd13d691"
    },
    "fee": 37400,
    "id": "0a83fd78c69605cf6b022e358a5d3561a7f9a79f9ed204e85e2e07d6e702d511",
    "raw": "0100000002fa544ac3f9ecf022f1d6b0374bf54d6ddf846ffc203781337f7e374cbae2138a000000006b483045022100bea65601b505e600d516d64d54d911639c1fb7fc5ad23a3cbce56c34203cf6af02203c73aaeb5fe4ed1b1881f70842159056bd4e8c4d8d8377d768e2c26bc554a1c3012103b3059cd36d7f6bfdaf0697f081bd6b6bb34c3c00c3e0f160b494dedd55cf2bfcffffffffb7d5a238bcf6237427ab8976b29f312ba5a24616a4d72148381164325939f0e8000000006a47304402202f7565b718253eac83f53c2b19350abcd2832a971d1519c48f23effdd1effe4702207e90ff5c12479d4324533f9398a96159bcd354cbfba3067f466adb8dab305a87012103b3059cd36d7f6bfdaf0697f081bd6b6bb34c3c00c3e0f160b494dedd55cf2bfcffffffff02eb130000000000001976a91456c452ff22971345560f9aa12fa72a9ba307b28b88ac2cbf0500000000001976a91433a024b25ecf3c12b9e59795cdee075d26a950e788ac00000000",
    "size": 1492,
    "time": 1523887114,
    "valueOut": 0.00381719,
    "vin": [
        {
            "addr": "18unJLrh9kDjkqbZo8AqKi44an7EKgKU5a",
            "utxo": [
                {
                    "choosen": 1,
                    "confirmations": 16,
                    "scriptPubKey": "76a91456c452ff22971345560f9aa12fa72a9ba307b28b88ac",
                    "txid": "8a13e2ba4c377e7f33813720fc6f84df6d4df54b37b0d6f122f0ecf9c34a54fa",
                    "type": "pubkeyhash",
                    "value": 50809,
                    "vout": 0
                },
                {
                    "choosen": 1,
                    "confirmations": 31,
                    "scriptPubKey": "76a91456c452ff22971345560f9aa12fa72a9ba307b28b88ac",
                    "txid": "e8f03959326411384821d7a41646a2a52b319fb27689ab277423f6bc38a2d5b7",
                    "type": "pubkeyhash",
                    "value": 368310,
                    "vout": 0
                },
                {
                    "choosen": 0,
                    "confirmations": 0,
                    "scriptPubKey": "76a91456c452ff22971345560f9aa12fa72a9ba307b28b88ac",
                    "txid": "0a83fd78c69605cf6b022e358a5d3561a7f9a79f9ed204e85e2e07d6e702d511",
                    "type": "pubkeyhash",
                    "value": 5099,
                    "vout": 0
                }
            ]
        }
    ],
    "vout": [
        {
            "n": 0,
            "scriptPubKey": {
                "addresses": [
                    "18unJLrh9kDjkqbZo8AqKi44an7EKgKU5a"
                ],
                "asm": "OP_DUP OP_HASH160 56c452ff22971345560f9aa12fa72a9ba307b28b OP_EQUALVERIFY OP_CHECKSIG",
                "hex": "76a91456c452ff22971345560f9aa12fa72a9ba307b28b88ac",
                "type": "pubkeyhash"
            },
            "spentHeight": null,
            "spentIndex": null,
            "spentTxId": null,
            "value": "0.00005099",
            "valueSat": 5099
        },
        {
            "n": 1,
            "scriptPubKey": {
                "addresses": [
                    "15hyJjp8tU2q9gy5LV2Kex1Wr4Yrskx84A"
                ],
                "asm": "OP_DUP OP_HASH160 33a024b25ecf3c12b9e59795cdee075d26a950e7 OP_EQUALVERIFY OP_CHECKSIG",
                "hex": "76a91433a024b25ecf3c12b9e59795cdee075d26a950e788ac",
                "type": "pubkeyhash"
            },
            "spentHeight": null,
            "spentIndex": null,
            "spentTxId": null,
            "value": "0.00376620",
            "valueSat": 376620
        }
    ]
}