{
    "_id": {
        "$oid": "5ad4ac8e4c372215dd13d692"
    },
    "fee": 7877,
    "id": "2d46d09c121ed83acb6162462f7ef2f54234fa8ea1b668afa0f2f5ef97f34b0b",
    "raw": "01000000023cb0933ca63a8b8a5d911d9747ca8e41c73b013ecab55ca75e660fc97e104045110000006b483045022100f4ccf28becb0ce329f80dbc78885e8c4a54f2eefafc58559a0297fd700e5c08102200552bc8450e47717c3bd237beac6d75e73fdd1c52a5e498e62c41cd7c7b118b401210319b0e16738d90307e6ef00603595aefe3b6117eeefa8d7e2ca38b474ce4044deffffffffd762c368c59b3820048cb186ed9a5175bc2cbc2ed9a5037a603659a2a8a85e58090000006a4730440220472256d1dc54a3ddca99aed4287e9caf3910f51179380620b55e92bdb6eaa0f602206755d6bdec0f15dae323c9f6b05ea3a0f9ae4c7a9729fcbd6e20b1d704661f3001210319b0e16738d90307e6ef00603595aefe3b6117eeefa8d7e2ca38b474ce4044deffffffff02a7420000000000001976a91411b1d09cb872d06eb4715cad2edea0746b7d67f688acd0856800000000001976a91444caf7368ed2407a8ca6d4a2a4e16b2e64cde18988ac00000000",
    "size": 1492,
    "time": 1523887241,
    "valueOut": 0.06867063,
    "vin": [
        {
            "addr": "1MjBsaVzwD1Q9WWxD8mtbqZy3pDB4bjbes",
            "utxo": [
                {
                    "choosen": 1,
                    "confirmations": 257,
                    "scriptPubKey": "76a914e35d0fc3d7fcf052c9711e83c48383808ba9957288ac",
                    "txid": "4540107ec90f665ea75cb5ca3e013bc7418eca47971d915d8a8b3aa63c93b03c",
                    "type": "pubkeyhash",
                    "value": 5864940,
                    "vout": 17
                },
                {
                    "choosen": 1,
                    "confirmations": 189,
                    "scriptPubKey": "76a914e35d0fc3d7fcf052c9711e83c48383808ba9957288ac",
                    "txid": "585ea8a8a25936607a03a5d92ebc2cbc75519aed86b18c0420389bc568c362d7",
                    "type": "pubkeyhash",
                    "value": 1010000,
                    "vout": 9
                }
            ]
        }
    ],
    "vout": [
        {
            "n": 0,
            "scriptPubKey": {
                "addresses": [
                    "12cZW4Gc9wghaXMuzijAptubd1DVb6ixJc"
                ],
                "asm": "OP_DUP OP_HASH160 11b1d09cb872d06eb4715cad2edea0746b7d67f6 OP_EQUALVERIFY OP_CHECKSIG",
                "hex": "76a91411b1d09cb872d06eb4715cad2edea0746b7d67f688ac",
                "type": "pubkeyhash"
            },
            "spentHeight": null,
            "spentIndex": null,
            "spentTxId": null,
            "value": "0.00017063",
            "valueSat": 17063
        },
        {
            "n": 1,
            "scriptPubKey": {
                "addresses": [
                    "17Gk6M7v8Wpw7mu41VDS4BpJieLmnEJnH3"
                ],
                "asm": "OP_DUP OP_HASH160 44caf7368ed2407a8ca6d4a2a4e16b2e64cde189 OP_EQUALVERIFY OP_CHECKSIG",
                "hex": "76a91444caf7368ed2407a8ca6d4a2a4e16b2e64cde18988ac",
                "type": "pubkeyhash"
            },
            "spentHeight": null,
            "spentIndex": null,
            "spentTxId": null,
            "value": "0.06850000",
            "valueSat": 6850000
        }
    ]
}