{
    "_id": {
        "$oid": "5ad4acaf4c372215dd13d693"
    },
    "fee": 19314,
    "id": "43e6ac4bc192d754396401eb1204c85e240abe5f158a8eeacc882ce0633119df",
    "raw": "01000000039842def4eda33a18d84b4dbc133955f8b9181e55a34adb944f52cf0f15742d24000000006b483045022100db9ad4924079eb1a512c827ebad7f9736f4aafc0c41888f2728cc888fadad17b02206909eee0e9f557fcd61cc57a3308c2c554d3a8f521888f5bb7c5358371479d7d012102c8a3811ab7e3e434fcc13f7222e9b22872746b786b1190afda3377010d77668effffffff4c87746f2cc2f26bbf8fb591a111a8ed983bfe80aaa082a785bf6df3b2c7be2f010000006b483045022100a9c2fa9c6f8706a95ec93d863dcb113a997dd5476b4f8963f18f6baf33c4a193022063ca9702e21b2b332a405d89935131b2579a4b1754e6297d4efd923f443d1005012102c8a3811ab7e3e434fcc13f7222e9b22872746b786b1190afda3377010d77668effffffff7aafeb4adda9aa7c2b391e3e4f0d48a8a39b9a55cbfb888dbf11a4a58a18a4c8000000006b483045022100cc5cc345e9401d9b7231a210fa6b75a7e6912eef66bb893ca4b2d9c891b5192d0220483907f81f6ce2ba89122fab7f29261d637073cdffba72f42955e71730f284c8012102c8a3811ab7e3e434fcc13f7222e9b22872746b786b1190afda3377010d77668effffffff02d4b02b00000000001976a9143707bb313322d08c088394d0fce1d5630a753cd988ace88dfc00000000001976a914bb6f71790f2d4e6b7ef3e53ec0910321f5b357e088ac00000000",
    "size": 2088,
    "time": 1523887275,
    "valueOut": 0.19414716,
    "vin": [
        {
            "addr": "19nNyaUfYBR4MXXhmXwNnod8ijkA5sSQ9a",
            "utxo": [
                {
                    "choosen": 1,
                    "confirmations": 299,
                    "scriptPubKey": "76a914605611997c890d3192c7cbe62a29ff55b10985a988ac",
                    "txid": "242d74150fcf524f94db4aa3551e18b9f8553913bc4d4bd8183aa3edf4de4298",
                    "type": "pubkeyhash",
                    "value": 4664480,
                    "vout": 0
                },
                {
                    "choosen": 1,
                    "confirmations": 22,
                    "scriptPubKey": "76a914605611997c890d3192c7cbe62a29ff55b10985a988ac",
                    "txid": "2fbec7b2f36dbf85a782a0aa80fe3b98eda811a191b58fbf6bf2c22c6f74874c",
                    "type": "pubkeyhash",
                    "value": 11590600,
                    "vout": 1
                },
                {
                    "choosen": 1,
                    "confirmations": 3,
                    "scriptPubKey": "76a914605611997c890d3192c7cbe62a29ff55b10985a988ac",
                    "txid": "c8a4188aa5a411bf8d88fbcb559a9ba3a8480d4f3e1e392b7caaa9dd4aebaf7a",
                    "type": "pubkeyhash",
                    "value": 3178950,
                    "vout": 0
                }
            ]
        }
    ],
    "vout": [
        {
            "n": 0,
            "scriptPubKey": {
                "addresses": [
                    "161yRj4e5U7pJ6arpkSuWxjMYYfcRNApFr"
                ],
                "asm": "OP_DUP OP_HASH160 3707bb313322d08c088394d0fce1d5630a753cd9 OP_EQUALVERIFY OP_CHECKSIG",
                "hex": "76a9143707bb313322d08c088394d0fce1d5630a753cd988ac",
                "type": "pubkeyhash"
            },
            "spentHeight": null,
            "spentIndex": null,
            "spentTxId": null,
            "value": "0.02863316",
            "valueSat": 2863316
        },
        {
            "n": 1,
            "scriptPubKey": {
                "addresses": [
                    "1J64s5wuXsetnC5VXYUzkwsBns5GBuGbMz"
                ],
                "asm": "OP_DUP OP_HASH160 bb6f71790f2d4e6b7ef3e53ec0910321f5b357e0 OP_EQUALVERIFY OP_CHECKSIG",
                "hex": "76a914bb6f71790f2d4e6b7ef3e53ec0910321f5b357e088ac",
                "type": "pubkeyhash"
            },
            "spentHeight": null,
            "spentIndex": null,
            "spentTxId": null,
            "value": "0.16551400",
            "valueSat": 16551400
        }
    ]
}