{
    "_id": {
        "$oid": "5ad4ad324c372215dd13d694"
    },
    "fee": 6688,
    "id": "467d144f627d9f8c774f9b042a6fb9a6bb9a1c6bc69d292adbcf8ef037a9bff2",
    "raw": "0100000004348cb270bddba43794ab605fea30f5a5e4b5aeb7c9c2301be48e10958024c1a0010000006a47304402202fb87110671cb8ba973755f7d84d5d29d0e0601d5496e81240b57bde4f8b064b022045804c60eea8838469951e65fd6d836dea8db9aa51f634ebe808693460a4fcba012103835005e43081736eb9e38168660e8b79e27eb65b52f362a0404a534ba2f3739bffffffffa6b8d8e3e6f59f8d10199d385bc1c6a51ad1a8b9d730e8ae2af9d302d8a0daf3000000006a4730440220352bdfde0af215e3d55f86b2e408c4f605dc4cf20ada185abbb803c93120c01102203af502c3b281711d541a715da7a3e573fca385893d769a0c5e38d0ed267e08e9012103835005e43081736eb9e38168660e8b79e27eb65b52f362a0404a534ba2f3739bffffffff173bce6a71481b81e02aab8fde3103a11f7dfd30b8baf37bbe1e14f5e64def9f010000006a473044022068c954ae5173471b4b222cdc90ea1fcf197cab56f611e73591b8ebccc9df46fd022062a9b4146f3363bc5f58a6a61b3dbd067c24a622e16597234bf95f0aa8dd527e012103835005e43081736eb9e38168660e8b79e27eb65b52f362a0404a534ba2f3739bffffffff5c18b76e08f7601c1124032927058885ebdbdba218a5bcc388e392ededcc37b5030000006a47304402205f5d0c799e45c45df2b704aaa6da574ff6a640fad50bfda46708a3b9f895ec1b022001b4c681a6f7f1e9ed2a7077bb29c4fa01c86caba6d19355d1b3e9a5e0dcb82f012103835005e43081736eb9e38168660e8b79e27eb65b52f362a0404a534ba2f3739bffffffff01989e31030000000017a914ea40e25b6ffc553e5012f33986d5e3a652df025d8700000000",
    "size": 2520,
    "time": 1523887405,
    "valueOut": 0.53583512,
    "vin": [
        {
            "addr": "1MyHF9HyFmXugJsfwPohxq4be4BasCN5CP",
            "utxo": [
                {
                    "choosen": 1,
                    "confirmations": 914,
                    "scriptPubKey": "76a914e6075e84d269669f438db2d60dbb14fb13d4a77a88ac",
                    "txid": "a0c1248095108ee41b30c2c9b7aeb5e4a5f530ea5f60ab9437a4dbbd70b28c34",
                    "type": "pubkeyhash",
                    "value": 14500000,
                    "vout": 1
                },
                {
                    "choosen": 1,
                    "confirmations": 756,
                    "scriptPubKey": "76a914e6075e84d269669f438db2d60dbb14fb13d4a77a88ac",
                    "txid": "f3daa0d802d3f92aaee830d7b9a8d11aa5c6c15b389d19108d9ff5e6e3d8b8a6",
                    "type": "pubkeyhash",
                    "value": 15200000,
                    "vout": 0
                },
                {
                    "choosen": 1,
                    "confirmations": 897,
                    "scriptPubKey": "76a914e6075e84d269669f438db2d60dbb14fb13d4a77a88ac",
                    "txid": "9fef4de6f5141ebe7bf3bab830fd7d1fa10331de8fab2ae0811b48716ace3b17",
                    "type": "pubkeyhash",
                    "value": 14500000,
                    "vout": 1
                },
                {
                    "choosen": 1,
                    "confirmations": 746,
                    "scriptPubKey": "76a914e6075e84d269669f438db2d60dbb14fb13d4a77a88ac",
                    "txid": "b537cceded92e388c3bca518a2dbdbeb85880527290324111c60f7086eb7185c",
                    "type": "pubkeyhash",
                    "value": 9390200,
                    "vout": 3
                }
            ]
        }
    ],
    "vout": [
        {
            "n": 0,
            "scriptPubKey": {
                "addresses": [
                    "3P3dmfaCotxJwVHmP51tkCnrsBDoybb1wy"
                ],
                "asm": "OP_HASH160 ea40e25b6ffc553e5012f33986d5e3a652df025d OP_EQUAL",
                "hex": "a914ea40e25b6ffc553e5012f33986d5e3a652df025d87",
                "type": "scripthash"
            },
            "spentHeight": null,
            "spentIndex": null,
            "spentTxId": null,
            "value": "0.53583512",
            "valueSat": 53583512
        }
    ]
}