{
    "_id": {
        "$oid": "5ad4ad714c372215dd13d696"
    },
    "fee": 24645,
    "id": "b0715b94aea3df7a661072763b02d07d80a7ab8ea00f45cf57aefb9eabf4aa33",
    "raw": "0100000002e7152466fdde2755e467c2c6d6f201020c54ac40d6eedcd6ba83dcf961040f30000000006a47304402204e6fbaefa8130b7a8ff4ea037d24970d2ebaf039175107ba529043498f99404002204ff2acda4ccfd335e1ccb79999ba0a7a71c9ab81c24ad92cfcd80fec21e2f3ea012102003bec5ca386e491f02f7c0e587be75372585ab663fbb0b3ade620c9d65de68cfeffffffe4f3c0a3c2366ee6ee0ca1deee45d6711590859c4c9055669baf24abb28c0464000000006b483045022100bfa63ebf41b7ace9895c53b0625314b309c824295c30ce3e0ae32afadf0f7644022009fe9b0a435aa62fcb5b8633d493739114061a5fd317ff412a5b866f54bfb51b012102003bec5ca386e491f02f7c0e587be75372585ab663fbb0b3ade620c9d65de68cfeffffff02707c0400000000001976a914d49dc2a33a0cb5a7cf7d7114d358d49697c166fe88acd0dd0600000000001976a914faa1daf18534c68c5afa5eed4902ab199e79545b88ac00000000",
    "size": 1492,
    "time": 1523887468,
    "valueOut": 0.00744,
    "vin": [
        {
            "addr": "1LPDF3g1DDPZYc66oBSpMDNb9qccaAqoss",
            "utxo": [
                {
                    "choosen": 1,
                    "confirmations": 481,
                    "scriptPubKey": "76a914d49dc2a33a0cb5a7cf7d7114d358d49697c166fe88ac",
                    "txid": "300f0461f9dc83bad6dceed640ac540c0201f2d6c6c267e45527defd662415e7",
                    "type": "pubkeyhash",
                    "value": 364900,
                    "vout": 0
                },
                {
                    "choosen": 1,
                    "confirmations": 366,
                    "scriptPubKey": "76a914d49dc2a33a0cb5a7cf7d7114d358d49697c166fe88ac",
                    "txid": "64048cb2ab24af9b6655904c9c85901571d645eedea10ceee66e36c2a3c0f3e4",
                    "type": "pubkeyhash",
                    "value": 403745,
                    "vout": 0
                },
                {
                    "choosen": 0,
                    "confirmations": 0,
                    "scriptPubKey": "76a914d49dc2a33a0cb5a7cf7d7114d358d49697c166fe88ac",
                    "txid": "b0715b94aea3df7a661072763b02d07d80a7ab8ea00f45cf57aefb9eabf4aa33",
                    "type": "pubkeyhash",
                    "value": 294000,
                    "vout": 0
                },
                {
                    "choosen": 0,
                    "confirmations": 772,
                    "scriptPubKey": "76a914d49dc2a33a0cb5a7cf7d7114d358d49697c166fe88ac",
                    "txid": "a8b5a9bfe712d167c9c1ddd6df028598233c0de2636213eaed17b8c7d00814c2",
                    "type": "pubkeyhash",
                    "value": 5924,
                    "vout": 0
                },
                {
                    "choosen": 0,
                    "confirmations": 1477,
                    "scriptPubKey": "76a914d49dc2a33a0cb5a7cf7d7114d358d49697c166fe88ac",
                    "txid": "4522d45ca838833c1a5ce516064d50aa04b364cf72f762d73af2407960bbb8f4",
                    "type": "pubkeyhash",
                    "value": 48269,
                    "vout": 0
                }
            ]
        }
    ],
    "vout": [
        {
            "n": 0,
            "scriptPubKey": {
                "addresses": [
                    "1LPDF3g1DDPZYc66oBSpMDNb9qccaAqoss"
                ],
                "asm": "OP_DUP OP_HASH160 d49dc2a33a0cb5a7cf7d7114d358d49697c166fe OP_EQUALVERIFY OP_CHECKSIG",
                "hex": "76a914d49dc2a33a0cb5a7cf7d7114d358d49697c166fe88ac",
                "type": "pubkeyhash"
            },
            "spentHeight": null,
            "spentIndex": null,
            "spentTxId": null,
            "value": "0.00294000",
            "valueSat": 294000
        },
        {
            "n": 1,
            "scriptPubKey": {
                "addresses": [
                    "1PrDprjDSMNaUhi3pzRt3N2FvvdEQUdo4U"
                ],
                "asm": "OP_DUP OP_HASH160 faa1daf18534c68c5afa5eed4902ab199e79545b OP_EQUALVERIFY OP_CHECKSIG",
                "hex": "76a914faa1daf18534c68c5afa5eed4902ab199e79545b88ac",
                "type": "pubkeyhash"
            },
            "spentHeight": null,
            "spentIndex": null,
            "spentTxId": null,
            "value": "0.00450000",
            "valueSat": 450000
        }
    ]
}