{
    "_id": {
        "$oid": "5ad4ada24c372215dd13d697"
    },
    "fee": 3876,
    "id": "ad350a0eb898c77f1d32356f1c67b1706b3f1cf601e5b2ca75c756108849a01e",
    "raw": "0100000002d77dfb008c97506826d52c23ed83f24a2058a2317f5ce95ed16e6f7249ab6c7b3e0000006b483045022100b284b6a69009320d2ba9e64bde492ac5671cb40c4edc9dc8e0a77258d0f948af02204f4e7630cd4c169c4cf1fe2320597dc567f37a1b49d9dec76d98f2503a0d524d012102ba533e28914c01e4ac3fc2680e05ca01facf984a42cfbded67021edceda2eaa2ffffffffd5c5e8438b8c14e03c03c4ad42cf731374a1b9520405fb717ea718eb0bb99cec000000006b483045022100c457db0e270a1f1a0db5b624d79e435db34603784f04c7db8d51e26d3832ac30022010764b8bd321d6cfdc98a4036c3c6745076ebdbf9a850f038fb18fc8e403f309012102ba533e28914c01e4ac3fc2680e05ca01facf984a42cfbded67021edceda2eaa2ffffffff0246d41600000000001976a914d49e3a78a3841d48ac5c178cf8e29007695f450188ac08cf0000000000001976a914d2ea1e99619f64170a56af335c6fcc5775de449588ac00000000",
    "size": 1496,
    "time": 1523887517,
    "valueOut": 0.01549134,
    "vin": [
        {
            "addr": "16pEiwAscwmMrNLhA7nmcC9FMovRuPS4qZ",
            "utxo": [
                {
                    "choosen": 1,
                    "confirmations": 14,
                    "scriptPubKey": "76a9143fc7a26efd1a95c135cee2643408d7488a65bc5788ac",
                    "txid": "7b6cab49726f6ed15ee95c7f31a258204af283ed232cd5266850978c00fb7dd7",
                    "type": "pubkeyhash",
                    "value": 292610,
                    "vout": 62
                },
                {
                    "choosen": 1,
                    "confirmations": 8,
                    "scriptPubKey": "76a9143fc7a26efd1a95c135cee2643408d7488a65bc5788ac",
                    "txid": "ec9cb90beb18a77e71fb050452b9a1741373cf42adc4033ce0148c8b43e8c5d5",
                    "type": "pubkeyhash",
                    "value": 1260400,
                    "vout": 0
                }
            ]
        }
    ],
    "vout": [
        {
            "n": 0,
            "scriptPubKey": {
                "addresses": [
                    "1LPDoa5JukgH49Q7swWjDezyBaehEqFsLT"
                ],
                "asm": "OP_DUP OP_HASH160 d49e3a78a3841d48ac5c178cf8e29007695f4501 OP_EQUALVERIFY OP_CHECKSIG",
                "hex": "76a914d49e3a78a3841d48ac5c178cf8e29007695f450188ac",
                "type": "pubkeyhash"
            },
            "spentHeight": null,
            "spentIndex": null,
            "spentTxId": null,
            "value": "0.01496134",
            "valueSat": 1496134
        },
        {
            "n": 1,
            "scriptPubKey": {
                "addresses": [
                    "1LEDNCGr4zzGggcgssvhhTuu7vQoYBdSj6"
                ],
                "asm": "OP_DUP OP_HASH160 d2ea1e99619f64170a56af335c6fcc5775de4495 OP_EQUALVERIFY OP_CHECKSIG",
                "hex": "76a914d2ea1e99619f64170a56af335c6fcc5775de449588ac",
                "type": "pubkeyhash"
            },
            "spentHeight": null,
            "spentIndex": null,
            "spentTxId": null,
            "value": "0.00053000",
            "valueSat": 53000
        }
    ]
}