{
    "_id": {
        "$oid": "5ad4b00c4c372215dd13d69a"
    },
    "fee": 2590,
    "id": "02ca768e61e3800e37e7fb0d73a37b61750631f2e4d82fcbafe2af116af03102",
    "raw": "0100000000010281681ce1181f4befe4ed60d8876f36ce2f347aa56d1a2dbadb20389122fee71f0300000017160014ad77ba21a9bf7cb912fc3bbcdf60180cc7b05fd6ffffffff552713062312a309dacd419e2a58b90054a44880a9852be246b577c0e095737d0300000017160014ad77ba21a9bf7cb912fc3bbcdf60180cc7b05fd6ffffffff02f06548000000000017a91411482c5545cf0bb3724a5dcd8bdd27ed5561d0ff878aa882000000000017a91403076ebbd77a1372a3b43174784cda4ad0f7b81d8702473044022001495a0b538220e207df2ef45999d1970905015b9231a59eb9e3304d3899482102205eb517f46d8f75151dfe209e35378625400f83cf8f47d600a4a36540a049c5b6012102517999e351bf47b1adfcc903c21f73bcb1dc5ccaac0d39d8963c18b21cd20efa0247304402204c682dbc24519aec186d2b35c57217d44944066e332646ed4af17371f5fe1a16022010c73335dcee8ad68c42646b2550127d0facc980e1ada108e9c281c0dad550ff012102517999e351bf47b1adfcc903c21f73bcb1dc5ccaac0d39d8963c18b21cd20efa00000000",
    "size": 1672,
    "time": 1523888134,
    "valueOut": 0.13307514,
    "vin": [
        {
            "addr": "38s1TkA7u36Pub7Nf3fVzVMwSwwaSeRvN4",
            "utxo": [
                {
                    "choosen": 1,
                    "confirmations": 192,
                    "scriptPubKey": "a9144eaca7871913ed75e337b69a9f3e0c6455c1935987",
                    "txid": "1fe7fe22913820dbba2d1a6da57a342fce366f87d860ede4ef4b1f18e11c6881",
                    "type": "scripthash",
                    "value": 6279420,
                    "vout": 3
                },
                {
                    "choosen": 1,
                    "confirmations": 369,
                    "scriptPubKey": "a9144eaca7871913ed75e337b69a9f3e0c6455c1935987",
                    "txid": "7d7395e0c077b546e22b85a98048a45400b9582a9e41cdda09a3122306132755",
                    "type": "scripthash",
                    "value": 7030684,
                    "vout": 3
                }
            ]
        }
    ],
    "vout": [
        {
            "n": 0,
            "scriptPubKey": {
                "addresses": [
                    "33GPsV61Px4CTtqpHFsGYQTwCVSgD2NFPC"
                ],
                "asm": "OP_HASH160 11482c5545cf0bb3724a5dcd8bdd27ed5561d0ff OP_EQUAL",
                "hex": "a91411482c5545cf0bb3724a5dcd8bdd27ed5561d0ff87",
                "type": "scripthash"
            },
            "spentHeight": null,
            "spentIndex": null,
            "spentTxId": null,
            "value": "0.04744688",
            "valueSat": 4744688
        },
        {
            "n": 1,
            "scriptPubKey": {
                "addresses": [
                    "31y2rYPzA8ish8cMkbvCEjv59cAkjjrNXW"
                ],
                "asm": "OP_HASH160 03076ebbd77a1372a3b43174784cda4ad0f7b81d OP_EQUAL",
                "hex": "a91403076ebbd77a1372a3b43174784cda4ad0f7b81d87",
                "type": "scripthash"
            },
            "spentHeight": null,
            "spentIndex": null,
            "spentTxId": null,
            "value": "0.08562826",
            "valueSat": 8562826
        }
    ]
}