{
    "_id": {
        "$oid": "5ad4b06e4c372215dd13d69b"
    },
    "fee": 3000,
    "id": "7d96509298215855975dc03f1cefbf68a9b7d4d13ea8229c0e50573256e97b36",
    "raw": "0100000002709e729bdbc1060b3102edcd005dfaeb1abed825f71896ff87135c55e628c9b0010000008a47304402205d2f2fdc361f984a82de47c64a5f7978a1971849779b254d81694339de65393f0220507375913c2623f975d2632d0ef13575584ec188fcd31016d77980b5f65b470a0141048be71c366c0c9e79dadeb6262a29d3d2e29beb106fe1825f14a3315d511548376f9b8ca69b08489b5679fc30e773f071264b68299c6f44d57416373831f2dfa6fffffffff2176f56cfc40616ea270eb497eb82cda3ab0a563c9adb19527be717e56112a7000000008a473044022057f0bcb5fa9af2960cc6ed2d0136a1e4cc3316d6971a103de30006465e0a34a402206ba666935eb4e9bb2617f0e61e7469629469d76be2c5f6697fbf11515d69a05d0141048be71c366c0c9e79dadeb6262a29d3d2e29beb106fe1825f14a3315d511548376f9b8ca69b08489b5679fc30e773f071264b68299c6f44d57416373831f2dfa6ffffffff02a0580000000000001976a9143884c6fd63d1dbb4c58eb4ed119414adb338ea7988ac603d0800000000001976a914d28c40652bfea0770280ba7f591505751f8d504588ac00000000",
    "size": 1744,
    "time": 1523888234,
    "valueOut": 0.00562688,
    "vin": [
        {
            "addr": "169quGjhiDJFhaTshAgdoR5X8uL3yMNymh",
            "utxo": [
                {
                    "choosen": 1,
                    "confirmations": 35,
                    "scriptPubKey": "76a9143884c6fd63d1dbb4c58eb4ed119414adb338ea7988ac",
                    "txid": "b0c928e6555c1387ff9618f725d8be1aebfa5d00cded02310b06c1db9b729e70",
                    "type": "pubkeyhash",
                    "value": 514369,
                    "vout": 1
                },
                {
                    "choosen": 1,
                    "confirmations": 8,
                    "scriptPubKey": "76a9143884c6fd63d1dbb4c58eb4ed119414adb338ea7988ac",
                    "txid": "a71261e517e77b5219db9a3c560aaba3cd82eb97b40e27ea1606c4cf566f17f2",
                    "type": "pubkeyhash",
                    "value": 51319,
                    "vout": 0
                },
                {
                    "choosen": 0,
                    "confirmations": 0,
                    "scriptPubKey": "76a9143884c6fd63d1dbb4c58eb4ed119414adb338ea7988ac",
                    "txid": "7d96509298215855975dc03f1cefbf68a9b7d4d13ea8229c0e50573256e97b36",
                    "type": "pubkeyhash",
                    "value": 22688,
                    "vout": 0
                }
            ]
        }
    ],
    "vout": [
        {
            "n": 0,
            "scriptPubKey": {
                "addresses": [
                    "169quGjhiDJFhaTshAgdoR5X8uL3yMNymh"
                ],
                "asm": "OP_DUP OP_HASH160 3884c6fd63d1dbb4c58eb4ed119414adb338ea79 OP_EQUALVERIFY OP_CHECKSIG",
                "hex": "76a9143884c6fd63d1dbb4c58eb4ed119414adb338ea7988ac",
                "type": "pubkeyhash"
            },
            "spentHeight": null,
            "spentIndex": null,
            "spentTxId": null,
            "value": "0.00022688",
            "valueSat": 22688
        },
        {
            "n": 1,
            "scriptPubKey": {
                "addresses": [
                    "1LCGv8ggrD4ykTNFmEEJTGEXHZtGhCtdXR"
                ],
                "asm": "OP_DUP OP_HASH160 d28c40652bfea0770280ba7f591505751f8d5045 OP_EQUALVERIFY OP_CHECKSIG",
                "hex": "76a914d28c40652bfea0770280ba7f591505751f8d504588ac",
                "type": "pubkeyhash"
            },
            "spentHeight": null,
            "spentIndex": null,
            "spentTxId": null,
            "value": "0.00540000",
            "valueSat": 540000
        }
    ]
}