{
    "_id": {
        "$oid": "5ad4b1224c372215dd13d69c"
    },
    "fee": 11220,
    "id": "9684a81642a4e601dbfa767ca08a8459426e5b39da3ed276eb2aad9845e5fc5e",
    "raw": "01000000020d4a79ff312952ece1a89538b9a9ae088d941724a49af12bcfd4e1595600b2f7320100006b483045022100ea202dcf1dfac711b63cf3ab226c07a3608b8e53744abca09341e334f21bc7fa02207a17b0daf9e3fe14647a3523814ceb7f777e73cf800772ba7c69f8af074bd446012102ecddfd0295c6bd4f813402a6cd41bc5a52da396a7c13f46ff296789dcf404734ffffffff76da56500f48a7086cc9ebf24e486c0df2a74c30ab5fa12065f21fc2ba3069e4000000006a473044022060df7312ef4f52db840d079ff47467911a6b0bec89c1a2c44ae7a6f1a54ed4710220260492932f7d9ad46cfb0879120486c7ab5e19739e385a1c100b6d1f60f2286d012102ecddfd0295c6bd4f813402a6cd41bc5a52da396a7c13f46ff296789dcf404734ffffffff024d3e1100000000001976a914913df00d3a8d4769b02a19e63bd2949a63049ef988ac3c8a5b00000000001976a914f0f1e5b274b167df39aa3e127013315d1b03adc588ac00000000",
    "size": 1492,
    "time": 1523888413,
    "valueOut": 0.07129225,
    "vin": [
        {
            "addr": "19AMqRmozBdWU1L9kEqjU8gKAPH7X9wjGy",
            "utxo": [
                {
                    "choosen": 1,
                    "confirmations": 646,
                    "scriptPubKey": "76a9145986245e7f5e0be5117b4b16d8274ac7d555263a88ac",
                    "txid": "f7b2005659e1d4cf2bf19aa42417948d08aea9b93895a8e1ec522931ff794a0d",
                    "type": "pubkeyhash",
                    "value": 1264,
                    "vout": 306
                },
                {
                    "choosen": 1,
                    "confirmations": 257,
                    "scriptPubKey": "76a9145986245e7f5e0be5117b4b16d8274ac7d555263a88ac",
                    "txid": "e46930bac21ff26520a15fab304ca7f20d6c484ef2ebc96c08a7480f5056da76",
                    "type": "pubkeyhash",
                    "value": 7139181,
                    "vout": 0
                }
            ]
        }
    ],
    "vout": [
        {
            "n": 0,
            "scriptPubKey": {
                "addresses": [
                    "1EEyBKhVSq1QdhsWC4BNyTHBFvBH8i1dk7"
                ],
                "asm": "OP_DUP OP_HASH160 913df00d3a8d4769b02a19e63bd2949a63049ef9 OP_EQUALVERIFY OP_CHECKSIG",
                "hex": "76a914913df00d3a8d4769b02a19e63bd2949a63049ef988ac",
                "type": "pubkeyhash"
            },
            "spentHeight": null,
            "spentIndex": null,
            "spentTxId": null,
            "value": "0.01130061",
            "valueSat": 1130061
        },
        {
            "n": 1,
            "scriptPubKey": {
                "addresses": [
                    "1NxzxMbpmYf4yfpeio67wcdDBA24G3cBsQ"
                ],
                "asm": "OP_DUP OP_HASH160 f0f1e5b274b167df39aa3e127013315d1b03adc5 OP_EQUALVERIFY OP_CHECKSIG",
                "hex": "76a914f0f1e5b274b167df39aa3e127013315d1b03adc588ac",
                "type": "pubkeyhash"
            },
            "spentHeight": null,
            "spentIndex": null,
            "spentTxId": null,
            "value": "0.05999164",
            "valueSat": 5999164
        }
    ]
}