{
    "_id": {
        "$oid": "5ad4b33c4c372215dd13d69f"
    },
    "fee": 10098,
    "id": "79ee7deb5278718867f6acca4accfb289beb950fe43ef302576dba7b49033ebe",
    "raw": "0100000002dbbb98ef4a8f20d4cb685891b51e6b9e596199f1c536d1b4eaa1b57dab294012000000006a4730440220440535d4239f28789c9ef2a43b88110636150b47ba5f09410de70844316b267a0220500a8a38043f0075910701cdab8c42562b78cc4aa9a8ecec451ef91afe6fbc1e0121021cdddee311f802ae793925955ae6505a20d6b4f605ff831c34366cba2b19b24cffffffffcf3bd158a9cc6ef8366ee846eae720965c12b7f6ac0656469900f06d18668f3e000000006b483045022100ac29634c74512af7dc12e9654f22d0b1e8edde130dbb709b8d6e7ec32d34f9650220694084e69185f3cd43211145952b63bb299650b94f540ba0572afb30e7ad8ab20121021cdddee311f802ae793925955ae6505a20d6b4f605ff831c34366cba2b19b24cffffffff0126e90e00000000001976a914c392eead05e2cda35fafa48d9009b75bf03ccd3d88ac00000000",
    "size": 1356,
    "time": 1523888951,
    "valueOut": 0.0097719,
    "vin": [
        {
            "addr": "1B2GW3Pc2pnpKrE5ShkHmpPKsaHZNyGqvW",
            "utxo": [
                {
                    "choosen": 1,
                    "confirmations": 620,
                    "scriptPubKey": "76a9146dee9cf6ce841a674b90a1013c8c7440c14f037988ac",
                    "txid": "124029ab7db5a1eab4d136c5f19961599e6b1eb5915868cbd4208f4aef98bbdb",
                    "type": "pubkeyhash",
                    "value": 4968,
                    "vout": 0
                },
                {
                    "choosen": 1,
                    "confirmations": 334,
                    "scriptPubKey": "76a9146dee9cf6ce841a674b90a1013c8c7440c14f037988ac",
                    "txid": "3e8f66186df00099465606acf6b7125c9620e7ea46e86e36f86ecca958d13bcf",
                    "type": "pubkeyhash",
                    "value": 982320,
                    "vout": 0
                }
            ]
        }
    ],
    "vout": [
        {
            "n": 0,
            "scriptPubKey": {
                "addresses": [
                    "1Jq6nSkirbB6QJmJaEAqUdc1mENqPpcpKX"
                ],
                "asm": "OP_DUP OP_HASH160 c392eead05e2cda35fafa48d9009b75bf03ccd3d OP_EQUALVERIFY OP_CHECKSIG",
                "hex": "76a914c392eead05e2cda35fafa48d9009b75bf03ccd3d88ac",
                "type": "pubkeyhash"
            },
            "spentHeight": null,
            "spentIndex": null,
            "spentTxId": null,
            "value": "0.00977190",
            "valueSat": 977190
        }
    ]
}