{
    "_id": {
        "$oid": "5ad4b5fb4c372215dd13d6a3"
    },
    "fee": 12342,
    "id": "6fd8fd31a6ae2181ecd722b1f0f41704aaa4af18b8ac503375a1ae95005079cc",
    "raw": "0100000002edebd7a54ecc1f100938c93b027917d1c85b7c4a7b7e82c0892f9e75c23deb5f010000006a4730440220179757669bbc79f487ea07b4f3d811536b04a3e77f4c281148762182d3a6b73a022072400ac27ad6c17e93b730092f43091f0e989255c58fd5de5bec7f3f43c8c904012102a05ad10b3de9fda629e822404421e06c562300016a679b5dcf93831bd7ae46a6ffffffff294656d2b47af8db0614923e26ab6ba2a50adb9e3a52250693b2e3e08939d9a7010000006a4730440220204f2190c33f4acd45a167ab70725c8345866288241cad3eb07a280eb1b844920220109fd4c1534fdb6573e8dcde42460dd79225b6637c9e0592129acb6b1703971d012102a05ad10b3de9fda629e822404421e06c562300016a679b5dcf93831bd7ae46a6ffffffff02abdd0600000000001976a914810c96aa66bae46d3e91f8f40a6be1a26d25dadd88ac3060bf00000000001976a914b4dc57e35f93de9ec155872c1ad0136134fb08b188ac00000000",
    "size": 1488,
    "time": 1523889654,
    "valueOut": 0.12991963,
    "vin": [
        {
            "addr": "1CmMFQxWMD5d9Bx2D41SRhV9pq1o7nxT39",
            "utxo": [
                {
                    "choosen": 1,
                    "confirmations": 441,
                    "scriptPubKey": "76a914810c96aa66bae46d3e91f8f40a6be1a26d25dadd88ac",
                    "txid": "5feb3dc2759e2f89c0827e7b4a7c5bc8d11779023bc93809101fcc4ea5d7ebed",
                    "type": "pubkeyhash",
                    "value": 3802043,
                    "vout": 1
                },
                {
                    "choosen": 1,
                    "confirmations": 606,
                    "scriptPubKey": "76a914810c96aa66bae46d3e91f8f40a6be1a26d25dadd88ac",
                    "txid": "a7d93989e0e3b2930625523a9edb0aa5a26bab263e921406dbf87ab4d2564629",
                    "type": "pubkeyhash",
                    "value": 9202262,
                    "vout": 1
                },
                {
                    "choosen": 0,
                    "confirmations": 0,
                    "scriptPubKey": "76a914810c96aa66bae46d3e91f8f40a6be1a26d25dadd88ac",
                    "txid": "6fd8fd31a6ae2181ecd722b1f0f41704aaa4af18b8ac503375a1ae95005079cc",
                    "type": "pubkeyhash",
                    "value": 449963,
                    "vout": 0
                },
                {
                    "choosen": 0,
                    "confirmations": 1702,
                    "scriptPubKey": "76a914810c96aa66bae46d3e91f8f40a6be1a26d25dadd88ac",
                    "txid": "dccafc4a8c7c59df9405d1f70ef4567901bd21139bc5527ada5358fb800d16e4",
                    "type": "pubkeyhash",
                    "value": 285272,
                    "vout": 0
                },
                {
                    "choosen": 0,
                    "confirmations": 1887,
                    "scriptPubKey": "76a914810c96aa66bae46d3e91f8f40a6be1a26d25dadd88ac",
                    "txid": "20d0269fcc738b8fa40c19f96a92e09e3f5ba838e549c63cf96253d262e02ca9",
                    "type": "pubkeyhash",
                    "value": 49661,
                    "vout": 0
                },
                {
                    "choosen": 0,
                    "confirmations": 9336,
                    "scriptPubKey": "76a914810c96aa66bae46d3e91f8f40a6be1a26d25dadd88ac",
                    "txid": "59969b1cb359bc0be5ded51ece347630ee92a4584c54d4b2c8f6237c7880a43c",
                    "type": "pubkeyhash",
                    "value": 14312,
                    "vout": 0
                },
                {
                    "choosen": 0,
                    "confirmations": 10282,
                    "scriptPubKey": "76a914810c96aa66bae46d3e91f8f40a6be1a26d25dadd88ac",
                    "txid": "6ec9dece12e9ad0d954f3a18241ee7d4bb8f7a3f88e9f2b51c93fe068c687594",
                    "type": "pubkeyhash",
                    "value": 2484,
                    "vout": 0
                }
            ]
        }
    ],
    "vout": [
        {
            "n": 0,
            "scriptPubKey": {
                "addresses": [
                    "1CmMFQxWMD5d9Bx2D41SRhV9pq1o7nxT39"
                ],
                "asm": "OP_DUP OP_HASH160 810c96aa66bae46d3e91f8f40a6be1a26d25dadd OP_EQUALVERIFY OP_CHECKSIG",
                "hex": "76a914810c96aa66bae46d3e91f8f40a6be1a26d25dadd88ac",
                "type": "pubkeyhash"
            },
            "spentHeight": null,
            "spentIndex": null,
            "spentTxId": null,
            "value": "0.00449963",
            "valueSat": 449963
        },
        {
            "n": 1,
            "scriptPubKey": {
                "addresses": [
                    "1HVJbFaHVJj9eC1Tqv1d6r5Xg2sv1kM8iD"
                ],
                "asm": "OP_DUP OP_HASH160 b4dc57e35f93de9ec155872c1ad0136134fb08b1 OP_EQUALVERIFY OP_CHECKSIG",
                "hex": "76a914b4dc57e35f93de9ec155872c1ad0136134fb08b188ac",
                "type": "pubkeyhash"
            },
            "spentHeight": null,
            "spentIndex": null,
            "spentTxId": null,
            "value": "0.12542000",
            "valueSat": 12542000
        }
    ]
}