{
    "_id": {
        "$oid": "5ad4b75f4c372215dd13d6a5"
    },
    "fee": 31883,
    "id": "72f489f396f06073121e23c64c46c528e5fa136e5718be8ac789034e6a972349",
    "raw": "0100000004e474b35b2ae8234bf09a56eeef2568d1ab883bd0bf337ee126e0a063d75eed7501000000fdfe00004830450221009cd93e215051fed3303b82a9aacf0bf8f290da0605aced7965a00fef37cd47e1022069f802a3ae2f0fe418efa5ba170e59c20504c15539c7fa14f3493857b36e4241014830450221009bb5bdc6401e4172592361ac4922803c07d0a16dc37c45e38fcce5b7a7f19f020220278f0dba60bcf76b5911210dbd9096e9405b8975e6617535f117a2f3df6d7b23014c6952210361fc58a1471231de3cc8055eaa317cf0a1bbe76b79f6c1019eb0e35d19e0d1682103ec0534c6426b8fe1c415574548e100a41edce6c97724cbd1cbd57e5ce242e47e2103ad6cf791566f140f93366fba54b5c5b44b85acf9c525d7859d38f3e57d8e4bbd53aeffffffff47827497af70c844793f55e5ab8f8e3751ff78849df59a1b803972b5182878ad00000000fdfe00004830450221008efe6227687bf7bbffb69ef034ff2e1d1f6a36549b1c84db0bf15e7dbec3ef01022061a27e81656d0dbcae938d6cd8815d36a5757b03381c1e7d59333f8ceab03f5b01483045022100f05e5ddf4eb8d55758714b3487b30e0b3e31c4a214a7576db648f42aebf404ba022052565801e2a9a87fba868f4c83fcc4302d4c6cd810ba524a1968cfec1017087d014c6952210361fc58a1471231de3cc8055eaa317cf0a1bbe76b79f6c1019eb0e35d19e0d1682103ec0534c6426b8fe1c415574548e100a41edce6c97724cbd1cbd57e5ce242e47e2103ad6cf791566f140f93366fba54b5c5b44b85acf9c525d7859d38f3e57d8e4bbd53aeffffffffe474b35b2ae8234bf09a56eeef2568d1ab883bd0bf337ee126e0a063d75eed7502000000fdfe0000483045022100986c0b24880cfc4013bfe5c542b839773ed19dd6a0607270634e3d5ab2972616022075706e75aec164124a2cd67ad9aab041b85668d4c41a080a46c5b52e5d357abe01483045022100e5a37a4a5e3c0bb8b56293248dfbf8a969030519b81b2be48b76def1334e26f60220329bf4e6d2926c22442fee30f3ef509972eb0649b5e5a92e2a45a6e5215d8f5a014c6952210361fc58a1471231de3cc8055eaa317cf0a1bbe76b79f6c1019eb0e35d19e0d1682103ec0534c6426b8fe1c415574548e100a41edce6c97724cbd1cbd57e5ce242e47e2103ad6cf791566f140f93366fba54b5c5b44b85acf9c525d7859d38f3e57d8e4bbd53aeffffffff03ed9c2f8b6accf00284c3f6016d97e404c4f65111eeb27c71637ccd9ebc428a04000000fdfd000047304402200bb0d6b9c900112834f3b845d8739f96a74aead70a56777a88342f2575b7361e02202d230fcc271cc2c51b994447fd34c5c4c7b77d647eed842e804daf67ca48b660014830450221008613a69eed4e8a32499b8c48206bb067821fd068c7076c648e03bc14e31ece550220236887c75ab8af39b4bad47570bf3815a8793f123f6c0f66e4e0aff1f2afb9aa014c6952210361fc58a1471231de3cc8055eaa317cf0a1bbe76b79f6c1019eb0e35d19e0d1682103ec0534c6426b8fe1c415574548e100a41edce6c97724cbd1cbd57e5ce242e47e2103ad6cf791566f140f93366fba54b5c5b44b85acf9c525d7859d38f3e57d8e4bbd53aeffffffff0322d37d000000000017a9140d85ac096bc57dea930e8bde3a81a1594393f0be879d1d02000000000017a914d51c22cd04b54580787bedc86d7bec572e920e96872e206001000000001976a9143e93b597a8f0be78670102e72f464050418f68d188ac00000000",
    "size": 5180,
    "time": 1523890010,
    "valueOut": 0.31461613,
    "vin": [
        {
            "addr": "32vWqjRVmm98Wi2xzWtcW9kz3nGgnb5S9t",
            "utxo": [
                {
                    "choosen": 1,
                    "confirmations": 31,
                    "scriptPubKey": "a9140d85ac096bc57dea930e8bde3a81a1594393f0be87",
                    "txid": "75ed5ed763a0e026e17e33bfd03b88abd16825efee569af04b23e82a5bb374e4",
                    "type": "scripthash",
                    "value": 8589187,
                    "vout": 1
                },
                {
                    "choosen": 1,
                    "confirmations": 55,
                    "scriptPubKey": "a9140d85ac096bc57dea930e8bde3a81a1594393f0be87",
                    "txid": "ad782818b57239801b9af59d8478ff51378e8fabe5553f7944c870af97748247",
                    "type": "scripthash",
                    "value": 6156103,
                    "vout": 0
                },
                {
                    "choosen": 1,
                    "confirmations": 31,
                    "scriptPubKey": "a9140d85ac096bc57dea930e8bde3a81a1594393f0be87",
                    "txid": "75ed5ed763a0e026e17e33bfd03b88abd16825efee569af04b23e82a5bb374e4",
                    "type": "scripthash",
                    "value": 8589187,
                    "vout": 2
                },
                {
                    "choosen": 1,
                    "confirmations": 29,
                    "scriptPubKey": "a9140d85ac096bc57dea930e8bde3a81a1594393f0be87",
                    "txid": "8a42bc9ecd7c63717cb2ee1151f6c404e4976d01f6c38402f0cc6a8b2f9ced03",
                    "type": "scripthash",
                    "value": 8159019,
                    "vout": 4
                },
                {
                    "choosen": 0,
                    "confirmations": 0,
                    "scriptPubKey": "a9140d85ac096bc57dea930e8bde3a81a1594393f0be87",
                    "txid": "72f489f396f06073121e23c64c46c528e5fa136e5718be8ac789034e6a972349",
                    "type": "scripthash",
                    "value": 8246050,
                    "vout": 0
                },
                {
                    "choosen": 0,
                    "confirmations": 29,
                    "scriptPubKey": "a9140d85ac096bc57dea930e8bde3a81a1594393f0be87",
                    "txid": "b57fb2acd0a8f064d7d9b0565102b7bfe96e5c863361b03bfd609ad381d9afaa",
                    "type": "scripthash",
                    "value": 7948240,
                    "vout": 2
                },
                {
                    "choosen": 0,
                    "confirmations": 29,
                    "scriptPubKey": "a9140d85ac096bc57dea930e8bde3a81a1594393f0be87",
                    "txid": "b57fb2acd0a8f064d7d9b0565102b7bfe96e5c863361b03bfd609ad381d9afaa",
                    "type": "scripthash",
                    "value": 7948240,
                    "vout": 1
                },
                {
                    "choosen": 0,
                    "confirmations": 29,
                    "scriptPubKey": "a9140d85ac096bc57dea930e8bde3a81a1594393f0be87",
                    "txid": "8a42bc9ecd7c63717cb2ee1151f6c404e4976d01f6c38402f0cc6a8b2f9ced03",
                    "type": "scripthash",
                    "value": 8159019,
                    "vout": 3
                },
                {
                    "choosen": 0,
                    "confirmations": 29,
                    "scriptPubKey": "a9140d85ac096bc57dea930e8bde3a81a1594393f0be87",
                    "txid": "8a42bc9ecd7c63717cb2ee1151f6c404e4976d01f6c38402f0cc6a8b2f9ced03",
                    "type": "scripthash",
                    "value": 16318039,
                    "vout": 2
                },
                {
                    "choosen": 0,
                    "confirmations": 31,
                    "scriptPubKey": "a9140d85ac096bc57dea930e8bde3a81a1594393f0be87",
                    "txid": "75ed5ed763a0e026e17e33bfd03b88abd16825efee569af04b23e82a5bb374e4",
                    "type": "scripthash",
                    "value": 34356751,
                    "vout": 6
                },
                {
                    "choosen": 0,
                    "confirmations": 31,
                    "scriptPubKey": "a9140d85ac096bc57dea930e8bde3a81a1594393f0be87",
                    "txid": "75ed5ed763a0e026e17e33bfd03b88abd16825efee569af04b23e82a5bb374e4",
                    "type": "scripthash",
                    "value": 68713502,
                    "vout": 5
                }
            ]
        }
    ],
    "vout": [
        {
            "n": 0,
            "scriptPubKey": {
                "addresses": [
                    "32vWqjRVmm98Wi2xzWtcW9kz3nGgnb5S9t"
                ],
                "asm": "OP_HASH160 0d85ac096bc57dea930e8bde3a81a1594393f0be OP_EQUAL",
                "hex": "a9140d85ac096bc57dea930e8bde3a81a1594393f0be87",
                "type": "scripthash"
            },
            "spentHeight": null,
            "spentIndex": null,
            "spentTxId": null,
            "value": "0.08246050",
            "valueSat": 8246050
        },
        {
            "n": 1,
            "scriptPubKey": {
                "addresses": [
                    "3M7qZKh5KjFFVPBaxHUfUTzr6HchnJWg7Q"
                ],
                "asm": "OP_HASH160 d51c22cd04b54580787bedc86d7bec572e920e96 OP_EQUAL",
                "hex": "a914d51c22cd04b54580787bedc86d7bec572e920e9687",
                "type": "scripthash"
            },
            "spentHeight": null,
            "spentIndex": null,
            "spentTxId": null,
            "value": "0.00138653",
            "valueSat": 138653
        },
        {
            "n": 2,
            "scriptPubKey": {
                "addresses": [
                    "16hsqvHbgbuDtLACAxA8AsHiymDyRDSqby"
                ],
                "asm": "OP_DUP OP_HASH160 3e93b597a8f0be78670102e72f464050418f68d1 OP_EQUALVERIFY OP_CHECKSIG",
                "hex": "76a9143e93b597a8f0be78670102e72f464050418f68d188ac",
                "type": "pubkeyhash"
            },
            "spentHeight": null,
            "spentIndex": null,
            "spentTxId": null,
            "value": "0.23076910",
            "valueSat": 23076910
        }
    ]
}