{
    "_id": {
        "$oid": "5ad4b7ce4c372215dd13d6a6"
    },
    "fee": 2128,
    "id": "413d1514e9c1ab2875411c332d21d90349d68261789a67cb37314546657f883d",
    "raw": "01000000000102e220ad9f2d68dd5e6826fc73f49c648cd9daacf0753d8c405ca942fcc5879d6a010000002322002037c5349d7049f28478cf2f82b52cec5edcbc226dd642ed5ecda08c1196b0b226fdffffffab83eb0e17429f29b3e315215fd9aceacd679e0b849f5a56ceef3ba9eaba4fd7000000002322002037c5349d7049f28478cf2f82b52cec5edcbc226dd642ed5ecda08c1196b0b226fdffffff0201336c040000000017a914dd19242456bfecf5448ecee7424aff879e9bd58d87404b4c000000000017a914f634787c8b2850679ea03b76f723dbade9618b35870400483045022100dfe3ae06bd48af9da531d0f05750fa58cc94b069370ad33f45682895822b34e4022008a48c6d6d242e69dc1cdc6a7a1550b8d2e5faf036a3e13fc57a7e55b45f00f901473044022025751cf6fa78828324fce2ce9b8ce026fdb6b4ce2d06181684b146b989336d5902203a0a2278d27f379a7d49e91d39cdb6716eb3b8061c39c8585d0b5803354c235801475221028c9d3c2e0df0df3002e6f8b0bccd1940dbf61367cc8eb1331b86b172e056dd00210396e6d73c65307352f1dc9f2d80fb21230fb2fbf37c4fc25614506fb3ae43b10752ae04004830450221009607e046e83c144703363f83614e3aafba438cdb1376229de66b3ebfd192d06a0220464f9ebb8eb780bb4eae81f18b0395044f42f535181ee53970b3451b1465093901483045022100aaf0c99cf05232f53d402f36b900238f728b71a46ec807fb53c6ba932cd9bf1e022011dfaf9e027a0be2d9439bc659ced0503f33cb52368fee187e5ccc6998aee66201475221028c9d3c2e0df0df3002e6f8b0bccd1940dbf61367cc8eb1331b86b172e056dd00210396e6d73c65307352f1dc9f2d80fb21230fb2fbf37c4fc25614506fb3ae43b10752ae53e90700",
    "size": 2668,
    "time": 1523890121,
    "valueOut": 0.79199809,
    "vin": [
        {
            "addr": "339Yq6eWm2ybriJTggFTq2jStPWmxpDniP",
            "utxo": [
                {
                    "choosen": 1,
                    "confirmations": 606,
                    "scriptPubKey": "a9140ffcbd6ae4336c38f957d042368ab6d2e3368ab287",
                    "txid": "6a9d87c5fc42a95c408c3d75f0acdad98c649cf473fc26685edd682d9fad20e2",
                    "type": "scripthash",
                    "value": 9937,
                    "vout": 1
                },
                {
                    "choosen": 1,
                    "confirmations": 470,
                    "scriptPubKey": "a9140ffcbd6ae4336c38f957d042368ab6d2e3368ab287",
                    "txid": "d74fbaeaa93befce565a9f840b9e67cdeaacd95f2115e3b3299f42170eeb83ab",
                    "type": "scripthash",
                    "value": 79192000,
                    "vout": 0
                }
            ]
        }
    ],
    "vout": [
        {
            "n": 0,
            "scriptPubKey": {
                "addresses": [
                    "3Mr5Nn5cqSs4Lr4JiswP6n1p8meJk8vCNC"
                ],
                "asm": "OP_HASH160 dd19242456bfecf5448ecee7424aff879e9bd58d OP_EQUAL",
                "hex": "a914dd19242456bfecf5448ecee7424aff879e9bd58d87",
                "type": "scripthash"
            },
            "spentHeight": null,
            "spentIndex": null,
            "spentTxId": null,
            "value": "0.74199809",
            "valueSat": 74199809
        },
        {
            "n": 1,
            "scriptPubKey": {
                "addresses": [
                    "3Q8q1TZTFnqEfgoafGUnrGLfTHsuMeMXa7"
                ],
                "asm": "OP_HASH160 f634787c8b2850679ea03b76f723dbade9618b35 OP_EQUAL",
                "hex": "a914f634787c8b2850679ea03b76f723dbade9618b3587",
                "type": "scripthash"
            },
            "spentHeight": null,
            "spentIndex": null,
            "spentTxId": null,
            "value": "0.05000000",
            "valueSat": 5000000
        }
    ]
}