{
    "_id": {
        "$oid": "5ad4b9324c372215dd13d6a9"
    },
    "fee": 4114,
    "id": "5c22d5fa34ae0896a8ae7268d503d36bc9652e7cd2db19a819f8f02038bb227b",
    "raw": "0100000002c0331861cf2034e9ce5ab4cb2c274351b7e8598467b218e509d34dff8f5defb5010000008b483045022100ada032145b25363b182fda7f06de4220e9aaace8dc984d9552e747b49f3b7ea402205a4af4b70da846e733e9bd79a73bae26a11e8fad7ce5c51d74531bdc9675cdd20141049d2f7baadc5e7b37631b99277eda0fcbc05cf9975cdc7a1251412e0ef299f03dd35082a3a6525a3bf4594c38fb1ce1b31ff27aae9ca0dc8113dd1d5fad55e8acffffffff8e648b2f0f0d3bef126613b3c9f423162799d0c78f454d647456504f47a340ff000000008a47304402207917bba134870bbe9abd0c1ab6402a746ab213f696deb9b2ee81f401e695aecb022002c69fea03236b45d6927f1f1adf4e0dfc37d62646c56730de2e921df636f4420141049d2f7baadc5e7b37631b99277eda0fcbc05cf9975cdc7a1251412e0ef299f03dd35082a3a6525a3bf4594c38fb1ce1b31ff27aae9ca0dc8113dd1d5fad55e8acffffffff02440d0000000000001976a91409e397c25d2a4cead209dcf7da57f1e76d5a3a5888acffa00300000000001976a914f0d3f9b674fe122ebb3a0f0b4368862df291170688ac00000000",
    "size": 1748,
    "time": 1523890477,
    "valueOut": 0.00241219,
    "vin": [
        {
            "addr": "1uHj9pgnDGht8PT26VQo47YUgthaPrZei",
            "utxo": [
                {
                    "choosen": 1,
                    "confirmations": 6,
                    "scriptPubKey": "76a91409e397c25d2a4cead209dcf7da57f1e76d5a3a5888ac",
                    "txid": "b5ef5d8fff4dd309e518b2678459e8b75143272ccbb45acee93420cf611833c0",
                    "type": "pubkeyhash",
                    "value": 239295,
                    "vout": 1
                },
                {
                    "choosen": 1,
                    "confirmations": 95,
                    "scriptPubKey": "76a91409e397c25d2a4cead209dcf7da57f1e76d5a3a5888ac",
                    "txid": "ff40a3474f505674644d458fc7d099271623f4c9b3136612ef3b0d0f2f8b648e",
                    "type": "pubkeyhash",
                    "value": 6038,
                    "vout": 0
                },
                {
                    "choosen": 0,
                    "confirmations": 0,
                    "scriptPubKey": "76a91409e397c25d2a4cead209dcf7da57f1e76d5a3a5888ac",
                    "txid": "5c22d5fa34ae0896a8ae7268d503d36bc9652e7cd2db19a819f8f02038bb227b",
                    "type": "pubkeyhash",
                    "value": 3396,
                    "vout": 0
                },
                {
                    "choosen": 0,
                    "confirmations": 427,
                    "scriptPubKey": "76a91409e397c25d2a4cead209dcf7da57f1e76d5a3a5888ac",
                    "txid": "e01d56b02269d816e5725b0fdb175cbc59365b368392a75c373d3e10e5986a6e",
                    "type": "pubkeyhash",
                    "value": 1664,
                    "vout": 0
                },
                {
                    "choosen": 0,
                    "confirmations": 83759,
                    "scriptPubKey": "76a91409e397c25d2a4cead209dcf7da57f1e76d5a3a5888ac",
                    "txid": "c74f061933facd4fc3749da91944d41dc9491fe5e2e40f688ba1343c09195eeb",
                    "type": "pubkeyhash",
                    "value": 731,
                    "vout": 0
                }
            ]
        }
    ],
    "vout": [
        {
            "n": 0,
            "scriptPubKey": {
                "addresses": [
                    "1uHj9pgnDGht8PT26VQo47YUgthaPrZei"
                ],
                "asm": "OP_DUP OP_HASH160 09e397c25d2a4cead209dcf7da57f1e76d5a3a58 OP_EQUALVERIFY OP_CHECKSIG",
                "hex": "76a91409e397c25d2a4cead209dcf7da57f1e76d5a3a5888ac",
                "type": "pubkeyhash"
            },
            "spentHeight": null,
            "spentIndex": null,
            "spentTxId": null,
            "value": "0.00003396",
            "valueSat": 3396
        },
        {
            "n": 1,
            "scriptPubKey": {
                "addresses": [
                    "1NxP7MN6dQoUxZmjUErugw33tifCqehFdv"
                ],
                "asm": "OP_DUP OP_HASH160 f0d3f9b674fe122ebb3a0f0b4368862df2911706 OP_EQUALVERIFY OP_CHECKSIG",
                "hex": "76a914f0d3f9b674fe122ebb3a0f0b4368862df291170688ac",
                "type": "pubkeyhash"
            },
            "spentHeight": null,
            "spentIndex": null,
            "spentTxId": null,
            "value": "0.00237823",
            "valueSat": 237823
        }
    ]
}