{
    "_id": {
        "$oid": "5ad4ba104c372215dd13d6ab"
    },
    "fee": 29480,
    "id": "a1d23de451cf0a2cde1a396ab77af36c4f57e71bffc5f09dd4581ac0abbb2b3d",
    "raw": "010000000429f5fc2b37ecbeeb89c688cec05458cd63e2ff93a805ff76cfc4e7d5d90074258e0000006b483045022100a11d703b30e38b666b1df8dd8c22f7b12aa5439ae871216052f0272993d563e1022005fcfb19677c4e3ebf670fef57178ab7083c89305935628a6c8b2aaad04e7e5b012103c8eb80e54be5e41b9b6084435265a7da44a78bacdebdeb7c02092193a2a73b9effffffff4450b27ec565933f669159913b235efc8e41d8b04217c22bd1cb1d1238af8e5a8d0000006a473044022007f3bdab8a1c1e081c72dff0c53656d18f8dd148030692afb5fbd28045f9610102206a3b436769b60949f91cc3362388ef38b27d09a728bb63dfa359b85055147299012103c8eb80e54be5e41b9b6084435265a7da44a78bacdebdeb7c02092193a2a73b9effffffff44d7968408cf42f116369b74aa03437d48ba1b247790081efccaf466fb75ec5f8b0000006b483045022100d3d743605238113145c616b076741cbabd65c973c9a1d6ec846bcbfb734e46e202207ce942956efe2a0bb79db55cf96708b091b0b2c5972b2cc37d25664e61833a21012103c8eb80e54be5e41b9b6084435265a7da44a78bacdebdeb7c02092193a2a73b9effffffff397118bf64a3f2e205a22faa5c0adc2387008815545adda5d1089eed4f3b7df28b0000006b4830450221009ccd3503ce62082a75704b1983e69edfe090fdc4405f49df514b65b23360d55e02202f5f6f722b84fe894f061f1aea214901914dee0b67a2be5c0882f621535a5d64012103c8eb80e54be5e41b9b6084435265a7da44a78bacdebdeb7c02092193a2a73b9effffffff0278ed0000000000001976a91409090882a75848533b9cf7a06b7f6fb5f3ac1ef888ac404b4c000000000017a91464995f73832d6ff18c3ac1b275edb4ecc2af62298700000000",
    "size": 2668,
    "time": 1523890698,
    "valueOut": 0.05060792,
    "vin": [
        {
            "addr": "1AR8kXNcVuxj2grGfrBgLhBs6J3ApQEpyQ",
            "utxo": [
                {
                    "choosen": 1,
                    "confirmations": 1608,
                    "scriptPubKey": "76a914674995b8d83499ca026e060be5cea6bf1a61192588ac",
                    "txid": "257400d9d5e7c4cf76ff05a893ffe263cd5854c0ce88c689ebbeec372bfcf529",
                    "type": "pubkeyhash",
                    "value": 471697,
                    "vout": 142
                },
                {
                    "choosen": 1,
                    "confirmations": 1912,
                    "scriptPubKey": "76a914674995b8d83499ca026e060be5cea6bf1a61192588ac",
                    "txid": "5a8eaf38121dcbd12bc21742b0d8418efc5e233b915991663f9365c57eb25044",
                    "type": "pubkeyhash",
                    "value": 1258593,
                    "vout": 141
                },
                {
                    "choosen": 1,
                    "confirmations": 496,
                    "scriptPubKey": "76a914674995b8d83499ca026e060be5cea6bf1a61192588ac",
                    "txid": "5fec75fb66f4cafc1e089077241bba487d4303aa749b3616f142cf088496d744",
                    "type": "pubkeyhash",
                    "value": 1729932,
                    "vout": 139
                },
                {
                    "choosen": 1,
                    "confirmations": 2659,
                    "scriptPubKey": "76a914674995b8d83499ca026e060be5cea6bf1a61192588ac",
                    "txid": "f27d3b4fed9e08d1a5dd5a541588008723dc0a5caa2fa205e2f2a364bf187139",
                    "type": "pubkeyhash",
                    "value": 1630050,
                    "vout": 139
                }
            ]
        }
    ],
    "vout": [
        {
            "n": 0,
            "scriptPubKey": {
                "addresses": [
                    "1pmuNJQdT8Ko7LQDAUXEwctiPdpxZxiR8"
                ],
                "asm": "OP_DUP OP_HASH160 09090882a75848533b9cf7a06b7f6fb5f3ac1ef8 OP_EQUALVERIFY OP_CHECKSIG",
                "hex": "76a91409090882a75848533b9cf7a06b7f6fb5f3ac1ef888ac",
                "type": "pubkeyhash"
            },
            "spentHeight": null,
            "spentIndex": null,
            "spentTxId": null,
            "value": "0.00060792",
            "valueSat": 60792
        },
        {
            "n": 1,
            "scriptPubKey": {
                "addresses": [
                    "3ArwEG1oPYdEPKCawPD65mB15qoGAAxEUt"
                ],
                "asm": "OP_HASH160 64995f73832d6ff18c3ac1b275edb4ecc2af6229 OP_EQUAL",
                "hex": "a91464995f73832d6ff18c3ac1b275edb4ecc2af622987",
                "type": "scripthash"
            },
            "spentHeight": null,
            "spentIndex": null,
            "spentTxId": null,
            "value": "0.05000000",
            "valueSat": 5000000
        }
    ]
}