{
    "_id": {
        "$oid": "5ad4baab4c372215dd13d6ac"
    },
    "fee": 9196,
    "id": "fbd985944d0d05112c26378ee095228a54aea854fbcdf068c4f5e79edd67b552",
    "raw": "0200000002bd5ed576575c540e89e6c0d15fabb591e47ea2c7591cd2286005bf0b52ee6a59010000006a4730440220426bdc44d20eef3b5a35d8d9a7919f1ed413d7705ec7de9a4eef4e69f6339a0902200a09d1b6394d1ef54e6ba9679de0e0c2371cfe342cf82781ec41755d235c197001210267f42107df018c28fc6c3d6257b6322e5beb2a76610d70e40946021a52661763ffffffff0a26320e8648628d5d670e17e82ef345c37692f94aa9971b77b250c946322aab010000006b483045022100dd0e52b9591d29dee9bda34545d897953aa4e77b383761c5283eef719f21ba7f02207f534c755d18b2c6d8b81327dc355dc3d4b3e65d7410059ebb8239b63b9767af01210267f42107df018c28fc6c3d6257b6322e5beb2a76610d70e40946021a52661763ffffffff02fc5912000000000017a914458e1e37230cb6661ff0a5be0c86963b02f968cb878df70300000000001976a914bee7690cd496099253982448c3e72915b3f0e01688ac00000000",
    "size": 1484,
    "time": 1523890854,
    "valueOut": 0.01462665,
    "vin": [
        {
            "addr": "1JQQc81mHNH9YbFW3kFTENPEYAXnqNrYDr",
            "utxo": [
                {
                    "choosen": 1,
                    "confirmations": 20,
                    "scriptPubKey": "76a914bee7690cd496099253982448c3e72915b3f0e01688ac",
                    "txid": "596aee520bbf056028d21c59c7a27ee491b5ab5fd1c0e6890e545c5776d55ebd",
                    "type": "pubkeyhash",
                    "value": 236608,
                    "vout": 1
                },
                {
                    "choosen": 1,
                    "confirmations": 20,
                    "scriptPubKey": "76a914bee7690cd496099253982448c3e72915b3f0e01688ac",
                    "txid": "ab2a3246c950b2771b97a94af99276c345f32ee8170e675d8d6248860e32260a",
                    "type": "pubkeyhash",
                    "value": 1235253,
                    "vout": 1
                },
                {
                    "choosen": 0,
                    "confirmations": 0,
                    "scriptPubKey": "76a914bee7690cd496099253982448c3e72915b3f0e01688ac",
                    "txid": "fbd985944d0d05112c26378ee095228a54aea854fbcdf068c4f5e79edd67b552",
                    "type": "pubkeyhash",
                    "value": 259981,
                    "vout": 1
                },
                {
                    "choosen": 0,
                    "confirmations": 5,
                    "scriptPubKey": "76a914bee7690cd496099253982448c3e72915b3f0e01688ac",
                    "txid": "94656077b493cf0f2cbaa3e277c0d79a4b86b1c98be5b91671923e0e6bdfb759",
                    "type": "pubkeyhash",
                    "value": 283165,
                    "vout": 5
                },
                {
                    "choosen": 0,
                    "confirmations": 7,
                    "scriptPubKey": "76a914bee7690cd496099253982448c3e72915b3f0e01688ac",
                    "txid": "dcf9fc4efef0a104058b4098ae0f4f48077fd47cb7603f996a15988ed0f6fd7d",
                    "type": "pubkeyhash",
                    "value": 225836,
                    "vout": 1
                },
                {
                    "choosen": 0,
                    "confirmations": 7,
                    "scriptPubKey": "76a914bee7690cd496099253982448c3e72915b3f0e01688ac",
                    "txid": "7792a9f3e7491e9a50199d786ef65220d04306b3a0111a4b441ba09948c81c36",
                    "type": "pubkeyhash",
                    "value": 527184,
                    "vout": 1
                },
                {
                    "choosen": 0,
                    "confirmations": 9,
                    "scriptPubKey": "76a914bee7690cd496099253982448c3e72915b3f0e01688ac",
                    "txid": "85895ad0736180570ca7e951066918f91a6e367099c0f611d988d5138f54b078",
                    "type": "pubkeyhash",
                    "value": 606004,
                    "vout": 1
                },
                {
                    "choosen": 0,
                    "confirmations": 14,
                    "scriptPubKey": "76a914bee7690cd496099253982448c3e72915b3f0e01688ac",
                    "txid": "f45cfad3e6c6ef7902f3ba064110084138512331201a94f8c284d610e96f22ba",
                    "type": "pubkeyhash",
                    "value": 937189,
                    "vout": 1
                }
            ]
        }
    ],
    "vout": [
        {
            "n": 0,
            "scriptPubKey": {
                "addresses": [
                    "382noK9uH5AT9dwp9wwKc3aBgL6Vfdb3cz"
                ],
                "asm": "OP_HASH160 458e1e37230cb6661ff0a5be0c86963b02f968cb OP_EQUAL",
                "hex": "a914458e1e37230cb6661ff0a5be0c86963b02f968cb87",
                "type": "scripthash"
            },
            "spentHeight": null,
            "spentIndex": null,
            "spentTxId": null,
            "value": "0.01202684",
            "valueSat": 1202684
        },
        {
            "n": 1,
            "scriptPubKey": {
                "addresses": [
                    "1JQQc81mHNH9YbFW3kFTENPEYAXnqNrYDr"
                ],
                "asm": "OP_DUP OP_HASH160 bee7690cd496099253982448c3e72915b3f0e016 OP_EQUALVERIFY OP_CHECKSIG",
                "hex": "76a914bee7690cd496099253982448c3e72915b3f0e01688ac",
                "type": "pubkeyhash"
            },
            "spentHeight": null,
            "spentIndex": null,
            "spentTxId": null,
            "value": "0.00259981",
            "valueSat": 259981
        }
    ]
}