{
    "_id": {
        "$oid": "5ad4bb5b4c372215dd13d6ad"
    },
    "fee": 5400,
    "id": "b5748219dace502ab97875c95a98e2c42431d647d75fe8c9b02f6a72db02d7fd",
    "raw": "0100000002448cc4c176bdd783b823ff0e898535d0e462ba6caaee6670ac52611372f85f4c000000006a473044022027ab4d3a29725cad76a3213966c73eeb1849e7293909057681a58fad84bfab9e022063379bcf59a94a8c39798900d3261445455d08134ecbd972e3d47d05d7ef5c1c01210260fa50bde0e722c7244fff87eb4429aedbf3d8a56204e10e16102ac82ecbf449fefffffffbeec5a22749dface79e692a810846803a1d3ce34a5857474b8ea2bae87624bd010000006a47304402202cea2b81206c483cbb111273b35e29276d7787ac6af34a59931a31784816f9b602200a4508d9c1e0b518473ed0757459a3c4a2bbe9b8112a612263d81992cc7a7a2a01210260fa50bde0e722c7244fff87eb4429aedbf3d8a56204e10e16102ac82ecbf449feffffff0254823300000000001976a9148883b471729401894bd2aa9d081f49afcd100f5788aca05348000000000017a914e382cfd415cd1321942066cca383f0ef03fdde0f8754e90700",
    "size": 1480,
    "time": 1523891030,
    "valueOut": 0.081157,
    "vin": [
        {
            "addr": "1CKJsCZaZFMFfhxKjdxVvmTSKhjTVK27Uc",
            "utxo": [
                {
                    "choosen": 1,
                    "confirmations": 250,
                    "scriptPubKey": "76a9147c1fc8c8583bbeeca7195e11aac2e97850a6ee2288ac",
                    "txid": "4c5ff872136152ac7066eeaa6cba62e4d03585890eff23b883d7bd76c1c48c44",
                    "type": "pubkeyhash",
                    "value": 812100,
                    "vout": 0
                },
                {
                    "choosen": 1,
                    "confirmations": 149,
                    "scriptPubKey": "76a9147c1fc8c8583bbeeca7195e11aac2e97850a6ee2288ac",
                    "txid": "bd2476e8baa28e4b4757584ae33c1d3a804608812a699ee7acdf4927a2c5eefb",
                    "type": "pubkeyhash",
                    "value": 7309000,
                    "vout": 1
                }
            ]
        }
    ],
    "vout": [
        {
            "n": 0,
            "scriptPubKey": {
                "addresses": [
                    "1DSpg6xhhAqAH6yZci947ZbUXBRNtKi62b"
                ],
                "asm": "OP_DUP OP_HASH160 8883b471729401894bd2aa9d081f49afcd100f57 OP_EQUALVERIFY OP_CHECKSIG",
                "hex": "76a9148883b471729401894bd2aa9d081f49afcd100f5788ac",
                "type": "pubkeyhash"
            },
            "spentHeight": null,
            "spentIndex": null,
            "spentTxId": null,
            "value": "0.03375700",
            "valueSat": 3375700
        },
        {
            "n": 1,
            "scriptPubKey": {
                "addresses": [
                    "3NRz247jPfDmuzZD8iRu7m2cXSzAx7yZWE"
                ],
                "asm": "OP_HASH160 e382cfd415cd1321942066cca383f0ef03fdde0f OP_EQUAL",
                "hex": "a914e382cfd415cd1321942066cca383f0ef03fdde0f87",
                "type": "scripthash"
            },
            "spentHeight": null,
            "spentIndex": null,
            "spentTxId": null,
            "value": "0.04740000",
            "valueSat": 4740000
        }
    ]
}