{
    "_id": {
        "$oid": "5ad4bd8a4c372215dd13d6b1"
    },
    "fee": 128300,
    "id": "45ab81d5f907cdc1b1b03e763d2b4cbbc77ef14643e8a987e94f2f34181eafc9",
    "raw": "01000000022a87993727e7775ee3242d25e2848604d6474bd1c7ffd354abe136576316e101000000006f004730440220783fdb045116667f3a794f4fe63a65fc3e6d559209ba65cd39fcc9f7f4482a4a02207fe23e520b647839ad46f07fbfe4a44c4b24a023142363b1bc3d76430adc1ad90125512103dfb39af3c3a93ceb7a8f9b669e0a7f1c1a396f7f76641fd7edd8d2a1c6b8986a51ae00000000ffb149d16ff4bd4229a552fc07139651577f5f6626854dbe9e1ea8ba849bacdb0100000070004830450221009825c3b6e208258eb0ea323c718abf05d11e20cf97af450a05ea9e98d42f1da102204ffd5717ab3e0b11db0ee948e826d5f1d4e433459351d88f65228c9894f079b00125512103dfb39af3c3a93ceb7a8f9b669e0a7f1c1a396f7f76641fd7edd8d2a1c6b8986a51ae00000000028cf82f00000000001976a91484a142e3eeb99f1ae425df163624ca37174b3a6388aca0c161000000000017a914b4406d0906518c3c06922818e5a5a6dde49b572b8700000000",
    "size": 1524,
    "time": 1523891589,
    "valueOut": 0.0955038,
    "vin": [
        {
            "addr": "3J86jTu1scVMvgWyFb9upjeCswVPbpxdhb",
            "utxo": [
                {
                    "choosen": 1,
                    "confirmations": 1252,
                    "scriptPubKey": "a914b4406d0906518c3c06922818e5a5a6dde49b572b87",
                    "txid": "01e116635736e1ab54d3ffc7d14b47d6048684e2252d24e35e77e7273799872a",
                    "type": "scripthash",
                    "value": 6370000,
                    "vout": 0
                },
                {
                    "choosen": 1,
                    "confirmations": 2033,
                    "scriptPubKey": "a914b4406d0906518c3c06922818e5a5a6dde49b572b87",
                    "txid": "dbac9b84baa81e9ebe4d8526665f7f5751961307fc52a52942bdf46fd149b1ff",
                    "type": "scripthash",
                    "value": 3308680,
                    "vout": 1
                },
                {
                    "choosen": 0,
                    "confirmations": 0,
                    "scriptPubKey": "a914b4406d0906518c3c06922818e5a5a6dde49b572b87",
                    "txid": "45ab81d5f907cdc1b1b03e763d2b4cbbc77ef14643e8a987e94f2f34181eafc9",
                    "type": "scripthash",
                    "value": 6406560,
                    "vout": 1
                }
            ]
        }
    ],
    "vout": [
        {
            "n": 0,
            "scriptPubKey": {
                "addresses": [
                    "1D6HNxFEj2hz2Y8RNhitUTTFBurC3L2BoY"
                ],
                "asm": "OP_DUP OP_HASH160 84a142e3eeb99f1ae425df163624ca37174b3a63 OP_EQUALVERIFY OP_CHECKSIG",
                "hex": "76a91484a142e3eeb99f1ae425df163624ca37174b3a6388ac",
                "type": "pubkeyhash"
            },
            "spentHeight": null,
            "spentIndex": null,
            "spentTxId": null,
            "value": "0.03143820",
            "valueSat": 3143820
        },
        {
            "n": 1,
            "scriptPubKey": {
                "addresses": [
                    "3J86jTu1scVMvgWyFb9upjeCswVPbpxdhb"
                ],
                "asm": "OP_HASH160 b4406d0906518c3c06922818e5a5a6dde49b572b OP_EQUAL",
                "hex": "a914b4406d0906518c3c06922818e5a5a6dde49b572b87",
                "type": "scripthash"
            },
            "spentHeight": null,
            "spentIndex": null,
            "spentTxId": null,
            "value": "0.06406560",
            "valueSat": 6406560
        }
    ]
}