{
    "_id": {
        "$oid": "5ad4bd964c372215dd13d6b2"
    },
    "fee": 2244,
    "id": "9e0290bc2a81e48e8990c9130b1d5fc6fa0ac18e0bac475cf9d2e9a31c97e9a7",
    "raw": "0100000002a33a4718bc4e52ecce49ea67f00c176865c4caa88448c2b7a73301bafe879a1a130000006b483045022100e77542a858dc2ed79e96b9e37dcf4daaff417f3d06b4117995b7ed3552ebc8930220659921e7d1daffe410b25718a1e9d4d8c25e314c5485c1b80e869c4e26c3f1850121021f64eb186cbbc4c48a6e991062db69763ce4494efd49cdf283c953faa2698995ffffffff2f91dffbd015b71230265f216040c265de7a1dc66846ac81cebb35dabfd38a360e0000006a47304402201fa308f9f5f4ce2437fc1fe967256ef92924bad612d2af0a575b726cf3d5e4e502203a06855a01d34acd98ee8c799a7964d5c96a3726d0d84d6330c71f208891e12c0121021f64eb186cbbc4c48a6e991062db69763ce4494efd49cdf283c953faa2698995ffffffff018da93800000000001976a9145dbe780a4e8f7862cbe3a0e079d61efa2a27900988ac00000000",
    "size": 1356,
    "time": 1523891601,
    "valueOut": 0.03713421,
    "vin": [
        {
            "addr": "1Ke4Bt31Ba1WcKYEGrmg4h2h5hebAjRBhu",
            "utxo": [
                {
                    "choosen": 1,
                    "confirmations": 276,
                    "scriptPubKey": "76a914cc7450c843fb76941a3a03f2b436c38136e76a4988ac",
                    "txid": "1a9a87feba0133a7b7c24884a8cac46568170cf067ea49ceec524ebc18473aa3",
                    "type": "pubkeyhash",
                    "value": 2759160,
                    "vout": 19
                },
                {
                    "choosen": 1,
                    "confirmations": 2005,
                    "scriptPubKey": "76a914cc7450c843fb76941a3a03f2b436c38136e76a4988ac",
                    "txid": "368ad3bfda35bbce81ac4668c61d7ade65c24060215f263012b715d0fbdf912f",
                    "type": "pubkeyhash",
                    "value": 956505,
                    "vout": 14
                }
            ]
        }
    ],
    "vout": [
        {
            "n": 0,
            "scriptPubKey": {
                "addresses": [
                    "19Yg1rQqeEExGvDXgwERgTmWofTLDEHUjY"
                ],
                "asm": "OP_DUP OP_HASH160 5dbe780a4e8f7862cbe3a0e079d61efa2a279009 OP_EQUALVERIFY OP_CHECKSIG",
                "hex": "76a9145dbe780a4e8f7862cbe3a0e079d61efa2a27900988ac",
                "type": "pubkeyhash"
            },
            "spentHeight": null,
            "spentIndex": null,
            "spentTxId": null,
            "value": "0.03713421",
            "valueSat": 3713421
        }
    ]
}