{
    "_id": {
        "$oid": "5ad4bdd74c372215dd13d6b3"
    },
    "fee": 9074,
    "id": "d0c3a2a00bbb7ed8e96f0fa4a9314c6eaf5624d1bb2751959623764abc6dde15",
    "raw": "010000000001021f563b920232791b749748d4c573d93bea0bcb4d65d88de34ffdd98975405c22010000002322002032a56c6e9aec8e13c8c289e89b09fa20ccac90dc918d2411fc1a4359caf19c5fffffffff44051d2c67390b171a16428a29e74349817fe8abb9202ee868d288f96c654035050000002322002032a56c6e9aec8e13c8c289e89b09fa20ccac90dc918d2411fc1a4359caf19c5fffffffff02127f3b000000000017a914758732650af87220a7040166e6901b656a55a83187bb7207000000000017a91496caab0dbd9597d352072c08223ee2fcbb14fbad870400483045022100c35e372e1ceaee218a9a2e6b7244c92ca35794d6fe76dc77de17adff5b49fafd02201bfc0dbf6617ec8c6d855f13cc933f098b3ad1a4f24de4221ddca7c37752e39e01483045022100c77bb5f602ba8b503e4715bf1161f247b4657788c37b744b93f9b289a25fb4cd02203d10dbbdaeab39a02841550784c9a2d8aa2b9b7e3f1bb8d82974807da079dbf101475221025f49fa4faff38170d5355d0cafc02d86b158b81935725c84637a4d4070de5dd7210327b06310bbeb2482a81a12f6c8277beee68442b0ccc59f460bfb5a63357615b352ae0400483045022100c846710ec4f0240ea5e63ddc85fd046a9ea4a71254ff1fcdbca096857b083d2902205cd56155941d321b7f7db65b318d1cde123c4a6863474f0f3e33fec91427023501483045022100c89e9f8593df3bc3891d248596f0c9f405b5df8c3d8f90c8ca9d497590f63c9a0220787e2e1a966acb84afc265910177389577d88e7ffa779e4dfc1ad1d4625b406301475221025f49fa4faff38170d5355d0cafc02d86b158b81935725c84637a4d4070de5dd7210327b06310bbeb2482a81a12f6c8277beee68442b0ccc59f460bfb5a63357615b352ae00000000",
    "size": 2672,
    "time": 1523891666,
    "valueOut": 0.04387277,
    "vin": [
        {
            "addr": "3FSL4x4o6S1kZVz2zNtYSC1N8DK58bxxZJ",
            "utxo": [
                {
                    "choosen": 1,
                    "confirmations": 185,
                    "scriptPubKey": "a91496caab0dbd9597d352072c08223ee2fcbb14fbad87",
                    "txid": "225c407589d9fd4fe38dd8654dcb0bea3bd973c5d44897741b793202923b561f",
                    "type": "scripthash",
                    "value": 3734583,
                    "vout": 1
                },
                {
                    "choosen": 1,
                    "confirmations": 25,
                    "scriptPubKey": "a91496caab0dbd9597d352072c08223ee2fcbb14fbad87",
                    "txid": "3540656cf988d268e82e20b9abe87f814943e7298a42161a170b39672c1d0544",
                    "type": "scripthash",
                    "value": 661768,
                    "vout": 5
                },
                {
                    "choosen": 0,
                    "confirmations": 0,
                    "scriptPubKey": "a91496caab0dbd9597d352072c08223ee2fcbb14fbad87",
                    "txid": "d0c3a2a00bbb7ed8e96f0fa4a9314c6eaf5624d1bb2751959623764abc6dde15",
                    "type": "scripthash",
                    "value": 488123,
                    "vout": 1
                }
            ]
        }
    ],
    "vout": [
        {
            "n": 0,
            "scriptPubKey": {
                "addresses": [
                    "3CQSwdVgCw3JwKupquAEudvdwvjkdQonZ6"
                ],
                "asm": "OP_HASH160 758732650af87220a7040166e6901b656a55a831 OP_EQUAL",
                "hex": "a914758732650af87220a7040166e6901b656a55a83187",
                "type": "scripthash"
            },
            "spentHeight": null,
            "spentIndex": null,
            "spentTxId": null,
            "value": "0.03899154",
            "valueSat": 3899154
        },
        {
            "n": 1,
            "scriptPubKey": {
                "addresses": [
                    "3FSL4x4o6S1kZVz2zNtYSC1N8DK58bxxZJ"
                ],
                "asm": "OP_HASH160 96caab0dbd9597d352072c08223ee2fcbb14fbad OP_EQUAL",
                "hex": "a91496caab0dbd9597d352072c08223ee2fcbb14fbad87",
                "type": "scripthash"
            },
            "spentHeight": null,
            "spentIndex": null,
            "spentTxId": null,
            "value": "0.00488123",
            "valueSat": 488123
        }
    ]
}