{
    "_id": {
        "$oid": "5ad4be974c372215dd13d6b4"
    },
    "fee": 17420,
    "id": "40800f6e805c5ba6e789c8b7941ab86a98f9882a194a544c577e91c9d1fcda97",
    "raw": "0100000004588a1357e19894be8472f1bcabef067c97e0ea97e97cfdd5abf6bff9e5828809000000006b483045022100aebace6de08f63d0d2bdb96701e83461131a205a62909a3024513420f0b5566c02203bc0869dfba61ed137c8dc4adb5bc1ec4d138ef82185c4b6ecda6c202e7a04ad0121038352871dff160e6e9e001421e97420b28d660bb3162a0948cfffc268428850bdffffffffa6e5bf0c4a3fdfc68de16da8c16201ff29d6a4dd98a748f204e7dde680315d24010000006b483045022100b05b6986b8f0d081c2cf24892300af5e540690ee9307f7bc762805e0e480fd4d0220732af5d70d69a08c0397da97e794917e0082f2bf2064dd263fe9132abdac2b950121038352871dff160e6e9e001421e97420b28d660bb3162a0948cfffc268428850bdffffffffcb8fb67244aa59a4c2eae45b4a06878f5ec273545fd03e52cb6b58ad0c804c590f0000006b483045022100e3a05ebfd44adc875373989bcf405a48d254ab578b6e93f59765fbd26b0498f602205ee0f8d5a952aaa8da2161b21260b7f548fb6600246e557380f0642391cbf27f0121038352871dff160e6e9e001421e97420b28d660bb3162a0948cfffc268428850bdffffffff2411c8129aec04dbf3416d0ebc950bfe82389ba6b5ae5eab36094ea1b8a9498f010000006a47304402203348cdbb69e7bd1ffa4bc3a1219a2fb2d6aced4a5b3e68eab9a536c8c802383a022035e73b865c326cf87a2475f3b2150607ea633d6f50606162dd941a2aec8fb6370121038352871dff160e6e9e001421e97420b28d660bb3162a0948cfffc268428850bdffffffff01bc62d600000000001976a9144ceb407589406baee8ec831266fe5020afb2b32388ac00000000",
    "size": 2540,
    "time": 1523891858,
    "valueOut": 0.1404998,
    "vin": [
        {
            "addr": "1C7CPtvmCHzKEaXDruaJpr835KWWrpuxbw",
            "utxo": [
                {
                    "choosen": 1,
                    "confirmations": 39,
                    "scriptPubKey": "76a91479d56428cd2b91974452d2331f81e3024c7b7dd288ac",
                    "txid": "098882e5f9bff6abd5fd7ce997eae0977c06efabbcf17284be9498e157138a58",
                    "type": "pubkeyhash",
                    "value": 11110000,
                    "vout": 0
                },
                {
                    "choosen": 1,
                    "confirmations": 6,
                    "scriptPubKey": "76a91479d56428cd2b91974452d2331f81e3024c7b7dd288ac",
                    "txid": "245d3180e6dde704f248a798dda4d629ff0162c1a86de18dc6df3f4a0cbfe5a6",
                    "type": "pubkeyhash",
                    "value": 1443000,
                    "vout": 1
                },
                {
                    "choosen": 1,
                    "confirmations": 6,
                    "scriptPubKey": "76a91479d56428cd2b91974452d2331f81e3024c7b7dd288ac",
                    "txid": "594c800cad586bcb523ed05f5473c25e8f87064a5be4eac2a459aa4472b68fcb",
                    "type": "pubkeyhash",
                    "value": 585400,
                    "vout": 15
                },
                {
                    "choosen": 1,
                    "confirmations": 6,
                    "scriptPubKey": "76a91479d56428cd2b91974452d2331f81e3024c7b7dd288ac",
                    "txid": "8f49a9b8a14e0936ab5eaeb5a69b3882fe0b95bc0e6d41f3db04ec9a12c81124",
                    "type": "pubkeyhash",
                    "value": 929000,
                    "vout": 1
                }
            ]
        }
    ],
    "vout": [
        {
            "n": 0,
            "scriptPubKey": {
                "addresses": [
                    "181iBAJBJWbp4RETLhBDiiNuRmgcbp5c3B"
                ],
                "asm": "OP_DUP OP_HASH160 4ceb407589406baee8ec831266fe5020afb2b323 OP_EQUALVERIFY OP_CHECKSIG",
                "hex": "76a9144ceb407589406baee8ec831266fe5020afb2b32388ac",
                "type": "pubkeyhash"
            },
            "spentHeight": null,
            "spentIndex": null,
            "spentTxId": null,
            "value": "0.14049980",
            "valueSat": 14049980
        }
    ]
}