{
    "_id": {
        "$oid": "5ad4bf004c372215dd13d6b5"
    },
    "fee": 40000,
    "id": "8ef28935d58a52706949492bba00a6c3f608ef5aab4c73c195cddfc966bc8950",
    "raw": "01000000058b162d175f2e60ee856a8a949b1a4d1d28658d36e62933a2ab7feb7fd17b79880b0000006a47304402204e308f8715d855fe0dab3ef4689e78f0144097e31d54557123f0336b482af3110220227bd8665c3869355d600593895ab51a01fd18a6bdcb39c8d84733fdc9dbf958012102923aa763b2a51baae469cf77939aeaef0c497bbcc0b9b43ef85aa5073ded3dacffffffff56484f945968d82593a36363ba104037281b763e66bbd36a77ed097bef57014d0a0000006b483045022100e4c3673662e78c1c24f6e09b15d5b428422e4f5630ec2b3a1b1af4b88bf53abf022008b59d429754861b9a32d3982399d15c8ad707520fa63638984400d2ddbceaef012102923aa763b2a51baae469cf77939aeaef0c497bbcc0b9b43ef85aa5073ded3dacffffffffef3552aade038f80e307482b5c238874601ac93a7f0e04e058ddfae155fc667a140000006a473044022060465a860f06b6de3db6721397a59ef01220aa0fb4ef833509b66537e335fa55022023cd474c1d65bc1cfcbf468f348189b516f4eccd86831d52fd638be6864fda67012102923aa763b2a51baae469cf77939aeaef0c497bbcc0b9b43ef85aa5073ded3dacffffffffd6aa9b8828f66e9a2cc803784e27d697b13031c57cda6fb259faeb2930ffa20a070000006a473044022077d37f3afe2b836f1746a0ba4a578ddebc67be432a56cc8d376c18084f6c64820220320a2252a37ff900ee63eb55e79e6620181db52f533b00e280da57fe0896596c012102923aa763b2a51baae469cf77939aeaef0c497bbcc0b9b43ef85aa5073ded3dacffffffffd56f1bcd5cd1b691d97c44081a391e627b70fb8c03dc2a9adbf2856834e859a6000000006a47304402206bdf50d5c92056bd2899561b7bc359ffd7c9670be0ad67b5d267e155e385ba2e0220057c9d3baf09bc41bdfcb91fa7315e8354d87b04b05121e9d540e1624b0d39a0012102923aa763b2a51baae469cf77939aeaef0c497bbcc0b9b43ef85aa5073ded3dacffffffff01e0aa15000000000017a914eb4b5594b6551e18fac1edcc32527b4b72d8c0548700000000",
    "size": 3112,
    "time": 1523891963,
    "valueOut": 0.0142,
    "vin": [
        {
            "addr": "19ADckw2A9q9iYVZi3PeeVdZNsuebmm8eL",
            "utxo": [
                {
                    "choosen": 1,
                    "confirmations": 303,
                    "scriptPubKey": "76a914597f481aa3111c89bd045a89e6e6052bade45c3288ac",
                    "txid": "88797bd17feb7faba23329e6368d65281d4d1a9b948a6a85ee602e5f172d168b",
                    "type": "pubkeyhash",
                    "value": 40000,
                    "vout": 11
                },
                {
                    "choosen": 1,
                    "confirmations": 153,
                    "scriptPubKey": "76a914597f481aa3111c89bd045a89e6e6052bade45c3288ac",
                    "txid": "4d0157ef7b09ed776ad3bb663e761b28374010ba6363a39325d86859944f4856",
                    "type": "pubkeyhash",
                    "value": 100000,
                    "vout": 10
                },
                {
                    "choosen": 1,
                    "confirmations": 488,
                    "scriptPubKey": "76a914597f481aa3111c89bd045a89e6e6052bade45c3288ac",
                    "txid": "7a66fc55e1fadd58e0040e7f3ac91a607488235c2b4807e3808f03deaa5235ef",
                    "type": "pubkeyhash",
                    "value": 120000,
                    "vout": 20
                },
                {
                    "choosen": 1,
                    "confirmations": 153,
                    "scriptPubKey": "76a914597f481aa3111c89bd045a89e6e6052bade45c3288ac",
                    "txid": "0aa2ff3029ebfa59b26fda7cc53130b197d6274e7803c82c9a6ef628889baad6",
                    "type": "pubkeyhash",
                    "value": 400000,
                    "vout": 7
                },
                {
                    "choosen": 1,
                    "confirmations": 138,
                    "scriptPubKey": "76a914597f481aa3111c89bd045a89e6e6052bade45c3288ac",
                    "txid": "a659e8346885f2db9a2adc038cfb707b621e391a08447cd991b6d15ccd1b6fd5",
                    "type": "pubkeyhash",
                    "value": 800000,
                    "vout": 0
                }
            ]
        }
    ],
    "vout": [
        {
            "n": 0,
            "scriptPubKey": {
                "addresses": [
                    "3P98xwe2pSTnDw3GDi4yKndD7Yk8ntJqG9"
                ],
                "asm": "OP_HASH160 eb4b5594b6551e18fac1edcc32527b4b72d8c054 OP_EQUAL",
                "hex": "a914eb4b5594b6551e18fac1edcc32527b4b72d8c05487",
                "type": "scripthash"
            },
            "spentHeight": null,
            "spentIndex": null,
            "spentTxId": null,
            "value": "0.01420000",
            "valueSat": 1420000
        }
    ]
}