{
    "_id": {
        "$oid": "5ad4bf7f4c372215dd13d6b6"
    },
    "fee": 67450,
    "id": "7be89c044e5528c7591d3caab73d71df819dc00fdf3008d103bba39f72eacc96",
    "raw": "01000000044529007a2990285ccc0016476885c6793eb6ea38bec494f8b251accb130abb2f000000006a47304402206e05ca57089b61b4a2330b2783f3e9e6a73f65e324a89276a453e57672b3277d02201435ade9f295b6bffe67caac731d3ff7d05db8e61c197f37f3607bc555f11336012103bcc22be936ac44ca6e79d88ddf9416a90b7b1ec67f1dd9f878fd7dbc576333ebffffffff23e32b1580e64dd48e847bd3aa7de233c465ea4e54b3820c623e921d8669462c000000006b483045022100dfcda1b4117ffd727ddf821a1f70b1454221b981f5b2e83946d7fd2b3173283d022025338e304de0aabc41f5d4872f6f385f77f969150091cc850e16d1a5bfc44d73012103bcc22be936ac44ca6e79d88ddf9416a90b7b1ec67f1dd9f878fd7dbc576333ebffffffffb3c5aee41cc1924196b664084630af40f4638510875c9fdd01a09e8cd7780bc9010000006a4730440220354fa904eeb0466be0ead32c818554ae1d886d34b27370c8cace36a57576e706022046bd61a5db2bd2f1f357422b17085b6799288551974542a95aaf0e22ddcdee5c012103bcc22be936ac44ca6e79d88ddf9416a90b7b1ec67f1dd9f878fd7dbc576333ebffffffff14c0b5634f9c4adabc25c566d84990674f9361fc3ad496aecfbf7814fc8856be010000006b4830450221008e459d5eb745efc69fbfba9019e89c8550e4957a6c928ca8dd8437f20c647fe70220344ed35fee4757999d0dc6cea0b8e72fa067c23c27403d234f239e297e1f343c012103bcc22be936ac44ca6e79d88ddf9416a90b7b1ec67f1dd9f878fd7dbc576333ebffffffff0200e1f505000000001976a914646a37f340fedfac6f1482a01a602d18811aac2a88ac238c4900000000001976a914cfc08b9ff81c70b7114c6cdd29e80f3c9df14d1a88ac00000000",
    "size": 2672,
    "time": 1523892090,
    "valueOut": 1.04820003,
    "vin": [
        {
            "addr": "19evxSiBhWSYHCqvGpY6TAw5izKjj2TBrp",
            "utxo": [
                {
                    "choosen": 1,
                    "confirmations": 16578,
                    "scriptPubKey": "76a9145eed6fde838f8f1c128b4111209e9d88047022a088ac",
                    "txid": "2fbb0a13cbac51b2f894c4be38eab63e79c68568471600cc5c2890297a002945",
                    "type": "pubkeyhash",
                    "value": 52981726,
                    "vout": 0
                },
                {
                    "choosen": 1,
                    "confirmations": 22284,
                    "scriptPubKey": "76a9145eed6fde838f8f1c128b4111209e9d88047022a088ac",
                    "txid": "2c4669861d923e620c82b3544eea65c433e27daad37b848ed44de680152be323",
                    "type": "pubkeyhash",
                    "value": 6080000,
                    "vout": 0
                },
                {
                    "choosen": 1,
                    "confirmations": 20532,
                    "scriptPubKey": "76a9145eed6fde838f8f1c128b4111209e9d88047022a088ac",
                    "txid": "c90b78d78c9ea001dd9f5c87108563f440af30460864b6964192c11ce4aec5b3",
                    "type": "pubkeyhash",
                    "value": 18725727,
                    "vout": 1
                },
                {
                    "choosen": 1,
                    "confirmations": 22251,
                    "scriptPubKey": "76a9145eed6fde838f8f1c128b4111209e9d88047022a088ac",
                    "txid": "be5688fc1478bfcfae96d43afc61934f679049d866c525bcda4a9c4f63b5c014",
                    "type": "pubkeyhash",
                    "value": 27100000,
                    "vout": 1
                },
                {
                    "choosen": 0,
                    "confirmations": 22137,
                    "scriptPubKey": "76a9145eed6fde838f8f1c128b4111209e9d88047022a088ac",
                    "txid": "942235030b7551ebf0f7c5008936aec280de71ca468771a9da4b42636fc2576c",
                    "type": "pubkeyhash",
                    "value": 248578,
                    "vout": 1
                },
                {
                    "choosen": 0,
                    "confirmations": 22283,
                    "scriptPubKey": "76a9145eed6fde838f8f1c128b4111209e9d88047022a088ac",
                    "txid": "1e707d60e7d34d269142aaa0ae685aea6b5b30710709b69ed6efa15681998b27",
                    "type": "pubkeyhash",
                    "value": 3040000,
                    "vout": 0
                },
                {
                    "choosen": 0,
                    "confirmations": 22284,
                    "scriptPubKey": "76a9145eed6fde838f8f1c128b4111209e9d88047022a088ac",
                    "txid": "1854ce6992f1cc099787526942a45e571fde115949ca790b345a79d3f0db1f89",
                    "type": "pubkeyhash",
                    "value": 6080000,
                    "vout": 0
                },
                {
                    "choosen": 0,
                    "confirmations": 22284,
                    "scriptPubKey": "76a9145eed6fde838f8f1c128b4111209e9d88047022a088ac",
                    "txid": "33865c4f5cfffd3dbac4a1a836f9c962f00959c6ba28c2855d4d101823797d40",
                    "type": "pubkeyhash",
                    "value": 6080000,
                    "vout": 0
                },
                {
                    "choosen": 0,
                    "confirmations": 22284,
                    "scriptPubKey": "76a9145eed6fde838f8f1c128b4111209e9d88047022a088ac",
                    "txid": "7ce7bc3c7ecab43c0391964f480b9e05237cc123678b39b3622e01a8a9172a2d",
                    "type": "pubkeyhash",
                    "value": 3040000,
                    "vout": 0
                }
            ]
        }
    ],
    "vout": [
        {
            "n": 0,
            "scriptPubKey": {
                "addresses": [
                    "1A9wpNuTSkVvU3ZYn2hkGuDsDUej3sLbey"
                ],
                "asm": "OP_DUP OP_HASH160 646a37f340fedfac6f1482a01a602d18811aac2a OP_EQUALVERIFY OP_CHECKSIG",
                "hex": "76a914646a37f340fedfac6f1482a01a602d18811aac2a88ac",
                "type": "pubkeyhash"
            },
            "spentHeight": null,
            "spentIndex": null,
            "spentTxId": null,
            "value": "1.00000000",
            "valueSat": 100000000
        },
        {
            "n": 1,
            "scriptPubKey": {
                "addresses": [
                    "1KwVXzux9BnCFTtLABqyZuz8HoMm3N1nt5"
                ],
                "asm": "OP_DUP OP_HASH160 cfc08b9ff81c70b7114c6cdd29e80f3c9df14d1a OP_EQUALVERIFY OP_CHECKSIG",
                "hex": "76a914cfc08b9ff81c70b7114c6cdd29e80f3c9df14d1a88ac",
                "type": "pubkeyhash"
            },
            "spentHeight": null,
            "spentIndex": null,
            "spentTxId": null,
            "value": "0.04820003",
            "valueSat": 4820003
        }
    ]
}