{
    "_id": {
        "$oid": "5ad4c0d94c372215dd13d6b8"
    },
    "fee": 22284,
    "id": "33bf2035353e21f1088ba1b02f4bad71fa8ae391838f0a53b5426ca4d3b9f43b",
    "raw": "01000000037eb3df772943729071fdb87d9e2dbccccefa0d29268f100943cf2ebc9098c168040000006a47304402203f3b7bb662c97b3285975668e318c5b9b7d6fd9df859627a7d0e82ad215e7ec602205e7c7bfc153301767efed0d74cfa8210cf549c314e6574c4b5862cec9b2a3352012102a54b6c425a974cba19782ff7ae9d2f63c388b8d4e48e0f78cadae72bc48cb5f1ffffffff20b31a033c759fc1a8def286a8aa1b3fe9867b6913fd491a51ff469424c600b9010000006a473044022013b0994dfda33006d4329badf0c7d4a5b5d70fe227cc8eaebae139c23a32cd0902207f55ed705e0dc9bafb6c938d2fbd112aa697faa87ee39df7e36433b487ededbb012102a54b6c425a974cba19782ff7ae9d2f63c388b8d4e48e0f78cadae72bc48cb5f1ffffffff68b601f562b0f4c99907c4664027343c8c75a2b0370a766e1442b04224c3459b010000006a47304402201a7374b68af22ff2c291d8d809fdc0bfb75b58568efdd6bd18a3f84984cd359a02201eb4ae8e5013b1f26c2101c7bec9b6411ac2392a060f520715010b9ceff815ae012102a54b6c425a974cba19782ff7ae9d2f63c388b8d4e48e0f78cadae72bc48cb5f1ffffffff05a4c01300000000001976a9148aadfd301c6032cb845cc3dd0b57bd1247c1e6a288ac22c20200000000001976a914cbd0defdfdbd704fd4a2ad30a64d49dc3652adc288ace6e50b00000000001976a9147cd08052bb5e25a2ab6bab182cf216e64975923188acba360500000000001976a914ddbd9e1f2f35139ba6d5276d45e869eafba483df88ac0afa6801000000001976a914d5727f30c2e05e6301d381ff0a8b09421b7a07b988ac00000000",
    "size": 2484,
    "time": 1523892436,
    "valueOut": 0.2625368,
    "vin": [
        {
            "addr": "1LTc6Eu8s9fy2zpsJRUjRHBF12th43N9je",
            "utxo": [
                {
                    "choosen": 1,
                    "confirmations": 1,
                    "scriptPubKey": "76a914d5727f30c2e05e6301d381ff0a8b09421b7a07b988ac",
                    "txid": "68c19890bc2ecf4309108f26290dfaceccbc2d9e7db8fd719072432977dfb37e",
                    "type": "pubkeyhash",
                    "value": 89136,
                    "vout": 4
                },
                {
                    "choosen": 1,
                    "confirmations": 2,
                    "scriptPubKey": "76a914d5727f30c2e05e6301d381ff0a8b09421b7a07b988ac",
                    "txid": "b900c6249446ff511a49fd13697b86e93f1baaa886f2dea8c19f753c031ab320",
                    "type": "pubkeyhash",
                    "value": 1266828,
                    "vout": 1
                },
                {
                    "choosen": 1,
                    "confirmations": 2,
                    "scriptPubKey": "76a914d5727f30c2e05e6301d381ff0a8b09421b7a07b988ac",
                    "txid": "9b45c32442b042146e760a37b0a2758c3c34274066c40799c9f4b062f501b668",
                    "type": "pubkeyhash",
                    "value": 24920000,
                    "vout": 1
                },
                {
                    "choosen": 0,
                    "confirmations": 0,
                    "scriptPubKey": "76a914d5727f30c2e05e6301d381ff0a8b09421b7a07b988ac",
                    "txid": "33bf2035353e21f1088ba1b02f4bad71fa8ae391838f0a53b5426ca4d3b9f43b",
                    "type": "pubkeyhash",
                    "value": 23656970,
                    "vout": 4
                },
                {
                    "choosen": 0,
                    "confirmations": 71,
                    "scriptPubKey": "76a914d5727f30c2e05e6301d381ff0a8b09421b7a07b988ac",
                    "txid": "2bae1afb5f5e66dcbb58516740ecdaa45fd05d1f08f68e162b669070fb739e6f",
                    "type": "pubkeyhash",
                    "value": 6191608,
                    "vout": 1
                }
            ]
        }
    ],
    "vout": [
        {
            "n": 0,
            "scriptPubKey": {
                "addresses": [
                    "1DeGgSbbfzrEpGLWNkZg5o3id7RAwEzZ6n"
                ],
                "asm": "OP_DUP OP_HASH160 8aadfd301c6032cb845cc3dd0b57bd1247c1e6a2 OP_EQUALVERIFY OP_CHECKSIG",
                "hex": "76a9148aadfd301c6032cb845cc3dd0b57bd1247c1e6a288ac",
                "type": "pubkeyhash"
            },
            "spentHeight": null,
            "spentIndex": null,
            "spentTxId": null,
            "value": "0.01294500",
            "valueSat": 1294500
        },
        {
            "n": 1,
            "scriptPubKey": {
                "addresses": [
                    "1KagPZLJcj6Rc2BavmVumgnZJrR95g7VTk"
                ],
                "asm": "OP_DUP OP_HASH160 cbd0defdfdbd704fd4a2ad30a64d49dc3652adc2 OP_EQUALVERIFY OP_CHECKSIG",
                "hex": "76a914cbd0defdfdbd704fd4a2ad30a64d49dc3652adc288ac",
                "type": "pubkeyhash"
            },
            "spentHeight": null,
            "spentIndex": null,
            "spentTxId": null,
            "value": "0.00180770",
            "valueSat": 180770
        },
        {
            "n": 2,
            "scriptPubKey": {
                "addresses": [
                    "1CNxZi6vDFKQ2coViJM5rZiiVmG94CYSyv"
                ],
                "asm": "OP_DUP OP_HASH160 7cd08052bb5e25a2ab6bab182cf216e649759231 OP_EQUALVERIFY OP_CHECKSIG",
                "hex": "76a9147cd08052bb5e25a2ab6bab182cf216e64975923188ac",
                "type": "pubkeyhash"
            },
            "spentHeight": null,
            "spentIndex": null,
            "spentTxId": null,
            "value": "0.00779750",
            "valueSat": 779750
        },
        {
            "n": 3,
            "scriptPubKey": {
                "addresses": [
                    "1MDTVG88wktw87fr7Y9LR2HBF13cYtouP3"
                ],
                "asm": "OP_DUP OP_HASH160 ddbd9e1f2f35139ba6d5276d45e869eafba483df OP_EQUALVERIFY OP_CHECKSIG",
                "hex": "76a914ddbd9e1f2f35139ba6d5276d45e869eafba483df88ac",
                "type": "pubkeyhash"
            },
            "spentHeight": null,
            "spentIndex": null,
            "spentTxId": null,
            "value": "0.00341690",
            "valueSat": 341690
        },
        {
            "n": 4,
            "scriptPubKey": {
                "addresses": [
                    "1LTc6Eu8s9fy2zpsJRUjRHBF12th43N9je"
                ],
                "asm": "OP_DUP OP_HASH160 d5727f30c2e05e6301d381ff0a8b09421b7a07b9 OP_EQUALVERIFY OP_CHECKSIG",
                "hex": "76a914d5727f30c2e05e6301d381ff0a8b09421b7a07b988ac",
                "type": "pubkeyhash"
            },
            "spentHeight": null,
            "spentIndex": null,
            "spentTxId": null,
            "value": "0.23656970",
            "valueSat": 23656970
        }
    ]
}