{
    "_id": {
        "$oid": "5ad4c1be4c372215dd13d6b9"
    },
    "fee": 10000,
    "id": "9a8cddbe69580fcd6dcbb19fc232f1a58bd6325e90a7d4fc664ec67c23eadda8",
    "raw": "0100000003843a284b6c0baf3f679621860aff5fba57dd1ffe0d265e6b561ee77f2d564771000000006a473044022052a6aa2e797c8539b6ceb85b6e69970f6b706c7f6a19668c17425c8e24159e7f022036e05833baceaecefe8c59f778c7154236d2c25c5a1b6f615eb168bcb1a4cd60012103356eb04d4dc9da76a9d50df4985138345c1ac98dc3d2a82cb1faca292e680934fdffffffd9a519f993bf3bee7d3411c03b645eb3eac26672d4493a1e93675ad0363e82ac1c0000006a47304402200f11b90e8bcebd6be3b133102956fa0b5fc1bf99d6a2ada599f5f6e297d33b40022001ab0b6326550e4999d41c91f965ac8a7eb110c719052b75e38cd884fdbd1845012103356eb04d4dc9da76a9d50df4985138345c1ac98dc3d2a82cb1faca292e680934fdffffffd62512d4a1e02aa1b28f2ac48328ad5c9515c97b2cb4a3584e865b04a71808d9000000006b483045022100e015a05c3bbbcd0e1950584521de4d3c141a94b2a1942e4495b2dee5410afbc80220090841bb22294f8107e08cbadf8253963f4e6a0847d0e93eba49a208b7ef2e6f012103356eb04d4dc9da76a9d50df4985138345c1ac98dc3d2a82cb1faca292e680934fdffffff02fd170100000000001976a91480b4de4b4b93e215fd1507aa1937ee0b0b4e337c88ac604ba009000000001976a914f94052d73747dae9eff2b8e5de2f3b74ed6b16fa88ac57e90700",
    "size": 2080,
    "time": 1523892664,
    "valueOut": 1.61571677,
    "vin": [
        {
            "addr": "1CjYAWPGt7QLAHtGK1Hs6qwExYTGYHy2Jv",
            "utxo": [
                {
                    "choosen": 1,
                    "confirmations": 24013,
                    "scriptPubKey": "76a91480b4de4b4b93e215fd1507aa1937ee0b0b4e337c88ac",
                    "txid": "7147562d7fe71e566b5e260dfe1fdd57ba5fff0a862196673faf0b6c4b283a84",
                    "type": "pubkeyhash",
                    "value": 1000000,
                    "vout": 0
                },
                {
                    "choosen": 1,
                    "confirmations": 20565,
                    "scriptPubKey": "76a91480b4de4b4b93e215fd1507aa1937ee0b0b4e337c88ac",
                    "txid": "ac823e36d05a67931e3a49d47266c2eab35e643bc011347dee3bbf93f919a5d9",
                    "type": "pubkeyhash",
                    "value": 25739347,
                    "vout": 28
                },
                {
                    "choosen": 1,
                    "confirmations": 24013,
                    "scriptPubKey": "76a91480b4de4b4b93e215fd1507aa1937ee0b0b4e337c88ac",
                    "txid": "d90818a7045b864e58a3b42c7bc915955cad2883c42a8fb2a12ae0a1d41225d6",
                    "type": "pubkeyhash",
                    "value": 134842330,
                    "vout": 0
                },
                {
                    "choosen": 0,
                    "confirmations": 0,
                    "scriptPubKey": "76a91480b4de4b4b93e215fd1507aa1937ee0b0b4e337c88ac",
                    "txid": "9a8cddbe69580fcd6dcbb19fc232f1a58bd6325e90a7d4fc664ec67c23eadda8",
                    "type": "pubkeyhash",
                    "value": 71677,
                    "vout": 0
                },
                {
                    "choosen": 0,
                    "confirmations": 2,
                    "scriptPubKey": "76a91480b4de4b4b93e215fd1507aa1937ee0b0b4e337c88ac",
                    "txid": "7b845a9c8e11cddd7d84eb9cc23dcce1198aca8c631edc4e4b9cff056e8f2f46",
                    "type": "pubkeyhash",
                    "value": 1000000,
                    "vout": 0
                }
            ]
        }
    ],
    "vout": [
        {
            "n": 0,
            "scriptPubKey": {
                "addresses": [
                    "1CjYAWPGt7QLAHtGK1Hs6qwExYTGYHy2Jv"
                ],
                "asm": "OP_DUP OP_HASH160 80b4de4b4b93e215fd1507aa1937ee0b0b4e337c OP_EQUALVERIFY OP_CHECKSIG",
                "hex": "76a91480b4de4b4b93e215fd1507aa1937ee0b0b4e337c88ac",
                "type": "pubkeyhash"
            },
            "spentHeight": null,
            "spentIndex": null,
            "spentTxId": null,
            "value": "0.00071677",
            "valueSat": 71677
        },
        {
            "n": 1,
            "scriptPubKey": {
                "addresses": [
                    "1PivK3m9cEdTPS8dpjLFNo5V9CjfwS8nmX"
                ],
                "asm": "OP_DUP OP_HASH160 f94052d73747dae9eff2b8e5de2f3b74ed6b16fa OP_EQUALVERIFY OP_CHECKSIG",
                "hex": "76a914f94052d73747dae9eff2b8e5de2f3b74ed6b16fa88ac",
                "type": "pubkeyhash"
            },
            "spentHeight": null,
            "spentIndex": null,
            "spentTxId": null,
            "value": "1.61500000",
            "valueSat": 161500000
        }
    ]
}