{
    "_id": {
        "$oid": "5ad4c5ad4c372215dd13d6bc"
    },
    "fee": 100000,
    "id": "2eb7074c6a7f231d0b313d0cea4ff6dd7fcab963e6c220ef1109b9e161bf138a",
    "raw": "0200000002ccdb8fbf2fb0cc144012b934c8fe555bdf041795e3a37ed6dafbf602ee32e9fa000000006b483045022100d104756cfd99a1795b36d21b7354009cad5f835c691b69bc99009c4fe279edc502207ae5cdfd552a0148ccead9be6806968d77b493df017aa83a69042d500afbc5fb0121020f3762160412332d74fafbb55584f0e9e9e6555eec691947c53d197d60b7b44bffffffffe793c3a1990aa153d1e34e4f001459add346ebcfe190c933ae986647adc1472e010000006b483045022100ad84a4af65c8ecf9d3706751c232dd5d1d85346b0b76ddab589eafad48f1ef7502204695906f2e9d5488aa87ba88971ef75b756d487e98558205170fc684973ecfbe0121020f3762160412332d74fafbb55584f0e9e9e6555eec691947c53d197d60b7b44bffffffff01f05d5200000000001976a9142231f5718562aa33897e38d2dc8bcecd089fc39f88ac00000000",
    "size": 1360,
    "time": 1523893672,
    "valueOut": 0.05398,
    "vin": [
        {
            "addr": "1B6XUyRmi2LLjZ63wt3eP2TJ5BoPBZXx1J",
            "utxo": [
                {
                    "choosen": 1,
                    "confirmations": 24705,
                    "scriptPubKey": "76a9146ebcc8717ff80fd6f6e3a8c7c7c34abd550bdbf188ac",
                    "txid": "fae932ee02f6fbdad67ea3e3951704df5b55fec834b9124014ccb02fbf8fdbcc",
                    "type": "pubkeyhash",
                    "value": 100000,
                    "vout": 0
                },
                {
                    "choosen": 1,
                    "confirmations": 795,
                    "scriptPubKey": "76a9146ebcc8717ff80fd6f6e3a8c7c7c34abd550bdbf188ac",
                    "txid": "2e47c1ad476698ae33c990e1cfeb46d3ad5914004f4ee3d153a10a99a1c393e7",
                    "type": "pubkeyhash",
                    "value": 5398000,
                    "vout": 1
                }
            ]
        }
    ],
    "vout": [
        {
            "n": 0,
            "scriptPubKey": {
                "addresses": [
                    "147opieG3e6xJZHGLrQvM8wbxdAJY2rLdq"
                ],
                "asm": "OP_DUP OP_HASH160 2231f5718562aa33897e38d2dc8bcecd089fc39f OP_EQUALVERIFY OP_CHECKSIG",
                "hex": "76a9142231f5718562aa33897e38d2dc8bcecd089fc39f88ac",
                "type": "pubkeyhash"
            },
            "spentHeight": null,
            "spentIndex": null,
            "spentTxId": null,
            "value": "0.05398000",
            "valueSat": 5398000
        }
    ]
}