{
    "_id": {
        "$oid": "5ad4c6024c372215dd13d6bd"
    },
    "fee": 100000,
    "id": "3eb2f9159e021020cee64c8d536cb30dc83dfea995bb99328828de4ca95e4687",
    "raw": "02000000025ae1761c0cc1975b206e43f7439bff9f0d9bd0b08eef5f0a43719f947dc2a3d4000000006b483045022100d1b499fde2d98a71aa6fa7914b7b1d2c08b46589dfe4ca2ff44e4498a130953202206a0c1ae1e3ab824d70218ea1c2d794a541792d7d98460db88c4e38d4aec5e04001210220b8477652541b2c353fb302a940d3163d8246ce0df61ec6f0c0062f7f8f6676ffffffff6eb5680d7ec63a4e49c86dfdebd55e406f8bbc4250c7981b6b001542e4c35b7a010000006b483045022100e8e96c24ace1022e9c8ca95566824f2d45469298e82c887dec5b0e0884c3e28a022033da4b173f3565ed68624d0e50b6c88de3e1a109f283ffb0e1b528767aa437fa01210220b8477652541b2c353fb302a940d3163d8246ce0df61ec6f0c0062f7f8f6676ffffffff02a0860100000000001976a914fc88ba0d6fbce3e73a4220fd78a62ef3c8448e0588ac603bea0b0000000017a914f86926ddf697a88a7352c22e07eb647d6c8a208b8700000000",
    "size": 1488,
    "time": 1523893757,
    "valueOut": 2,
    "vin": [
        {
            "addr": "1Q2H5HT6NpGXmCXNDwHcUoRWVdSjibZteD",
            "utxo": [
                {
                    "choosen": 1,
                    "confirmations": 3652,
                    "scriptPubKey": "76a914fc88ba0d6fbce3e73a4220fd78a62ef3c8448e0588ac",
                    "txid": "d4a3c27d949f71430a5fef8eb0d09b0d9fff9b43f7436e205b97c10c1c76e15a",
                    "type": "pubkeyhash",
                    "value": 100000,
                    "vout": 0
                },
                {
                    "choosen": 1,
                    "confirmations": 777,
                    "scriptPubKey": "76a914fc88ba0d6fbce3e73a4220fd78a62ef3c8448e0588ac",
                    "txid": "7a5bc3e44215006b1b98c75042bc8b6f405ed5ebfd6dc8494e3ac67e0d68b56e",
                    "type": "pubkeyhash",
                    "value": 200000000,
                    "vout": 1
                },
                {
                    "choosen": 0,
                    "confirmations": 0,
                    "scriptPubKey": "76a914fc88ba0d6fbce3e73a4220fd78a62ef3c8448e0588ac",
                    "txid": "3eb2f9159e021020cee64c8d536cb30dc83dfea995bb99328828de4ca95e4687",
                    "type": "pubkeyhash",
                    "value": 100000,
                    "vout": 0
                },
                {
                    "choosen": 0,
                    "confirmations": 5090,
                    "scriptPubKey": "76a914fc88ba0d6fbce3e73a4220fd78a62ef3c8448e0588ac",
                    "txid": "7f5ba34a44644b306067d09cecfd039c6721d24920b8eac65b710dc1de381ddb",
                    "type": "pubkeyhash",
                    "value": 112051,
                    "vout": 0
                }
            ]
        }
    ],
    "vout": [
        {
            "n": 0,
            "scriptPubKey": {
                "addresses": [
                    "1Q2H5HT6NpGXmCXNDwHcUoRWVdSjibZteD"
                ],
                "asm": "OP_DUP OP_HASH160 fc88ba0d6fbce3e73a4220fd78a62ef3c8448e05 OP_EQUALVERIFY OP_CHECKSIG",
                "hex": "76a914fc88ba0d6fbce3e73a4220fd78a62ef3c8448e0588ac",
                "type": "pubkeyhash"
            },
            "spentHeight": null,
            "spentIndex": null,
            "spentTxId": null,
            "value": "0.00100000",
            "valueSat": 100000
        },
        {
            "n": 1,
            "scriptPubKey": {
                "addresses": [
                    "3QLVUCEgsfc7WsXanPQsuvEJDqKQmrrQaE"
                ],
                "asm": "OP_HASH160 f86926ddf697a88a7352c22e07eb647d6c8a208b OP_EQUAL",
                "hex": "a914f86926ddf697a88a7352c22e07eb647d6c8a208b87",
                "type": "scripthash"
            },
            "spentHeight": null,
            "spentIndex": null,
            "spentTxId": null,
            "value": "1.99900000",
            "valueSat": 199900000
        }
    ]
}