{
    "_id": {
        "$oid": "5ad4cb594c372215dd13d6be"
    },
    "fee": 7873,
    "id": "0cfa32d986977e67ca0dbf73de2f6e2dab8bf5e298e3a444fa7fe1c7c5a7a8ff",
    "raw": "0100000003717561027eccccc4bba82bbe6e3b1fb0852b60c954d95abcb4d6287bbaf4cb63010000006b483045022100a277ce4f06edc4fbfb5fa1003c31294fdaee6110d82c271ecd273bf850c1419402207dccd2fcde599c82f90e7eafd7b228cb4342d0a54c38f2b3e6c177c28ded7b15012102295aeb572d96f902781c1aa234cadc39968827fcaacc805b1c9dae9d7d830ec4ffffffff31735020a2c6f01aa7c405b00922ba3d14c3c8afd56050cb0f127eeb406f62ca010000006b483045022100ec4e8f27bba6bf0cbcd95f9511ce60a65b8d3c12d7d6769c1cb99761644b09d2022063203e8720bfb6362e92e8305c52b75933ecad646a2e6db19fcbaf4d888a0c6e012102295aeb572d96f902781c1aa234cadc39968827fcaacc805b1c9dae9d7d830ec4ffffffffe0145defe3da4ad614d78c8bd6a036a605c4cd47f05fa8fd308036c8d50f8adc010000006b483045022100e30935e917e1ba3ccd3321f3c5e090ff1c9f0defca4846e2f7ac7cff6627cb020220602e8418c7358f1aa2642bd15662310180a1aad74ec20aacd295eafb4cbea855012102295aeb572d96f902781c1aa234cadc39968827fcaacc805b1c9dae9d7d830ec4ffffffff02cb7e0300000000001976a914f4c8a5c45def667844190a4824f2e7f93f98439588ac348ab6010000000017a914d06a791d803911367f75e3f8c7f6b4bb45adb93b8700000000",
    "size": 2080,
    "time": 1523895125,
    "valueOut": 0.28969215,
    "vin": [
        {
            "addr": "1PKJF3PkGH8ABEzFUcke4ovPyN74o3YAJo",
            "utxo": [
                {
                    "choosen": 1,
                    "confirmations": 104,
                    "scriptPubKey": "76a914f4c8a5c45def667844190a4824f2e7f93f98439588ac",
                    "txid": "63cbf4ba7b28d6b4bc5ad954c9602b85b01f3b6ebe2ba8bbc4cccc7e02617571",
                    "type": "pubkeyhash",
                    "value": 6310895,
                    "vout": 1
                },
                {
                    "choosen": 1,
                    "confirmations": 261,
                    "scriptPubKey": "76a914f4c8a5c45def667844190a4824f2e7f93f98439588ac",
                    "txid": "ca626f40eb7e120fcb5060d5afc8c3143dba2209b005c4a71af0c6a220507331",
                    "type": "pubkeyhash",
                    "value": 14533267,
                    "vout": 1
                },
                {
                    "choosen": 1,
                    "confirmations": 404,
                    "scriptPubKey": "76a914f4c8a5c45def667844190a4824f2e7f93f98439588ac",
                    "txid": "dc8a0fd5c8368030fda85ff047cdc405a636a0d68b8cd714d64adae3ef5d14e0",
                    "type": "pubkeyhash",
                    "value": 8132926,
                    "vout": 1
                },
                {
                    "choosen": 0,
                    "confirmations": 0,
                    "scriptPubKey": "76a914f4c8a5c45def667844190a4824f2e7f93f98439588ac",
                    "txid": "0cfa32d986977e67ca0dbf73de2f6e2dab8bf5e298e3a444fa7fe1c7c5a7a8ff",
                    "type": "pubkeyhash",
                    "value": 229067,
                    "vout": 0
                },
                {
                    "choosen": 0,
                    "confirmations": 444,
                    "scriptPubKey": "76a914f4c8a5c45def667844190a4824f2e7f93f98439588ac",
                    "txid": "23c3c1a1f5e27bc4c2f0cc0a38d3d3946ddb6a6bdbe8a9b19a93685e377417a2",
                    "type": "pubkeyhash",
                    "value": 84685,
                    "vout": 0
                },
                {
                    "choosen": 0,
                    "confirmations": 4207,
                    "scriptPubKey": "76a914f4c8a5c45def667844190a4824f2e7f93f98439588ac",
                    "txid": "c524e2f2c8981884e1e3fc65b7fa409207166e45e3c117abde5a126d2ff42cb8",
                    "type": "pubkeyhash",
                    "value": 9000,
                    "vout": 0
                }
            ]
        }
    ],
    "vout": [
        {
            "n": 0,
            "scriptPubKey": {
                "addresses": [
                    "1PKJF3PkGH8ABEzFUcke4ovPyN74o3YAJo"
                ],
                "asm": "OP_DUP OP_HASH160 f4c8a5c45def667844190a4824f2e7f93f984395 OP_EQUALVERIFY OP_CHECKSIG",
                "hex": "76a914f4c8a5c45def667844190a4824f2e7f93f98439588ac",
                "type": "pubkeyhash"
            },
            "spentHeight": null,
            "spentIndex": null,
            "spentTxId": null,
            "value": "0.00229067",
            "valueSat": 229067
        },
        {
            "n": 1,
            "scriptPubKey": {
                "addresses": [
                    "3Lh22KqbXGZKaJDtzL6pj2QfpP1xL4yv3b"
                ],
                "asm": "OP_HASH160 d06a791d803911367f75e3f8c7f6b4bb45adb93b OP_EQUAL",
                "hex": "a914d06a791d803911367f75e3f8c7f6b4bb45adb93b87",
                "type": "scripthash"
            },
            "spentHeight": null,
            "spentIndex": null,
            "spentTxId": null,
            "value": "0.28740148",
            "valueSat": 28740148
        }
    ]
}